:02000004000FEB
:10800000A84D002019CB0F0021CB0F0035AB0F007E
:1080100025CB0F0027CB0F0029CB0F00000000005D
:108020000000000000000000000000002BCB0F004B
:108030002DCB0F00000000002FCB0F0031CB0F0025
:1080400033CB0F00C7B40F0073C40F0033CB0F0046
:1080500033CB0F0033CB0F0033CB0F0033CB0F00EC
:1080600033CB0F0033CB0F0033CB0F00CD900F007D
:1080700033CB0F0033CB0F0033CB0F0033CB0F00CC
:1080800033CB0F0033CB0F0033CB0F0033CB0F00BC
:1080900087B40F0005C40F00D5820F00D9820F00EE
:1080A00033CB0F0033CB0F0033CB0F0033CB0F009C
:1080B00033CB0F0033CB0F000000000000000000A6
:1080C00033CB0F0033CB0F0033CB0F0033CB0F007C
:1080D00033CB0F0033CB0F0033CB0F0033CB0F006C
:1080E00033CB0F0033CB0F0033CB0F000000000069
:1080F0000000000033CB0F000000000033CB0F0066
:10810000000000000000000000000000000000006F
:10811000000000000000000000000000000000005F
:10812000000000000000000000000000000000004F
:10813000000000000000000000000000000000003F
:10814000000000000000000000000000000000002F
:10815000000000000000000000000000000000001F
:10816000000000000000000000000000000000000F
:1081700000000000000000000000000000000000FF
:1081800000000000000000000000000000000000EF
:1081900000000000000000000000000000000000DF
:1081A00000000000000000000000000000000000CF
:1081B00000000000000000000000000000000000BF
:1081C00000000000000000000000000000000000AF
:1081D000000000000000000000000000000000009F
:1081E000000000000000000000000000000000008F
:1081F000000000000000000000000000000000007F
:1082000000F002F800F03CF80AA090E8000C82446C
:108210008344AAF10107DA4501D100F031F8AFF249
:10822000090EBAE80F0013F0010F18BFFB1A43F054
:1082300001031847AC4E0000EC4E0000103A24BF7A
:1082400078C878C1FAD8520724BF30C830C144BFBB
:1082500004680C60704700000023002400250026FD
:10826000103A28BF78C1FBD8520728BF30C148BF99
:108270000B6070471FB504F02AFE1FBD10B510BD7E
:1082800004F0EBFD1146FFF7F5FF02F056FC04F099
:1082900009FE03B4FFF7F2FF03BC04F011FE000077
:1082A000056885F308884068FF2464B2EFF305850C
:1082B000002D01D1A64600472546064621273FBA94
:1082C000F0B40024002500260027F0B4F92040B2C5
:1082D0000047000004F0F8BA30B58BB000244FF02E
:1082E000005551E09DF80000641C0128019806D05B
:1082F0000299A8423ED3FF2204F05BFD3CE08007D8
:1083000002D0002010B104E00120FBE7002002F0C1
:108310000BFC0398800702D0002010B104E001207C
:10832000FBE7002002F000FC0298800702D000204A
:1083300010B104E00120FBE7002002F0F5FB0198FA
:10834000A8420DD30146002006E0029B0A781B5C80
:108350001A4001F8012B401C039A8242F5D804E030
:10836000DDE90212002302F09DFD60208DF810006F
:10837000029805E002F06AFD61208DF81000019876
:10838000059004A800F0B0FA6946F84802F066FBD0
:108390000028A7D02CB162208DF8100004A800F0AE
:1083A000A3FAF24802F0B7FBF1490978084208D075
:1083B000122000F040FD044604F01DF9206800F092
:1083C000C1FE0BB030BD00B587B002F0BAFC00288A
:1083D0000FD081884FF6EF7291420AD902218DF8B1
:1083E0000010011D01910078C01E0290684600F047
:1083F0007BFA07B000BD7FB50446122000F01BFDDC
:108400000546062C0AD003DC44B1012C04D105E05A
:10841000082C29D00A2C01D072B6FEE7002D1ED000
:1084200001F09EFE00281AD0D04802F074FBB8B1CB
:1084300002F0BAFA02F072FDCE480FC88DE80F00C4
:10844000684618DF08B102F06FFB286813DF08B137
:1084500002F06AFB04F0CFF8286800F073FE7FBDDD
:10846000C349012008707FBD04B00020BDE8704002
:1084700002F05ABB00F038BA30B504460078012546
:1084800089B0252870D00EDC22286ED006DC0228A8
:108490006CD0202819D0212814D173E023286FD064
:1084A00024280FD1D4E00021612849D006DC5028CF
:1084B00067D051287ED0602804D10CE062283BD0E0
:1084C000702854D0062009B030BD2079FFF793FF03
:1084D00001F0D2FCE8E06846009102F079FB002848
:1084E00069D0009802F0EBFB0098017821F00F01B1
:1084F000891C00F8011B217A0A3100F8091B16219A
:1085000000F8011BE42100F8011BFE2100F803190B
:10851000217AC91C00F8041BD4E9011204F0D2FB33
:10852000237B627BA17B009803F001F8044600984E
:1085300002F098FBB4B1B7E0207903F04BF8B3E058
:1085400078208DF80100D4E901120DF1020004F049
:10855000B9FB207A401C8DF80000684603F06AFFE2
:10856000002816D10320AEE776E04EE043E0A06895
:10857000814A410CC003002304F0EEFA022164E0BA
:1085800060E093E000F0A1F92079022802D00128F0
:1085900007D089E023208DF80000684600F0A4F998
:1085A00025716179A01D02F03BF968B3022000F04B
:1085B00042FC01E059E072E000B1012010B9002056
:1085C00002F0B2FA69482021183801704FF0FF31EB
:1085D000016161790171D4F80610C0F80510D4F872
:1085E0000A10C0F80910E189A0F80D1009B0BDE823
:1085F000304000F079B92079022855D101F0B0FD62
:1086000010B9022000F009FF4EE0207902284BD17A
:1086100000F05BF921208DF80000D4F80700CDF8B8
:108620000500D4F80B00CDF80900B4F80F00ADF840
:108630000D00A0798DF8040060690490684600F090
:1086400053F931E001214FF4202000F02BF92BE009
:1086500001214FF47020F8E76079042801D0012847
:1086600022D10020FFF7C7FE1EE02079800702D14B
:10867000207A800701D0102025E7207B800701D0D9
:10868000092020E78DF80050241D01AB94E8070075
:1086900083E807006946354802F0B8F908B10420BC
:1086A00011E7172000F0F1F800200CE702208DF808
:1086B0000000E9E770B588B000F029FD18212B48CB
:1086C00004F0A1FB2949294818310825016010212F
:1086D000C0E9011502F08CF92849602081F80004F6
:1086E0004FF0E021280501260024C1F8000100F028
:1086F0009DF908B102F018FA21488DF80C6002903B
:108700008DF80D508DF800408DF804608DF80E4006
:10871000684600F0E9F808B102F006FA04F0AAF899
:108720001849194802F0D3FE06A800F058FE9DF83B
:108730001800002801D01548046008B070BDF0B5DD
:108740008BB004F0A3F801208DF8100004A800F00D
:10875000CBF802F090FE01F003FDC8B103214FF405
:10876000A02000F09FF80BB0F0BD000058000020E2
:1087700004000020D8CE0F0040420F0017E000E0B8
:1087800079840F00D6BE898EC7830F001C05004078
:10879000042000F050FB0546122000F04CFB074679
:1087A000102000F048FB0446022000F036FE0028AE
:1087B000D9D04FF0FF3600962878400705D53868A5
:1087C0000068401C01D1401F00902878C00709D0E4
:1087D00020680068401C05D1606818B1009820F03E
:1087E000010000900098401C03D06946042000F06E
:1087F000A8FB01F085FC0500B5D000F00EFE0528B1
:10880000B1D1022000F017FB041E00D0012010B9E6
:10881000002002F089F9012D0AD0042D0CD00B2084
:1088200002F082F9324601A9284601F043FB9AE79B
:108830002088ADF80400F5E7241D01AB94E807009B
:1088400083E80700EEE730B5244D002487B0687850
:10885000012812D002280AD0032812D0082002F0E2
:1088600063F96C70684600F03FF807B030BD032034
:108870008DF800008DF80440F3E723208DF8000008
:10888000EFE70020FFF7B7FDEFE7002809DB00F076
:108890001F02012191404009800000F1E020C0F852
:1088A000001270470E4A0023C2F844310D4B1B687A
:1088B00018440C4B20F07F40403318604FF40030D8
:1088C000C2F8040305484170704705494FF4003071
:1088D000C1F80803014900204870704704000020D7
:1088E00000B0004004B5004030B50446007889B0BF
:1088F0004FF47F25232869D012DC7C4904284DD011
:1089000007DC18B301283CD002283DD0032817D13A
:1089100041E020284ED0212852D0222810D112E048
:1089200032286AD006DC242853D0302855D031288C
:1089300006D159E0602866D061286AD062286DD0DF
:10894000062002F0F1F8062009B030BDA0684860AA
:10895000A07B40B100200870207B10B1607B022812
:1089600003D20720F0E70120F5E74FF47E212846E7
:1089700000F01FFA08B10320E6E7607B01F067FA18
:1089800052E001F079FA4FE02089012281B260685B
:1089900001F0C1FAD8E701F08DFB45E00020241D6D
:1089A0008DF800001DCC01AD85E81D0049686846C2
:1089B0008847C9E72079611D226901F07BFAC3E786
:1089C0002079611D226901F08BFABDE701F0E2FB1D
:1089D0002AE0207900F021FDB6E7A08800F02BFA0C
:1089E000A06008BB0520AFE7D4E90212A08800F020
:1089F0003DFAA84218D21020A6E7A08800F0B7FAE6
:108A00000028A1D110E0606801F070FE01206168CB
:108A100001E00220616800F0BEFA05E000F0E7FA2C
:108A200000F027FD01F0B8FB00208DE74FF08050EB
:108A3000D0F80C012E4901EB8020AFF253110160F8
:108A40002A4901200870002070472849496801B16F
:108A500008470820704700B589B020218DF8040030
:108A60008DF800106846FFF7F0FF09B000BD70B543
:108A70008AB016460D46044624221E49684604F074
:108A800066F901A9684681E87000FFF7DEFF0AB0C9
:108A900070BD30B50D46174989B0044624222431F3
:108AA000684604F054F96846CDE90145FFF7CDFF6B
:108AB0004AE700B589B062218DF804008DF80010F6
:108AC0006846FFF7C2FFD0E78AB001238DF8003077
:108AD00001AB83E807006846FFF7B7FF72B6FEE711
:108AE0000248007880F001007047000000FD03207C
:108AF000FCFFFF1FE8CE0F0070B504460078FF288A
:108B000015D02044002347F6FF754FF4006604F5A6
:108B100080540EE0028800EB8200A04207D8428811
:108B2000AA4201D18A4202D15B1CB34201D9002082
:108B300070BD42888A42EDD1001D70BD2DE9F04123
:108B4000F84D04462869844202D0102001F0ECFF61
:108B5000EFF3108000F0010272B628694FF6FF7340
:108B600000889842E868018801D1491C01E0268804
:108B7000314401802088EC4904EB8000A1F180049D
:108B80002861884200D12C6128694688A6F5FE47F5
:108B9000FF3F07D106889E4204D1001D286188420C
:108BA00000D12C61002A00D162B6BDE8F0810188B5
:108BB000DD4A00EB8100DB499042C86002D1A2F19E
:108BC0008000C8600969884209D00A1AC2F38F027E
:108BD0000280814201D22032028000214180704710
:108BE0002DE9F0410146EFF3108000F0010572B667
:108BF000CC4BDC68B4F800C0B1EB8C0F01D86088B6
:108C000018B105B962B60020CFE7C74E1869002732
:108C1000803EC1F38F02844204D1DE601E610FE00A
:108C200062B614E0301B8030814212D9C0EB8C0C4C
:108C30008C45E6D347F6FF71618080082080DE60B6
:108C4000328077803046FFF7B2FF002DE8D0304603
:108C5000ABE722802046FFF7AAFF05B962B620469F
:108C6000A3E710B5B04C022004222070D4E9010122
:108C7000FFF7FDFE002801D00120207610BD70B561
:108C8000A94D26E04888A0F57F42FF3A27D0D8B109
:108C900009888C0012F5004100D1042428690119CB
:108CA000686800F58050814202D9032001F03CFF42
:108CB000D5E903102246FFF7DAFE002813D1E86851
:108CC0006861286920442861E868018800EB810018
:108CD000E860D5E9020100F580508142D2D301203D
:108CE00028760420287070BD70B58F4C22780AB1A8
:108CF000082070BDC4E901010121217089490125C5
:108D0000497819B92903FFF7C4FE00B12576002080
:108D100070BD70B5054683480C460078012802D026
:108D2000002212B104E00122FBE7002001F0FCFE6A
:108D300021462846FFF7E0FE00F080F918B1BDE8B3
:108D4000704000F06DB9052070BD2DE9F047DB1CC7
:108D5000089E824623F0030505EB8600914688466F
:108D6000001DFFF73DFF040021D046B16019074602
:108D7000FF22082104F01DF847F6FF70F880EF1D70
:108D8000B8082080A4F802802A464946201D03F036
:108D9000DEFF27F0030000EB860221465046FFF776
:108DA00066FE08B101F0C0FE0020BDE8F087042097
:108DB000FBE770B55B4C002540EA01022570120507
:108DC00001D0102070BD0646C4E90101564880213B
:108DD000803804F018F8544820218038E060206181
:108DE0000180304600F037F9064660611C214E488C
:108DF00004F009F86570AEB9A06800F02CF9050020
:108E000014D04FF480516068FFF743FE08B101F0C1
:108E10008BFEA16860686A1A121DFFF728FE08B170
:108E200001F082FE01202070002070BD0B2070BD7B
:108E30003C484068704701464FF47F205CE610B51F
:108E4000384C2078012800D0002010B9002001F013
:108E50006BFE042020706168081D6061A068FFF748
:108E600043FF002801D10321217010BD2DE9F843F3
:108E70002C4E8146154630788846012800D00020C7
:108E800010B9002001F050FE542D01D8012000E05F
:108E9000002010B9002001F047FE307D800702D08D
:108EA000002010B104E00120FBE7002001F03CFEAF
:108EB0007069B0F57F2F01D9012000E0002010B9C2
:108EC000002001F031FE4846FFF7B5FF00F0B6F88C
:108ED0007469074644B171686019083001F5805122
:108EE000884203D3082017E00E2015E0012070709F
:108EF00000902B46424649462046FFF726FF50B9D0
:108F0000ED1D716925F003000844706177B13846A2
:108F100000F086F850B1042001F006FE0020BDE804
:108F2000F883000008FD0320B8FD03207069716814
:108F3000583001F58051884201D3FFF780FF201D92
:108F4000EDE738B50C460546FFF775FF00F076F8FB
:108F500058B101886FF0030202EB810300210091F8
:108F600022462946FFF7F1FE38BD052038BD0146EF
:108F70004FF47F20CDE652480078012800D0002031
:108F800070474F480178012901D1407808B100208D
:108F900070470120704770B505460C46012808D17E
:108FA0004848844205D38030844202D20846FFF705
:108FB000C5FD2146284600F059F842488030007827
:108FC00000280BD13E4C2078032808D0052805D175
:108FD000606800F040F860610120207070BDD4E945
:108FE0000101FFF781FE0028F8D10520F5E734489C
:108FF000002234494270C0688031428008780028DD
:109000000DD00B7E002B0AD00A76012802D0022850
:1090100005D126E648684FF48051FFF73ABD704706
:1090200010B50446810702D0102001F07DFD2046D6
:10903000BDE8104004222449FFF719BD48B1B0F53E
:10904000801F06D01E4949684978494200EB8100DB
:1090500070470020704710B547F6FF71FFF74CFDD1
:10906000002802D0BDE81040E8E710BD30B4154C30
:109070008034234622785B68012A0ED0022A12D05F
:10908000032A1BD0042A06D1012804D16069884232
:1090900001D10020207030BC70470228FBD18B42E8
:1090A000F9D130BCDDE50128F5D1A0688842F2D1C4
:1090B0000321001D21701B1DC4E9030330BCDEE544
:1090C00008FD032038FD032030CF0F0070B51A4C87
:1090D000D4F84001002538B1D4F80403C00303D507
:1090E000C4F8405102F08FFAD4F8440100280DD0A2
:1090F000D4F80403800309D5C4F844514FF4003078
:10910000C4F80803BDE87040FFF79DBB70BD0B4974
:109110000020086008484FF44031C0F84413012192
:10912000816001600649202081F800044FF0E021B1
:109130008001C1F80001704700B0004008B5004050
:109140000BE000E0FFF7ACB82DE9F041D14E04464A
:109150008AB030788846C043099009A90420FFF7F7
:10916000F0FE30780127012828D0002502280FD0F2
:10917000042843D00B2001F0D7FCFC2188F8131001
:10918000307841462030FFF7DCFE0AB0BDE8F081C0
:109190001120FFF750FE0168D4E9000203F066FDDC
:1091A0000028EAD001F000FC62B60095206801902A
:1091B000606880080290684618DF18E01020FFF70A
:1091C0003AFEC8B101686268206803F04FFD0028CC
:1091D000D3D001F0E9FB62B6009720680190606887
:1091E000800803904FF480500290684618DF0028F2
:1091F000CBD001F099FCC8E70E20FAE7FFF770FC2E
:10920000A0B101F0D1FBA4494FF00F100860A348B2
:109210000560BFF34F8FA2490868A24A00F4E060DE
:1092200010430860BFF34F8F00BFFDE71220FFF728
:1092300002FE051E00D0012010B9002001F074FCD0
:109240002888000502D0002010B104E00120FBE7CF
:10925000002001F069FC50208DF800002868019082
:10926000606800F6FF706FF30B0002906846FFF72E
:10927000ECFB68B951208DF800002068029060680E
:109280000390286801906846FFF7DFFB002888D02C
:1092900077707AE72DE9F0437E4EBFB07468002CFA
:1092A0006DD0EFF3108000F0010872B65422214611
:1092B000684603F04CFDE07C0125F82855D0FC28D9
:1092C00013D0FE280BD0FF2855D17570FE208DF8E5
:1092D0001300307869462030FFF733FE4BE075709D
:1092E00069462046FFF730FF45E00220FFF7A3FD67
:1092F00081460420FFF79FFD07465FEA090000D082
:10930000012010B9002001F00FFC0E2249462AA8C6
:1093100003F01DFDB7B3386815903078012838D0B8
:1093200002283ED0042848D000270B2001F0FCFB87
:109330000E222AA90220FFF799FDD8B1A07C30B1F6
:10934000402204F114013846FFF790FD90B1042249
:1093500015A91046FFF78AFD60B1F8208DF81300BB
:10936000307869462030FFF7ECFD30782030FFF789
:10937000FEFD80B37570B8F1000F00D162B63FB04A
:10938000BDE8F083FFE7FF22042115A803F011FDDB
:10939000C3E72089ADF8A80015981A2740F001000E
:1093A00009E0207A8DF8AA00607A8DF8AB00159854
:1093B0001B2740F002001590BAE7A0682B90A08907
:1093C000ADF8B000D4F80E00CDF8B20015981C2707
:1093D00040F00400EFE7FFE700207060CBE770B5D6
:1093E0002C4E0546012404F1200080B2FFF723FD36
:1093F00050B1C17CFF2907D034707060FFF74AFF7D
:10940000002D09D0012006E06400042CEBD90020D7
:109410007060002D00D0287070BD70B50446012822
:1094200005D0042C03D0022C01D0072070BD194DAB
:10943000686808B1082070BD04F12000FFF7FBFC4C
:1094400048B101680968491C05D02C706860FFF7B5
:1094500021FF002070BD052070BD10B52030FFF742
:10946000EAFC10B1C07CFF2801D0002010BD012013
:1094700010BD08484168002905D04178002902D074
:109480000021417006E7704702484068002800D07C
:109490000120704720FD0320000400401C0500400F
:1094A0000CED00E00400FA0510B50420FFF7C3FC42
:1094B000FE4C20610220FFF7BEFC20601220FFF767
:1094C000BAFCE0601120FFF7B6FCA0601020FFF7A7
:1094D000B2FC60600120FFF7AEFC606120694FF4D0
:1094E0007F2188420BD32068884208D3E0688842F5
:1094F00005D36068884202D3A068884204D2BDE8E0
:1095000010400820FFF7A7BA10BD01468068421C32
:1095100000D10020CA6800F00F0000EB8200012299
:10952000401E098A02EB101009B100EB1110B0F5D2
:10953000803F01D34FF6FF70704770B5DC4D8AB0A5
:109540006C78EE78B44200D20CB901246C706024BF
:109550008DF80040CDE901018DF80C208DF80D301B
:1095600068788DF80E006846FFF76FFA002802D180
:109570006978491C69700AB070BD30B5CB4CA5B094
:109580006069E8B3A4F17405E86900283BD0684637
:1095900002F05BFE0122691D684602F06FFE0422A4
:1095A000A4F16401684602F069FE0422A4F15C01A2
:1095B000684602F063FE00208DF89000012224A985
:1095C000684602F05BFE6879A4F10E0101281CD008
:1095D00002281AD0042803D10A22684602F04EFE5F
:1095E000684601F076F800221CA9684602F070FE79
:1095F000AE4A1CA9543A606902F0FCFB002800E066
:1096000000E000D0012025B030BD0222E5E7F0B532
:109610008FB007461821684603F0F5FB0F26022598
:10962000002427B34FF6FD70ADF800009F489DF869
:1096300003107438027990F8713062F3020163F319
:10964000C3018DF8031003680193994B1B78072B16
:1096500017D021F010018DF8031050F8661F029109
:109660004168039100890326ADF8100001253800F8
:109670006F4609D0012813D0022818D003281ED124
:1096800036E041F01001E6E74FF6FE70ADF800005D
:10969000864810240E220168B81C03F013FB0EE06C
:1096A0009DF80200122420F00F00001D05E09DF837
:1096B00002000A2420F00F00401C8DF802006020F8
:1096C0008DF81800CDE907748DF824508DF82560C9
:1096D00000208DF8260006A8FFF7B7F961208DF865
:1096E0001800CDE9077406A8FFF7AFF90FB0F0BD79
:1096F0009DF802000A2420F00F00801CDDE770B501
:10970000044600880323A0F57F42FC3A02D160881A
:1097100000B9062300222046FFF70FFF050002D103
:10972000204601F018F9284670BD70B55F4B002443
:10973000743B05461C719C614FF6FF709C60A3F85A
:109740006200A3F8644083F87040DC611C605D71C6
:109750002A4603F1660000F0DBFF5549022008703D
:10976000284600F03EFDBDE8704050E72DE9F04787
:109770004F49A8B0042008700146FF22684603F054
:1097800018FB4A4E743E7079012839D0022840D027
:10979000042839D0072001F0C7F9D6E90201DFF823
:1097A0000C814FF00109814266D042484FF0FF35ED
:1097B0000024D0E90210CDE915100DF1540A3AF851
:1097C0001400FFF738FB070013D0D7E90001B36995
:1097D000F26801F0DBF840B109FA04F0203080B201
:1097E000FFF7C5FB08B101F09FF93868A84200D225
:1097F0000546641C032CE2D3B169F068431837E0D6
:10980000009820F0010002E0009820F00400009091
:10981000C3E7009820F00200F9E70168491C26D050
:10982000D8F8041044460A68824207D249681144B5
:10983000814203D9009921F001010091A1680A68D1
:10984000824207D249681144814203D9009921F02C
:1098500002010091D8F80C100A68824207D24968C8
:109860001144814203D9009921F004010091001DA7
:10987000834201D9A842D0D30C4CD6E902010E3C58
:1098800088420CD1D8F810004546F8B1694604204A
:10989000FFF757FB18B170792146FFF746FF96F89E
:1098A0007030D6E90201B26906E0000048FE0320EC
:1098B00028FD032034CF0F0000F0E0FD68B170797F
:1098C0002146FFF732FF28B0BDE8F0870422694641
:1098D0001046FFF7CBFA2861E1E762208DF87800A7
:1098E00000208DF87C001EA8FFF7AFF823208DF82C
:1098F00054008DF8589070798DF85900D6F86600AC
:10990000CDF85A00D6F86A00CDF85E00B6F86E00C1
:10991000ADF8620015A8FFF798F8D4E700B589B054
:1099200021218DF80010817801F00F018DF80510CC
:10993000FA4909788DF80410817801F00F0200F1DE
:1099400008010DF1060000F0E3FE6846FFF77DF820
:1099500009B000BD2DE9F047F14E04468946707903
:1099600006F1740801280BD002280CD0042804D07A
:10997000062001F0D9F80620A6E7D8F80C5004E03C
:10998000D8F8045001E0D8F80850A0683061A76802
:10999000781C00D12F682046FFF7B7FDA6F86200BB
:1099A000A6F86400B760E06810218000B061208AEA
:1099B000F061A07CC0F3C00086F8700000207061E8
:1099C00086F86000D6489C3003F0FBF900F0D4FF25
:1099D000F0684FF01021421C06D0B269496910446A
:1099E000884216D90C201EE07079022801D0B06898
:1099F0000EE0D8F80C00D0E9002010444A698242F9
:109A000000D24869B1696FF30B01401AA0F580508C
:109A1000F060D6E9020290420BD0B1690B4600F02B
:109A2000B5FF30B10D20FFF716F800F032FC092029
:109A30004AE7B068296888420BD3B26910446A6863
:109A40001144884205D8FFF791FE012189F80010E2
:109A500007E0606800F05EFFB14970796631FFF79A
:109A600064FE002030E72DE9F04FAC4F88460546F4
:109A70004088F98889B09346884209D10020F8804F
:109A800062218DF804008DF800106846FEF7DDFFB6
:109A9000A34E05F108039A46B6F86400F169A8F1EF
:109AA0000804A0EB111268884FF0010982420ED31E
:109AB000B16800F0ABFEB8F1080F01D2092434E020
:109AC000A2B2514600F00FFD04002ED11DE0801A15
:109AD000401EB0EB111F06D296F8602009FA00F87C
:109AE00012EA080F01D008241FE0112CE6D206EB81
:109AF000001022461946203003F0E4F896F8600082
:109B0000002440EA080086F86000B6F8641068880F
:109B1000623600F074FB3088401E30808BF8009075
:109B2000F88810B9688800F0EAFB09B02046BDE863
:109B3000F08F2DE9F0437A4E89460546406831683A
:109B40008BB0884203D00B200BB0BDE8F0832846D1
:109B500000F0EBFEC0B9714F4FF000088DF8248083
:109B60003878032808D0042830D04FF0010807289F
:109B70004AD008281CD170E0688838B13879401C78
:109B8000C0B238710A2809D20020DDE787F80480C6
:109B900009A92846FFF7DEFE04460AE087F804809C
:109BA000306800F0B7FE5E4970796631FFF7BDFDA1
:109BB00008249DF82410002029B149462846FFF7C3
:109BC0009EFDE0B30020204359D05BE0688850B18F
:109BD000B6F86410884206D809AA49462846FFF715
:109BE00042FF002400E00B24B6F862000028E0D118
:109BF00070208DF800004B48CDE901806846FEF7E3
:109C000024FF05203870D4E7688820B92846FFF77C
:109C10007CFCA6F86400082038700020FEF749FF9D
:109C200023208DF8000002208DF8040056F8660FFE
:109C3000CDF806007068CDF80A00308900E01CE01D
:109C4000ADF80E0016F8610C8DF805006846FEF7B9
:109C5000FCFE04468DF82480ABE7688820B92846CE
:109C6000FFF753FCA6F86400B6F86410688800F0AB
:109C7000C6FA8DF8248000249BE70120A3E728463C
:109C800000F069FE20465FE72DE9F04104462348D5
:109C9000007801283DD0224D04F1080705F1660641
:109CA0006979022806D0032804D007283CD0082070
:109CB000BDE8F0813246204600F087FDD8B1E0785B
:109CC000297900F00700884204D84ED160682968DD
:109CD00088424AD9A07800F00F006871A068C5F8E2
:109CE0006600E068C5F86A00208AA5F86E00204684
:109CF00000F0DCFA39E0A0786A7900F00F008242C7
:109D000004D13146384600F027FD70BBE0784007AB
:109D10002BD02046BDE8F04100E6000028FD0320DE
:109D2000D4FD032080C3C901A07800F00F00814258
:109D30001BD10A463946304600F0FAFCA8B1E1785A
:109D4000287901F00701884204D30ED128686168A0
:109D500088420AD260682860E07800F00700287125
:109D6000687900F03EFAFFF752FC0020A0E72DE9E9
:109D7000F04105464168F8488AB00068814263D1E5
:109D8000DFF8D88398F80000082812D00024F24E9B
:109D9000688821469C3636F8212082421ED106EB87
:109DA00081046088411C618008281AD200200AB012
:109DB0007EE7284600F0B9FD08B1002745E00821FC
:109DC0002846FFF79CFC074661208DF8000008201C
:109DD000CDE901506846FEF738FE36E0491C0429FB
:109DE000D9D3DD4869888068012904D020F00F00AC
:109DF00000EB01101038102202A900F005FC80B120
:109E00004FF6FA70ADF800006888ADF80200686897
:109E100001900323002218216846FFF78EFB0746B6
:109E200000E0052757EA04000AD198F8020000F084
:109E30000302401C06EB820488F802006888208038
:109E40001CB10020608000E00B273846AFE770B5FA
:109E5000C24C0021054621707421BF4802F0D3FF97
:109E6000BD4810219C3002F0ACFF0020A070E570CE
:109E7000BDE87040FFF718BB10B57421B64802F07A
:109E8000C2FFB54810219C3002F09BFFB34C00206C
:109E9000A070E080FFF708FB00F0BEF900F06CFD59
:109EA000FFF7F2FA10B10020207010BDBDE810409D
:109EB00000F0EFB9A94B10B51B78012B01D0082099
:109EC00010BD4FF010235B69934203D8531C01D09F
:109ED000102010BDA04BDA60FFF727FC002010BD5A
:109EE00070B59E4C15462378012B03D0022B01D070
:109EF000082070BD07222270974C0246607104F161
:109F00006600256000F004FC607900F06AF9FFF754
:109F10007EFB002070BD70B50288A2F57F42FA3A40
:109F2000052A2DD2DFE802F0100D0A070300BDE874
:109F3000704000F029BABDE87040A5E6BDE8704069
:109F4000F7E5BDE8704012E7044684480D46007806
:109F500008282046F2D100F0E8FC08B1002070BDCE
:109F60007D48B0F86410B0F86200081A401C80B256
:109F700000F045F929462046BDE87040FFF7BFBB19
:109F80000B2070BDF0B5744DABB074350E2215A822
:109F9000296802F097FE704C002704F12006D4E9EE
:109FA0000201814235D0FF225421684602F001FFB0
:109FB000627904F1660102A800F0AAFBA069019091
:109FC000E0680090FF208DF8130000208DF812004B
:109FD000E069142240B14022314605A802F0B7FEE4
:109FE00001208DF812005422607901280ED0022839
:109FF00007D0042802D00B202BB0F0BD69462420E6
:10A0000001E069462220FEF731FF40E06946212049
:10A01000F9E7286910B90E2000F086FD286900686C
:10A0200000906079012812D002283AD0042817D174
:10A03000D4F866001690D4F86A001790B4F86E0051
:10A04000ADF8600000981C2740F0040007E0B4F869
:10A050006600ADF8540000981A2740F00100009007
:10A06000E06920B1402231463846FEF7FFFE00206D
:10A07000401C0E28FCD30E2215A90220FEF7F6FE86
:10A080000422286069461046FEF7F0FE2861334935
:10A0900006200870FEF7D3FE08B100F045FD002051
:10A0A000AAE7B4F86600ADF8560000981B2740F008
:10A0B0000200D4E7294810B5007809281FD2DFE84C
:10A0C00000F01E05070709111E1C1C00012010E0EE
:10A0D00005200EE0204820494079BDE81040663157
:10A0E000FFF723BBFFF749FA10B1BDE8104049E77D
:10A0F0000420BDE81040FEF7AEBC0020F9E710BD1B
:10A1000070B50220FEF797FE06460420FEF793FE88
:10A1100004461020FEF78FFE05461220FEF78BFE48
:10A1200056B1318841B114B12178C9070FD01DB1A2
:10A1300029680968491C0AD014B12178490708D553
:10A1400018B100680068401C03D0002070BD0120D9
:10A1500070BD042070BD0000D4FD032028FD032045
:10A1600010B50220FEF767FE04461220FEF763FEDC
:10A1700074B168B10068411C0AD00068401C07D067
:10A18000D4F80A0020B100F0B5FB08B1012010BDE1
:10A19000002010BD00F07DB800B5A44889B000785B
:10A1A00006281CD1FEF7EDFE002818D025208DF8DA
:10A1B000000001208DF804009D4800F166014279FD
:10A1C0008DF805200DF1060000F0A2FA6846FEF7B2
:10A1D0003CFC00F08AFAFFF767F9FFF74DFE09B083
:10A1E00000BD012809D0022805D0042801D0002094
:10A1F000704701207047032070470220704700B568
:10A2000089B02422ADF804008DF80020ADF80610C6
:10A210006846FEF71AFCE2E7F0B586488FB00CAF4F
:10A22000D0E90010CDE90C1083A000680E908048A2
:10A2300074300068811CCDE90910001D00240B90CA
:10A2400037F81400FEF7F7FD05001DD002208DF849
:10A2500000000EAE05F10801325D8DF804200DF10D
:10A26000060000F055FA09A8325D50F8241004A841
:10A2700000F04EFA2868079068680890A87C8DF86E
:10A2800005006846FEF7E1FB641C032CD8D30FB031
:10A29000F0BD10B50020FFF7BAF96449012008703D
:10A2A000BDE810407421624802F0ADBD70B50446AF
:10A2B00000885F4DA0F57F41FD3908D1E078400767
:10A2C00005D0A078697900F00F00884202D00720FD
:10A2D00000F02AFC60682860E078544900F007002C
:10A2E0002871E078C0F3C00085F871000320087081
:10A2F0006879FFF776FFBDE87040FFF788B970B561
:10A3000092B000264A4C05460F96109610AA0FA947
:10A31000606900F0ABF9002834D0A06820F00F018C
:10A320000F98401A66EB06010A0742EA1011491C11
:10A33000A5F10100814203D3B4F86400A84221D101
:10A340004FF6FB70ADF82400ADF8261020680A9097
:10A3500060208DF8000009A80190082002900220DA
:10A360008DF80C00FF208DF80D008DF80E6068460A
:10A37000FEF76BFB002805D10F982C496061BDF8F2
:10A380002600C88012B0E5E670B5284D04468AB0B4
:10A390002878012802D008200AB0DBE6A088ADF8B2
:10A3A0000000009800F093FA212658B102208DF8A1
:10A3B00000608DF8050020798DF8060060798DF831
:10A3C000070016E0A01D00F06AFA60B36088A0F5EF
:10A3D0007F41FE3914D016497431096809888842D2
:10A3E0000ED001208DF800608DF805006088ADF872
:10A3F000060028788DF804006846FEF726FBCBE7B8
:10A4000004208DF800608DF8050028788DF8040090
:10A4100054F8060FCDF806006068CDF80A002089D0
:10A42000ADF80E00E8E70B20B6E7000028FD03209A
:10A43000D4FD032034CF0F000201040010B5B34C4B
:10A44000218D81420CD30A1A402A0BDC0120002105
:10A4500002F0F9FBD4E9042310401940084301D06D
:10A46000012010BD002010BD10B53021A74802F01A
:10A47000CAFCA6494FF6FF70088510BD2DE9F047CC
:10A480009946164688460446FFF7EEFF301920F03D
:10A490000F0024F00F01401AC0F30F1744EA080020
:10A4A000000502D01020BDE8F087984DB8F1000FEC
:10A4B00017D0C5F8048006F6FF70010B6868090321
:10A4C0006FF30B00FEF7E5FA2C602F8185F80A90F8
:10A4D0000022EE60C5E904224FF6FF7169852A85E6
:10A4E000E1E76C60E7E72DE9F74F884E05464FF648
:10A4F000FF71308D934688424DD0280708D13068CF
:10A50000A84205D8F268831805EB0B02934202D2E9
:10A510001020BDE8FE8FBBF1100F02D85FEA8B72EE
:10A5200001D00920F5E7728D8A4201D01120F0E7B1
:10A5300020F00F000021281A61EB0101000940EA18
:10A540000170401C84B22046FFF778FF18B36F48B3
:10A55000008DA04231D2201A82B26C4F9046012069
:10A56000002102F070FBB0F1010941F1FF31D7E9A0
:10A5700004674020D8EB00028A46484602F063FB9D
:10A5800006EA000207EA0100024306D0032000F0B9
:10A59000B6F80520BDE70820BBE7424630463946FD
:10A5A00002F051FB40EA090020F00102574841EA5D
:10A5B0000A01C0E9042104850EE0DFF85081001B88
:10A5C00082B2D8E904670120002102F03CFBC243BB
:10A5D00016408F43C8E904674C4E5A4606F11800EE
:10A5E00074850446019902F06DFBD6E90010691AE2
:10A5F00008445A462146FEF73AFA002889D0072037
:10A6000000F07DF8032084E72DE9F0413F4F034639
:10A610000D46388D1646A0F57F41FF3911D03968B7
:10A62000002221F00F01591A62EB0202090941EAE6
:10A630000271491C8CB2A04203D32046FFF7FEFEF4
:10A6400010B10020BDE8F08165B15EB1012C0BD0E6
:10A65000786820F00F0000EB0411103932462846CC
:10A6600002F030FB0120EDE77968F7E72DE9F74FBD
:10A67000824626488B46018DA1F57F428946FF3AE6
:10A6800025D0D0E9046705683F2425F00F0822464D
:10A690000120002102F0D7FA06EA000207EA0100D1
:10A6A000024312D0A9EB040080B201280BD008EBC2
:10A6B00000101038504508D3CBF800000298102144
:10A6C0000160012025E72846F4E7641EDFD500205D
:10A6D0001FE70E490A8DA2F57F43FF3B03D0CA68EE
:10A6E000496801F0CBBD08207047BDE60749183125
:10A6F000884203D118394FF6FF7048857047034AE6
:10A700004FF6FF711185FEF7A6B9000080FE032009
:10A71000012A0AD0022A08D0042A05D10A68026058
:10A720004A68426009890181704709880180704741
:10A7300010B5012A08D0022A02D0042A0AD10A221E
:10A7400002F094FA20B105E000880988884201D11E
:10A75000012010BD002010BD012A0DD0022A0ED00C
:10A76000042A0FD182888B889A420BD1006809682D
:10A77000884207D10120704700880988F8E70078EF
:10A780000978F5E700207047012A0AD0022A0BD089
:10A79000042A01D000207047D0F80600D1F8061036
:10A7A00004E00088098801E000780978401A7047C1
:10A7B0008D4A002152F82130834201D10120704797
:10A7C000491C0829F6D30020704770B504468078EC
:10A7D0000D4600F00F001646A84200D0A5B96068EB
:10A7E000FFF7E6FF80B904F108002A463146044627
:10A7F000FFF7B2FF40B12A4631462046FFF7C4FFBB
:10A80000002801DB012070BD002070BD012805D0AB
:10A81000000121F00F0110380844704708467047C6
:10A8200070B505460E460220FEF705FB04460420DF
:10A83000FEF701FB012E25D0022E14D0042E2AD1C2
:10A84000FCB1A9882289914225D129686268914288
:10A8500021D1D5F80610D4F80A2091421DD880B134
:10A86000007840070BE064B12978A278914212D1B8
:10A870006978E278914210D818B1007880070028F2
:10A880000BDA08E03CB129882288914203D110B14B
:10A890000078C00701D0002070BD012070BD10B548
:10A8A00004460220FEF7C7FA68B1A18802899142E6
:10A8B0000BD121684268914207D1D4F80610D0F834
:10A8C0000A00814201D9012010BD002010BD10B541
:10A8D00004460220FEF7AFFA40B18278E1B291421D
:10A8E00006D1C078C4F30721814201D9012010BDEF
:10A8F000002010BD10B50420FEF79DFA30B10068AD
:10A90000C10705D0410703D5800701D5012010BD3F
:10A91000002010BD354A10B51178334C01F0070303
:10A92000491C44F82300117010BD30B52E4A002197
:10A930000388203232F821409C4207D102EB810487
:10A9400045886488AC4201D1012030BD491C1029E2
:10A95000F0D3002030BD30B5244C234B058861680E
:10A96000203301F00F02491C23F8225003EB82022E
:10A9700040885080616030BD1B4810B540212030B8
:10A9800002F01FFA19490020486010BD904202D31E
:10A990001344834204D8824204D30844904201D332
:10A9A000012070470020704730B54FF0E020D0F80C
:10A9B00000310020012404FA00F21A4210D041B202
:10A9C00000290DDB01F01F0504FA05F24909890091
:10A9D00001F1E021C1F88021BFF34F8FBFF36F8FEA
:10A9E000401C2028E7D330BDB0FE032030FD0320FB
:10A9F00083682021491E23FA01F2D207FAD00122EE
:10AA00008A400021C0E902210161704770B5044607
:10AA100061B1EFF3108000F0010572B6A268206901
:10AA20008318E068834206D115B102E00E2070BDA4
:10AA300062B6042070BD521E1040D4E9003202FB01
:10AA4000003063690BB1984701E002F03BF9E06820
:10AA5000401CE06005B962B6002070BD70B50E46BE
:10AA60000446EFF3108000F0010572B6D4E903103C
:10AA7000884203D105B962B60E2070BD6EB1A168DF
:10AA80006369491E0840D4E9001202FB00113046F8
:10AA90000BB1984701E002F015F92069401C2061D4
:10AAA00005B962B6002070BDD0E90310081A7047DE
:10AAB00070B50D000BD0EFF3108101F0010472B6F8
:10AAC000D0E903315B1A934203D804B962B60E2071
:10AAD00070BD11448268521E1140D0E9003202FB61
:10AAE0000131436928460BB1984701E002F0EAF8CA
:10AAF00004B962B6002070BD0022D9E7C1680161C7
:10AB0000704782680169C0681144814201D1012007
:10AB10007047002070470169C068814201D101205F
:10AB2000704700207047000072B600BEFEE772B6A4
:10AB300000BEFEE772B600BEFEE71E4801680122B5
:10AB4000C006002431B90260D0F800110029FBD002
:10AB5000C0F8004117490C31096831B98260D0F85A
:10AB600004110029FBD0C0F804410261D0F80C1197
:10AB70000029FBD0C0F80C410F49402081F80004A7
:10AB80004FF0E0210004C1F8000162B6FDF792FD2C
:10AB900000E020BFFEF778FC0028FAD1074D2868B6
:10ABA00010B90020FDF727FC2C60FDF7C8FD20BF81
:10ABB000FDE700000804004016E000E01C0500402E
:10ABC00000209F4A01461154401C2028FBD37047A7
:10ABD00010B59B4B0021EFF3108202F0010272B618
:10ABE0005C5C0CB162B10CE001245C54954B01EB50
:10ABF000810103EBC101016002B962B6012010BD01
:10AC000062B6491C2029E6D3002010BD8D492822B8
:10AC1000401AB0FBF2F0202804D200EB800001EBD8
:10AC2000C00070470020704770B58649401A28213F
:10AC3000B0FBF1F4202C01D3002070BDEFF31080A5
:10AC400000F0010572B67E4E305D08B1FF2802D1DA
:10AC50000420FFF769FF305D401C305505B962B62E
:10AC6000012070BD774910B5401A2821B0FBF1F0E2
:10AC7000202816D2EFF3108101F0010472B6704A59
:10AC8000115C21B1491EC9B2115434B106E008204B
:10AC9000FFF74AFF2CB962B603E062B609B10120A2
:10ACA00010BD002010BD6749401A2821B0FBF1F00B
:10ACB000202801D3002070476149085C7047624931
:10ACC0000A68C0F803208988A0F807104FF0805167
:10ACD000D1F8A010027861F386120270002070474C
:10ACE0002DE9F0411746069E8C46050006D005F179
:10ACF0000904172E04D90920BDE8F0810E20FBE7D6
:10AD00002846FFF7DCFF0028F6D106F10E00687038
:10AD1000287820F00F00801C2870F01D207016206D
:10AD200060704FF6E4606080A4F804C0E78036B13C
:10AD30002BB13246194604F1080001F0C3FF002090
:10AD4000DAE730B5010004D04C78062C01D9252C67
:10AD500001D9002030BD002201F10900C91C4FF6C5
:10AD6000E4630C440DE04578162D08D1032906D97B
:10AD70001F2904D845889D4201D1024606E0401CA7
:10AD80000844844202D901780029ECD1104630BD34
:10AD900070B50446FFF7D5FF40B104F109039842AE
:10ADA0000DD00178491CCAB2002105E00B2070BD0E
:10ADB000455C6618491C75729142F9D318460078B3
:10ADC000C01D6070002070BD00B5FFF7BAFF08B16C
:10ADD000808800BD4FF6FF7000BD00F10901821CA4
:10ADE00040784FF6E46302440CE04878162802D11C
:10ADF0004888984201D0012070470878C0EB401085
:10AE000001441F318A42F0D80020704710B5044633
:10AE1000FFF7E3FF10B12046FFF7BAFF2046BDE879
:10AE200010404CE707492822401AB0FBF2F02028D6
:10AE300004D200EB800001EBC00070470020704797
:10AE4000F0050020F0000020A4000010F0B54FF045
:10AE50008056326911FA82F13269491E92B2B1FB11
:10AE6000F2F1CDB200212A4C2A4B022704F1040C46
:10AE70008E4614E027601A68002AFCD0CCF8000047
:10AE80001A68002AFCD0C4F800E01A68002AFCD036
:10AE90003269491CC2F38D0200EB8200C9B2A9429B
:10AEA000E8D3F0BD2DE9F043002423F0030303446D
:10AEB00025462046184EDFF85890DFF858C023E0AA
:10AEC00011F8017B3755641C65EA0708E4B208F005
:10AED000FF05042C17D100249DB101254F46C9F868
:10AEE0000050DCF80050002DFBD035681D60DCF808
:10AEF0000050002DFBD000253D60DCF80050002DF7
:10AF0000FBD000251B1D401C9042D9D3BDE8F08327
:10AF100004E5014000E4014008000020BE48002193
:10AF2000C0F800124A1EC0F8082301220261BB4883
:10AF30000160BB49022008707047FEB5B64B132173
:10AF4000C3F80012B54C8179241D0A2901D80422C6
:10AF500002E0242903D8062202EB410208E0B14AAC
:10AF600064CA8DE864006A4602EB810252F8942CB0
:10AF70002260AA4A01F07F0150321160A74A01689D
:10AF800011600821C3F804130025C3F80C51A34C29
:10AF900020342668A24A51680F0E46EA072626602A
:10AFA0009E4E0C021C363460467901243EB19B480B
:10AFB0009D4E2C30B1420DD0032101600BE0974D26
:10AFC0000179283529609549C079083108601C60ED
:10AFD0001470FEBD04605C601570FEBD2DE9F04785
:10AFE00080469248002491460F4604604FF0010CC1
:10AFF000C0F800C0894808300460884903200C313B
:10B00000086086480226001D0660844825215030CD
:10B01000016082488E2120300160804A84491832C4
:10B02000116002687E4D69680B0E42EA03220260DD
:10B0300008027A491C310860784828300460001DF5
:10B04000C0F800C075497B4810310860091D7A4876
:10B050000860724940F25B6034310860091F40F2B9
:10B06000031008606D497548383108606B499420B9
:10B07000403108602878032809D17148082100F17F
:10B08000180244618160C0E90021FFF7B1FC624809
:10B090002E70C0F80C414FF0E020C0F88062843080
:10B0A000C667C5F81090C5E902876548FFF733FD0C
:10B0B00018B1A868BDE8F047004700F006FA00287C
:10B0C00004D0BDE8F047012000F099B8BDE8F08752
:10B0D00053494860704710B510B1417911B106E08D
:10B0E0000E2010BD0179012901D9102010BD0146A3
:10B0F0005348FFF78BFC08B1042010BDEFF310801C
:10B1000000F0010472B600F0E0F910B1012000F087
:10B1100076F804B962B6002010BD2DE9FC473E4E1A
:10B12000D6F80C013E4D002770B34648006800B1C8
:10B130000120814643480C30D0F80080D6F81C012D
:10B14000642428B1C6F81C71344844300068C4B285
:10B15000C6F80C7169463A48FFF780FC08B1FFF762
:10B16000E3FC9DF80500012807D0022805D02969D5
:10B17000009888470220287034E02346EC68424655
:10B1800049460098A047F5E72D48FFF78DFCDFF80A
:10B190008C90044609F14C09B8464FF0FF3A1AE08A
:10B1A00069462748FFF7A8FCB8B99DF805000228B2
:10B1B00013D100212248FFF751FCFFF7AFFE4846AC
:10B1C00001680029FCD1C6F80C81EF68642352465F
:10B1D0000098B847641E012CE2D82878022801D0D4
:10B1E000032806D169461648FFF786FC18B1A868FF
:10B1F0008047BDE8FC876846FFF79FFEF9E7002817
:10B2000009DB00F01F02012191404009800000F19C
:10B21000E020C0F800127047001000400415004004
:10B220000C00002044CF0F00D6BE898EFC1F0040CA
:10B2300000D6BE89060102002500030255555500BF
:10B24000100600200014004010B5D0E900138268F9
:10B25000A1EB731183EAF2330360C46822444260B5
:10B2600062181944C0E90221084610BD70B5174A9A
:10B27000012414600025164E09E0D2F80031002B9D
:10B28000FBD03368491E89B24354C2F800510029EB
:10B29000F3D15460002070BD38B505460020009001
:10B2A00004216846FFF7E2FF00280DD10948286015
:10B2B00000986860A8600024E8602846FFF7C4FF93
:10B2C000641C142CF9D3002038BD000000D00040CD
:10B2D00008D50040ED5EEAF170B50446807BE0B130
:10B2E000022835D00125F948FFF7AEFF014640F6A8
:10B2F000CD4015FB00F0B1FBF0F200FB1211627BB8
:10B30000084441F69A1315FB03F3A16802FB0311ED
:10B31000084420F07F40606070BD607B40F6CD4106
:10B3200001FA00F5401C8140A1F6CD41A5F6CD45BE
:10B33000481B20F07F46E548FFF786FF7108B0FB09
:10B34000F1F201FB1200A16800EB56002944DFE78F
:10B350000A25C8E71CB502208DF805006846FFF7EE
:10B3600037FC002168B18DF8041025208DF8060007
:10B370006846FFF7B0FE002802D06846FFF772FC6F
:10B380001CBDD34801701CBD4FF6F071884208D334
:10B39000012110308140CE484088014201D0012077
:10B3A00070470020704710B588B00446FFF7C9FC0D
:10B3B000020013D090884FF6F07188420ED3FFF749
:10B3C000E3FF58B1B6208DF801009088ADF8020077
:10B3D00003208DF80000684601F02CF808B02046E4
:10B3E000BDE81040FFF73EBC1FB529B1B74869461C
:10B3F0009838FFF70BFB18B10098FFF733FC1FBD1F
:10B400004FF0E0214FF48010C1F800021FBDB0489A
:10B410000078002800D09DE77047F0B5AD4802687D
:10B42000AD4C501E20F07F410D46002004EB001370
:10B430001E6856B15B688F1A9E1A26F07F4627F069
:10B440007F47BE4201D223F07F41401C0828EDD344
:10B45000A2484FF480338D420AD0C0F80433002351
:10B46000C0F840319B483C30016099488260F0BD93
:10B47000C0F80833F0BD96480178002902D10121B7
:10B48000017067E7704738B5914C0FE00098FFF7FF
:10B490000AFC012800D0002010B90020FFF744FB6F
:10B4A0006168009888470098FFF7DCFB8A48694686
:10B4B0008030FFF7D3FA0028E8D02078002801D1A7
:10B4C000FFF7D9FF38BDFFF728BE0120704710B540
:10B4D0007F4900240C7048604C8080217E4801F038
:10B4E00092FC7A498039A1F1180001600421416081
:10B4F000202144618160FFF77BFAFFF761FB73480D
:10B50000FFF7CAFE08B1FFF70FFB0221142000F07D
:10B5100010F9142000F0EFF80021012000F009F9E3
:10B52000BDE810406E4A6F496F48FFF757BD2DE9DF
:10B53000F0411D001646074601D10C2E02D80FB16E
:10B54000082902D30020BDE8F081EFF3108000F05D
:10B55000010872B6604800EB0114206808B1FFF7DB
:10B5600081FB3846FFF760FB27602673002060737D
:10B5700058480068A060A5732046FFF7ADFEFFF7AE
:10B580004CFFB8F1000F00D162B60120DBE710B527
:10B5900008280CD2504901EB0010002141734D499D
:10B5A00009688160FFF798FEBDE8104035E710BDDF
:10B5B00010B504460B2000F0ABF8082C05D2464825
:10B5C00000EB0410C17B491CC173BDE810400B2087
:10B5D00000F091B810B504460B2000F099F8082C43
:10B5E0000CD23D4800EB04142068FFF73BFB002021
:10B5F00020606060A060E060FFF70FFFBDE81040D2
:10B600000B2000F078B82DE9FC413248066800258F
:10B61000DFF8C4802F46B61C08EB05142068E8B399
:10B620002B4A61689268711AB21A21F07F4122F0A8
:10B630007F42914236D88DF805708DF804700090E5
:10B640008DF80770E07B032811D225208DF80600C5
:10B650006846FFF740FD10B92068FFF7E5FA9DF84E
:10B660000600401CC0B28DF806002728F0D9E77309
:10B67000607B411CC9B26173FF2805D11B4AA068D9
:10B68000104420F07F40A060207B814210D3FF282F
:10B690000ED02068FFF7E6FA276000E002E067605E
:10B6A000A760E7606D1C082DB6D3BDE8FC41B4E689
:10B6B0002046FFF711FEF5E7054B012210308240CE
:10B6C000588892B2A1B1104313E000008007002017
:10B6D0002000002004B500406806002000B00040B3
:10B6E000A7B30F00E9B30F000FB40F00009A1900C1
:10B6F000904358807047002809DB00F01F020121A9
:10B7000091404009800000F1E020C0F8001170472E
:10B7100000280DDB00F01F0201219140400980004C
:10B7200000F1E020C0F88011BFF34F8FBFF36F8F9F
:10B7300070474907090E002804DB00F1E02080F87B
:10B740000014704700F00F0000F1E02080F8141D95
:10B75000704700000246491E03D452F82130002BE6
:10B76000F9D0491C05D002EB8100002250F8040CEE
:10B7700003E0002070474008521C0028FBD148011C
:10B7800020381044704770B506460020034651F833
:10B79000235052F823402C440444A54205D002D93A
:10B7A0004FF0010001E04FF0000046F8234003F1A4
:10B7B0000103082BEBD370BD70B50646002003468D
:10B7C00051F8235052F823402C1B241AA54205D0CF
:10B7D00002D24FF0010001E04FF0000046F8234094
:10B7E00003F10103082BEBD370BDF0B51C6815689D
:10B7F000A0FB017CE0FB0154059EE91B74EB0C01EE
:10B80000306801D2012100E00021084430601C6052
:10B810001560F0BD2DE9FF478046002015460E4615
:10B820000190029007460DF10C0982460390002416
:10B830000BE0381BCDF8009055F8201056F8240086
:10B8400002AB01AAFFF7D1FF641CBC42F1D90199F8
:10B8500048F8271002980190039802907F1C5046E8
:10B86000CDF80CA0082FE2D308278246FC1F0BE07E
:10B87000381BCDF8009055F8201056F8240002AB84
:10B8800001AAFFF7B2FF641C082CF1D3019948F814
:10B890002710029801900398CDE9020A7F1C0F2F10
:10B8A000E4D30199C8F83C10BDE8FF87F0B589B032
:10B8B0000C46064600F0C8FB002502950195009550
:10B8C000E06A0390206B0490606B0590A06B06907B
:10B8D000E06B6A46114607900846FFF754FF07469B
:10B8E00031466A460846FFF74EFF0744206B039037
:10B8F000606B0490A06B0590E06BCDE906056A468D
:10B9000011460846FFF73FFF074431466A4608469E
:10B91000FFF739FF0744206A0090606A0190A06A2F
:10B92000CDE9020505950495A06B0690E06B3146C4
:10B9300007906A460846FFF726FF0744606A0090B2
:10B94000A06A0190E06A0290606B0390A06B049083
:10B95000E06B0590606B0690206A314607906A465E
:10B960000846FFF710FF0744E06A0090206B019043
:10B97000606BCDE9020505950495206A0690A06AE2
:10B98000314607906A460846FFF716FF3F1A206BBC
:10B990000090606B0190A06B0290E06B0595CDE983
:10B9A0000305606A0690E06A314607906A460846D9
:10B9B000FFF702FF3F1A606B0090A06B0190E06BF5
:10B9C0000290206A0390606A0490A06ACDE90505A0
:10B9D000206B314607906A460846FFF7EDFE3F1A96
:10B9E000A06B0090E06BCDE90105606A0390A06A4E
:10B9F0000490E06ACDE90505606B314607906A4620
:10BA00000846FFF7D9FE3C1A0ED53146F84A0846DB
:10BA1000FFF7B9FE0419F8D409B0F0BD3146F44A75
:10BA20000846FFF7C9FE241A002CF7D13146F0482A
:10BA300000F013FB0128F1D1EEE770B50646A0B087
:10BA400015460C46084600F0EBFA20B1304600F0EF
:10BA5000DFFA20B070BD214610A800F0F5FA2946A3
:10BA600018A800F0F1FA684600F0D2FA0120009020
:10BA700008A800F0CDFA64E010990024C9072ED080
:10BA80001899C9072FD0002838DD10A918AA084630
:10BA9000FFF792FE10A800F0F3FA08A9684600F03C
:10BAA000DCFA002804DA69462A460846FFF76BFEEE
:10BAB000694608AA0846FFF77FFE0098C00705D030
:10BAC00069462A460846FFF75EFE0446684600F0CF
:10BAD000D7FAB4B3079840F00040079031E010A8BF
:10BAE00000F0CEFAE9E718A800F0CAFA1EE008A9AB
:10BAF0002A460846FFF747FE04461AE018A910AA8E
:10BB00000846FFF759FE18A800F0BAFA694608A8D7
:10BB100000F0A3FA002804DA08A92A460846FFF72D
:10BB200032FE08A96A460846FFF746FE0898C00795
:10BB3000DDD108A800F0A4FA1CB10F9840F0004035
:10BB40000F9018A910A800F088FA002894D169462F
:10BB5000304600F079FA7CE7F0B5044691B00E4625
:10BB60001546104600F05CFA00287DD13246114699
:10BB7000684600F0B6FA6A46214608A800F0B1FA15
:10BB80006A461146084600F0ACFA31462A46084695
:10BB900000F0A7FA2A461146084600F0A2FA21460C
:10BBA000934B2A46084600F079FA2A461146904BF4
:10BBB000084600F073FA2A468D4B2146104600F0E5
:10BBC00081FA21462A46084600F08BFA2246884B25
:10BBD0001146284600F062FA2146854B2A4608465F
:10BBE00000F05CFA0021204600F025FA68B12146F9
:10BBF0007F4A0846FFF7C7FD0746204600F040FA97
:10BC0000E06940EAC770E06102E0204600F038FADF
:10BC100022461146284600F064FA2946744B08AAC9
:10BC2000084600F04FFA2946714B08AA084600F072
:10BC300049FA08A96E4B2A46084600F043FA214605
:10BC400008AA084600F04DFA6A46694B214610469C
:10BC500000F038FA2946204600F0F6F93146284629
:10BC600000F0F2F9694600E002E0304600F0ECF93D
:10BC700011B0F0BD70B588B00E46044615461146A9
:10BC8000684600F02EFA21466A46084600F029FA76
:10BC900069462A46084600F024FA31466A460846B4
:10BCA00000F01FFA08B070BDF0B5174689B01E4607
:10BCB0000C46054602464E4B3946684600F002FAED
:10BCC0006A461146084600F00CFA29466A460846BC
:10BCD00000F007FA39466A46084600F002FA314693
:10BCE000434B2246084600F0EDF9324611466846BD
:10BCF00000F0F7F969463E4B2A46084600F0E2F9A3
:10BD000069463B4B3A46084600F0DCF93946384B69
:10BD10002A46084600F0D6F921463A46084600F081
:10BD2000E0F9334B6A462946384600F0CBF93146F4
:10BD30003A46084600F0D5F931462D4B22460846D2
:10BD400000F0C0F96946384600F07EF964E62DE956
:10BD5000F047B2B0814620A8309010A83190FFF78C
:10BD600059FD234908A86031824600F06DF9684604
:10BD700000F04EF9012400250DF1C008C4F10101C5
:10BD800058F8247058F821C000216E46084657F82C
:10BD9000203056F820209A1A521A934205D002D227
:10BDA0004FF0010101E04FF000014CF8202000F1BC
:10BDB00001001028EBD38C4201D1012400E00024C3
:10BDC000304600F05DF9DDE9070140EAC1700790F7
:10BDD000504600F055F96D1CB5F5807FCEDD58F862
:10BDE0002410484600F030F932B0BDE8F08700007A
:10BDF00050CF0F00F0B5F5B00F46002406460146BF
:10BE00001546479420A8579400F077F906F12001D1
:10BE100028A8064600F071F9294640A800F06DF9FF
:10BE200005F1200150A800F068F940A800F0F8F8EA
:10BE300000287CD150A800F0F3F80028F9D140A9DF
:10BE4000B74800F00AF90128F3D150A9B44800F02E
:10BE500004F90128EDD1B24A50A96846FFF7EDFD7B
:10BE6000394638A83F9400F048F938A96A46084690
:10BE7000FFF76DFF6A4640A958A8FFF768FF20A9A1
:10BE800008A800F0E1F810A83146044600F0DCF8FC
:10BE9000A34930A8403900F0D7F8A14948A8203973
:10BEA00000F0D2F89E4B30AA603B08A9684600F02B
:10BEB00009F9234608AA48A930A8FFF7F5FE984AD1
:10BEC0006946603A0846FFF7B8FD6A46214608A869
:10BED000FFF7D0FE92482030D0E90010CDE9701075
:10BEE00020A8729008A87390082138A8FFF732FCA8
:10BEF0000446082158A8FFF72DFC844200DD2046A7
:10BF00000446411E38A800F096F808B1012500E06B
:10BF10000025611E58A800F08EF800B1012045EA06
:10BF2000400070AE56F8205018A8294600E06AE09C
:10BF300000F08AF805F1200160A800F085F8684655
:10BF400000F066F801200090A41E39D46A4660A96A
:10BF500018A8FFF701FE214638A800F06CF808B1D8
:10BF6000012500E00025214658A800F064F800B142
:10BF7000012045EA400056F82050FDB1294630A87E
:10BF800000F062F805F1200148A800F05DF86A466B
:10BF900048A930A8FFF76EFE614B30AA603B18A994
:10BFA00068A800F08FF860AB18AA48A930A8FFF77E
:10BFB0007BFE694668AA084600F093F8641EC5D562
:10BFC000574A6946603A0846FFF737FD6A4660A956
:10BFD00018A8FFF74FFE18A9514800F03EF80128B5
:10BFE00004D018A94E4A0846FFF7E6FB002118AC1A
:10BFF00040AB072054F8202053F820506A401143EA
:10C00000401EF7D511B1002075B0F0BD0120FBE74F
:10C0100000210A4640F82120491C0829FAD370471C
:10C02000002150F821200AB100207047491C08293E
:10C03000F7D3012070474A1150F8220001F01F0287
:10C040000121914008407047002251F8223040F809
:10C050002230521C082AF8D3704710B5072250F836
:10C06000223051F82240A34202D94FF0010010BD06
:10C0700002D24FF0FF3010BD521EF0D5002010BD8F
:10C0800003460022203004E0016842EA51020260C7
:10C09000CA070146001F9942F6D8704770B51C4682
:10C0A0000546FFF770FB28B921462846FFF7D5FF64
:10C0B000002806DB29462246BDE870400846FFF707
:10C0C0007BBB70BD70B51C460546FFF775FB0028AD
:10C0D00006D029462246BDE870400846FFF753BB0C
:10C0E00070BD10B590B004466846FFF793FB6946F3
:10C0F0002046FFF7DBFB10B010BD10B50022C2F1E7
:10C10000070301EB83031C68DB7824BA24F0FF04E7
:10C110001C4340F82240521C082AF0D310BD0000F6
:10C12000B0CF0F002DE9F04FC8B0002213466F4684
:10C13000CC181B1D2568E4782DBA25F0FF05254392
:10C1400047F82250521C102AF2D31BE007EB820161
:10C1500051F8083C4FEA734484EAF34484EA932498
:10C1600051F83C3C4FEAF31585EAB34585EAD30321
:10C17000234451F81C4C51F8401C2144194447F801
:10C180002210521C402AE1D3026D4792446D46941E
:10C19000856D4595C16D44918B46016E4391436E0B
:10C1A0004293866E99464196C36E40939A46002309
:10C1B0004FEAB11787EAF12787EA716C01EA0907AC
:10C1C00026EA010887EA0807BC44854F57F8238010
:10C1D00008EB0A07BC445DF82370B2460CEB070E6F
:10C1E0004FEAB20787EA723787EAB25C84EA05074A
:10C1F0004E4604EA0508894617400BEB0E01AB4694
:10C2000087EA08072546674414465B1C0EEB0702C5
:10C21000402BCDD3479B1A440265469A224442657F
:10C22000459A2A448265449A5A44C265439A114405
:10C230000166429949444166419931448166409979
:10C240005144C16648B0BDE8F08FA8B10021016437
:10C25000C0E912116349016563494165634981651C
:10C260006349C16563490166634941666349816603
:10C270006349C166002070470E2070472DE9F041E8
:10C2800016460F46040004D006B117B10025A84693
:10C290001AE00E20BDE8F081216C785D6054206CBE
:10C2A000401C206440280ED121460846FFF73AFF83
:10C2B000D4E912014FF40072801841F10001C4F872
:10C2C0004080C4E912016D1CB542E5D30020E1E7CE
:10C2D00070B516460D46040007D035B1206C80229B
:10C2E00000213828225403D307E00E2070BD2154CA
:10C2F000401C3828FBD30BE02154401C4028FBD3C2
:10C3000021460846FFF70EFF3821204600F07BFD4E
:10C31000216CD4E912304A0FC90038345918504101
:10C32000C4E90410227CE2710A0A42EA0062A271A6
:10C330000A0C42EA00426271020242EA1160207174
:10C340006069E070010AA170010C6170000E04F8D0
:10C35000380921460846FFF7E5FE4FF00002EEB12E
:10C36000E16ED000C140A954A36EC340A9180B715F
:10C37000636EC3400B72236EC3400B73E36DC34007
:10C380000B74A36DC3400B75636DC3400B76236DB7
:10C39000C340521C0B77042AE2D31FE018265042F8
:10C3A000216D06EBC000C140A954636DC340A918BC
:10C3B0000B71A36DC3400B72E36DC3400B73236E0F
:10C3C000C3400B74636EC3400B75A36EC3400B7602
:10C3D000E36EC340521C0B77042AE0D3002070BDEB
:10C3E000E0CF0F0067E6096A85AE67BB72F36E3C6B
:10C3F0003AF54FA57F520E518C68059BABD9831F30
:10C4000019CDE05BB24910B5A1F5A870FEF726FB87
:10C4100000280ED1AE48AF4BAD49AF4A4078891CD9
:10C4200000249860C2F81C4101249460AB4A10605B
:10C43000D96010BD10B504468AB0A948FEF761FB6B
:10C4400000284FF0000012D18DF80000227821461C
:10C450000DF10100521C00F035FC6946A048FEF7C2
:10C46000D5FA9C48007808B900F0DAF801200AB043
:10C4700010BD70B5994E0025974C361F07E0C4F8E3
:10C480000851D4F808013068C0B200F0D6F8D4F8EA
:10C4900008010028F3D1D4F81C0100280DD0C4F8FD
:10C4A0001C518C498868401E8860401C06D0C868B2
:10C4B0008A4A10F8013B1360C86070BD0120E0603B
:10C4C0000878012800D00D708548FEF724FB00286D
:10C4D000F3D1BDE8704000F0A3B870B580480425E2
:10C4E0000024856000F1B40127264461C0E90016EC
:10C4F000FEF77EFA7A48183800F130018560446111
:10C50000C0E90016FEF774FA7248A9014470754834
:10C5100001608021016074490C200860091F0860D7
:10C5200070494020143908606E49091F08602020B6
:10C5300008606A49062010390860684908200839EF
:10C5400008600720091F0860644905201439086045
:10C550006248012150300160604A6448083210602E
:10C560005E481C3805605C488422C0F80423C0F88B
:10C570000841C0F81C4101605D49E02081F80004D9
:10C58000881EC0F8005170BD55481838FEF78CBAA7
:10C5900070B5EFF3108000F0010572B601204D4C2C
:10C5A000607001E0FFF765FF20780028FAD1607025
:10C5B000002D00D162B670BD10B5044648488AB05F
:10C5C00069461838FEF74AFA08B100204FE79DF88F
:10C5D00001202AB120460DF10101521C00F072FB2E
:10C5E0003C480178012904D1002101703A49012019
:10C5F000086001203BE704204FF0E02301210022E6
:10C60000C3F88001BFF34F8FBFF36F8F431F3248D2
:10C61000C0F808334160C16030481C380260704780
:10C620002C484178002907D10178022904D0022141
:10C630000170152000F03FB8704770B5254D284EA9
:10C6400088B06968403E741C01F8010B881B696062
:10C650007178401E272902D96C6008B070BD272868
:10C6600004D20128F9D9491C8142F6D81C49403925
:10C6700001F12800FEF7CAF978B103208DF8000017
:10C6800084208DF80100B0788DF8020086208DF8A6
:10C6900003006846FFF7CEFE02E0162000F00BF81C
:10C6A0000F481838FEF72DFA0028D5D00A49012086
:10C6B00028704860D0E7002809DB00F01F02012144
:10C6C00091404009800000F1E020C0F8001270475E
:10C6D000200900202C000020002000401C250040E4
:10C6E000D00700201C0500502007005000E0D701B3
:10C6F00002E000E0122818D2DFE800F0090F0F175F
:10C70000150B0D130F11131311171315131500200B
:10C7100070479020704782207047832070478420A4
:10C72000704785207047862070478020704710B57D
:10C73000044640788223032284218EB0762838D0A4
:10C7400004DC022810D00E2804D11CE0772855D034
:10C75000782878D08DF8011060788DF802008DF877
:10C7600000208DF8033044E08DF8013020788DF8FA
:10C7700000002278012A3CD9A11C0DF10200521EB2
:10C7800000F0A0FA35E0FFF703FF67494FF0FF30F4
:10C790000860664801210160BFF34F8F644801685B
:10C7A000644A01F4E06111430160BFF34F8F00BFA1
:10C7B000FDE78DF8011060788DF802008DF80020FB
:10C7C0002078052802D08DF8031012E0207908B1F6
:10C7D000012801D0072008E0607908B1012100E0BC
:10C7E00000216088FEF768FF0020FFF783FF8DF8C7
:10C7F00003006846FFF71EFE0EB010BD8DF8011055
:10C8000060788DF8020007208DF800002078042859
:10C81000D9D12079002170B101280ED007208DF8E0
:10C8200000206288ADF8042022798DF806208DF86A
:10C830000710DAE707E00720F3E76088FEF7A4FDBA
:10C8400001460020EDE78DF8011060788DF80200B8
:10C8500005208DF8000002208DF82000A01C099012
:10C860002078401E0A9008A8FBF704FE6188ADF806
:10C870000410BAE73049602081F800044FF0E0214D
:10C880004FF40010C1F80001FFF727BE00B589B0D2
:10C8900004208DF8000081208DF8010001208DF822
:10C8A000020021480068C0F3C0008DF80300FFF7C4
:10C8B0006BFE8DF804006846FFF7BCFD10B1002048
:10C8C00009B000BD0420FBE700B589B002E068466E
:10C8D000FFF72DFF6846FFF76FFE0028F7D1EFE75F
:10C8E00000B5017889B0D9B1012904D0022904D05A
:10C8F000042905D116E0B52100E0B3218DF801101F
:10C90000017BC91C8DF800108188ADF80210027BF4
:10C91000816801A800F0D6F96846FFF78BFDCFE7E4
:10C92000B421EBE7B621E9E7000400401C05004014
:10C930000CED00E00400FA0515E000E068496748E6
:10C940000860704770B54FF080550124D5E94C1050
:10C950000023082906D1CA06C2F80C31C2F81031EA
:10C96000604A1360082955D15F4A12685F4E3260F1
:10C970005D4A121D1268361D32605B4A0832126829
:10C98000361D3260584A0C321268361D3260564AE3
:10C9900010321268361D3260534A14321268361D46
:10C9A0003260514A18321268504E203632604E4A78
:10C9B0001C321268361D32604B4A20321268361D16
:10C9C0003260494A24321268361D3260464A2832A3
:10C9D0001268361D3260444A2C321268361D3260AD
:10C9E000414A30321268414E403632603E4A34325B
:10C9F0001268361D32603C4A38321268361D326089
:10CA0000394A3C321268361D3260374A4032126869
:10CA1000361D32600246082903D112B9354E344A18
:10CA200032600246082903D112B9334EFB2232602C
:10CA30000246082907D132B9304A95F8586215687C
:10CA400066F3030515600246082903D112B92C4D7F
:10CA50008A012A60082906D12A480168C90702D03C
:10CA60006FF0010101602848016841F47001016024
:10CA7000BFF34F8FBFF36F8F4FF01025D5F8000233
:10CA8000002803DBD5F80402002822DA1F4A1460CC
:10CA90001F4801680029FCD01224C5F80042016833
:10CAA0000029FCD0C5F8044201680029FCD01360BD
:10CAB00001680029FCD0BFF34F8F13487C38016810
:10CAC000144A01F4E06111430160BFF34F8F00BFCE
:10CAD000FDE703490148086070BD00000090D003E5
:10CAE0003C000020380500400404001020C5004030
:10CAF000488103008C56004018F50040E40E0040C9
:10CB0000409602400004004088ED00E004E501404A
:10CB100000E401400400FA0509488047094800473D
:10CB2000FEE7FEE7FEE7FEE7FEE7FEE7FEE7FEE7DD
:10CB3000FEE7FEE704480549054A064B704700003A
:10CB400045C90F0001820F00A8090020A84D002050
:10CB5000A80D0020A80D002053EA020C00F0698007
:10CB60002DE9F04B4FF00006002B1FBFB3FA83F501
:10CB700003FA05F424FA05F65E4012BF1643B2FA32
:10CB800082F502FA05F4C5F120051EBF22FA05FC64
:10CB900044EA0C04203556EA044C4FEA144418BF0A
:10CBA000641C4FF000084FF00009904271EB030C39
:10CBB00039D3002919BFB1FA81F701FA07F6B0FAA3
:10CBC00080F700FA07F6C7F120071EBF20FA07FC1E
:10CBD00046EA0C062037B6FBF4FCA7EB0507103F2E
:10CBE00007F01F0BCBF120060CFA0BFB2CFA06F614
:10CBF00044BFB3460026202FA4BF5E464FF0000B73
:10CC00005BEA060C08BF4FF0010B19EB0B09ABFBFD
:10CC1000027C48EB0608C01B06FB02CC0BFB03CCD6
:10CC200071EB0C01C1E70B46024641464846BDE8A0
:10CC3000F08B13B54FF000004FF00001AFF3008010
:10CC4000BDE81C407047B2F120030AD5C2F12003B1
:10CC500001FA02F120FA03F300FA02F041EA0301BB
:10CC6000704700FA03F14FF00000704740EA0103FB
:10CC700010B59B070FD1042A0DD310C808C9121F85
:10CC80009C42F8D020BA19BA884201D9012010BDBF
:10CC90004FF0FF3010BD1AB1D30703D0521C07E08C
:10CCA000002010BD10F8013B11F8014B1B1B07D1F0
:10CCB00010F8013B11F8014B1B1B01D1921EF1D161
:10CCC000184610BD032A40F2308010F0030C00F02B
:10CCD000158011F8013BBCF1020F624498BF11F8B6
:10CCE00001CB00F8013B38BF11F8013BA2F104026F
:10CCF00098BF00F801CB38BF00F8013B11F00303E7
:10CD000000F02580083AC0F0088051F8043B083A4A
:10CD100051F804CBA0E80810F5E7121D5CBF51F8EC
:10CD2000043B40F8043BAFF30080D20724BF11F866
:10CD3000013B11F801CB48BF11F8012B24BF00F8CB
:10CD4000013B00F801CB48BF00F8012B704710B53C
:10CD5000203AC0F00B80B1E81850203AA0E81850F3
:10CD6000B1E81850A0E81850BFF4F5AF5FEA027CB4
:10CD700024BFB1E81850A0E8185044BF18C918C023
:10CD8000BDE810405FEA827C24BF51F8043B40F8C4
:10CD9000043B08BF7047D20728BF31F8023B48BFA9
:10CDA00011F8012B28BF20F8023B48BF00F8012BE7
:10CDB000704702F0FF0343EA032242EA024200F016
:10CDC00002B84FF000020429C0F0128010F0030CEA
:10CDD00000F01B80CCF1040CBCF1020F18BF00F86E
:10CDE000012BA8BF20F8022BA1EB0C0100F00DB81D
:10CDF0005FEAC17C24BF00F8012B00F8012B48BF7B
:10CE000000F8012B70474FF0000200B5134694461E
:10CE10009646203922BFA0E80C50A0E80C50B1F192
:10CE20002001BFF4F7AF090728BFA0E80C5048BFA6
:10CE30000CC05DF804EB890028BF40F8042B08BF44
:10CE4000704748BF20F8022B11F0804F18BF00F840
:10CE5000012B7047704770477047754600F02CF8FB
:10CE6000AE4605006946534620F00700854618B0D7
:10CE700020B5FFF75FFEBDE820404FF000064FF001
:10CE800000074FF000084FF0000B21F00701AC46FF
:10CE9000ACE8C009ACE8C009ACE8C009ACE8C0091E
:10CEA0008D46704710B50446AFF300802046BDE8BC
:10CEB0001040FBF7EEB90000004870474809002019
:10CEC00001491820ABBEFEE72600020070474FF074
:10CED0004070E1EE100A7047020000000000000000
:10CEE00000000000000000005100000000000000F1
:10CEF0000000000000000000000000000000000032
:10CF000000000000000000000000000050000000D1
:10CF10000000000000000000000000000000000011
:10CF20000000000000000000000000000000000001
:10CF3000FFFF000022002100240000002100220049
:10CF400024000000020000001A0000005000000051
:10CF5000FFFFFFFFFFFFFFFFFFFFFFFF00000000DD
:10CF6000000000000000000001000000FFFFFFFFC4
:10CF700096C298D84539A1F4A033EB2D817D037773
:10CF8000F240A463E5E6BCF847422CE1F2D1176B0E
:10CF9000F551BF376840B6CBCE5E316B5733CE2BE1
:10CFA000169E0F7C4AEBE78E9B7F1AFEE242E34F10
:10CFB000512563FCC2CAB9F3849E17A7ADFAE6BC3B
:10CFC000FFFFFFFFFFFFFFFF00000000FFFFFFFF6D
:10CFD0000000000070CF0F00000000000000000003
:10CFE000982F8A4291443771CFFBC0B5A5DBB5E9D4
:10CFF0005BC25639F111F159A4823F92D55E1CAB48
:10D0000098AA07D8015B8312BE853124C37D0C55D5
:10D01000745DBE72FEB1DE80A706DC9B74F19BC11D
:10D02000C1699BE48647BEEFC69DC10FCCA10C240D
:10D030006F2CE92DAA84744ADCA9B05CDA88F976F1
:10D0400052513E986DC631A8C82703B0C77F59BF5B
:10D05000F30BE0C64791A7D55163CA066729291487
:10D06000850AB72738211B2EFC6D2C4D130D385324
:10D0700054730A65BB0A6A762EC9C281852C7292E6
:10D08000A1E8BFA24B661AA8708B4BC2A3516CC714
:10D0900019E892D1240699D685350EF470A06A104D
:10D0A00016C1A419086C371E4C774827B5BCB0349C
:10D0B000B30C1C394AAAD84E4FCA9C5BF36F2E683A
:10D0C000EE828F746F63A5781478C8840802C78CC9
:10D0D000FAFFBE90EB6C50A4F7A3F9BEF27871C6CC
:10D0E00020D10F00040000203C0000003C820F0013
:10D0F0005CD10F0000FD0320380000003C820F00CF
:10D100005CD10F0040000020684D000058820F00E5
:10D1100094D10F0038FD0320D801000058820F0081
:10D12000000000000000000003000000D6BE898E51
:10D1300000000000000000000000000000000000EF
:10D140000000000000000000000000009107002027
:10D1500000000000000000000090D003000000006C
:10D1600000000000000000000000000000000000BF
:10D1700000000000000000000000000000000000AF
:10D18000000000000101000000000000000000009D
:04D19000000000009B
:020000041000EA
:0410140000800F0049
:020000041000EA
:0410180000700F0055
:04000005000F820165
:00000001FF
