:020000022000DC
:1060000000FD0020655604008D5604008F560400E4
:1060100091560400935604009556040000000000B9
:10602000000000000000000000000000975604007F
:1060300099560400000000009B5604009D56040081
:106040009F5604009F5604009F5604009F5604006C
:106050009F5604009F56040091A102009F56040021
:106060009F560400399D0200D94203009F56040048
:106070009F5604009F5604009F5604009F5604003C
:106080009F560400C92A040031F502009F560400FF
:10609000992B04009F5604006DAE02009F56040029
:1060A0009F5604009F5604009F5604009F5604000C
:1060B0009F5604009F5604000000000000000000EE
:1060C0009F5604009F5604009F5604009F560400EC
:1060D0009F5604009F5604009F56040000000000D5
:1060E00000000000000000000000000000000000B0
:1060F00000000000000000000000000000000000A0
:10610000000000000000000000000000000000008F
:10611000000000000000000000000000000000007F
:10612000000000000000000000000000000000006F
:10613000000000000000000000000000000000005F
:10614000000000000000000000000000000000004F
:10615000000000000000000000000000000000003F
:10616000000000000000000000000000000000002F
:10617000000000000000000000000000000000001F
:10618000000000000000000000000000000000000F
:1061900000000000000000000000000000000000FF
:1061A00000000000000000000000000000000000EF
:1061B00000000000000000000000000000000000DF
:1061C00000000000000000000000000000000000CF
:1061D00000000000000000000000000000000000BF
:1061E00000000000000000000000000000000000AF
:1061F000000000000000000000000000000000009F
:1062000010B5054C237833B9044B13B10448AFF3F0
:1062100000800123237010BD5033002000000000D7
:10622000449C040008B5034B1BB103490348AFF37A
:10623000008008BD0000000054330020449C04008E
:10624000154B002B08BF134B9D46A3F5803A002148
:106250008B460F461348144A121A20F081FE0F4B4A
:10626000002B00D098470E4B002B00D09847002001
:10627000002104000D000D48002802D00C48AFF3A7
:10628000008020F01DFE2000290000F0C1FB20F05E
:1062900003FE00BF0000080000FD00200000000019
:1062A00000000000503300201871002000000000A2
:1062B0000000000041DF7047014B1B880B807047D6
:1062C000F03300201FB55248002101F0EBFE08B169
:1062D0001FF0E6F94F4C236859041DD54E4B1B683F
:1062E000032B19DD4D482F2120F00CFF002873D01F
:1062F0002F214A4820F006FF411C454A484B92F89E
:10630000BC00D3F80435029012880192454A0092ED
:106310000420BD220AF01CF93D4A4348012100F047
:1063200065FF08B11FF0BCF923685A041DD53A4B2C
:106330001B68032B19DD39482F2120F0E3FE0028CC
:1063400053D02F21354820F0DDFE411C364A344B16
:1063500092F86001D3F80435029012880192334A12
:1063600000920420C3220AF0F3F83148002102F021
:10637000F5FA08B11FF094F92E492D4802F01EFBE2
:1063800008B11FF08DF92A49274800F077FF08B1BE
:106390001FF086F923685B041CD51F4B1B68032B79
:1063A00018DD1E482F2120F0ADFE38B32F211B48E9
:1063B00020F0A8FE411C1E4A194B92F83400D3F875
:1063C00004350290128801921B4A00920420CE22CA
:1063D0000AF0BEF804B010BD10485C2120F092FE17
:1063E00008B15C2185E70D4987E70C485C2120F066
:1063F00089FE08B15C21A5E70849A7E707485C21A9
:1064000020F080FE08B15C21D1E70449D3E700BF4A
:10641000782F002088320020843200209C710400F4
:1064200000100140C3710400002E0020FC71040024
:10643000383100206C2F00202D720400024B0348DD
:10644000198003F09BB800BFF03300201831002002
:1064500007B5154B1B685B0416D5144B1B68032B43
:1064600012DD13482F2120F04DFEA0B12F2110483E
:1064700020F048FE411C0F4B0F4AD3F80435009220
:106480000420F3220AF064F803F018F803B05DF872
:1064900004EB02F0F9BC06485C2120F033FE08B1A1
:1064A0005C21E4E70249E6E78832002084320020DC
:1064B0009C710400001001405C7204000378232BDF
:1064C00001D1FFF7C5BF70471FB503A81BF00CFA39
:1064D000154B1B685B041AD5144B1B68032B16DD88
:1064E00013482F2120F00EFEA0B12F21104820F0DC
:1064F00009FE411C0F4BBDF80C20D3F80435019266
:106500000D4A009204204FF4AC720AF021F805B055
:106510005DF804FB06485C2120F0F4FD08B15C2125
:10652000E4E70349E6E700BF883200208432002018
:106530009C710400001001407572040007B5174BF0
:106540001B685B0417D5164B1B68032B13DD15481E
:106550002F2120F0D7FDB8B12F21124820F0D2FD15
:10656000411C114B114AD3F804350092042040F22B
:106570005D1209F0EDFF03F0E5FF04F00BF803B046
:106580005DF804EBFFF7A0BF06485C2120F0BAFDE0
:1065900008B15C21E1E70349E3E700BF883200204E
:1065A000843200209C710400001001408C720400B1
:1065B00030B5154B1B685B0485B00C46154618D5E5
:1065C000124B1B68032B14DD11482F2120F09AFD7C
:1065D00088B12F210E4820F095FD411C0D4B0E4A2D
:1065E000D3F804350092CDE90145B322042009F027
:1065F000AFFF05B030BD06485C2120F083FD08B137
:106600005C21E7E70249E9E7883200208432002074
:106610009C71040000100140A672040030B5154BB7
:106620001B685B0485B00C46154618D5124B1B68D9
:10663000032B14DD11482F2120F064FD88B12F2198
:106640000E4820F05FFD411C0D4B0E4AD3F8043577
:106650000092CDE90145AA22042009F079FF05B096
:1066600030BD06485C2120F04DFD08B15C21E7E714
:106670000249E9E788320020843200209C7104003E
:1066800000100140CD720400F0B5394E326852045A
:10669000C7B0044622D5374F3A68042A1EDD364873
:1066A0002F2120F02FFDD8B12F21334820F02AFDD3
:1066B000411C324D2279D5F8043503922289029289
:1066C000E28801922E4A00920520EA2209F040FF5A
:1066D00033685B0402D53B68042B0ADC47B0F0BD8D
:1066E00025485C2120F00EFD08B15C21DDE7224940
:1066F000DFE72269234B802A1F6805AB28BF802271
:1067000000211E468A4203F1020318D100231A48D1
:1067100006F812302F2120F0F5FCF8B12F21164891
:1067200020F0F0FC411C184AD5F804350192174AB4
:1067300000920296EC22052009F00AFFCEE7E068FD
:10674000405C4FEA101C00F00F0017F80CC003F873
:1067500002CC385C03F8010C0131D3E706485C2118
:1067600020F0D0FC08B15C21D9E70349DBE700BF8A
:1067700088320020843200209C7104000010014007
:10678000F87204008C320020267304003073040079
:1067900007B503781D2B15D10D480DF1070100F049
:1067A0004DFD08B11EF07CFF9DF807303BB9084B4A
:1067B000D3F8680101F0ECFC08B11EF071FF03B0E2
:1067C0005DF804FB142BFAD1FFF75EFFF7E700BF7B
:1067D000002E002073B506461A4814460D4616F0E2
:1067E000CBFD194B1B68A04208BF34465B0418D58B
:1067F000164B1B68032B14DD15482F2120F082FC5B
:10680000B8B12F21124820F07DFC411C114B124AD7
:10681000D3F80435009201944FF48472042009F0F7
:1068200097FE08482A46214602B0BDE8704016F09F
:10683000F3BD07485C2120F065FC08B15C21E1E76D
:106840000349E3E7002E0020883200208432002034
:106850009C710400001001403873040037B5644D8A
:10686000A0F131022B68052A03F4804300F29F80D7
:10687000A0F13004C3B15F4B1B68032B14DD5E48ED
:106880002F2120F03FFC68B32F215B4820F03AFC19
:10689000411C5A4B5A4AD3F804350092019440F2F5
:1068A0001912042009F054FE012C24D0042C43D0EA
:1068B0002B685B0467D54F4B1B68032B63DD4E4889
:1068C0002F2120F01FFC002868D02F214A4820F0FB
:1068D00019FC411C494B4B4AD3F8043500924FF444
:1068E000A1724DE044485C2120F00CFC08B15C2111
:1068F000CBE74149CDE741F2941236210020FFF762
:1069000069FF4FF4FA6237210020FFF763FF40F67A
:10691000AC5238210020FFF75DFF40F6AC52392120
:106920000020FFF757FF384842F210723C2103B0B5
:10693000BDE83040FFF74EBF02F0A4FA40B10FF0BF
:10694000DFFF02F045FA03B0BDE83040FFF780BD3D
:106950002B685A0417D5274B1B68032B13DD2648D9
:106960002F2120F0CFFB80B12F21234820F0CAFB3C
:10697000411C224B254AD3F8043500924FF49E72F5
:10698000042009F0E5FD03B030BD1B485C2120F078
:10699000B9FB08B15C21E8E71749EAE716485C2132
:1069A00020F0B0FB08B15C2190E7134992E7002B7F
:1069B000E9D0104B1B68032BE5DD0F482F2120F099
:1069C000A1FB60B12F210C4820F09CFB411C0B4B1C
:1069D0000C4AD3F8043500924FF4A872D0E7064869
:1069E0005C2120F08FFB08B15C21ECE70249EEE767
:1069F00088320020843200209C7104000010014085
:106A0000567304009C740400C0D401006973040030
:106A100000B57B4C7B4A4FF4C0408DB0042109F097
:106A20007BFD2368580418D5774B1B68032B14DDB6
:106A300076482F2120F066FB00283ED02F21734896
:106A400020F060FB411C724B724AD3F8043500926F
:106A500004204FF4C97209F07BFD6F4802F03EFD3F
:106A60001CF0E2F908B11EF01BFE03F02FFD03F04D
:106A700069FD03F08FFD02F0DFFC0021202203A856
:106A800020F06EFA01238DF80C3007238DF80F30BB
:106A900006238DF81430614B07936149614B0B93CA
:106AA00003A802F0A3F918B902F0E6FC002831D0DF
:106AB0000B280BD01EF0F4FD2CE054485C2120F094
:106AC00021FB08B15C21BAE75049BCE702F0F6FCB3
:106AD000236859041ED54C4E3268032A1ADD4B48F0
:106AE0002F2120F00FFB002857D02F21474820F0FE
:106AF00009FB411C464D4C4AD5F804350092042050
:106B00004FF4C27209F024FD23685A0402D5336899
:106B1000032B4BDC6421454802F03AFB404B1978CB
:106B2000002960D1142203A820F01AFA404B0493E4
:106B3000404B089303A8404B099302F0CDFA08B1EB
:106B40001EF0AEFD04F00AFC02F058FB3B4807F0D3
:106B500055FC02F0AFF808B11EF0A2FD23685B04FB
:106B600018D5294B1B68032B14DD28482F2120F052
:106B7000C9FA00283AD02F21244820F0C3FA411C3A
:106B8000234B2F4AD3F80435009204204FF4DF72D0
:106B900009F0DEFCFFF78EFBFCE71C485C2120F0CF
:106BA000B1FA08B15C21A1E71849A3E717482F21E2
:106BB00020F0A8FA70B12F21144820F0A3FA411C4C
:106BC000204AD5F80435009204204FF4C37209F02E
:106BD000BFFC9FE70D485C2120F094FA08B15C21CE
:106BE000EAE70A49ECE7FFF76FFCABE707485C21EF
:106BF00020F088FA08B15C21BEE70449C0E700BF75
:106C000088320020ED040300843200209C710400CF
:106C100000100140A073040018310020BD64020080
:106C20006C330020C5620200C57304005D68020079
:106C30003D6502004F740400EF750400F02D002044
:106C40009C7404001374040050F8040CD0F89831BC
:106C500000F5CC709B68184708B590F8720017F0E3
:106C60001AFA28B1BDE80840024AB3211EF025BD3A
:106C700008BD00BFFF7504002DE9F0478AB0064645
:106C800017469846A0F5B67404AB10F8FA0C01222A
:106C90000D4617F02AFA20B1824A4FF48C711EF08B
:106CA0000CFD0021204615F06BFE20B17D4A4FF40B
:106CB0008F711EF002FD9DF810305BB9D4F86801A9
:106CC000D0F898313A46D3F804902946434600F567
:106CD000CC70C847DFF8E481724F08F1150A18F844
:106CE000019B94F87200002305AA4946CDE90533BB
:106CF00017F0D1F920B13A464FF497711EF0DDFC40
:106D000094F8720006AB4A46294617F0EEF920B116
:106D10003A4640F231111EF0D0FC94F8720006AAF7
:106D2000494617F0A5F920B13A4640F235111EF058
:106D3000C4FCDDE905239A4230D000230DF1120195
:106D40004846CDE90733ADF8243016F0EFF820B10E
:106D50003A4640F23F111EF0B0FCBDF812000DF1B2
:106D6000110116F079F920B13A464FF4A0711EF0E6
:106D7000A4FCBDF81210204616F0FEFABDF8123041
:106D8000079007A99DF81120ADF820300DF12200E1
:106D900020F0D8F808A9204615F05FF8C2459ED12A
:106DA0009DF81010003918BF0121204615F0E8FDAC
:106DB00020B13C4A40F249111EF07FFC204616F0FB
:106DC000FEF9003818BF01208DF81C0007A9A6F5B0
:106DD000B47014F0F5FF344F0646E0B13B685A0436
:106DE00019D5324B1B68012B15DD2E482F2120F0C1
:106DF00089F9002844D02F212A4820F083F9411C2A
:106E00002B4B2C4AD3F80435009201964FF4A9720B
:106E1000022009F09DFB214608A816F0DDF99DF837
:106E200020100022204615F027FE20B11D4A40F216
:106E300059111EF042FC3B685B041ED51B4B1B68BE
:106E4000042B1ADD17482F2120F05CF908B32F21FD
:106E5000144820F057F9411C9DF81020144BD3F82A
:106E60000435CDE9025294F872200192124A009240
:106E7000052040F25D1209F06BFB0AB0BDE8F08717
:106E800008485C2120F03EF908B15C21B4E70549CF
:106E9000B6E704485C2120F035F908B15C21D7E75A
:106EA0000049D9E7FF7504008832002084320020B1
:106EB0000010014025760400717604007577040007
:106EC0002DE9F04FA0F5B67487B0D4F86801DFF86B
:106ED0001491D0F89831DFF810811B68DFF8FCB00E
:106EE00000F5CC700D4698470026CA4618F8017B7D
:106EF00094F87200002305AA3946059317F0CBF8E1
:106F000018B1334AFB211EF0D8FB94F8720005AB90
:106F10003A46294617F0D2F818B12D4AFE211EF044
:106F2000CCFBD9F800305A041AD52A4B1B68052B24
:106F300016DD27482F2120F0E5F8002836D02F2134
:106F4000234820F0DFF8411C059ADBF80435CDE931
:106F50000172214A009206204FF4817209F0F8FA7A
:106F60000136152EC2D1DAF800305B041BD5194B5F
:106F70001B68042B17DD16482F2120F0C3F8F0B151
:106F80002F21134820F0BEF8411C144BD3F80435D0
:106F9000029594F872200192114A0092052040F265
:106FA000071209F0D5FA07B0BDE8F08F08485C2158
:106FB00020F0A8F808B15C21C2E70549C4E70448FD
:106FC0005C2120F09FF808B15C21DAE70049DCE79A
:106FD000FF75040084320020A576040000100140F3
:106FE000CC760400883200207577040037B50D4652
:106FF000044610B9784604F079F9D4F86801D0F85D
:10700000C0306A461B6800219847BDF800302B80CD
:1070100003B030BD13B5044620B90191784604F0A1
:1070200065F90199D4F8680101F00CF930B1044A0E
:10703000C42102B0BDE810401EF03FBB02B010BD3D
:10704000FF75040070B586B004461646002390F81C
:107050007200049304AA0D4617F01DF818B1384ABF
:1070600098211EF02AFB324694F87200354E2946CC
:1070700016F0FEFFD8B133685A0418D5324B1B689E
:10708000002B14DD2E482F2120F03CF8002844D09E
:107090002F212B4820F036F8411C2C4B2C4AD3F8DA
:1070A0000435009201959D22012009F051FA002338
:1070B00094F87200059305AA294616F0ECFF18B162
:1070C0001F4AA2211EF0F9FA33685B041BD51E4B40
:1070D0001B68042B17DD1A482F2120F013F828B362
:1070E0002F21174820F00EF8411C184B059AD3F8B1
:1070F00004350392049ACDE90152164A0092052004
:10710000A32209F025FADDE904239A4203D0D4F83A
:10711000700101F063FC06B070BD09485C211FF0EE
:10712000F1FF08B15C21B4E70549B6E704485C21EA
:107130001FF0E8FF08B15C21D3E70149D5E700BFA4
:10714000FF750400883200208432002000100140C6
:10715000F67604000E7704001FB504460DF10F0209
:1071600090F87200012116F096FF18B11A4A852195
:107170001EF0A3FA9DF80F301BB3184B1B685B047D
:1071800016D5174B1B68032B12DD13482F211FF058
:10719000B9FFC0B12F2110481FF0B4FF411C114BA3
:1071A000114AD3F80435009204208A2209F0D0F95C
:1071B0000021204615F0E4FB18B1074A8B211EF090
:1071C0007CFA04B010BD04485C211FF09BFF08B19D
:1071D0005C21E0E70049E2E7FF7504008832002007
:1071E00084320020001001404977040013B50446A2
:1071F0000191D0B1CAB1C0F86821C2F8E000D0F85E
:1072000068310B4AC3F8DC200A4BC0F86C3172308D
:1072100016F082FF50B9084B0199C4F8643120463A
:1072200002B0BDE8104014F063BE0E2002B010BDE5
:10723000597102009C7704008C77040037B50D4625
:107240000446B0B1A9B1D0F868310DF1070193F847
:10725000C40014F08FF820B1074A40F29B111EF0D1
:107260002CFA9DF807102A46204614F0C5FE03B0FC
:1072700030BD0E20FBE700BFFF75040030B129B11F
:10728000C0F87011D0F8680101F01AB80E207047EC
:10729000A03801F099BC00002DE9F3411C4B1D4DB5
:1072A0001C681D4E1D4F1CB9012002B0BDE8F081C5
:1072B00014F8043CA4F5CA78FBB12B685B0415D51F
:1072C0003368032B12DD16482F211FF01BFFB0B1CE
:1072D0002F2113481FF016FF411C124AD7F804351E
:1072E000009204204FF4387209F032F9002388F834
:1072F0009031A4F19C0001F067FC2468D3E70848B2
:107300005C211FF0FFFE08B15C21E2E70449E4E7DD
:1073100028340020883200208432002000100140F0
:10732000A8770400D577040010B5037F012B86B041
:1073300004463CD110F8063C002B3BD134F8083C05
:1073400024F80E3C002344F8043C224B1B685B04E9
:1073500021D5214B1B68032B1DDD20482F211FF059
:10736000D1FE60B32F211D481FF0CCFE411C1C4BE9
:10737000226AD3F804350492626A039234F80C2C22
:10738000029214F83C2C0192164A0092042040F21A
:10739000153209F0DDF854F8283CCBB134F80E2C46
:1073A000216AA4F1F80006B0BDE81040184713F0B8
:1073B000FD0FC3D134F80A3C24F80C3CBEE7074863
:1073C0005C211FF09FFE08B15C21CCE70349CEE7AA
:1073D00006B010BD8832002084320020A877040057
:1073E00000100140E377040038B5C4B20D462046D2
:1073F000023114F06CF818B10C4A9B211EF05DF9B3
:10740000291D204614F083F818B1084A9C211EF06B
:1074100054F92946204614F03AF828B1BDE838401E
:10742000024A9D211EF049B938BD00BFA87704006B
:1074300038B51546044600B112B9784603F056FF38
:1074400094F82000294614F0A1F830B1BDE8384086
:10745000024A40F2ED111EF030B938BDA8770400A1
:1074600037B50546144612B9784603F03FFF95F844
:10747000C4006946FFF7B8FFBDF802306380BDF86D
:107480000430A3809DF80030237003B030BD0000AD
:1074900073B514461E46054600B112B9784603F08E
:1074A00025FF216895F8200014F05EF820B1084A05
:1074B00040F205211EF001F92368019301A9284635
:1074C00012F088FD0EB12368336002B070BD00BFBA
:1074D000A877040013B5D0F8E830CDE90031D0F832
:1074E000D43004461BB1D0F8D800694698476946A5
:1074F000201D13F0B3FC02B010BD000030B51546DE
:1075000089B0044600B112B9784603F0EFFED4F812
:10751000CC300DF1160120469847BDF816302B806F
:1075200094F82431022B3BD194F8C40006A9FFF74C
:107530005BFFB4F8EA30BDF81C2093424FF0FF33F4
:1075400018BF00236B80D4F818312BB1D4F81C314C
:10755000003B18BF01235B426B601A4B1B685B0446
:107560001CD5194B1B68042B18DD18482F211FF060
:10757000C9FDF0B12F2115481FF0C4FD411C144B6B
:107580006A68D3F8043503926A8802922A880192C5
:10759000104A00920520D32208F0DAFF09B030BD6E
:1075A000B4F8EA306B8004F1F80001F01BFB68606E
:1075B000D3E706485C211FF0A5FD08B15C21DAE79E
:1075C0000249DCE78832002084320020A8770400DA
:1075D00000100140247804002DE9B34F0446A0F1C7
:1075E000F80901F018FB0746204601F0FBFA94F871
:1075F0002C3034F80C5C226A022B80464BD034F8D5
:107600000E0C401B4FEAE07BA0FB070107FB0B11B0
:10761000D3171FF071FA6946054414F8340CFFF7CC
:10762000E3FE002D40D0BDF802108D42B8BF0D46DC
:10763000BDF804108D42A8BF0D46A9B254F8303CE5
:1076400024F8101C0BB14846984794F82C30022BB4
:107650000FD1626A34F8103C002A27DDBDF80420FF
:107660009A4206D1012384F89830124B186807F02B
:1076700087FEB8F5FA7F0BD954F8043CFB1AB3F532
:107680007A7F05D944F8047C41464846FFF722FF3B
:1076900002B0BDE8B08F606A4FEAE07BA0FB070153
:1076A00007FB0B110023B4E72946C7E7E1D0BDF87B
:1076B0000220D5E72434002038B51546044600B131
:1076C00012B9784603F012FE94F86000294613F0D0
:1076D00051FE30B1BDE83840024A40F2D5111DF0EC
:1076E000ECBF38BDA877040070B514461D460646A9
:1076F00000B112B9784603F0F9FD217896F86000E0
:1077000013F026FE20B1044A40F2C1111DF0D5FF4E
:107710000DB123782B7070BDA877040073B50446B3
:107720001D46164612B9784603F0E0FD694694F806
:10773000C400FFF759FE318800238DF8003071B97D
:1077400001238DF8003045B1BDF802306B80BDF8E3
:107750000430AB809DF800302B7002B070BD738890
:1077600094F8C400ADF80210ADF8043013F09CFE9C
:1077700020B1114A40F27F211DF09FFFBDF8041097
:1077800094F8C40013F0B0FE20B10B4A4FF42071FE
:107790001DF093FF9DF8001094F8C40013F064FEF0
:1077A00020B1054A40F281211DF087FF6946201D66
:1077B00013F07AFBC7E700BFA877040073B506464D
:1077C0001D46144612B9784603F090FD218896F8BC
:1077D000C40013F029FE20B1084A40F23E211DF0FA
:1077E0006CFF2388ADF8043001A9301D13F053FB62
:1077F0000DB123882B8002B070BD00BFA8770400B4
:1078000038B50546144612B9784603F06FFD95F871
:10781000C400214613F01BFE30B1BDE83840034AD6
:1078200040F225211DF049BF38BD00BFA8770400F4
:1078300038B50546144612B9784603F057FD95F859
:10784000C400214613F0CAFD30B1BDE83840034AF8
:1078500040F21A211DF031BF38BD00BFA8770400E7
:107860001FB5174B1B685B0404461DD5154B1B68E1
:10787000032B19DD14482F211FF044FCB0B12F2138
:1078800011481FF03FFC411C104B34F8102CD3F86A
:107890000435029214F83C2C01920D4A0092042007
:1078A0004FF43F7208F054FE04B010BD06485C214E
:1078B0001FF028FC08B15C21E2E70349E4E700BFC0
:1078C0008832002084320020A87704000010014094
:1078D0004A78040008B50023C0F8283100F5847107
:1078E00090F8C40013F052FE30B1BDE80840034ADE
:1078F00040F2BB311DF0E1BE08BD00BFA877040017
:107900002DE9F0418AB01646DDF840801F46044656
:1079100000B112B9784603F0E9FCD4F8DC301BB1B1
:107920003188D4F8E0009847D4F8CC300DF11E012E
:107930002046984794F8C400358808A9FFF754FDFD
:10794000BDF824309D427ED8BDF822309D4202D23F
:10795000002D18BF1D46B4F8E83094F8C400A4F810
:10796000F050A4F8EE30294613F0DEFD18B1404A7D
:10797000F2211DF0A2FEB4F8F01049B194F8C40051
:10798000002213F003FD18B1394AF5211DF095FED0
:1079900094F8C530BDF81E2013B13388934264D0EB
:1079A000B4F8F0309B1AC4F80C3100222D2384F86F
:1079B0001421C4F81031002F47D12046FFF78AFF69
:1079C0002C4BD4F808511B685B0424D52A4B1B6848
:1079D000032B20DD26482F211FF094FB00283BD0ED
:1079E0002F2123481FF08EFB411C244BD4F80C217F
:1079F000D3F804350492D4F808210392D4F828214E
:107A00000292B4F8F02001921D4A0092042040F244
:107A1000011208F09DFD04F1F80001F0C7F8D4F858
:107A20009C0100F0DBFFB8F1000F09D0B4F8E8309A
:107A3000A8F80030B4F8F030A8F80230C8F80450C4
:107A40000AB0BDE8F0811D4685E77B68C4F828319F
:107A50003B68C4F80831B3E705485C211FF052FBCE
:107A600008B15C21BDE70249BFE70025DBE700BFA5
:107A7000A8770400883200208432002000100140E2
:107A80007D78040030B5A0F5CC7530F8B02C10F836
:107A9000D40C85B00C4613F086FD20B1194A40F293
:107AA000CE311DF00AFE184B1B685B041ED5174B28
:107AB0001B68042B1ADD13482F211FF023FBB8B1DC
:107AC0002F2110481FF01EFB411CB5F8E820104B79
:107AD000D3F80435CDE9024295F8C42001920D4A4D
:107AE0000092052040F2D33208F032FD05B030BDDF
:107AF00004485C211FF006FB08B15C21E1E7014965
:107B0000E3E700BFA8770400883200208432002019
:107B100000100140BB78040013B50446694690F894
:107B2000C400FFF761FCB4F8E810BDF80220BDF80E
:107B3000043029B1914238BF1146994228BF1946F5
:107B4000D4F8C830A4F8E8100BB12046984702B02A
:107B500010BD000030B590F82C2030F8083C20F81B
:107B60000E3C022AA0F1F80518BF20F8103C85B0A1
:107B700004462846FFF7D0FF2A4B1B685B041ED53E
:107B8000294B1B68032B1ADD28482F211FF0BAFA56
:107B900000283DD02F2125481FF0B4FA411C244B6A
:107BA00034F8102CD3F80435029214F83C2C0192CE
:107BB000204A009204204FF4647208F0C9FC54F883
:107BC000283C23B134F80E2C216A2846984734F813
:107BD000101C51B114F8340C012213F0D7FB20B162
:107BE000124A40F29F311DF068FD34F8101C14F861
:107BF000340C13F099FC20B10C4A40F2A3311DF073
:107C00005CFD0021284605B0BDE83040FFF762BCAE
:107C100006485C211FF076FA08B15C21BBE70349F6
:107C2000BDE700BF8832002084320020A87704001E
:107C300000100140FC780400F0B587B015460C9E9A
:107C40001F46044600B112B9784603F04FFBD4F842
:107C5000DC301BB12988D4F8E0009847B5F9003032
:107C6000C4F80C3102222D2384F81421C4F81031F9
:107C7000002F67D12046FFF72DFED4F8CC3004F159
:107C8000E8012046984794F8C40004A9FFF7ACFB2C
:107C9000B5F90030002B5CDDD4F80831002B5FD043
:107CA000BDF81430A4F8F030334B1B685B0421D5C9
:107CB000324B1B68032B1DDD31482F211FF022FAA8
:107CC000002850D02F212E481FF01CFA411C2D4BAC
:107CD000D4F80821D3F804350392D4F8282102926D
:107CE000B5F900200192284A009204204FF4CB728B
:107CF00008F02EFC04F1F80000F058FFB5F9003050
:107D000033B1D4F808311BB1D4F89C0100F066FE01
:107D1000B6B1B4F8E8303380B4F8EA30BDF81420D6
:107D200093424FF0FF3318BF00237380D4F808311B
:107D30002BB1B5F90030003B18BF01235B427360E3
:107D400007B0F0BD7B68C4F828313B68C4F808313F
:107D500093E705D0D4F8083113B1BDF81230A1E78C
:107D6000B4F8E8309EE706485C211FF0CBF908B173
:107D70005C21A8E70249AAE788320020843200206B
:107D8000A8770400001001402D7904002DE9F0418E
:107D900088B015460E9F1E46044600B112B97846BB
:107DA00003F0A4FAD4F8DC301BB12988D4F8E00041
:107DB000984704F1080011F0B5FF5E4B84F8F2001B
:107DC0001A6812F4804F984625D05B4B1B68032B32
:107DD00021DD5A482F211FF095F9002800F08B80F3
:107DE0002F2156481FF08EF9411C94F8F2E0544AB6
:107DF000DFF85CC12879534BBEF1000F08BF624623
:107E0000D3F80435CDE901024F4A0092042040F234
:107E1000331208F09DFBD4F8CC3004F1E801204681
:107E2000984794F8C40006A9FFF7DEFA94F8F230F8
:107E3000002B7BD0B4F8E820A4F8EE202B681A447D
:107E4000002A61DDBDF81C30934205DBBDF81A3015
:107E50009A42B8BF1A4693B2A4F8F0302B68C4F81F
:107E60000C3101222D2384F81421C4F81031002E86
:107E70004CD12046FFF72EFDD8F800305B0423D507
:107E80002D4B1B68032B1FDD2C482F211FF03AF9C7
:107E9000002842D02F2129481FF034F9411C294BDA
:107EA000B4F8F020D3F804350492D4F808210392F2
:107EB000D4F8282102922A680192244A00920420D0
:107EC0004FF4A87208F044FB04F1F80000F06EFED5
:107ED0002B681BB1D4F89C0100F080FD47B1B4F8C9
:107EE000E8303B80B4F8F0307B80D4F808317B6018
:107EF00008B0BDE8F08111485C211FF003F908B11A
:107F00005C216EE70D4970E70023A5E77368C4F8AC
:107F100028313368C4F80831AEE708485C211FF007
:107F2000F1F808B15C21B6E70449B8E7B4F8EE20EF
:107F300084E700BF8832002084320020A877040044
:107F40005F790400001001408679040092790400F2
:107F5000677904002DE9F041A0F5CC7488B00E4695
:107F6000054605A920469846D4F8CC3017469847D0
:107F700094F8C4000DF11602314613F02AFB20B12B
:107F8000434A40F2E7311DF098FB94F8C400BDF875
:107F9000166006A9FFF728FABDF81C309E426BD880
:107FA000BDF81A309E4202D2002E18BF1E46B4F809
:107FB000E83094F8C400A4F8F060A4F8EE3031463C
:107FC00013F0B2FA20B1324A4FF47C711DF075FB08
:107FD000B4F8F01051B194F8C400002213F0D6F9AF
:107FE00020B12B4A40F2F5311DF067FB94F8C53003
:107FF0002BB1BDF81420BDF816309A4239D0A5F146
:10800000A006304600F0E0FDB4F8F030BDF81420D2
:108010009B1A45F88C3C2D2345F8883C00221D4BCB
:1080200005F8842CC4F8287145F8908C1B685B0413
:108030001CD5194B1B68032B18DD15482F211FF089
:1080400061F8D8B12F2112481FF05CF8411C134B86
:10805000D3F80435CDE90278B4F8F0200192104A43
:108060000092042040F2064208F072FA304600F016
:108070009DFD08B0BDE8F0811E4698E704485C21EC
:108080001FF040F808B15C21DDE70149DFE700BFE0
:10809000A8770400883200208432002000100140BC
:1080A000C679040037B50446002850D0D0F8CC304B
:1080B000002B4CD0D0F8C8301BB9D0F8D030002BF2
:1080C00045D0244BC4F8C030234B244A1A60244ABC
:1080D0005A60C4F8B830234B234A1A60C4F8AC3055
:1080E000224A019104F1C4005A6013F083FA054654
:1080F00050BB84F8C5000199204612F0DFFE05460A
:1081000010BB1B4BC4F898311A4BC4F8F8301A4B0B
:10811000C4F8FC30194BC4F8003104F1F800184BD6
:1081200084F89051C4F80431C4F8800100F088FD4F
:10813000054648B9134804F5CA7108F06EF91248AB
:1081400007F000F9114B1860284603B030BD0E252A
:10815000FAE700BF007A04001C340020E976020030
:10816000B9760200143400209174020031740200C8
:10817000247A04006178020029730200D975020094
:10818000557B02002834002099720200243400201C
:1081900030B5054685B0002850D090F8C44002A9FB
:1081A000204613F074F920B1254A4FF48B611DF07D
:1081B00084FA0DF10A01204613F089F920B1204A12
:1081C00040F259411DF079FA03A9204613F09FF9B6
:1081D00020B11B4A40F25A411DF06FFA6946204611
:1081E00013F0C8F820B1164A40F25B411DF065FA61
:1081F0000DF10201204613F0AAF920B1104A40F215
:108200005C411DF05AFA01A9204613F0E7F820B1AD
:108210000B4A40F25D411DF050FA0DF10601204677
:1082200013F015F920B1064A40F25E411DF045FAFF
:108230006946284612F00EFF05B030BD0E20FBE760
:10824000A877040070B50D460446A8B3B0F8E860FE
:10825000A0F8E810FFF760FC04F1F80000F0B4FCAF
:10826000D4F8D03023B1D4F808112A4620469847D4
:10827000B4F8E81051B194F8C400012213F086F864
:1082800020B10E4A40F2A7411DF017FAB4F8E810E9
:1082900094F8C40013F048F920B1084A40F2AB4109
:1082A0001DF00BFAB4F8E830B34203D0D4F89C01C7
:1082B00000F094FB002000E00E2070BDA8770400C1
:1082C00020B119B1C0F89C11002070470E207047F2
:1082D00010B5214B1B685B0486B0044621D51F4BAB
:1082E0001B68042B1DDD1E482F211EF00BFF38B329
:1082F0002F211B481EF006FF411C1A4B226AD3F89F
:1083000004350492626A039234F8062C029214F83F
:108310001C2C0192144A009205204FF4C67208F0FA
:1083200017F9002324F8083C54F8103C8BB134F8BA
:10833000062C216AA4F1500006B0BDE81040184791
:1083400007485C211EF0DEFE08B15C21D1E704493C
:10835000D3E706B010BD00BF883200208432002071
:10836000307A040000100140537A0400F8B50A4F37
:1083700005460E46002495F83C0006EB4402E1B2A7
:1083800016F08AFA18B13A4662211DF096F90134C6
:10839000102CF0D1F8BD00BF307A0400F0B51746BC
:1083A00087B01E46044600B112B9784602F09EFF1F
:1083B000398894F83C000DF1170216F085FA05464D
:1083C00028B3002E41D12A4B1B685B041DD5294BD5
:1083D0001B68032B19DD28482F211EF093FE00286F
:1083E0003DD02F2124481EF08DFE411C234BB4F8B4
:1083F0004820D3F804350292B4F84A200192204A6A
:1084000000920420C32208F0A3F807B0F0BD3B8817
:10841000B4F848209A4203D0B4F84A209A4205D1D1
:1084200004F1500000F0D0FB0023A36404F1E8073E
:10843000D4F8EC30AB42C4D957F825009DF817109A
:1084400003689B6898470135F2E700233370B4F85E
:1084500048307380311D2046FFF788FFB3E7064898
:108460005C211EF04FFE08B15C21BBE70249BDE76D
:108470008832002084320020307A0400001001404D
:10848000977A0400F0B5174687B01E46044600B13F
:1084900012B9784602F02AFF398894F83C000DF1B1
:1084A000170216F0CFF9054600283FD13B88A4F803
:1084B000483004F1E807D4F8EC30AB422DD8002561
:1084C0003EB13570B4F848307380311D2046FFF757
:1084D0004DFF1C4B1B685B041DD51B4B1B68032BFE
:1084E00019DD1A482F211EF00DFE08B32F21174861
:1084F0001EF008FE411C164BB4F84820D3F8043592
:108500000392B4F84A20CDE90152124A00920420A5
:10851000982208F01DF807B0F0BD57F825009DF827
:10852000171003681B6898470135C4E70125C7E7A2
:1085300006485C211EF0E6FD08B15C21D7E703493F
:10854000D9E700BF8832002084320020307A04004E
:1085500000100140BE7A040013B5154B1B685B0484
:1085600004461AD5134B1B68042B16DD12482F2125
:108570001EF0C8FD98B12F210F481EF0C3FD411C0D
:108580000E4B14F81C2CD3F8043501920C4A0092BF
:10859000052040F2831207F0DBFF02B010BD064851
:1085A0005C211EF0AFFD08B15C21E5E70249E7E779
:1085B0008832002084320020307A0400001001400C
:1085C000F07A040037B51446054600B112B9784672
:1085D00002F08CFE00232370B5F848306380211D23
:1085E0002846FFF7C3FE144B1B685B0418D5134BDA
:1085F0001B68032B14DD12482F211EF083FD88B168
:108600002F210F481EF07EFD411C0E4B6288D3F8CF
:10861000043501920C4A00920420F82207F098FFDA
:1086200003B030BD06485C211EF06CFD08B15C2132
:10863000E7E70349E9E700BF8832002084320020E1
:10864000307A0400001001400C7B040030B5144661
:1086500087B0054600B112B9784602F047FE002304
:108660002370B5F848306380B5F84A30A38095F898
:108670007C30022B2AD12B6F003B18BF01235B42B9
:10868000A3601A4B1B685B041ED5194B1B68032B98
:108690001ADD18482F211EF035FDE8B12F211548AD
:1086A0001EF030FD411C144B6A6FD3F80435049260
:1086B000A2680392A2880292628801920F4A0092F5
:1086C0000420E22207F044FF07B030BD05F150005E
:1086D00000F088FAA060D4E706485C211EF012FD85
:1086E00008B15C21DBE70349DDE700BF88320020E9
:1086F00084320020307A0400001001402F7B0400F7
:1087000010B530F8063C20F8083C002320F8063C61
:10871000244B1B685B0488B004461DD5224B1B68A4
:10872000042B19DD21482F211EF0ECFC88B32F21EA
:108730001E481EF0E7FC411C1D4B34F8082CD3F8F2
:108740000435029214F81C2C01921A4A009205205A
:108750004FF4D27207F0FCFE54F8103C2BB134F801
:10876000062C216AA4F15000984700228DF81420AD
:1087700034F8082C236AADF8162005A934F8062C25
:10878000ADF81820A4F14C00079315F089FF08B04C
:1087900010BD06485C211EF0B5FC08B15C21C7E79E
:1087A0000249C9E78832002084320020307A040070
:1087B00000100140757B04002DE9F0438BB0164694
:1087C000DDF848801F46044600B112B9784602F031
:1087D0008DFD3188B4F848308B425AD094F83C0073
:1087E0000DF11B0216F052F80546002869D1CDE9BB
:1087F00008007FB9236B9B685B6813B9784602F069
:1088000075FD206B836807AA5B6800219847079B6A
:10881000089308AF002384F86C3001212D23C4E9AC
:1088200019137B68C4F880303B6823663388A4F84A
:108830004A3004F1E807D4F8EC30AB422BD8414B76
:108840001B685A0421D5404B1B68042B1DDD3F4893
:108850002F211EF057FC58B32F213C481EF052FC2C
:10886000411C3B4B226ED3F804350492D4F880208F
:1088700003929DF81B20029232880192354A0092A1
:10888000052040F22B1207F063FE04F1500000F0C7
:108890008DF9002516E057F82500D4F880200368EC
:1088A0009DF81B10D3F80490236EC8470135C2E72A
:1088B00026485C211EF026FC08B15C21CDE7234947
:1088C000CFE70225B8F1000F0CD088F80050B4F8BB
:1088D0004830A8F80230B4F84A30A8F80430236EC3
:1088E000C8F80830174B1B685B041ED5164B1B6875
:1088F000032B1ADD15482F211EF004FCC0B12F21D7
:1089000012481EF0FFFB411C114BB4F84A20D3F86B
:1089100004350392B4F84820CDE901520E4A009282
:1089200004204FF49F7207F013FE0BB0BDE8F083F4
:1089300006485C211EF0E6FB08B15C21E0E7034934
:10894000E2E700BF8832002084320020307A040041
:1089500000100140AA7B0400E27B040013B504462A
:10896000019100B3036CF3B13C3015F0C5FFC0B901
:108970000E4B0199A363204615F09CFE88B90C4B61
:1089800023650C4BA4F84800C4E915300A4BE36595
:1089900004F15000C4F8D80000F052F908B9C4F846
:1089A000EC0002B010BD0E20FBE700BF187C0400F5
:1089B00059850200D18202000187020050B149B1FD
:1089C000D0F8EC3043B90122C0F8E810C0F8EC2030
:1089D000184670470E23FBE70423F9E70023A0F8AD
:1089E00048307047024B53F820300846184700BF04
:1089F0002C7C0400024B53F820300846184700BF77
:108A0000447C0400836803B118477047006B00384A
:108A100018BF012070470369013B033304D8406944
:108A2000003818BF0120704700207047024601211E
:108A30008C300AF02DBA0A4600230B6302F18C0039
:108A400002210AF025BA70B590F82C30022B0646A8
:108A500015D0383011F0C1F94FF47A74A0FB04231B
:108A600004FB0133D40B44EA4344DD0B326A002398
:108A70009D4208BF94422CBF0120002070BD002001
:108A8000FCE710B50023044603630362703005F071
:108A9000E7FE04F13800BDE8104011F0DBB910B575
:108AA0000446383011F0D6F900232362E3681BB185
:108AB0002046BDE81040184710BD30B400F1100347
:108AC000044600F120050FCB85E80F00204630BC9E
:108AD000FFF7E5BFFFF7E3BF2DE9F04100F13805EF
:108AE0000446284611F0B6F904F110030FCB04F147
:108AF000200686E80F00606A1EF0CAF9064610B923
:108B0000784602F0F3FB206A4FF47A78324600236D
:108B1000A0FB08011EF040F8A26AA2FB08238B42CA
:108B200008BF82423CBF0B460246002B08BFB2F58D
:108B30007A7F1DD3114ED903D00341EA52418019E7
:108B40004FF000060E4A4FF0000346EB01011EF005
:108B500023F80123C4E9100184F83830284611F0C5
:108B600051F940B9636833B12046BDE8F041184778
:108B700021200021EDE7BDE8F08100BF20A1070022
:108B800040420F0010B5044605F0B4FE236B4FF4CD
:108B90007A7101FB030104F1700005F079FE23688E
:108BA0001BB12046BDE81040184710BD10B5044663
:108BB00010B9784602F09AFB224604F18C0000219D
:108BC000BDE810400AF064B910B5044610B9784603
:108BD00002F08CFB224604F18C000321BDE810401A
:108BE0000AF056B92DE93048044610B9784602F02B
:108BF0007DFB04F13800256A11F0EFF84FF47A7329
:108C0000A0FB03BC03FB01CC4FEADB3040EA4C4045
:108C1000281ABDE8308838B5044610B9784602F005
:108C200065FB04F1380011F0D8F84FF47A73A0FB1B
:108C3000034503FB0155E00B40EA454038BD000009
:108C400038B5044610B9784602F050FB094BA367CB
:108C5000094BE364C4F88040A46404F1380011F0C7
:108C60000FF90649054604F18C000AF0E0F82846A1
:108C700038BD00BF378A02002D8A02007C7C0400C8
:108C80000378142B05D1C3880F2B9EBF014B012203
:108C90001A7070478434002010B5044608F0F6F9C5
:108CA00038B123780E2B04D1BDE81040002005F028
:108CB00005BC10BD08B519F0B5FE20B10DF0F2FAF3
:108CC00008B10DF06DFABDE8084005F025BB0000C5
:108CD00070B5837DC27D86B043EA0223ADF81430BF
:108CE0000546022305A80E46ADF8163018F0C8FD5B
:108CF000044610BB288A04AA294618F0A5FF04469A
:108D0000D8B9BDF81010E88A0DF11203324619F0F7
:108D1000ABF9044688B9297ED5F8120001F00101AB
:108D200004F07AFF044640B92B7E9A0708D4BDF8B8
:108D3000120010F047FB044690B1204606B070BD0B
:108D4000BDF81000294619F02DF804460028F4D18A
:108D5000BDF8100019F08EF804460028E7D0ECE7C3
:108D6000164B1B681B03E8D5154B1B68062BE4DD6F
:108D700014482F211EF0C6F9B0B12F2111481EF062
:108D8000C1F9411C2A7E104B02F00102D3F80435D0
:108D90000292D5F8122001920C4A009207204FF45B
:108DA000837207F0D5FBC8E706485C211EF0AAF9DC
:108DB00008B15C21E2E70349E4E700BF8832002004
:108DC000843200208C7C040000100140AB7C040045
:108DD00008B505F0D8FE16F039FF18F0EFFC04F0E6
:108DE000E1FCBDE8084008F07DBD000073B50E460B
:108DF000054600283ED005F021FA0446002836D169
:108E000018F02CFD16F036FF286910F0ABFA044676
:108E100068BB2B7F0193AB69009301466B691648D1
:108E2000592210F063FD044608BB2B6A03B1984732
:108E3000124805F0E3FA09F079FF104805F0E0FA6E
:108E400018F05CFC054616F079FC0B2D04D00B28BD
:108E500002D00B4B1B7813B1FFF7BAFF0B2419F0AC
:108E6000E1FD054608B10DF03FF906B13570204629
:108E700002B070BD0E24FAE72C3400202832002006
:108E80008434002019F0CEBD08B508F0FFF820B1F9
:108E9000BDE80840002005F011BBBDE808400148CE
:108EA00005F0ACBA3432002069DF704703781F2B1D
:108EB00002BF024B01221A70704700BF88340020A5
:108EC00030B5394D2A7887B01AB1012803D003286C
:108ED00062D007B030BD002301A9019301F070FEFC
:108EE00008B11CF0DDFB0C2200210DEB02001EF08E
:108EF00037F8BDF80C302D4823F47F7323F00303BB
:108F000043F4887343F00103ADF80C30002304935D
:108F1000ADF814301EF0EEF8019AADF8160003A972
:108F20004120FFF7C1FF08B11CF0BAFB01A801F016
:108F3000AFFE08B11CF0B4FB1D4C236803B1984789
:108F4000012302A90DF10200029319F05FF808B1A4
:108F50001CF0A6FBBDF8020018F0E6FD0DF10101C2
:108F600018F006FF08B11CF09BFB0DF0BDF89DF852
:108F7000011000200DF0FEFC10B1784602F0B6F9A9
:108F800005F0CAF908B11CF08BFB00232B70636855
:108F9000002B9ED098479CE701F0E6FE002898D071
:108FA0001CF07EFB95E700BF87340020CB7C0400DB
:108FB0008C34002008B503781C2B0CD1064B1B7891
:108FC0004BB101F00FFF08B11CF06AFBBDE808408F
:108FD000024805F015BA08BD873400204032002051
:108FE00010B5094B1B786BB9084909481AF0DAFB30
:108FF00048B908490246BDE81040496906480323BC
:109000001AF0E9BB082010BD88340020A8340020E5
:10901000143800208C340020E036002010B503788E
:10902000023B082B4AD8DFE803F01E0512494938F5
:1090300049493F00224B9B68002B3FD0007A002813
:109040003CD0204A01211170BDE8104018471C4B4C
:10905000DB68002B32D01B4A117879B300211170E4
:10906000BDE810401847184B1A784AB9144B1B69D1
:1090700013B114490A709847BDE81040FFF7B0BF1C
:10908000124B134801221A7005F0B8F905F09EF949
:10909000A0B1BDE810401CF003BB094B0D48996915
:1090A00010221AF0DDFBF3E7D0E90210FFF710FE03
:1090B00008B11CF0F5FA044B01221A7010BD00BF74
:1090C0008C34002085340020863400208734002032
:1090D00040320020E036002070B51D4A1D4E516818
:1090E000044686B0106803AB03C31189927A1980D5
:1090F0009A700FCC35460FC594E8070085E8070045
:10910000B3691BB3144B0093144A1549154803ABBC
:109110001AF01AFBC0B914481BF09AFF0146114817
:109120001AF02CFB80B911481CF002F960B90F4805
:109130001CF030F901460B481AF020FB20B90C480E
:1091400005F05CF9FFF74CFF06B070BD0720FBE7A8
:10915000EA7C04008C3400201D900200A83400201A
:1091600014380020E0360020C8340020903600205B
:109170004C32002010B5054C226832B11CF0D2FBF5
:10918000002802DB23689847F8E710BD5438002018
:10919000154B164A10B50C4618600121144819F0F9
:1091A000A3FE18B1134A4A211CF087FA610C002370
:1091B000E00341F26F728B4208BF824210D24FF43B
:1091C0007A7200231DF0E8FC01460B48002219F0DA
:1091D0009DFE38B1BDE81040064A4B211CF06DBA27
:1091E0000521F2E710BD00BF543800207591020040
:1091F000187D0400F57C0400583800202DE9F0416A
:109200000446CEB038B1424D2B685A0403D5414EC6
:109210003368032B02DC4EB0BDE8F0813E4B18688A
:109220000DAB611E04F10F0C1F4611F8012F4FEA20
:10923000121E02F00F0210F80EE083F800E0825CCC
:109240005A70614503F10203EFD10023334887F8D8
:1092500020302F211DF056FF002846D02F212F4807
:109260001DF050FF411CDFF8C4802D4AD8F80435AA
:1092700001922C4A009202974222042007F068F9DA
:109280002B685B04C7D53368032BC4DD23482F212B
:109290001DF038FF002831D02F2120481DF032FF6B
:1092A000411CE27B2068D8F804350B92A27B0A921D
:1092B000627B0992227B0892E27A0792A27A069256
:1092C000627A0592227A0492E28852BA92B20392AA
:1092D000A28852BA00BA92B2CDE90102124A0092B3
:1092E0000420432207F034F995E70C485C211DF077
:1092F00009FF08B15C21B2E70849B4E707485C21DF
:109300001DF000FF08B15C21C7E70449C9E700BFB1
:1093100088320020843200208C3200201C7D040022
:10932000447D040030730400567D040000100140A9
:1093300013B50190000C01280C4602D0784601F0CC
:10934000D5FF0023012222806280A380E380238155
:109350006381A28102B010BD13B50190000C0128F9
:109360000C4602D0784601F0C1FF2388012B14D1AE
:109370006388012B11D1A3887BB9E3886BB923895A
:109380005BB9608948B9A389012B06D1044A1378D7
:1093900043F00103137002B010BD0B20FBE700BFC8
:1093A000C43800200378142B07D1C388042B01BFD5
:1093B000024A137843F0020313707047C438002048
:1093C00070B586B00E4B01930E4B02AA03F108064E
:1093D000154618685968144603C40833B342224638
:1093E000F7D118689B882060A3800198294609F06E
:1093F000D7FB10B1784601F079FF06B070BD00BF11
:1094000004000100967D0400704770477047704764
:10941000704770477047704708B5FFF7F9FFFFF7CF
:10942000F8FF12F0F7F814F087FEFFF7F3FF15F0DE
:1094300073FAFFF7F0FF08BD0C4808B50C4B03604A
:1094400004F0DCFF0B4B1A786FF341021A70FFF740
:10945000DBFFFFF7DAFF12F067F914F019FFFFF7EF
:10946000D5FF15F087FAFFF7D2FF08BD7C38002042
:10947000A5930200C438002010B50E4C237813F0D9
:1094800002000FD0FFF7A4FCFFF7C6FF23786FF3AD
:1094900000032370084B186809F0D4FBFFF790FF16
:1094A0000B2010BD13F00104FBD1FFF789FF20460C
:1094B000F7E700BFC4380020A47D040008B5FFF71B
:1094C000ABFF054A137823F003031370BDE808408F
:1094D000042009F0DDBB00BFC438002013B5438968
:1094E000044613B1784601F001FFD4E900010022DF
:1094F00000F088F910B1784601F0F8FE206800F01D
:109500007DF9194B60811B685B0418D5174B1B68EC
:10951000032B14DD16482F211DF0F4FDD0B12F21AF
:1095200013481DF0EFFD411C124B6289D3F804353E
:109530000192114A00920420582207F009F8638929
:1095400013B9784601F0D2FE206802B0BDE81040A1
:1095500000F0AEBA06485C211DF0D4FD08B15C21D4
:10956000DEE70349E0E700BF8832002084320020B4
:10957000A87D040000100140CB7D040038B543896C
:1095800005460C4613B9784601F0B0FE6A89297A7F
:109590002868013A62434FF6FF74B2FBF4F20132DD
:1095A000BDE8384092B200F079B82DE9F84304687C
:1095B000054694F8200000F01DFC04F11807FF2672
:1095C0004FF0FF394FF00008207AFF2802D000F05A
:1095D00011FC2672607AFF2802D000F00BFC667244
:1095E0002068431C03D000F05BFDC4F8009084F8B1
:1095F0000B800C34BC42E7D16868BDE8F84300F04A
:109600001BBB00002DE9F041134EDFF850800C46E3
:109610000025012706EB4106735D5BB1735D013BDD
:10962000DBB27355735D93B958F824301B6820463C
:10963000DB6998474DB167B1084B53F824300221DC
:10964000BDE8F041586800F06EBB0125E4E7002753
:10965000F0E7BDE8F08100BF80700020C83800202E
:1096600010B540680B4902798C5CFF2CE3B20DD039
:10967000FE2B0DD0006803F5A87350F82330064880
:1096800050F82200984203D1FF238B54002010BDD4
:109690000120FCE7DC380020E43800202DE9F74FFA
:1096A0000368904693F82120022A04460F4640F0B2
:1096B0009B800C254D435A195268904509D1DB69AE
:1096C0001BB9002003B0BDE8F08F426810799847BD
:1096D000F7E7FFF7C5FF8346002840F087806368FF
:1096E000DFF814A11B79FE220AF80320266896F8F9
:1096F000200000F0DBFBD146B8F1000F1FD135444C
:10970000687A00F0D3FB287A00F0B8FB63681B7915
:10971000FF220AF803200C2303FB0766C6F8048027
:109720002368DB69002BCCD063681A79304B03EBDC
:1097300042030221D955606800F0E1FAC1E7B1693E
:10974000884507D335441FFA81F8287A00F0AEFB2C
:10975000687AD9E707EB47034FEA830A06EB8303EE
:1097600060685A6891423AD0002A38D0904536D283
:109770005B46032100F092FA636896F820B01968FE
:1097800056F80A00354401F5A671AB7A01911BB376
:1097900000F0D8FC02460199584600F04FFB96F8BD
:1097A000200000F06BFB63681B7909F803706368A5
:1097B0001A79104B43F822800C2505FB0765606879
:1097C00000234246394600F069FA287A00F056FB39
:1097D000687A00F053FB9EE700F0A6FCDAE7037915
:1097E000FF2209F80320E7E708206BE7112069E76B
:1097F00080700020E4380020DC3800200368188BDB
:10980000704700002DE9F04F2DED028B89B0044622
:1098100003928946002900F03A81066896F82130C3
:10982000002B40F0368100F053FD08B1852846D169
:1098300000F0CAFB002839D0974B984A1B6803F008
:10984000F003303B18BF01231370FF2386F820304C
:109850004FF6FF73002233814FF0FF33F272336013
:10986000F275B382F36006F1200000F08FFA07462C
:1098700010BB09F10803804604934FF00C0B59F814
:1098800028205FFA88F308EE103A531C00F0988005
:10989000256895F82110B9B108252046FFF785FE07
:1098A000284609B0BDEC028BBDE8F08F00F04EFBFE
:1098B0000028C1D00325F3E72046FFF776FE0425F4
:1098C000EEE74FF00108DAE7049B059213F8083041
:1098D00002930BFB08FA05EB0A0310465960029944
:1098E000997203238DF818302368534406A99B7A94
:1098F000B3FA83F35B098DF8193001238DF81A3020
:1099000000F06CFBB0B9059A029945F80A200123D2
:1099100093404FF0A042002900F0AB80C2F80C3514
:109920000BFB08F303F108002844059300F02EFA1E
:10993000059B08B10425B0E703F10900284405930D
:1099400000F024FA059B0028F4D12B440593187AE3
:1099500000F0ACFA059B587A00F0A8FA029B55F883
:109960000A00002B00F0888000F0ECFB029055F814
:109970000A0000F0D9FB82466068029A01680BFB7E
:1099800008554FEA880303F5A0731944287A00F0BC
:1099900055FA6368687A1968524601F5A47100F0B7
:1099A0004DFA0123EB7263683D4A1B7902EB4303D6
:1099B00018EE101A0022204603F80820FFF76EFE6A
:1099C000B8F1000F3FF47DAFD9F81030B3F5805FE8
:1099D00001D3092F58D1314B1B7813B1012F38BF58
:1099E000012700238DF8193060688DF818704FF446
:1099F000E063ADF81A3003792A4A079306A900F00C
:109A000091F8054600287FF448AF6368D9F8102024
:109A10001B68D3F81075FFB2100FC7F120011201B7
:109A200000FA01F1A7F1200322FA07F720FA03F365
:109A30000F431F43B76160684FF0010800F02AF937
:109A400004233A466068CDF80080022100F041F915
:109A50000221606800F067F9039BF3616368124AB2
:109A60001B7986F8218042F82340104AFF21D15407
:109A700016E7C2F8083553E700F056FB029055F898
:109A80000A0000F05FFB76E75B0801379EE70B25D5
:109A900006E7082504E700BFE80F00F0F8380020CB
:109AA0008070002005960200C8380020DC380020B5
:109AB0002DE9F0470768DFF86890002604463D4628
:109AC000B0464FF00C0A63681B7909EB430303F8B7
:109AD0000680EB7A73B1236828680AFB0633997A0B
:109AE000B1FA81F1490900F03BFB286800F00AFB5C
:109AF000C5F804800C357EB16368084A1B79FF21E4
:109B0000D154606800F0C6F8606800F07BF802236A
:109B100087F82130BDE8F0870126D4E7DC38002043
:109B200080700020F7B50679334D0C2474432F194B
:109B30003B7A002B5ED12A514A687A609C461A46CD
:109B400047790368D4B2A7424AD8CA781C0B43F3BA
:109B50000733002BAEBF03F16043284B04F00F0422
:109B60004FEA4212D2B2AABF03F561431A5583F8F5
:109B7000002303681A0B43F30733002B07DB02F0C3
:109B80001F040122A2405B091D4C44F823200468F5
:109B90004B78D4F8042503F0030322F003021343A7
:109BA000C4F8043504688B78D4F8082503F003035F
:109BB00022F003021343C4F8083500680B78D0F88C
:109BC000102503F00F0322F00F021343C0F81035E5
:109BD0000C2303FB065501232B72002003B0F0BDBC
:109BE000A40004F5A074013243F804C01B5901938A
:109BF000019BA5E70820F1E7FC38002014ED00E008
:109C000000E100E0036801221A600379034A0C2195
:109C100001FB032302221A72704700BFFC380020A8
:109C20000368044901221A6103790C2000FB031325
:109C30001A727047FC38002038B503681A0B43F3DA
:109C40000733002B04460CDB02F01F015B090122E5
:109C50008A4020330D4941F82320BFF34F8FBFF3D3
:109C60006F8F23680025D3F80022C3F800522368C1
:109C70004FF0FF32C3F808232046FFF7D1FF2379C6
:109C8000034A0C2101FB03231D7238BD00E100E0F3
:109C9000FC38002003680122DA60704773B54FF486
:109CA000803405688C408BB18B0003F5A0730026CF
:109CB000EE50EB580193019B0368C3F8044303681B
:109CC00001F5A87143F8212002B070BDC5F8084322
:109CD000F5E7F0B4076840F20116D7F800528E405D
:109CE00025EA0605C7F800520468D4F800522B4351
:109CF000C4F800329DF81030F0BCFFF7CFBF8B00E6
:109D000013B503F5A07302689BB20024D450D35856
:109D10000193019B02684FF4803303FA01F1C2F80A
:109D2000041302B010BD02684FF4803303FA01F14E
:109D3000C2F80813704700002DE9F341104C114F91
:109D4000114E00254FF48038236883B1D7F80433CF
:109D500008FA05F21A420AD000232360236801930F
:109D600004F5E040019B80B2D6E900319847013507
:109D7000042D04F10404E7D102B0BDE8F08100BF76
:109D80004091004000900040FC3800202DE9F74F42
:109D90004FF00009154D164F06464FF0040AC8460D
:109DA0005FFA89FB01240DF1070004FA0BF48DF82A
:109DB000078000F023FC2C4208D03B6814EA030221
:109DC00001BF23433B6086F800B092469DF8070030
:109DD00000F038FCBAF1000F03D0A54309F10109E6
:109DE000DED1504603B0BDE8F08F00BFFFFF010099
:109DF00008390020012337B503FA00F5C5F3100335
:109E0000ABB10C4B0024C3F808550DF107008DF8D9
:109E1000074000F0F3FB084B186820EA05001860C3
:109E20009DF8070000F00EFC204603B030BD07206F
:109E3000FBE700BF00F001400839002010B5A1B1D8
:109E40009AB101238340C3F3100484B10A4C2468FF
:109E500023420ED0C00000F1804000F5F830C0F879
:109E60001015C0F81425002010BD0E20FCE70720B7
:109E7000FAE70820F8E700BF08390020012202FABB
:109E800000F3580C400440B91BB1064A1268134253
:109E900005D0054AC2F804357047072070470820EE
:109EA000704700BF0839002000F00140012202FA8B
:109EB00000F3580C400440B91BB1064A1268134223
:109EC00005D0054AC2F808357047072070470820BA
:109ED000704700BF0839002000F0014000F18040C9
:109EE00000F5C040002382B0036003680193019B2A
:109EF00002B07047800000F1A040D0F8002722F4A3
:109F00004032C0F80027D0F8003743EA0141C0F8DA
:109F100000177047054B4FF0FF32072843F8202009
:109F200084BFC01880F83C20704700BF0C39002067
:109F3000C208054900F0070001238340885C20EA3D
:109F400003008854704700BF5139002010B51A4CE7
:109F500094F849306BBB4FF0FF3222FA03F1C90786
:109F600048BFE11803F1010348BF81F82420202BEA
:109F7000F3D10021C8B2FFF7CDFF01310929F9D192
:109F8000042200210D481CF0EBFF0D4BC02283F88A
:109F9000062340221A604FF4BE70FFF79FFF094B63
:109FA0004FF00042C3F80423012384F84930002015
:109FB00010BD0820FCE700BF0C39002051390020FB
:109FC00000E100E000600040034B93F849000038D6
:109FD00018BF0120704700BF0C39002030B52E4B50
:109FE0001A1892F92440013453D18C78002C4CD0AB
:109FF0001C46002254F8045B013541D11C1884F83A
:10A000002420002443F82240920002F1804202F50D
:10A01000C0420B78D2F810554C7825F498151B04E3
:10A02000240525F4F85504F4801403F44033C2F8F1
:10A03000105523430402D2F8105504F4F854234376
:10A040002B43C2F810354A780123012A4FF0A04271
:10A0500003FA00F30CBFC2F80835C2F80C3500F55E
:10A06000E073032142F82310C2080C49012300F0D9
:10A07000070003FA00F08B5C18438854002003E0CB
:10A080000132082AB6D1042030BDFE2382F82430E4
:10A09000D9E70820F8E700BF0C390020513900202B
:10A0A00038B5164C2518014695F82400072809D81C
:10A0B000FFF730FF95F92430114A03F5A273002011
:10A0C00042F823006318FF2204EBD10483F8242014
:10A0D00094F8452001F00700012383401A420BD079
:10A0E0004FF0A04301F5E072022043F82200084639
:10A0F000BDE83840FFF71CBF38BD00BF0C39002059
:10A1000000600040074B184490F924309B0003F195
:10A11000804303F5C043D3F8102542F00302C3F88F
:10A12000102570470C390020054B184490F9240085
:10A130000C308000C0B200F1804000F5C040704794
:10A140000C390020054B184490F924001830800089
:10A15000C0B200F1804000F5C04070470C390020CB
:10A160000A4B1844003990F924304FEA830303F175
:10A17000804303F5C04318BF0121D3F8102522F412
:10A18000801242EA0152C3F8102570470C390020B2
:10A190002DE9F34700244B4D01944FF480720121C7
:10A1A00002F1804303F5C04390B21B68012B06D136
:10A1B000D5F804330B4202D0FFF790FE0C43043273
:10A1C000B2F5907F4FEA4101EAD13F4B1B68012B6A
:10A1D0000CD14FF4BE70FFF781FE4FF0A04344F066
:10A1E0000044D3F820250192C3F8202514F0FF0F76
:10A1F0001AD0364F01260025344210D0AB0003F1AF
:10A20000804303F5C043D3F81005D3F8101557F871
:10A21000253023B1C1F30141C0F304209847013533
:10A22000082D4FEA4606E7D1002C1FDA274E4FF0E3
:10A23000A049374696F944305A1C10D0C3F3C202E5
:10A2400002A90A44DCB212F8042C03F03F054FF0D7
:10A25000010A03F007030AFA03F31A4209D1D9F8F5
:10A2600020350193C9F82035002BE3D102B0BDE8B9
:10A27000F08705F5E073284659F82330C3F3014809
:10A28000B8F1020F0CBF03210221FFF733FE0AFAD7
:10A2900005F3C9F820357B1993F9243057F823309A
:10A2A000002BDCD0A109032904D0B8F1020F04D19E
:10A2B0000129D4D128469847D1E7B8F1030FCED170
:10A2C0000229F6E7006000407C6100400C39002064
:10A2D000034B187810B901221A7070478520704717
:10A2E0005839002072DF704773DF704774DF7047A2
:10A2F0002DE9F0412F4CA2B006460F4690460021B2
:10A30000102220461CF02CFE2B4A2C491378C3EB5C
:10A310004315294421602A49013303F001030D4408
:10A320001F211370A180A1813C22002104A8A560F7
:10A330001CF016FE062301AA8DF813300E9201239D
:10A340003C22002113A88DF80230ADF820308DF8A2
:10A350003C30ADF80060CDF824D0ADF80460ADF825
:10A36000088003971CF0FCFD2246022352F8041BD0
:10A370008DF84C3004A800F0F5F908B11BF090F905
:10A38000104AA16813A800F0EDF908B11BF088F994
:10A390000D4A08490D48FFF7A5FF082804D10549D3
:10A3A0000A480022FFF79EFF08B11BF079F922B09E
:10A3B000BDE8F08198390020593900205A39002031
:10A3C000A8390020A43900205C3200205832002037
:10A3D000B0F5202F0AD20A23B0FBF3F310B1012B02
:10A3E00038BF0123034A9381916070474FF6FF7392
:10A3F000F5E700BF5C32002008B5064B0121187854
:10A40000FFF772FF08B11BF04BF9BDE808400020D0
:10A4100004F0BEBD5832002008B5054B1878FFF790
:10A4200065FF18B1BDE808401BF03AB908BD00BF90
:10A430005832002076DF70477ADF70477CDF704744
:10A4400069DF70471BF02CB903F0DCBF07B5037858
:10A450004BB940883B21FFF7EDFF08B303B05DF82F
:10A4600004EB1BF01DB9012B1AD1134B1B685B04C5
:10A4700016D5124B1B68032B12DD11482F211CF03F
:10A4800041FE80B12F210E481CF03CFE411C0D4BBB
:10A490000D4AD3F8043500920420682206F058F8DB
:10A4A00003B05DF804FB06485C211CF02BFE08B1EC
:10A4B0005C21E8E70249EAE7883200208432002084
:10A4C000DE7D0400001001400E7E04001FB500F088
:10A4D0004BFC08B11BF0E4F800236946012000930F
:10A4E00000F06EFB08B11BF0DBF80C22002101A884
:10A4F0001CF036FDBDF80430114823F47F7323F0BF
:10A50000030343F4887343F00103ADF804300023E0
:10A510000293ADF80C301CF0EDFD009AADF80E0082
:10A5200001A94120FFF78CFF08B11BF0B9F868467C
:10A5300000F0AEFB08B11BF0B3F805B05DF804FB0A
:10A54000CB7C04001FB5112310488DF804301CF09B
:10A55000D1FD0E4982B201A8FFF770FF08B11BF0D0
:10A560009FF808220DEB020000211CF0F9FC084ABC
:10A570004FF0C87302A8CDE90223FFF75DFF08B1D1
:10A580001BF08EF805B05DF804FB00BFCB7C040027
:10A590007800C80010B58AB001AC0822002120461E
:10A5A0001CF0DEFC124A4FF0C873CDE901230021F4
:10A5B0001C2203A81CF0D4FC4FF4803340F6CD419C
:10A5C000CDE9041303238DF818300023ADF81A30B9
:10A5D0008DF81C30074B089303A8074B039409938D
:10A5E00000F044FD08B11BF05BF80AB010BD00BFDD
:10A5F0007800C8004DA4020045A4020070B5EFF336
:10A60000108672B60C4A946801239CB993600B4B78
:10A610000B4DD3F8801029401160C3F88050D3F857
:10A62000841051604FF0FF32C3F88420047006B9E3
:10A6300062B670BD0370FAE78C70002000E100E0A4
:10A64000FC06FFBD10B5084B9A685AB150B9EFF33C
:10A65000108172B6054A1C6814605C68546098608A
:10A6600001B962B610BD00BF8C70002000E100E0AF
:10A670006DDF704779DF70477DDF704764DF7047BB
:10A680002DE9F04F85B000250E9CBDF83CB0B4F824
:10A6900000A00191074690461E46A9463A884A45C1
:10A6A0000DDC45B12388013BA3EB0A039BB2FF2BD2
:10A6B0003AD806F80A30002005B0BDE8F08F7A6875
:10A6C00052F82900039000220DF10B0103A8FFF7B7
:10A6D000D5FF0028F0D19DF80B20424521D12288DA
:10A6E000002D14BF0020022002EB0801014459454F
:10A6F0001ADC3DB9013292B2019B2280B354228808
:10A700000132228022880DF10B01324403A8FFF7A9
:10A71000B5FF0028D0D121889DF80B200A44228063
:10A72000012509F10109B9E70C20C5E72DE9F3413D
:10A73000089FBDF824801546CDE900780222044622
:10A740001E46FFF79DFF50B933461022294620468A
:10A75000CDE9087802B0BDE8F041FFF791BF02B043
:10A76000BDE8F0812DE9F04F00231788138090F8A1
:10A770002D3085B006460D46144653B3082F01D838
:10A780000C2027E102A8FFF773FF002840F0228188
:10A7900023880822EA54238801339BB21B2223809A
:10A7A000EA542088013080B2208006220DF1090190
:10A7B00028441CF0C7FB23889DF8082006339BB271
:10A7C00012F0FE0218BF01222380EA5423880133CD
:10A7D0002380B378FBB123880433BB42D0D802A8CE
:10A7E000FFF748FF002840F0F58023880322EA5451
:10A7F000238801339BB219222380EA542388BDF8B1
:10A80000082001339BB2E9182380EA54120A4A70E7
:10A81000238802332380F2789AB12388D91CB94265
:10A82000AED80221E954238801339BB20121238051
:10A83000E95423880B449BB22380EA5423880B44B9
:10A8400023807268AAB12388D91CB94298D8022102
:10A8500092F90020E954238801339BB20A21238016
:10A86000E954238801339BB22380EA5423880133BF
:10A8700023803389002B40F0A180338A5BB1CDE97E
:10A8800000472B460722032106F11000FFF74EFF79
:10A89000002840F09F80338B5BB1CDE900472B4609
:10A8A0001522142106F11800FFF740FF002840F0A0
:10A8B0009180326A002A40F09080D6F82480B8F166
:10A8C000000F30D0B8F804302188981C8A1C02444C
:10A8D000BA423FF655AFFE283FF652AF03336B54F2
:10A8E000238801339BB2FF222380EA54238801335B
:10A8F0009BB22380B8F80020EA54E918120A4A7083
:10A900002088023080B22080B8F804205AB1D8F8EC
:10A91000081000296BD028441CF014FB2388B8F8D9
:10A9200004201344238096F82C30002B40F09A80AA
:10A93000307800284ED03388012B58D0228802F17D
:10A94000020CBC453FF61CAF012805D173780233D9
:10A9500013449F42FFF414AF023FBF1ABFB202A9D3
:10A9600005EB0C00ADF80870FFF786FE90BB317860
:10A97000BDF80830022900F0BA8072789A4202D3FA
:10A98000BB4240F2B280012940F0B380974293B2BB
:10A99000C0F0AF80ADF808300821BDF80830FE2BBC
:10A9A0003FF6EEAE22880133AB542288013292B2D8
:10A9B0002280A9542288134423800BE0CDE900476C
:10A9C0002B460622022106F10800FFF7AFFE002801
:10A9D0003FF453AF05B0BDE8F08FB4F800C00CF100
:10A9E0000603BB423FF6CCAE1188052901D80720EB
:10A9F000F0E76FF4486E01EB0E039BB24FF27D3E21
:10AA00007345F4D95388052BF1D96FF448601818B1
:10AA100080B27045EBD94FF6FF70814203D083427C
:10AA200001D09942E3D8052305F80C30238801337F
:10AA30009BB212212380E954238801339BB22380E7
:10AA40001188E954E818090A4170238802339BB23F
:10AA500023805288EA54E918120A4A702388023384
:10AA600023802AE7B36A002BC1D04FF000094FF0D2
:10AA70000C0A4FF0160B96F82C305FFA89F29342CD
:10AA80007FF656AFB16A0AFB02F201EB0208B8F892
:10AA90000430981CFE283FF673AE208803332B54F5
:10AAA000238801339BB2238005F803B02388013348
:10AAB0009BB223808A5AEA54E918120A4A70208805
:10AAC000023080B22080B8F804205AB1D8F80810BB
:10AAD00000298CD028441CF035FA2388B8F80420CB
:10AAE0001344238009F10109C5E7092155E7BB4259
:10AAF000FBD9ADF808704FE701600B6843604A6806
:10AB0000934204BF002343607047436843B1026827
:10AB100091680B4443605268934204BF0023436032
:10AB200070474BDF704700001FB50D4C01A8FFF7C1
:10AB3000F8FF70B9214602A8FFF7DEFF039B002B48
:10AB4000F4D00198D3E90021904702A8FFF7DDFF78
:10AB5000F4E7052801D01AF0A3FD04B010BD00BF32
:10AB60003C7E040060DF704769DF704761DF70473B
:10AB700030B5114B1B78A9B0E3B1104D94240DF101
:10AB8000020103A8ADF80240FFF7F0FF70B92946B3
:10AB900001A8FFF7B1FF029B002BF0D003A8D3E977
:10ABA0000021904701A8FFF7B0FFF4E7052801D086
:10ABB0001AF076FD29B030BDE6390020487E040049
:10ABC000F0B5064685B00D4600295CD02F4B0B60D2
:10ABD0000C22002101A81CF0C3F9012706232A68D2
:10ABE000ADF8083001A920208DF804608DF80670BA
:10ABF000FFF7BAFF0C22002101A81CF0B1F90024D4
:10AC00002A688DF8057001A94020ADF80640FFF7CD
:10AC1000ABFF0C22214601A81CF0A2F945232A68AB
:10AC2000ADF8063001A923208DF80460FFF79CFFE2
:10AC30000C22214601A81CF093F92A688DF80440E3
:10AC400001A93846FFF790FF0C22214601A81CF00D
:10AC500087F94FF4B0632A68019301A9A120FFF797
:10AC600083FF0C22214601A81CF07AF99DF80430DC
:10AC70002A683B4301A9A0208DF80430FFF774FF38
:10AC8000204605B0F0BD0E20FBE700BFF02D0020F0
:10AC900008B5FFF767FF10B9014B01221A7008BD14
:10ACA000E639002010DF704711DF704713B5044606
:10ACB00009496846FFF720FF019808B902B010BDA6
:10ACC000D0E900212046904718B16846FFF71DFFE4
:10ACD000F2E71120F2E700BF587E040013B50446E6
:10ACE00007496846FFF708FF019B0BB902B010BD8A
:10ACF0002046D3E9002190476846FFF706FFF3E7B7
:10AD0000707E0400084B9A6822B11A6822F480020F
:10AD10001A607047054B4FF48002C3F88020BFF3E0
:10AD20004F8FBFF36F8F70478C70002000E100E001
:10AD30000B4991F816335A09EC231341DB0706D56A
:10AD4000084B9A683AB94FF480030B60704742F29F
:10AD500002001AF0A5BC1A6842F480021A6070471B
:10AD600000E100E08C700020F7B5194F3C7864BB1F
:10AD7000184E012520463570FFF798FF112821D085
:10AD80002046FFF7ABFF144B8DF803401868019085
:10AD90000DF10300FFF732FC104901A8FFF782FF15
:10ADA0000446B0FA80F0400938709DF80300FFF7C0
:10ADB00049FC3CB90A4B34701C70FFF7B9FF2846B8
:10ADC000FFF78CFF204603B0F0BD0824FAE700BF70
:10ADD000E8390020E7390020547E0400EDB002007D
:10ADE000E9390020F7B5154F3B781BB3144E01200D
:10ADF0003070FFF75BFF11284FF000051CD00220D8
:10AE0000FFF76CFF0DF107008DF80750FFF7F6FB19
:10AE1000FFF74AFF04469DF807003D70FFF712FC5C
:10AE20002CB93470FFF76EFF0320FFF757FF204661
:10AE300003B0F0BD0824FAE72C46F8E7E839002013
:10AE4000E739002007B508496846FFF755FE019B22
:10AE500013B903B05DF804FBD3E9002090476846BE
:10AE6000FFF753FEF3E700BF647E0400FFF7EABF7D
:10AE700075DF704776DF70477ADF70477BDF70479A
:10AE8000034B1A8882420CBF18460020704700BF4F
:10AE9000083A0020024B9B6903B11847704700BF76
:10AEA000EC39002073B585B22846FFF7E9FF044668
:10AEB00070B1164E027A337B9A420BD200F10A012E
:10AEC0002846FFF7D5FFE8B1112801D0FFF7E2FFD0
:10AED00002B070BD00230372337C43B13B2128468E
:10AEE000FFF7C8FF30F0080301D0FFF7D3FF736905
:10AEF000002BEDD000228DF80420ADF8065001A8FB
:10AF00009847E5E7237A01332372E1E7EC39002023
:10AF100037B50B46497A0F4A71B9D2E901141D7A47
:10AF20000246002D18BF2146586817F0EFFF08B100
:10AF3000FFF7B0FF03B030BD002119725369002B39
:10AF4000F8D00122ADF806008DF8042001A898473A
:10AF5000F0E700BFEC3900204B8802889A4213D8F2
:10AF600042889A4210D380888A8840F2F31398422C
:10AF700094BF031AC31A934206D800F2F31090420A
:10AF800034BF0020012070470020704770B503884F
:10AF9000122B014659D004D8102B1ED0112B44D0AF
:10AFA00070BD502BFCD12F4BC288DB899A42F7D160
:10AFB000038A022BF4D186883046FFF761FF0546ED
:10AFC0000028EDD001F1120000F08AF838BB686863
:10AFD00017F0E8FF0028E3D009E0C37B012BDFD1A5
:10AFE0004FF6FF70FFF74CFF054620B90420BDE87F
:10AFF0007040FFF74FBF8E881B4A06800023037204
:10B000001368C0F80A305368C0F80E3010310A30A7
:10B01000FFF7A2FF134B6872DB89002BC0D12946D2
:10B020003046BDE87040FFF773BF8088FFF728FF08
:10B0300004460028B4D0406817F0B4FF08B1FFF709
:10B0400029FF4FF6FF732380AAE786883046FFF773
:10B0500017FF05460028A3D008310A30FFF77CFF10
:10B060006872DCE7EC3900201C3A0020F8B506468F
:10B0700048B305460FCD154F3C460FC495E8070071
:10B0800084E807003068124C3C60B0B1FFF7F4FE72
:10B09000C0B9326813682360536863600D480E4A74
:10B0A0004FF6FF7303800D4B40F8043F002117F06B
:10B0B0001BFF002818BF032004E02046FFF7DEFE38
:10B0C0000028EBD0F8BD0E20FCE700BFEC390020D3
:10B0D0001C3A0020083A0020A5AE0200243A0020C5
:10B0E000007800F0010070470620704730B5754BBE
:10B0F00014461B6844F20102904287B00D4603F4E7
:10B10000804300F0A98022D8012844D041F20102F6
:10B11000904276D0002B58D06B4B1B68002B54DD2F
:10B120006A482F211BF0EEFF002800F0BF802F217E
:10B1300066481BF0E7FF411C654B664AD3F80435AF
:10B14000009201957B22012005F002FA3DE044F2D5
:10B1500002029042DED1002B37D05B4B1B68002BE4
:10B1600033DD5A482F211BF0CDFF00286BD02F2153
:10B1700056481BF0C7FF411C554B2268D3F80435D5
:10B1800003926268CDE90152534A0092012069227C
:10B1900005F0DEF919E0C3B14B4B1B68002B14DD41
:10B1A0004A482F211BF0AEFF10B32F2147481BF058
:10B1B000A9FF411C464B494AD3F804350092CDE91A
:10B1C00001546022012005F0C3F94FF0A0434FF471
:10B1D000F012C3F81825C3F80C25EFF3108372B6EC
:10B1E0004DF6AD6C3E4A1378002B68D107B030BDE8
:10B1F00036485C211BF086FF08B15C21D6E7334955
:10B20000D8E7002BE1D0304B1B68002BDDDD2F4849
:10B210002F211BF077FF68B12F212C481BF072FF04
:10B22000411C2B4B2F4AD3F804350092CDE9015431
:10B230006322C7E725485C211BF064FF08B15C214D
:10B24000EBE72249EDE721485C211BF05BFF08B1E9
:10B250005C218DE71D498FE7002BB6D01A4B1B6888
:10B26000002BB2DD19482F211BF04CFFA8B12F2174
:10B2700016481BF047FF411C154B2268D3F80435D4
:10B2800004926268CDE90252A2680192164A0092C5
:10B290000120732205F05CF997E70C485C211BF054
:10B2A00031FF08B15C21E3E70849E5E707485C2185
:10B2B0001BF028FF08B15C213AE704493CE730BFA6
:10B2C00091E700BF88320020843200207C7E040099
:10B2D00000100140207F0400E07E0400A47E0400F2
:10B2E00074320020BE7E0400FF7E040007B50023F8
:10B2F000014600936A46044B019344F20200FFF7B3
:10B30000F5FE03B05DF804FBCF8104000146102276
:10B3100001481BF017BE00BF443A002010B50C4C8A
:10B320000C49082220461BF00DFE08220A49A018ED
:10B330001BF008FEA37903F00F0343F04003A37151
:10B34000237A03F03F0363F07F03237210BD00BF35
:10B35000443A002060000010A4000010004870472C
:10B36000443A00200022064913460132202A4B802D
:10B370004B6001F8083BF8D1024A1360704700BFE8
:10B38000543A0020543B0020F0B50C4B0C4D1B6888
:10B39000044620227BB1013B15F8330050B105EB88
:10B3A000C3067788A74202D176688E4202D0013A5E
:10B3B000F0D11046F0BD1F23EEE700BF543B002044
:10B3C000543A002030B5094A094C136804EBC30510
:10B3D0001F2B69604FF0010104F83310194408BFB6
:10B3E0000023688014BF1160136030BD543B0020FF
:10B3F000543A0020C0F30C038B42084438BFA0F538
:10B400000050C01A70470000F0B50D4B0D4A1E6881
:10B4100000218E4212D0156800230AE052F8044C35
:10B4200004EBC30714F83340844201D17868F0BDBF
:10B4300001339D42F2D101310832EAE70020F6E7FC
:10B44000DC3B0020E43B002000B58DB048B9991CDE
:10B4500007D0012101A8CDE902328DF8041001F0D6
:10B460005FFA034B186803F08BFF0DB05DF804FB27
:10B47000E83B002010B50378044613B97846FFF77F
:10B4800035FF607A431C01209840013810BD2DE93A
:10B49000F0410E468EB015461C46074610B9784658
:10B4A000FFF724FF16B97846FFF720FF636AA278FA
:10B4B00002330593E378A2F10800002B14BF0121A9
:10B4C00002210DF1040842424241434604F10C00BE
:10B4D00004F08BF8A3788DF83430237BADF820503E
:10B4E000022B16FA85F5CDE906870B960C950FD140
:10B4F000236913B97846FFF7F9FE236909931023EE
:10B5000005A8ADF8283004F06CF80EB0BDE8F08165
:10B510000023F5E7B2F5C07F2DE9F0478146884664
:10B52000174602D97846FFF7E1FE244B00259A46DC
:10B5300093F848605EB9384608F0B7FA702404FB07
:10B5400005A4E06648B900242046BDE8F08701352F
:10B55000042D03F17003EBD1F5E730224946204674
:10B560001BF0F0FCB8F1010FE664A4F84A701BD19F
:10B57000134BA4F852601B7D84F8513084F850605E
:10B58000D9F8283063656FF00103A3620D4BA4F86E
:10B590005860A3632464012002F08CFA702303FB3B
:10B5A00005A585F84880CFE76FF00103A362064B3D
:10B5B000A36584F86860054B2466EAE7043C002034
:10B5C000EC3B002045BD020059C302003DBD020016
:10B5D00010B50446C06E08F06AFA04F1300003F0BA
:10B5E0003FF994F84830022B03D104F1500003F0E6
:10B5F00037F92046702200211BF0B2FC002084F8AD
:10B600004800BDE8104002F055BA10B590F8483037
:10B61000012B8CB0044602D07846FFF767FE012369
:10B620008DF80430636D029303F064F9039001A870
:10B6300001F076F92046FFF7CBFF0CB010BD10B536
:10B640000446808A02F022FD01281CD1237BD3B15D
:10B6500094F91620002A18DBE27D5AB1022B12D091
:10B6600094F90330002B10DBA378002B0CBF0020D3
:10B67000072010BDE2780AB9012B06D1237833B92F
:10B68000A378042BF2E71020F3E70720F1E700206E
:10B69000EFE700001FB500230A468DF80F3028B3EE
:10B6A000023008600DF10F01104603F09CFF9DF879
:10B6B0000F30DBB1144B1B685B0717D5134B1B68AE
:10B6C000032B13DD12482F211BF01CFD98B12F21F5
:10B6D0000F481BF017FD411C0E4B0F4AD3F80435E1
:10B6E0000092042040F2154204F032FF9DF80F0052
:10B6F00005B05DF804FB06485C211BF003FD08B1B2
:10B700005C21E5E70249E7E7883200208432002027
:10B71000397F040000100140567F040070B50446D4
:10B72000D4E906122378808A8CB0D3B1E38805F07F
:10B73000FBFF054690B1A68AE4692C22002101A8EE
:10B740001BF00EFC04F001040F2301A88DF8043057
:10B75000ADF80860ADF80A4001F0E2F828460CB0F8
:10B7600070BD05F0DDFFE4E72DE9F0479946137859
:10B77000D2F818A0F4B006460D46144623B1D1887D
:10B780005046FFF737FE9061E378A278002BA2F1D4
:10B79000080005AF14BF0121022104F10C08424248
:10B7A0003B464241404603F020FFA3788DF84430E9
:10B7B000ADB2E81A002380B2ADF83830E378C4F8AF
:10B7C00018A0CDE90A76064414AFADF83000109603
:10B7D0000F97002B77D04FF0100A03AE237B022B7C
:10B7E00004BF23690D934FF00003C6E9003308BF7F
:10B7F000ADF838A06362206A217904AB324616F0B6
:10B8000055FF3068002838D009A9FFF743FF78BBFF
:10B81000706878B309A9FFF73DFF58B3012356F8C4
:10B82000233063622046FFF779FFF0B9A1780D90CD
:10B830006D1A8DF8240098E80300A38AADF8323021
:10B8400001220EAB8DF8302083E80300A37D8DF834
:10B850004830236A109309A8636A0A97ADF82C5000
:10B860001193CDF84C9001F05BF874B0BDE8F0870F
:10B870000023D4E73368002BBDD1237B022B05D1F5
:10B88000E089414617F00AF80028A7D1214B1B6830
:10B890005B07EAD5204B1B68052BE6DD1F482F21EF
:10B8A0001BF030FC68B32F211C481BF02BFC411C03
:10B8B0001B4B1C4AD3F804350092062040F2037259
:10B8C00004F046FED1E7227B012ADFD12646E0893B
:10B8D000B4F814A046F8243F314616F05DFF606AC4
:10B8E00009A9FFF7D7FE00289CD160623146504677
:10B8F00016F052FF606A09A9FFF7CCFE0028C5D0F8
:10B9000090E706485C211BF0FDFB08B15C21CBE70A
:10B910000249CDE78832002084320020397F0400BC
:10B9200000100140697F0400C37D0A7830B5002B08
:10B930003DD0C37822F07F0203F07F031A430A70E0
:10B940000B78027803F07F0343EAC2130B7003788D
:10B9500063B38378083B5A425A414B7803F07F0324
:10B9600043EAC2134B708A78C58802F00302C5F31C
:10B97000861442EA850223F07F032343D2B28A7001
:10B980004B70CB78057A03F01F03C5F3C10422F096
:10B99000030243EA45132243DBB2CB708A70427A3A
:10B9A00023F01F0302F01F021343CB7030BDC47895
:10B9B00022F0400343EA8413DBB20B70027923F0D8
:10B9C0003F0302F03F0213430B70B9E72DE9F04F3C
:10B9D000824689B00D4609B100220A600AF10C03C3
:10B9E0009AF85040019301274FF0000B9AF8090094
:10B9F000A04203D2002009B0BDE8F08FDAF84C1065
:10BA000007FA04F20A4264D19AF81720019B8AF8D7
:10BA10000840002A0CBF0C26082684429AF8002011
:10BA2000029306FB04F908BFBAF84A608DF818B013
:10BA300008BFA6EB0906002A14BF4FF004084FF018
:10BA4000010806EB08020492DAF82820039202A803
:10BA5000DAF82C20059203F06AFF0028CBD1079A70
:10BA6000904454B99AF853203AB9DAF818208AF871
:10BA70005370C2F30C02AAF806209AF817209AB95C
:10BA80009AF8522082B914B17846FFF72FFCBAF821
:10BA90004A109AF802208A1ADAF86C1053460846BF
:10BAA000FFF7F5FC8AF8527007995046FFF73CFF04
:10BAB000DAF86C103246494440461BF043FA02A8BB
:10BAC00003F056FF15B12A6801322A60621C8AF819
:10BAD00050200134E4B289E738B590F84830012BA2
