:020000021000EC
:10C0000000FD012071C5030099C503009BC5030015
:10C010009DC503009FC50300A1C5030000000000EB
:10C02000000000000000000000000000A3C50300A5
:10C03000A5C5030000000000A7C50300A9C50300B3
:10C04000ABC50300ABC50300ABC50300ABC5030024
:10C05000ABC50300ABC50300B10A0200ABC50300CA
:10C06000ABC503001906020005AC0200ABC5030016
:10C07000ABC50300ABC50300ABC50300ABC50300F4
:10C08000ABC50300299B03005D5E0200ABC5030046
:10C09000F99B0300ABC50300B5170200ABC5030055
:10C0A000ABC50300ABC50300ABC50300ABC50300C4
:10C0B000ABC50300ABC5030000000000000000009A
:10C0C000ABC50300ABC50300ABC50300ABC50300A4
:10C0D000ABC50300ABC50300ABC50300ABC5030094
:10C0E000ABC50300000000000000000000000000DD
:10C0F00000000000ABC5030000000000ABC503005A
:10C10000000000000000000000000000000000002F
:10C11000000000000000000000000000000000001F
:10C12000000000000000000000000000000000000F
:10C1300000000000000000000000000000000000FF
:10C1400000000000000000000000000000000000EF
:10C1500000000000000000000000000000000000DF
:10C1600000000000000000000000000000000000CF
:10C1700000000000000000000000000000000000BF
:10C1800000000000000000000000000000000000AF
:10C19000000000000000000000000000000000009F
:10C1A000000000000000000000000000000000008F
:10C1B000000000000000000000000000000000007F
:10C1C000000000000000000000000000000000006F
:10C1D000000000000000000000000000000000005F
:10C1E000000000000000000000000000000000004F
:10C1F000000000000000000000000000000000003F
:10C2000010B5054C237833B9044B13B10448AFF390
:10C2100000800123237010BD48250020000000008D
:10C22000780B040008B5034B1BB103490348AFF377
:10C23000008008BD000000004C250020780B0400A1
:10C24000154B002B08BF134B9D46A3F5803A0021E8
:10C250008B460F461348144A121A21F007FE0F4B63
:10C26000002B00D098470E4B002B00D098470020A1
:10C27000002104000D000D48002802D00C48AFF347
:10C28000008021F0A3FD2000290000F043FD21F0F3
:10C2900089FD00BF0000080000FD01200000000033
:10C2A0000000000048250020B05D002000000000D4
:10C2B0000000000041DF7047024B1A689B880A604B
:10C2C0008B8070470C260020014B1B880B80704729
:10C2D0000826002013B542F20413B3EB114F01916D
:10C2E000144602D0784605F0A5FC074B22684FF6AD
:10C2F000FF71B2FBF1F21A80044A6368B3FBF1F3F9
:10C30000138002B010BD00BF1A24002018240020A2
:10C3100010B586B00C4606A901E90C00184B1B6845
:10C320005B0422D5174B1B68032B1EDD16482F21FB
:10C3300021F06EFED8B12F21134821F069FE0130A3
:10C34000124BBDF81420D3F8043503924FF6FF7159
:10C35000049AB2FBF1F292B2CDE901420C4A00928A
:10C360000146F82204200AF089FD06B010BD0648F7
:10C370005C2121F04DFE08B15C21DDE70248DFE7DA
:10C380007C24002078240020A8E003000010014055
:10C39000D7E003001FB54D48002102F081FD08B130
:10C3A00020F004F94A4C236859041ED5494B1B68F8
:10C3B000032B1ADD48482F2121F02AFE002869D0DE
:10C3C0002F21454821F024FE411C404A434B92F85E
:10C3D000BC00D3F80435029012880192404A0092C2
:10C3E000042040F21B120AF049FD384A3D48002162
:10C3F00001F006FE08B120F0D9F823685A041ED5D2
:10C40000344B1B68032B1ADD33482F2121F000FE2B
:10C41000002848D02F21304821F0FAFD411C314A34
:10C420002E4B92F89000D3F80435029012880192B6
:10C430002D4A009204204FF490720AF01FFD234A07
:10C440002A48022102F0EAFE08B120F0AFF8236882
:10C450005B041DD51F4B1B68032B19DD1E482F21C4
:10C4600021F0D6FD40B32F211B4821F0D1FD411C06
:10C470001E4A1A4B92F86001D3F8043502901288D4
:10C4800001921B4A0092042040F225120AF0F6FCA9
:10C4900004B010BD10485C2121F0BAFD08B15C2148
:10C4A0008FE70D4991E70C485C2121F0B1FD08B1FF
:10C4B0005C21B0E70849B2E707485C2121F0A8FDFC
:10C4C00008B15C21D0E70449D2E700BF6022002018
:10C4D0007C24002078240020A8E003000010014004
:10C4E00019E10300701F002052E10300F02000203A
:10C4F0007FE103002DE9FF413F4E404F3388154651
:10C500003F4A0C4639881268994202F480424AD860
:10C51000A34248D31C1BA4024FF4964394FBF3F3AD
:10C5200003FB00F6C3F580634343B70A4FEA932841
:10C53000C6F38F26C3F38F24E2B1324B1B68062B60
:10C5400018DD31482F2121F063FD18B32F212E482B
:10C5500021F05EFD411C2D4B1FFA88F2D3F8043503
:10C560000292BFB22A4A009203950197D122072076
:10C570000AF084FC274D0023314628462B7203F035
:10C580005DFC0123214628462B7204B0BDE8F04132
:10C5900003F054BC1C485C2121F03AFD08B15C2139
:10C5A000D5E71949D7E7DAB1164B1B68002B17DD21
:10C5B00015482F2121F02CFDA8B12F21124821F080
:10C5C00027FD411C114BD3F8043503943A8802929D
:10C5D00032880192104A00920120DB220AF04EFCC0
:10C5E00004B0BDE8F08108485C2121F011FD08B1DC
:10C5F0005C21E3E70449E5E7182400201A24002021
:10C600007C24002078240020A8E0030000100140D2
:10C61000B0E10300F8230020DAE1030003C9074B6F
:10C6200083E80300B3F90420054B4FF6FF71B0FB1C
:10C63000F1F1188889B2FFF75DBF00BF0C2600201A
:10C640000826002013B51C4B1C4C1B6821805B0482
:10C6500019D51B4B1B68032B15DD1A482F2121F020
:10C66000D7FCF8B12F21174821F0D2FC411C164B02
:10C670002288D3F804350192144A0092042040F233
:10C6800001120AF0FBFB124B208819684FF6FF726B
:10C69000B1FBF2F1B3F9042089B202B0BDE8104059
:10C6A000FFF728BF07485C2121F0B2FC08B15C21EC
:10C6B000D9E70449DBE700BF7C24002008260020DE
:10C6C00078240020A8E003000010014017E20300D6
:10C6D0000C26002007B5164B1B685B0417D5154BBD
:10C6E0001B68032B13DD14482F2121F091FCA8B106
:10C6F0002F21114821F08CFC411C104B104AD3F81B
:10C7000004350092042040F253120AF0B7FB03F004
:10C7100035FB03B05DF804EB03F016B806485C2166
:10C7200021F076FC08B15C21E3E70349E5E700BFAF
:10C730007C24002078240020A8E0030000100140A1
:10C740002EE203000378232B01D1FFF7C3BF70470C
:10C75000F0B503781D2BC7B004462ED1514C05A966
:10C7600094F8980015F01BFB08B11FF01FFF4E4B0B
:10C77000059A4E484FF6FF71B2FBF1F21A804C4A0F
:10C78000069BB3FBF1F30DF11301138002F06AFD78
:10C7900008B11FF00BFF9DF8133033B9D4F89C009B
:10C7A00002F0EEFB08B11FF001FF3E4801F08CFCE7
:10C7B00008B11FF0FBFE47B0F0BD142BFBD13D4E7E
:10C7C00032685204F7D53C4F3A68042AF3DD3B48FF
:10C7D0002F2121F01DFC002842D02F21374821F0C5
:10C7E00017FC411C364D2279D5F804350392228975
:10C7F0000292E2880192334A009205204FF4A5721A
:10C800000AF03CFB33685B04D5D53B68042BD2DDD2
:10C810002369802B28BF802318462B4B05AA1F684D
:10C8200016460023834202F1020222D1002223484D
:10C8300006F813202F2121F0EBFB48B32F211F48CE
:10C8400021F0E6FB411C214AD5F804350192204A2B
:10C85000009202964FF4A67205200AF00FFBAAE799
:10C8600016485C2121F0D4FB08B15C21B6E71349DE
:10C87000B8E7E168C95C4FEA111C01F00F0117F835
:10C880000CC002F802CC795C02F8011C0133C9E744
:10C890000A485C2121F0BCFB08B15C21CFE70749C5
:10C8A000D1E700BF701F00201A240020F0200020D4
:10C8B000182400207C24002078240020A8E0030015
:10C8C0000010014047E203008024002075E20300CD
:10C8D0007FE203001FB503A81CF036F8154B1B6858
:10C8E0005B041AD5144B1B68032B16DD13482F214C
:10C8F00021F08EFBA0B12F21104821F089FB411CB3
:10C900000F4BBDF80C20D3F8043501920D4A00926C
:10C9100004204FF4EB720AF0B1FA05B05DF804FBA5
:10C9200006485C2121F074FB08B15C21E4E703496F
:10C93000E6E700BF7C24002078240020A8E0030064
:10C940000010014087E2030007B5174B1B685B042A
:10C9500017D5164B1B68032B13DD15482F2121F02B
:10C9600057FBB8B12F21124821F052FB411C114B4B
:10C97000114AD3F804350092042040F2DB120AF089
:10C980007DFA04F087FA04F0ADFA03B05DF804EB29
:10C99000FFF7A0BF06485C2121F03AFB08B15C21FB
:10C9A000E1E70349E3E700BF7C240020782400206E
:10C9B000A8E00300001001409EE2030030B5164BD2
:10C9C0001B685B0485B00C46154619D5134B1B68D4
:10C9D000032B15DD12482F2121F01AFB90B12F21D6
:10C9E0000F4821F015FB411C0E4B0F4AD3F80435BC
:10C9F0000092CDE901454FF4897204200AF03EFA15
:10CA000005B030BD06485C2121F002FB08B15C2175
:10CA1000E6E70349E8E700BF7C24002078240020F3
:10CA2000A8E0030000100140B8E2030073B5064619
:10CA30001A4814460D4618F0D9F8194B1B68A04245
:10CA400008BF34465B0418D5164B1B68032B14DD56
:10CA500015482F2121F0DCFAB8B12F21124821F01E
:10CA6000D7FA411C114B124AD3F8043500920194B5
:10CA70004FF4B47204200AF001FA08482A4621460D
:10CA800002B0BDE8704018F001B907485C2121F000
:10CA9000BFFA08B15C21E1E70349E3E7F020002099
:10CAA0007C24002078240020A8E00300001001402E
:10CAB000E3E2030037B5894DA0F131022B68052A66
:10CAC00003F4804300F2E980A0F13004C3B1844B49
:10CAD0001B68032B14DD83482F2121F099FAB8B38A
:10CAE0002F21804821F094FA411C7F4B7F4AD3F8D4
:10CAF0000435009201944FF4BE7204200AF0BEF98E
:10CB0000022C2ED0042C75D0012C40F0A48041F2D0
:10CB1000941236210020FFF789FF4FF4FA62372183
:10CB20000020FFF783FF40F6AC5238210020FFF7CA
:10CB30007DFF40F6AC5239210020FFF777FF6C48AB
:10CB400042F210723C2103B0BDE83040FFF76EBFE7
:10CB500064485C2121F05CFA08B15C21C1E76149BD
:10CB6000C3E7644B4FF6FF721968B1FBF2F1624AFA
:10CB700001F5FA51128889B28A423CBF5F4A118896
:10CB8000C1EB014119604FF6FF72B1FBF2F1B3F94D
:10CB900004205B4B89B21888FFF7ACFC594801F0C0
:10CBA0001BFB0446D8B12B68590418D54C4B1B68A5
:10CBB000012B14DD4B482F2121F02AFA88B12F21B7
:10CBC000484821F025FA411C474B4F4AD3F8043519
:10CBD0000092019440F2A71202200AF04FF903B02C
:10CBE00030BD40485C2121F013FA08B15C21E7E731
:10CBF0003C49E9E702F0A6FD40B110F017FB02F056
:10CC000047FD03B0BDE83040FFF764BD2B685A0410
:10CC1000E5D5334B1B68032BE1DD32482F2121F092
:10CC2000F7F978B12F212F4821F0F2F9411C2E4B52
:10CC3000364AD3F8043500924FF4DD7204200AF02E
:10CC40001DF9CCE727485C2121F0E2F908B15C210D
:10CC5000E9E72449EBE72B685B04C0D5204B1B6850
:10CC6000032BBCDD1F482F2121F0D2F960B12F2109
:10CC70001C4821F0CDF9411C1B4B254AD3F8043543
:10CC800000924FF4E072D9E716485C2121F0C0F918
:10CC900008B15C21ECE71349EEE7002B9FD0104B65
:10CCA0001B68032B9BDD0F482F2121F0B1F960B1E8
:10CCB0002F210C4821F0ACF9411C0B4B144AD3F83E
:10CCC000043500924FF4E772B8E706485C2121F082
:10CCD0009FF908B15C21ECE70249EEE77C240020D3
:10CCE00078240020A8E003000010014001E30300C5
:10CCF000C0D401000C260020182400201A24002093
:10CD000008260020701F002014E3030042E3030004
:10CD10008CE4030000B57B4C7B4A4FF4C0408DB0DF
:10CD200004210AF08FF82368580418D5774B1B6844
:10CD3000032B14DD76482F2121F06AF900283ED01C
:10CD40002F21734821F064F9411C724B724AD3F8C9
:10CD50000435009204204FF404720AF08FF86F48F3
:10CD600003F01CF81DF090F808B11FF01FFC04F050
:10CD700055F804F08FF804F0B5F802F0BDFF00217B
:10CD8000202203A821F072F801238DF80C3007232C
:10CD90008DF80F3006238DF81430614B07936149ED
:10CDA000614B0B9303A802F081FC18B902F0C4FF99
:10CDB000002831D00B280BD01FF0F8FB2CE0544892
:10CDC0005C2121F025F908B15C21BAE75049BCE7A4
:10CDD00002F0D4FF236859041ED54C4E3268032A52
:10CDE0001ADD4B482F2121F013F9002857D02F21AD
:10CDF000474821F00DF9411C464D4C4AD5F8043501
:10CE00000092042040F202220AF038F823685A0403
:10CE100002D53368032B4BDC6421454802F018FE31
:10CE2000404B1978002960D1142203A821F01EF884
:10CE3000404B0493404B089303A8404B099302F0E6
:10CE4000ABFD08B11FF0B2FB04F02CFF02F036FE80
:10CE50003B4807F077FF02F08DFB08B11FF0A6FBFF
:10CE600023685B0418D5294B1B68032B14DD284865
:10CE70002F2121F0CDF800283AD02F21244821F08D
:10CE8000C7F8411C234B2F4AD3F8043500920420E5
:10CE90004FF40F7209F0F2FFFFF70CFAFCE71C48A1
:10CEA0005C2121F0B5F808B15C21A1E71849A3E79E
:10CEB00017482F2121F0ACF870B12F21144821F030
:10CEC000A7F8411C204AD5F80435009204204FF4FD
:10CED000017209F0D3FF9FE70D485C2121F098F81B
:10CEE00008B15C21EAE70A49ECE7FFF7F3FCABE79E
:10CEF00007485C2121F08CF808B15C21BEE70449A9
:10CF0000C0E700BF7C240020196E020078240020B6
:10CF1000A8E003000010014079E30300F82300209B
:10CF200045C701006425002095C30100AEE303005E
:10CF3000B5CA010049C9010038E4030038E603001E
:10CF4000601F00208CE40300FCE3030013B5D0F85D
:10CF5000B0304A68934228BF13460A6893422CBFF8
:10CF600000930092B0F8B430ADF80430D0F8A0309F
:10CF700004460BB169469847009BC4F8B03002B034
:10CF800010BD000038B5084B1C6800250CB9012005
:10CF900038BD14F8022C2AB104F8025CA4F19C00FC
:10CFA00002F072FA2468F1E71826002070B50446F2
:10CFB0008AB0A0F1E00650F83C3C06A930469847FC
:10CFC000237F012B4CD114F80C3C002B4BD154F88F
:10CFD000143C44F8283C34F80E3C24F8243C2B4BF9
:10CFE0001B685B0427D52A4B1B68032B23DD2948CC
:10CFF0002F2121F00DF800283ED02F21254821F0C7
:10D0000007F8411C244B226AD3F804350492626A63
:10D0100003924FF6FF7054F8202CB2FBF0F292B25C
:10D02000029214F8502C01921C4A0092042040F203
:10D030003D3209F023FF54F8385C002344F8083CE3
:10D0400065B134F8243CADF8243054F8283C0893FA
:10D050000AAB13E90C00216A3046A8470AB070BD3C
:10D0600013F0FD0FB3D154F8183C44F8203C34F8C9
:10D07000103C24F81C3CAAE706485C2120F0C8FFBD
:10D0800008B15C21BAE70349BCE700BF7C2400205B
:10D090007824002048E60300001001406FE60300FA
:10D0A00030B589B01446D0F8A43004A90546984795
:10D0B000049B2360BDF81430A380B5F8BC30A38175
:10D0C00095F80C31022B4AD195F8980006A914F076
:10D0D00066FE20B12B4A4FF4A2711FF074FAD5F806
:10D0E000B8000799284A47F6FF73884218BF1346CD
:10D0F000A360D5F800312BB1D5F80431003B18BF3F
:10D1000001235B422361214B1B685B0425D5204B27
:10D110001B68032B21DD1B482F2120F079FF38B33A
:10D120002F21184820F074FF411C1A4B2269D3F8B4
:10D13000043503924FF6FF752268B2FBF5F292B206
:10D14000A0680192B0FBF5F0134A009280B2029001
:10D150004FF4AA72042009F091FE09B030BDD5F851
:10D16000B830A36005F1E00002F09CF92061CAE745
:10D1700004485C2120F04CFF08B15C21D1E7014953
:10D18000D3E700BF48E603000080FFFF7C240020B7
:10D190007824002000100140B2E6030030B50546B7
:10D1A0008DB0D0F8A4300AA914469847D5F89C0051
:10D1B0000DF12601D0F8CC309847BDF826302380F9
:10D1C000D5F89C30B3F8EA3023810A9B6360D5F828
:10D1D000B830E36095F80C31022B38D1D5F8003126
:10D1E000003B18BF01235B422361204B1B685B049B
:10D1F0002BD51F4B1B68042B27DD1E482F2120F049
:10D2000007FF50B32F211B4820F002FF411C1A4B8F
:10D21000D5F80421D3F804350692226905922289B3
:10D2200003924FF6FF756268B2FBF5F292B202927A
:10D230002288E0680192B0FBF5F0104A009280B2BB
:10D240000490D522052009F019FE0DB030BD05F17E
:10D25000E00002F027F92061C7E706485C2120F0D2
:10D26000D7FE08B15C21CEE70249D0E77C2400203C
:10D270007824002048E6030000100140D3E60300B4
:10D2800070B504468EB0D0F8A4300E4602A9984777
:10D29000D4F89C000DF10601D0F8CC30984794F8F2
:10D2A0007931002B3BD1D4F89C00D0F818316BBBFE
:10D2B0003046BDF80630ADF81030029B0593D4F827
:10D2C0009C300890B3F8EA30ADF8183004A9D4F8CF
:10D2D000B8300793201D14F091FA0546029B09937C
:10D2E000BDF80C30ADF82830D4F8B8300B9309A94C
:10D2F000B4F8BC30ADF8303004F130000D9614F0C5
:10D3000096FA002D18BF28460EB070BDF83002F016
:10D31000C9F80028CCD0B04238BF3046C9E7002554
:10D32000DCE7000070B550F8143C40F8283C554E3E
:10D3300030F80E3C20F8243C3268520486B0044693
:10D34000A0F1E0051CD5504B1B68032B18DD4F489E
:10D350002F2120F05DFE002800F081802F214B4816
:10D3600020F056FE411C4A4B14F8502CD3F80435DB
:10D370000192484A009204204FF4747209F07EFD35
:10D3800094F82C3014F8480C022B1FBF54F8283C9A
:10D3900044F8303C34F8243C24F82C3C02A914F026
:10D3A000FEFC20B1394A40F2D9311FF00CF93A4B5A
:10D3B000029A9A4202D0039A9A421BD133685B04C4
:10D3C00018D5314B1B68012B14DD30482F2120F07C
:10D3D0001FFE00284CD02F212C4820F019FE411CA4
:10D3E0002B4B2E4AD3F804350092022040F2DA3259
:10D3F00009F044FD02A92846FFF7A8FD54F8386C4F
:10D4000066B134F8243CADF8143054F8283C049349
:10D4100006AB13E90C00216A2846B04754F8301CCB
:10D4200014F8480C14F032FC20B1184A4FF47A7109
:10D430001FF0C9F834F92C1C14F8480C14F043FC04
:10D4400020B1124A40F2E9311FF0BDF80021284610
:10D45000FFF716FF0023A4F8983006B070BD0B4804
:10D460005C2120F0D5FD08B15C2178E707497AE717
:10D4700006485C2120F0CCFD08B15C21ACE70349F3
:10D48000AEE700BF7C2400207824002048E603009B
:10D49000001001401CE703000100FEFF3EE703000F
:10D4A0002DE9FF470446066AA0F1E00802F013F8F0
:10D4B00094F82C3054F820AC022B0546A6EB00095A
:10D4C0007CD054F8282CB2EB0A0262EB0203A2FBD8
:10D4D0000001F71705FB031132463B4620F092FA94
:10D4E000504444F8300C34F91CAC34F9240CA0EB53
:10D4F0000A00C317A0FB050105FB031132463B469A
:10D5000020F080FA504424F82C0C14F8480C02A99E
:10D5100014F045FC20B1394A40F2AD311FF053F808
:10D52000374B029A9A4202D0039A9A421CD1354B49
:10D530001B685B0418D5344B1B68012B14DD2F4886
:10D540002F2120F065FD00284CD02F212B4820F002
:10D550005FFD411C2D4B2E4AD3F80435009202206A
:10D5600040F2AF3209F08AFC02A94046FFF7EEFC18
:10D5700094F82C30022B0ED1626A54F8303C002A09
:10D5800039DD039A934206D1012384F89A30214B66
:10D59000186808F08BFB40F2DC5399450BD954F81E
:10D5A000083CEB1AB3F57A7F05D944F8085C494684
:10D5B0004046FFF765FE04B0BDE8F087626A4FF6AB
:10D5C000FF76D117A2FB002300FB0133A2FB06016B
:10D5D00006FB0311226A002320F014FA504444F899
:10D5E000300C92E705485C2120F012FD08B15C2167
:10D5F000ACE70249AEE7CED0029AC3E748E60300A3
:10D600000100FEFF7C24002078240020001001404F
:10D610003EE703001426002038B5D0F89C300446BD
:10D62000114693F8C400154615F0D4FB20B10F4AFB
:10D630004FF4D4711EF0C7FF94F89800291D14F020
:10D6400074FB20B1094A4FF4D5711EF0BCFF94F869
:10D65000980005F1080114F088FB30B1BDE83840AE
:10D66000024A40F2AB111EF0AEBF38BD48E60300DF
:10D670007FB51D46D0F89C301188044693F8C4004D
:10D68000164615F094FB20B1254A40F2B9111EF060
:10D690009AFF716894F8980014F035FB20B1204A85
:10D6A00040F2BB111EF08FFFB6F9081094F89800F5
:10D6B00014F048FB20B11A4A4FF4DE711EF083FFCC
:10D6C000D4F89C3001AE93F8C400314615F082FBCB
:10D6D00020B1134A4FF4DF711EF075FF94F89800E3
:10D6E00002A914F022FB20B10D4A4FF4E0711EF0A4
:10D6F0006AFF94F8980003A914F037FB20B1084A98
:10D7000040F2C1111EF05FFF3146201D14F0B1F848
:10D710001DB196E8070085E8070004B070BD00BFA2
:10D7200048E6030070B588B0054603A990F8980054
:10D7300016461C4614F033FB20B1334A40F2E31185
:10D740001EF041FF314B039A9A4202D0049A9A424A
:10D750001BD12F4B1B685B0417D52E4B1B68012B6D
:10D7600013DD29482F2120F053FC58B32F212648E0
:10D7700020F04EFC411C284B284AD3F80435009277
:10D7800002204FF4F37209F079FB00238DF8143076
:10D79000039B0693049B32680793214B21499A42CD
:10D7A0003CBF01238DF8143073688B4213D90223D8
:10D7B0008DF8143024B108AB13E9070084E80700A2
:10D7C00008B070BD10485C2120F022FC08B15C213B
:10D7D000CDE70D49CFE79DF814100029EAD195F85F
:10D7E000980003A9CDE90623CDE9032314F0CAFA72
:10D7F00020B1054A40F203211EF0E5FE05A9281DCF
:10D8000014F02EF8D6E700BF48E603000100FEFF43
:10D810007C24002078240020001001403EE7030013
:10D82000E0FC1F03E0B11F4E13B5154B1B685B04F2
:10D8300004461AD5134B1B68032B16DD12482F2103
:10D8400020F0E6FB98B12F210F4820F0E1FB411CAE
:10D850000E4B14F8502CD3F8043501920C4A009268
:10D86000042040F2233209F009FB02B010BD064843
:10D870005C2120F0CDFB08B15C21E5E70249E7E738
:10D880007C2400207824002048E60300001001409A
:10D8900060E703001FB590F8980002A9144614F041
:10D8A0007EFA20B11B4A40F2D3111EF08CFE0023F9
:10D8B00002992370184B039A61609942A26001D0CB
:10D8C0009A421BD1154B1B685B0417D5144B1B6880
:10D8D000012B13DD0F482F2120F09AFB80B12F215F
:10D8E0000C4820F095FB411C0E4B0F4AD3F8043531
:10D8F000009202204FF4EC7209F0C0FA04B010BD9F
:10D9000004485C2120F084FB08B15C21E8E7014970
:10D91000EAE700BF48E603000100FEFF7C24002088
:10D9200078240020001001403EE7030030B590F855
:10D93000993089B004460D46BBB190F87831A3B94F
:10D94000D0F8A43001A998472B88ADF80C306B882B
:10D95000ADF814306B680793019B049303A9D4F8C6
:10D96000B8300693201D13F049FF09B030BD000008
:10D9700008B50023C0F81031D0F89C3000F1F00158
:10D9800093F8C40015F0C5FA30B1BDE80840034A69
:10D9900040F209411EF017BE08BD00BF48E6030073
:10D9A0002DE9F047154601228EB080F87821044613
:10D9B0002A88D0F89C00ADF82420AA7A8DF8262079
:10D9C0000CAED0F8C02000965668169F09AA98465B
:10D9D000B047D4F8A4300AA9204698476968C4F82B
:10D9E000CC102B89A4F8D230D4F8B030C4F8C830A9
:10D9F000B4F8B43094F89800A4F8D03014F046F994
:10DA000020B1514A4FF481711EF0DDFDB4F9D210FE
:10DA100094F8980014F057F920B14B4A40F20311E2
:10DA20001EF0D1FD94F899300A9ABDF82C1033B14C
:10DA30006B68934203D12B898B4200F08280D4F82B
:10DA4000CC30B4F9D2904FF6FF70B3FBF0F6B2FBD6
:10DA5000F0F2B6B292B2B61A09B23046A9EB010999
:10DA600020F09CF98246484620F098F90023824530
:10DA7000D8BF4E4684F8FC302D23C4F8F460C4F8B7
:10DA8000F830B8F1000F4AD12046FFF771FF2F4B55
:10DA9000D4F8F0601B685B042CD52D4B1B68032B5E
:10DAA00028DD29482F2120F0B3FA002840D02F216B
:10DAB000254820F0ADFA411C264BD4F8F420D3F8C9
:10DAC00004350692D4F8F0200592D4F8102104927F
:10DAD0002A8903924FF6FF706A68B2FBF0F292B2A5
:10DAE00002922A8801921C4A009204204FF4887204
:10DAF00009F0C4F904F1E00001F0B8FC67B1BDF829
:10DB000030303B80BDF832303B81D4F8B0307B60A0
:10DB1000D4F8CC30C7E903360EB0BDE8F087D8F8AA
:10DB20000430C4F81031D8F80030C4F8F030AEE753
:10DB300005485C2120F06CFA08B15C21B8E7024985
:10DB4000BAE70026DAE700BF48E603007C2400209D
:10DB500078240020001001407CE70300F0B51F4648
:10DB600089B00123044680F8793106A9D0F8A430A1
:10DB70000E9D16469847069BC4F8B030BDF81C3081
:10DB800094F89800A4F8B43004A914F008F920B16E
:10DB90003B4A40F26B211EF016FD3368C4F8F430A6
:10DBA00002222D2384F8FC20C4F8F830002F4DD138
:10DBB0002046FFF7DDFE3368002B4EDDD4F8F03051
:10DBC000002B50D0059BC4F8CC302E4B1B685B0457
:10DBD00020D52D4B1B68032B1CDD29482F2120F05D
:10DBE00017FA002842D02F21254820F011FA411CB5
:10DBF000264BD4F8F020D3F804350392D4F8102142
:10DC0000029232680192224A0092042040F27D2260
:10DC100009F034F904F1E00001F028FCA5B1D4F8D2
:10DC2000B0302B60D4F8CC30059A93424FF0FF33DC
:10DC300018BF0023AB60D4F8F03023B13368003B49
:10DC400018BF01235B422B6109B0F0BD7B68C4F8AB
:10DC500010313B68C4F8F030ADE704D0D4F8F030B0
:10DC60000BB1049BAFE7D4F8B030ACE704485C21BB
:10DC700020F0CEF908B15C21B6E70149B8E700BF52
:10DC800048E603007C240020782400200010014096
:10DC9000D5E703002DE9F04788B01546DDF8409040
:10DCA0009846044600B112B9784603F0C3FF012339
:10DCB00084F8793104F1080012F0D4FC634B84F845
:10DCC000D4001A6812F4804F9A4623D0604B1B6828
:10DCD000032B1FDD5F482F2120F09AF9002800F068
:10DCE00097802F215B4820F093F9411C94F8D47061
:10DCF000594A5A4E28795A4B002F08BF3246D3F85A
:10DD00000435CDE90102574A0092042040F2252251
:10DD100009F0B4F8D4F8A43004A9204698472E6836
:10DD200094F898004FF6FF7306A986FB036714F07A
:10DD300036F820B1474A40F22E211EF044FC94F8F8
:10DD4000D430002B7FD0D4F8B030C4F8C830B4F849
:10DD5000B430A4F8D030049B079AF61847F10007B6
:10DD60000021B24271EB070306DB069A0023B242A0
:10DD700073EB0701B8BF3246C4F8CC202B68C4F857
:10DD8000F43001222D2384F8FC20C4F8F830B8F1D7
:10DD9000000F46D12046FFF7EBFDDAF800305B04B8
:10DDA00020D52B4B1B68032B1CDD2A482F2120F08C
:10DDB0002FF900283ED02F21264820F029F9411CB8
:10DDC000274BD4F8F020D3F804350392D4F810216F
:10DDD00002922A680192244A009204204FF41072A1
:10DDE00009F04CF804F1E00001F040FBB9F1000F3C
:10DDF0000BD0D4F8B030C9F80030D4F8CC30C9F822
:10DE00000830D4F8F030C9F8103008B0BDE8F08719
:10DE100010485C2120F0FCF808B15C2162E70D4954
:10DE200064E7D8F80430C4F81031D8F80030C4F8EA
:10DE3000F030B2E707485C2120F0EAF808B15C2135
:10DE4000BAE70449BCE7D4F8C03085E77C24002059
:10DE50007824002048E60300FDE7030005E80300FE
:10DE60000010014024E8030030E803002DE9F047EA
:10DE7000164688B098460123044680F8793106A9F1
:10DE8000D0F8A430109F98473168C4F8CC10B388FC
:10DE9000A4F8D230D4F8B030C4F8C830B4F8B430F4
:10DEA00094F89800A4F8D03013F0F0FE20B14F4A57
:10DEB0004FF4B9711EF087FBB4F9D21094F89800B2
:10DEC00013F001FF20B1494A40F273111EF07BFBB1
:10DED00094F89930069ABDF81C102BB13368934220
:10DEE00002D1B3888B427FD0D4F8CC30B4F9D29031
:10DEF0004FF6FF70B3FBF0F5B2FBF0F2ADB292B2A9
:10DF0000AD1A09B22846A9EB01091FF047FF824666
:10DF100048461FF043FF00238245D8BF4D4684F892
:10DF2000FC302D23C4F8F450C4F8F830B8F1000FD9
:10DF300048D12046FFF71CFD2D4BD4F8F0501B684C
:10DF40005B042AD52B4B1B68032B26DD27482F218A
:10DF500020F05EF800283ED02F21244820F058F809
:10DF6000411C254BD4F8F420D3F804350592D4F89D
:10DF7000F0200492D4F810210392B28802924FF656
:10DF8000FF703268B2FBF0F292B201921B4A00922B
:10DF900004204FF4C07208F071FF04F1E00001F0BA
:10DFA00065FA67B1D4F8B0303B60D4F8CC30BB60D0
:10DFB000B4F8B430BB80B4F8D230BB813D6108B056
:10DFC000BDE8F087D8F80430C4F81031D8F8003034
:10DFD000C4F8F030B0E705485C2120F019F808B12A
:10DFE0005C21BAE70149BCE70025DAE748E603000F
:10DFF0007C240020782400200010014059E8030010
:10E0000070B50E46044600284AD0002A48D0D0F801
:10E01000A430002B44D0D0F8A0301BB9D0F8A830E1
:10E02000002B3DD0C4F89C20C2F8D840D4F89C30D6
:10E030001C4AC3F8D4201C4BC4F8943004F1980057
:10E0400013F0BAFE054648BB84F89900D4F89C103A
:10E050003246204613F016FC0546F8B9134BC4F8B7
:10E06000E030134BC4F8E430124BC4F8E83004F14C
:10E07000E000114B84F87A51C4F8EC30C4F8680120
:10E0800001F03EFA054648B90C4804F5BE7108F0A7
:10E090005AFE0B4807F0ECFD0A4B1860284670BD8D
:10E0A0000E25FBE72DD90100A8E8030029D80100BF
:10E0B000ADCF0100A1D4010025D301001826002016
:10E0C00085CF01001426002030B5044689B0002811
:10E0D00073D0D0F89C3090F8985093F8C40002A9FF
:10E0E00014F00CFE20B1364A40F2C3411EF06BFA28
:10E0F00003A9284613F0DBFD20B1314A40F2C441A8
:10E100001EF061FA04A9284613F00FFE20B12C4A34
:10E1100040F2C5411EF057FA05A9284613F0E6FD66
:10E1200020B1274A40F2C6411EF04DFA0DF116010A
:10E13000284613F01AFE20B1214A40F2C7411EF0D2
:10E1400042FA06A9284613F02AFE20B11C4A4FF4D1
:10E1500099611EF038FA1B4B069A9A4202D0079A30
:10E160009A421BD1184B1B685B0417D5174B1B68D1
:10E17000012B13DD12482F211FF04AFFA0B12F21E0
:10E180000F481FF045FF411C114B124AD3F80435CC
:10E190000092022040F2CB4208F070FE02A9204615
:10E1A00013F072FC09B030BD05485C211FF030FF50
:10E1B00008B15C21E4E70249E6E70E20F2E700BF80
:10E1C00048E603000100FEFF7C24002078240020A4
:10E1D000001001403EE703001FB5044600285CD054
:10E1E000E03001F051F9D4F89C00F83001F04CF91E
:10E1F000D4F8A43002A920469847D4F89C000DF129
:10E200000601D0F8CC309847029BC4F8B030BDF876
:10E210000C30A4F8B430D4F89C30BDF80620A3F834
:10E22000E820D4F8B01094F8980013F02FFD20B136
:10E230001B4A40F2EB411EF0C6F9B4F9B41094F851
:10E24000980013F040FD20B1154A40F2EC411EF059
:10E25000BAF9BDF8061061B1D4F89C30012293F8E8
:10E26000C40014F057FD20B10D4A4FF49E611EF01A
:10E27000AAF9D4F89C30BDF8061093F8C40014F045
:10E2800016FE20B1064A40F2F5411EF09CF900212D
:10E290002046FEF7F5FF04B010BD0E20FBE700BFDF
:10E2A00048E6030038B51546044600B112B9784671
:10E2B00003F0C0FC94F82000294614F02AFE30B187
:10E2C000BDE83840024A40F2ED111EF07CB938BD7D
:10E2D000D0E8030073B514461E46054600B112B9D6
:10E2E000784603F0A7FC216895F8200014F0FFFDA4
:10E2F00020B1084A40F205211EF065F92368019318
:10E3000001A9284612F006FB0EB12368336002B063
:10E3100070BD00BFD0E8030010B5037F012B86B0AD
:10E3200004463CD110F8063C002B3BD134F8083CA5
:10E3300024F80E3C002344F8043C224B1B685B0489
:10E3400021D5214B1B68032B1DDD20482F211FF0F9
:10E350005FFE60B32F211D481FF05AFE411C1C4B6D
:10E36000226AD3F804350492626A039234F80C2CC2
:10E37000029214F83C2C0192164A0092042040F2BA
:10E38000153208F07BFD54F8283CCBB134F80E2C44
:10E39000216AA4F1F80006B0BDE81040184713F058
:10E3A000FD0FC3D134F80A3C24F80C3CBEE7074803
:10E3B0005C211FF02DFE08B15C21CCE70349CEE7BC
:10E3C00006B010BD7C24002078240020D0E8030093
:10E3D00000100140FDE803002DE9F3411C4B1D4DE9
:10E3E0001C681D4E1D4F1CB9012002B0BDE8F08114
:10E3F00014F8043CA4F5CA78FBB12B685B0415D56E
:10E400003368032B12DD16482F211FF001FEB0B137
:10E410002F2113481FF0FCFD411C124AD7F8043588
:10E42000009204204FF4387208F028FD002388F889
:10E430009031A4F19C0001F027F82468D3E7084844
:10E440005C211FF0E5FD08B15C21E2E70449E4E747
:10E45000302600207C240020782400200010014079
:10E46000D0E803003EE9030038B5C4B20D462046AB
:10E47000023114F0EFFC18B10C4A9B211EF0A3F8F6
:10E48000291D204614F006FD18B1084A9C211EF0F3
:10E490009AF82946204614F0BDFC28B1BDE8384062
:10E4A000024A9D211EF08FB838BD00BFD0E803009E
:10E4B00037B50546144612B9784603F0BBFB95F80C
:10E4C000C4006946FFF7D0FFBDF802306380BDF895
:10E4D0000430A3809DF80030237003B030BD13B525
:10E4E000D0F8E830CDE90031D0F8D43004461BB183
:10E4F000D0F8D800694698476946201D14F07EF987
:10E5000002B010BD30B5154689B0044600B112B94D
:10E51000784603F08FFBD4F8CC300DF1160120467D
:10E520009847BDF816302B8094F82431022B3BD14C
:10E5300094F8C40006A9FFF797FFB4F8EA30BDF8D5
:10E540001C2093424FF0FF3318BF00236B80D4F898
:10E5500018312BB1D4F81C31003B18BF01235B42AA
:10E560006B601A4B1B685B041CD5194B1B68042B92
:10E5700018DD18482F211FF04BFDF0B12F21154851
:10E580001FF046FD411C144B6A68D3F80435039212
:10E590006A8802922A880192104A00920520D322AA
:10E5A00008F06CFC09B030BDB4F8EA306B8004F1BF
:10E5B000F80000F077FF6860D3E706485C211FF0A1
:10E5C00027FD08B15C21DAE70249DCE77C24002062
:10E5D00078240020D0E80300001001404CE903003B
:10E5E0002DE9B34F0446A0F1F80900F074FF074687
:10E5F000204600F057FF94F82C3034F80C5C226A67
:10E60000022B80464BD034F80E0C401B4FEAE07BC7
:10E61000A0FB070107FB0B11D3171FF0F3F96946A5
:10E62000054414F8340CFFF71FFF002D40D0BDF84F
:10E6300002108D42B8BF0D46BDF804108D42A8BF30
:10E640000D46A9B254F8303C24F8101C0BB14846D2
:10E65000984794F82C30022B0FD1626A34F8103CA2
:10E66000002A27DDBDF804209A4206D1012384F850
:10E670009830124B186807F019FBB8F5FA7F0BD9E0
:10E6800054F8043CFB1AB3F57A7F05D944F8047CAE
:10E6900041464846FFF723FF02B0BDE8B08F606AED
:10E6A0004FEAE07BA0FB070107FB0B110023B4E757
:10E6B0002946C7E7E1D0BDF80220D5E72C26002087
:10E6C00038B51546044600B112B9784603F0B2FADF
:10E6D00094F86000294614F011FB30B1BDE83840D1
:10E6E000024A40F2D5111DF06EBF38BDD0E80300DC
:10E6F00070B514461D46064600B112B9784603F0BF
:10E7000099FA217896F8600014F0E6FA20B1044AEC
:10E7100040F2C1111DF057FF0DB123782B7070BD71
:10E72000D0E8030073B504461D46164612B9784674
:10E7300003F080FA694694F8C400FFF795FE31882B
:10E7400000238DF8003071B901238DF8003045B1F8
:10E75000BDF802306B80BDF80430AB809DF800300E
:10E760002B7002B070BD738894F8C400ADF802102D
:10E77000ADF8043014F05BFB20B1114A40F27F2168
:10E780001DF021FFBDF8041094F8C40014F06FFBD5
:10E7900020B10B4A4FF420711DF015FF9DF80010B9
:10E7A00094F8C40014F023FB20B1054A40F2812103
:10E7B0001DF009FF6946201D14F046F8C7E700BFA9
:10E7C000D0E8030073B506461D46144612B97846D4
:10E7D00003F030FA218896F8C40014F0E8FA20B16A
:10E7E000084A40F23E211DF0EEFE2388ADF80430C9
:10E7F00001A9301D14F01FF80DB123882B8002B041
:10E8000070BD00BFD0E8030038B50546144612B904
:10E81000784603F00FFA95F8C400214614F0DAFAAE
:10E8200030B1BDE83840034A40F225211DF0CBBE8F
:10E8300038BD00BFD0E8030038B50546144612B90C
:10E84000784603F0F7F995F8C400214614F08AFAE7
:10E8500030B1BDE83840034A40F21A211DF0B3BE82
:10E8600038BD00BFD0E8030008B50023C0F8283148
:10E8700000F5847190F8C40014F04BFB30B1BDE892
:10E880000840034A40F2BB311DF09DBE08BD00BFE9
:10E89000D0E803002DE9F0418AB01646DDF840804B
:10E8A0001F46044600B112B9784603F0C3F9D4F804
:10E8B000DC301BB13188D4F8E0009847D4F8CC3074
:10E8C0000DF11E012046984794F8C400358808A928
:10E8D000FFF7CAFDBDF824309D427AD8BDF822303A
:10E8E0009D4202D2002D18BF1D46B4F8E83094F8BE
:10E8F000C400A4F8F050A4F8EE30294614F0D7FA7A
:10E9000018B13E4AF2211DF05EFEB4F8F01049B194
:10E9100094F8C400002214F0FDF918B1374AF5212B
:10E920001DF051FE94F8C530BDF81E2013B1338898
:10E93000934260D0B4F8F0309B1AC4F80C31002236
:10E940002D2384F81421C4F81031002F43D1204620
:10E95000FFF78AFF2A4BD4F808511B685B0424D5C3
:10E96000284B1B68032B20DD24482F211FF050FB70
:10E97000002837D02F2121481FF04AFB411C224B91
:10E98000D4F80C21D3F804350492D4F8082103926A
:10E99000D4F828210292B4F8F02001921B4A009288
:10E9A000042040F2011208F069FA04F1F80000F0C6
:10E9B0005DFDB8F1000F09D0B4F8E830A8F80030D8
:10E9C000B4F8F030A8F80230C8F804500AB0BDE836
:10E9D000F0811D4689E77B68C4F828313B68C4F89C
:10E9E0000831B7E705485C211FF012FB08B15C2134
:10E9F000C1E70249C3E70025DBE700BFD0E8030019
:10EA00007C240020782400200010014072E90300DB
:10EA10001FB5174B1B685B0404461DD5154B1B68BF
:10EA2000032B19DD14482F211FF0F2FAB0B12F216A
:10EA300011481FF0EDFA411C104B34F8102CD3F89C
:10EA40000435029214F83C2C01920D4A00920420E5
:10EA50004FF43F7208F012FA04B010BD06485C2172
:10EA60001FF0D6FA08B15C21E2E70349E4E700BFF2
:10EA70007C24002078240020D0E80300001001400E
:10EA8000B0E9030013B50446694690F8C400FFF7E7
:10EA9000EBFCB4F8E810BDF80220BDF8043029B151
:10EAA000914238BF1146994228BF1946D4F8C83060
:10EAB000A4F8E8100BB12046984702B010BD000042
:10EAC00030B590F82C2030F8083C20F80E3C022A93
:10EAD000A0F1F80518BF20F8103C85B00446284680
:10EAE000FFF7D0FF2A4B1B685B041ED5294B1B6820
:10EAF000032B1ADD28482F211FF08AFA00283DD069
:10EB00002F2125481FF084FA411C244B34F8102C87
:10EB1000D3F80435029214F83C2C0192204A00925A
:10EB200004204FF4647208F0A9F954F8283C23B18A
:10EB300034F80E2C216A2846984734F8101C51B13D
:10EB400014F8340C012214F0E5F820B1124A40F216
:10EB50009F311DF038FD34F8101C14F8340C14F0FB
:10EB6000A6F920B10C4A40F2A3311DF02CFD002182
:10EB7000284605B0BDE83040FFF7B1BC06485C212F
:10EB80001FF046FA08B15C21BBE70349BDE700BFAF
:10EB90007C24002078240020D0E8030000100140ED
:10EBA000E3E90300F0B587B015460C9E1F46044606
:10EBB00000B112B9784603F03DF8D4F8DC301BB14F
:10EBC0002988D4F8E0009847B5F90030C4F80C3132
:10EBD00002222D2384F81421C4F81031002F5DD1B6
:10EBE0002046FFF741FED4F8CC3004F1E80120467E
:10EBF000984794F8C40004A9FFF736FCB5F9003033
:10EC0000002B52DDD4F80831002B55D0BDF814305C
:10EC1000A4F8F0302E4B1B685B0421D52D4B1B68EC
:10EC2000032B1DDD2C482F211FF0F2F9002846D0C0
:10EC30002F2129481FF0ECF9411C284BD4F808215A
:10EC4000D3F804350392D4F828210292B5F90020B4
:10EC50000192234A009204204FF4CB7208F00EF97F
:10EC600004F1F80000F002FCB6B1B4F8E8303380EB
:10EC7000B4F8EA30BDF8142093424FF0FF3318BFC8
:10EC800000237380D4F808312BB1B5F90030003B74
:10EC900018BF01235B42736007B0F0BD7B68C4F806
:10ECA00028313B68C4F808319DE705D0D4F8083115
:10ECB00013B1BDF81230ABE7B4F8E830A8E7064866
:10ECC0005C211FF0A5F908B15C21B2E70249B4E765
:10ECD0007C24002078240020D0E8030000100140AC
:10ECE00014EA03002DE9F04188B015460E9F1E4638
:10ECF000044600B112B9784602F09CFFD4F8DC302B
:10ED00001BB12988D4F8E000984704F1080011F0FD
:10ED1000A9FC5B4B84F8F2001A6812F4804F984605
:10ED200025D0584B1B68032B21DD57482F211FF09E
:10ED30006FF9002800F085802F2153481FF068F9F3
:10ED4000411C94F8F2E0514ADFF850C12879504B49
:10ED5000BEF1000F08BF6246D3F80435CDE90102C9
:10ED60004C4A0092042040F2331208F087F8D4F89D
:10ED7000CC3004F1E8012046984794F8C40006A975
:10ED8000FFF772FB94F8F230002B75D0B4F8E8105E
:10ED9000A4F8EE102B68194400295BDDBDF81C3087
:10EDA0008B4205DBBDF81A309942B8BF19468BB2C9
:10EDB000A4F8F0302B68C4F80C3101222D2384F81C
:10EDC0001421C4F81031002E46D12046FFF74CFD27
:10EDD000D8F800305B0423D52A4B1B68032B1FDDBA
:10EDE00029482F211FF014F900283CD02F21264854
:10EDF0001FF00EF9411C264BB4F8F020D3F804356F
:10EE00000492D4F808210392D4F8282102922A68A7
:10EE10000192214A009204204FF4A87208F02EF8C3
:10EE200004F1F80000F022FB47B1B4F8E8303B8071
:10EE3000B4F8F0307B80D4F808317B6008B0BDE8CE
:10EE4000F08111485C211FF0E3F808B15C2174E700
:10EE50000D4976E70023ABE77368C4F828313368BF
:10EE6000C4F80831B4E708485C211FF0D1F808B1B4
:10EE70005C21BCE70449BEE7B4F8EE108AE700BFA6
:10EE80007C24002078240020D0E80300FDE7030064
:10EE90000010014024E8030046EA030005E80300EF
:10EEA00037B5044600284DD0D0F8CC30002B49D0DF
:10EEB000D0F8C8301BB9D0F8D030002B42D0224B4C
:10EEC000C4F8C030214B224A1A60224A5A60C4F862
:10EED000B830214B214A1A60C4F8AC30204A019165
:10EEE00004F1C4005A6014F021F8054638BB84F8D8
:10EEF000C5000199204613F0B1FC0546F8B9194B3D
:10EF0000C4F8F830184BC4F8FC30184BC4F8003182
:10EF100004F1F800164B84F89051C4F80431C4F899
:10EF2000800100F0EDFA054648B9124804F5CA71AF
:10EF300007F009FF104806F09BFE104B18602846AA
:10EF400003B030BD0E25FAE77CEA0300242600203A
:10EF5000F1E60100C1E601001C260020D5E2010017
:10EF6000A5E2010011EA010019E30100E1E5010059
:10EF7000C1EA010030260020D9E301002C26002040
:10EF800030B5054685B0002850D090F8C44002A99D
:10EF9000204613F03FFF20B1254A4FF48B611DF04E
:10EFA00012FB0DF10A01204613F054FF20B1204A54
:10EFB00040F259411DF007FB03A9204613F06AFFF8
:10EFC00020B11B4A40F25A411DF0FDFA6946204625
:10EFD00013F094FE20B1164A40F25B411DF0F3FAA3
:10EFE0000DF10201204613F075FF20B1104A40F2E6
:10EFF0005C411DF0E8FA01A9204613F0B3FE20B1F0
:10F000000B4A40F25D411DF0DEFA0DF1060120468B
:10F0100013F0E0FE20B1064A40F25E411DF0D3FA43
:10F020006946284613F0E6FC05B030BD0E20FBE72C
:10F03000D0E8030038B50D46044668B3A0F8E810E0
:10F04000FFF720FD04F1F80000F01EFAD4F8D030EC
:10F0500023B1D4F808112A4620469847B4F8E8109E
:10F0600051B194F8C400012213F054FE20B10B4AB0
:10F0700040F2A7411DF0A7FAB4F8E81094F8C400D4
:10F0800013F015FF034628B1044A40F2AB411DF0CE
:10F090009AFA0023184638BD0E23FBE7D0E8030098
:10F0A00008B590F8720016F0F2FB28B1BDE80840F0
:10F0B000024AB3211DF087BA08BD00BFA0EA0300D1
:10F0C00037B50D46044610B9784602F0B3FDD4F8C2
:10F0D0006801D0F8C0306A461B6800219847BDF827
:10F0E00000302B8003B030BD13B5044620B9019128
:10F0F000784602F09FFD0199D4F86801FFF79AFF66
:10F1000030B1044AC42102B0BDE810401DF05BBA22
:10F1100002B010BDA0EA03001FB504460DF10F02B6
:10F1200090F87200012116F0B2FB18B11A4A85213D
:10F130001DF049FA9DF80F301BB3184B1B685B0498
:10F1400016D5174B1B68032B12DD13482F211EF019
:10F150005FFFC0B12F2110481EF05AFF411C114B18
:10F16000114AD3F80435009204208A2207F086FE63
:10F170000021204615F08AF818B1074A8B211DF0AE
:10F1800022FA04B010BD04485C211EF041FF08B112
:10F190005C21E0E70049E2E7A0EA03007C240020CC
:10F1A0007824002000100140C6EA030013B590F84F
:10F1B00072000C4616F058FBD8B1134B1B685B0469
:10F1C00017D5124B1B68002B13DD11482F211EF0A1
:10F1D0001FFF80B12F210E481EF01AFF411C0D4B5E
:10F1E0000D4AD3F80435009201949D22012007F0C6
:10F1F00045FE02B010BD06485C211EF009FF08B1B3
:10F200005C21E8E70249EAE77C240020782400201A
:10F21000A0EA030000100140F2EA030013B504461F
:10F220000191B8B1B2B1C0F86821C2F8E000D0F8DD
:10F2300068310A4AC3F8DC20723016F03BFB50B943
:10F24000074B0199C4F86431204602B0BDE8104074
:10F2500014F0D4BA0E2002B010BD00BF19F10100A5
:10F260000CEB030037B50D460446B0B1A9B1D0F898
:10F2700068310DF1070193F8C40013F03FFD20B190
:10F28000074A40F29B111DF09EF99DF807102A468F
:10F29000204614F037FB03B030BD0E20FBE700BF63
:10F2A000A0EA0300024B53F820300846184700BF7D
:10F2B0001CEB0300024B53F820300846184700BFF0
:10F2C00034EB0300836803B118477047006B0038C4
:10F2D00018BF012070470369013B033304D840691C
:10F2E000003818BF012070470020704702460121F6
:10F2F0008C300AF063BA0A4600230B6302F18C00DB
:10F3000002210AF05BBA70B590F82C30022B064649
:10F3100015D0383011F001FA4FF47A74A0FB0423B1
:10F3200004FB0133D40B44EA4344DD0B326A00236F
:10F330009D4208BF94422CBF0120002070BD0020D8
:10F34000FCE710B50023044603630362703005F048
:10F350001DFF04F13800BDE8104011F01BBA10B5D4
:10F360000446383011F016FA00232362E3681BB11B
:10F370002046BDE81040184710BD30B400F110031E
:10F38000044600F120050FCB85E80F00204630BC75
:10F39000FFF7E5BFFFF7E3BF2DE9F04100F13805C6
:10F3A0000446284611F0F6F904F110030FCB04F1DE
:10F3B000200686E80F00606A1EF0F0FC064610B9D1
:10F3C000784602F037FC206A4FF47A783246002300
:10F3D000A0FB08011EF066FBA26AA2FB08238B4279
:10F3E00008BF82423CBF0B460246002B08BFB2F565
:10F3F0007A7F1DD3114ED903D00341EA52418019BF
:10F400004FF000060E4A4FF0000346EB01011EF0DC
:10F4100049FB0123C4E9100184F83830284611F073
:10F4200091F940B9636833B12046BDE8F04118470F
:10F4300021200021EDE7BDE8F08100BF20A10700F9
:10F4400040420F0010B5044605F0EAFE236B4FF46E
:10F450007A7101FB030104F1700005F0AFFE23682F
:10F460001BB12046BDE81040184710BD10B504463A
:10F4700010B9784602F0DEFB224604F18C00002130
:10F48000BDE810400AF09AB910B5044610B97846A4
:10F4900002F0D0FB224604F18C000321BDE81040AD
:10F4A0000AF08CB92DE93048044610B9784602F0CC
:10F4B000C1FB04F13800256A11F02FF94FF47A737B
:10F4C000A0FB03BC03FB01CC4FEADB3040EA4C401D
:10F4D000281ABDE8308838B5044610B9784602F0DD
:10F4E000A9FB04F1380011F018F94FF47A73A0FB6E
:10F4F000034503FB0155E00B40EA454038BD0000E1
:10F5000038B5044610B9784602F094FB094BA3675E
:10F51000094BE364C4F88040A46404F1380011F09E
:10F520004FF90649054604F18C000AF016F9284601
:10F5300038BD00BFF7F20100EDF201006CEB0300F3
:10F540000378142B05D1C3880F2B9EBF014B0122DA
:10F550001A7070478C26002010B5044608F02CFA6B
:10F5600038B123780E2B04D1BDE81040002005F0FF
:10F5700045BC10BD08B51AF085FA20B10DF028FB86
:10F5800008B10DF0A3FABDE8084005F069BB000022
:10F5900070B5837DC27D86B043EA0223ADF8143096
:10F5A0000546032305A80E46ADF8163019F098F964
:10F5B000044610BB288A04AA294619F075FB0446A4
:10F5C000D8B9BDF81010E88A0DF11203324619F0CF
:10F5D0007BFD044688B9297ED5F8120001F00101AF
:10F5E00004F0BEFF044640B92B7E9A0708D4BDF84C
:10F5F000120010F07DFB044690B1204606B070BDAD
:10F60000BDF81000294619F0FDFB04460028F4D18E
:10F61000BDF8100019F05EFC04460028E7D0ECE7C6
:10F62000164B1B681B03E8D5154B1B68062BE4DD46
:10F6300014482F211EF0ECFCB0B12F2111481EF010
:10F64000E7FC411C2A7E104B02F00102D3F804357E
:10F650000292D5F8122001920C4A009207204FF432
:10F66000837207F00BFCC8E706485C211EF0D0FC53
:10F6700008B15C21E2E70349E4E700BF7C240020F5
:10F68000782400207CEB0300001001409BEB03007A
:10F6900008B505F00EFF17F01BFB19F0BFF804F0DA
:10F6A00025FDBDE8084008F0B3BD000073B50E4667
:10F6B000054600283ED005F065FA0446002836D1FC
:10F6C00019F0FCF817F018FB286910F0E1FA04466D
:10F6D00068BB2B7F0193AB69009301466B691648A9
:10F6E000592210F0A3FD044608BB2B6A03B19847CA
:10F6F000124805F027FB09F0AFFF104805F024FB86
:10F7000019F02CF8054617F05FF80B2D04D00B28E4
:10F7100002D00B4B1B7813B1FFF7BAFF0B241AF082
:10F72000B1F9054608B10DF075F906B135702046FE
:10F7300002B070BD0E24FAE7342600201C240020FD
:10F740008C2600201AF09EB908B508F035F920B1D2
:10F75000BDE80840002005F051BBBDE80840014865
:10F7600005F0F0BA2824002069DF704703781F2BCA
:10F7700002BF024B01221A70704700BF9026002082
:10F7800030B5394D2A7887B01AB1012803D0032843
:10F7900062D007B030BD002301A9019301F0B8FE8B
:10F7A00008B11CF003FF0C2200210DEB02001EF03B
:10F7B0005DFBBDF80C302D4823F47F7323F0030369
:10F7C00043F4887343F00103ADF80C300023049335
:10F7D000ADF814301EF014FC019AADF8160003A920
:10F7E0004120FFF7C1FF08B11CF0E0FE01A801F0C5
:10F7F000F3FE08B11CF0DAFE1D4C236803B19847F4
:10F80000012302A90DF10200029319F02FFC08B1A7
:10F810001CF0CCFEBDF8020019F0B6F90DF10101A3
:10F8200019F0D6FA08B11CF0C1FE0DF0F3F89DF8FE
:10F83000011000200DF034FD10B1784602F0FAF905
:10F8400005F00EFA08B11CF0B1FE00232B706368BE
:10F85000002B9ED098479CE701F02AFF002898D003
:10F860001CF0A4FE95E700BF8F260020BBEB030031
:10F870009426002008B503781C2B0CD1064B1B786E
:10F880004BB101F053FF08B11CF090FEBDE80840F9
:10F89000024805F059BA08BD8F2600203424002004
:10F8A00010B5094B1B786BB9084909481AF0AAFF33
:10F8B00048B908490246BDE8104049690648032393
:10F8C0001AF0B9BF082010BD90260020B0260020F5
:10F8D0001C2A002094260020E828002010B5037878
:10F8E000023B082B4AD8DFE803F01E0512494938CD
:10F8F00049493F00224B9B68002B3FD0007A0028EB
:10F900003CD0204A01211170BDE8104018471C4B23
:10F91000DB68002B32D01B4A117879B300211170BB
:10F92000BDE810401847184B1A784AB9144B1B69A8
:10F9300013B114490A709847BDE81040FFF7B0BFF3
:10F94000124B134801221A7005F0FCF905F0E2F998
:10F95000A0B1BDE810401CF029BE094B0D489969C3
:10F9600010221AF0ADFFF3E7D0E90210FFF710FE06
:10F9700008B11CF01BFE044B01221A7010BD00BF21
:10F98000942600208D2600208E2600208F26002021
:10F9900034240020E828002070B51D4A1D4E51680F
:10F9A000044686B0106803AB03C31189927A1980AC
:10F9B0009A700FCC35460FC594E8070085E807001C
:10F9C000B3691BB3144B0093144A1549154803AB94
:10F9D0001AF0EAFEC0B914481CF06AFB014611484F
:10F9E0001AF0FCFE80B911481CF0D2FC60B90F4837
:10F9F0001CF000FD01460B481AF0F0FE20B90C483F
:10FA000005F0A0F9FFF74CFF06B070BD0720FBE73B
:10FA1000E0EB030094260020DDF80100B026002072
:10FA20001C2A0020E8280020D0260020982800204A
:10FA30004024002010B5054C226832B11CF0F8FEBD
:10FA4000002802DB23689847F8E710BD5C2A0020F5
:10FA5000154B164A10B50C461860012114481AF0CF
:10FA600073FA18B1134A4A211CF0ADFD610C002352
:10FA7000E00341F26F728B4208BF824210D24FF412
:10FA80007A7200231EF00EF801460B4800221AF08D
:10FA90006DFA38B1BDE81040064A4B211CF093BD09
:10FAA0000521F2E710BD00BF5C2A002035FA0100F5
:10FAB00010EC0300EBEB0300602A00202DE9F0417D
:10FAC0000446CEB038B1424D2B685A0403D5414E9E
:10FAD0003368032B02DC4EB0BDE8F0813E4B186862
:10FAE0000DAB611E04F10F0C1F4611F8012F4FEAF8
:10FAF000121E02F00F0210F80EE083F800E0825CA4
:10FB00005A70614503F10203EFD10023334887F8AF
:10FB100020302F211EF07CFA002846D02F212F48BC
:10FB20001EF076FA411CDFF8C4802D4AD8F804355F
:10FB300001922C4A009202974222042007F09EF97B
:10FB40002B685B04C7D53368032BC4DD23482F2102
:10FB50001EF05EFA002831D02F2120481EF058FAFE
:10FB6000411CE27B2068D8F804350B92A27B0A92F4
:10FB7000627B0992227B0892E27A0792A27A06922D
:10FB8000627A0592227A0492E28852BA92B2039281
:10FB9000A28852BA00BA92B2CDE90102124A00928A
:10FBA0000420432207F06AF995E70C485C211EF017
:10FBB0002FFA08B15C21B2E70849B4E707485C2195
:10FBC0001EF026FA08B15C21C7E70449C9E700BF67
:10FBD0007C240020782400208024002014EC0300E2
:10FBE0003CEC03007FE203004EEC030000100140F8
:10FBF00013B50190000C01280C4602D0784602F0A3
:10FC000019F8012323806380A3800023E3802381EC
:10FC10006381A38102B010BD13B50190000C0128CF
:10FC20000C4602D0784602F005F82388012B14D147
:10FC30006388012B11D1A388012B0ED1E38863B90E
:10FC4000238953B9638943B9A08930B9044A137829
:10FC500043F00103137002B010BD0B20FBE700BF9F
:10FC6000CC2A00200378142B07D1C388042B01BFB2
:10FC7000024A137843F0020313707047CC2A002025
:10FC800070B586B00E4B01930E4B02AA03F1080625
:10FC9000154618685968144603C40833B34222460F
:10FCA000F7D118689B882060A3800198294609F045
:10FCB0000DFC10B1784601F0BDFF06B070BD00BF6D
:10FCC000040001008EEC03007047704770477047D6
:10FCD000704770477047704708B5FFF7F9FFFFF7A7
:10FCE000F8FF13F033F915F0F5FD12F075F8FFF792
:10FCF000F1FFFFF7F0FF08BD0C4808B50C4B03609F
:10FD000005F020F80B4B1A786FF341021A70FFF7D9
:10FD1000DBFFFFF7DAFF13F08DF915F07BFE12F031
:10FD2000AFF8FFF7D3FFFFF7D2FF08BD842A00200A
:10FD300065FC0100CC2A002010B50E4C237813F08E
:10FD400002000FD0FFF7A4FCFFF7C6FF23786FF384
:10FD500000032370084B186809F00AFCFFF790FFB6
:10FD60000B2010BD13F00104FBD1FFF789FF2046E3
:10FD7000F7E700BFCC2A00209CEC030008B5FFF792
:10FD8000ABFF054A137823F003031370BDE8084066
:10FD9000042009F013BC00BFCC2A002013B543890E
:10FDA000044613B1784601F045FFD4E90001002272
:10FDB00000F088F910B1784601F03CFF206800F0AF
:10FDC0007DF9194B60811B685B0418D5174B1B68C4
:10FDD000032B14DD16482F211EF01AF9D0B12F2164
:10FDE00013481EF015F9411C124B6289D3F80435F3
:10FDF0000192114A00920420582207F03FF86389CB
:10FE000013B9784601F016FF206802B0BDE8104033
:10FE100000F0BEBA06485C211EF0FAF808B15C2179
:10FE2000DEE70349E0E700BF7C24002078240020BF
:10FE3000A0EC030000100140C3EC030038B5438977
:10FE400005460C4613B9784601F0F4FE6A89297A12
:10FE50002868013A62434FF6FF74B2FBF4F20132B4
:10FE6000BDE8384092B200F079B82DE9F843046853
:10FE7000054694F8200000F02DFC04F11807FF2639
:10FE80004FF0FF394FF00008207AFF2802D000F031
:10FE900021FC2672607AFF2802D000F01BFC6672FB
:10FEA0002068431C03D000F087FDC4F8009084F85C
:10FEB0000B800C34BC42E7D16868BDE8F84300F021
:10FEC0002BBB00002DE9F041134EDFF850800C46AB
:10FED0000025012706EB4106735D5BB1735D013BB5
:10FEE000DBB27355735D93B958F824301B68204614
:10FEF000DB6998474DB167B1084B53F824300221B4
:10FF0000BDE8F041586800F07EBB0125E4E700271A
:10FF1000F0E7BDE8F08100BF185D0020D02A002086
:10FF200010B540680B4902798C5CFF2CE3B20DD010
:10FF3000FE2B0DD0006803F5A87350F82330064857
:10FF400050F82200984203D1FF238B54002010BDAB
:10FF50000120FCE7E42A0020EC2A00202DE9F74FDD
:10FF60000368904693F82120022A04460F4640F089
:10FF70009B800C254D435A195268904509D1DB6985
:10FF80001BB9002003B0BDE8F08F42681079984794
:10FF9000F7E7FFF7C5FF8346002840F087806368D6
:10FFA000DFF814A11B79FE220AF80320266896F8D0
:10FFB000200000F0EBFBD146B8F1000F1FD1354413
:10FFC000687A00F0E3FB287A00F0C8FB63681B79CD
:10FFD000FF220AF803200C2303FB0766C6F80480FF
:10FFE0002368DB69002BCCD063681A79304B03EBB4
:10FFF00042030221D955606800F0F1FAC1E7B16906
:020000022000DC
:10000000884507D335441FFA81F8287A00F0BEFBF3
:10001000687AD9E707EB47034FEA830A06EB8303C5
:1000200060685A6891423AD0002A38D0904536D25A
:100030005B46032100F0A2FA636896F820B01968C5
:1000400056F80A00354401F5A671AB7A01911BB34D
:1000500000F008FD02460199584600F05FFB96F853
:10006000200000F07BFB63681B7909F8037063686C
:100070001A79104B43F822800C2505FB0765606850
:1000800000234246394600F079FA287A00F066FBF0
:10009000687A00F063FB9EE700F0D6FCDAE70379AC
:1000A000FF2209F80320E7E708206BE7112069E742
:1000B000185D0020EC2A0020E42A00200368188B39
:1000C000704700002DE9F04F2DED028B8BB00446F8
:1000D00004928A46002900F04981056895F821308C
:1000E000002B40F0458100F09BFD08B1852846D1EA
:1000F00000F0E8FB002839D09E4B9F4E1B6803F0B0
:10010000F003303B18BF01233370FF2385F8203004
:100110004FF6FF7300222B814FF0FF33EA722B6002
:10012000EA75AB82EB6005F1200000F09FFA0596BE
:10013000074608BB0AF10803804606935AF828B020
:100140005FFA88F3BBF1FF3F08EE103A00F09D80A4
:10015000266896F82110B9B108262046FFF785FEDB
:1001600030460BB0BDEC028BBDE8F08F00F064FBB5
:100170000028C1D00326F3E72046FFF776FE0426C9
:10018000EEE74FF00108D9E74FF00C0909FB08F939
:10019000069B06EB090213F80830937251600322A4
:1001A0008DF82020226803934A4408A9927AB2FA73
:1001B00082F252098DF82120584601228DF8222022
:1001C00000F08AFBD8B9039B46F809B00122002B46
:1001D00000F0B480BBF11F0F86BF68490BF01F0B06
:1001E0004FF0A04102FA0BF2C1F80C250C2303FBDF
:1001F00008FB0BF10800304400F038FA08B104267F
:10020000ABE70BF10900304400F030FA0028F6D1DA
:1002100006EB0B030793187A00F0B8FA079B587A9D
:1002200000F0B4FA039B56F80900002B00F093800D
:1002300000F018FC834656F8090000F005FC8146E2
:10024000606801680C2000FB08664FEA880303F52C
:10025000A07319445A46307A00F060FA6368707AE5
:1002600019684A4601F5A47100F058FA0123F372A7
:100270006368434A1B7902EB430318EE101A00220D
:10028000204603F80820FFF769FEB8F1000F3FF49D
:1002900078AFDAF81030B3F5805F01D3092F62D15F
:1002A000059B1B7813B1012F38BF012700238DF860
:1002B000213060688DF820704FF4E063ADF8223093
:1002C0000379304A099308A900F09CF806460028F3
:1002D0007FF443AF6368DAF810201B68D3F8107519
:1002E000FFB2100FC7F12001120100FA01F1A7F1CE
:1002F000200322FA07F720FA03F30F431F43AF61ED
:1003000060684FF0010800F035F904233A46606850
:10031000CDF80080022100F04CF90221606800F065
:1003200072F9049BEB616368174A1B7985F8218099
:1003300042F82340154AFF21D15411E7BBF11F0FAA
:1003400086BF0E490BF01F0B4FF0A04102FA0BF2D3
:10035000C1F808254AE700F077FB834656F8090004
:1003600000F080FB6BE75B08013794E70B26F7E6AC
:100370000826F5E6E80F00F0002B002000030050EF
:10038000185D0020C5FE0100D02A0020E42A0020CC
:100390002DE9F0470768DFF86890002604463D46DF
:1003A000B0464FF00C0A63681B7909EB430303F86E
:1003B0000680EB7A73B1236828680AFB0633997AC2
:1003C000B1FA81F1490900F05BFB286800F02AFBD3
:1003D000C5F804800C357EB16368084A1B79FF219B
:1003E000D154606800F0C6F8606800F07BF8022322
:1003F00087F82130BDE8F0870126D4E7E42A002001
:10040000185D0020F7B50679334D0C2474432F197D
:100410003B7A002B5ED12A514A687A609C461A4684
:1004200047790368D4B2A7424AD8CA781C0B43F371
:100430000733002BAEBF03F16043284B04F00F04D9
:100440004FEA4212D2B2AABF03F561431A5583F8AC
:10045000002303681A0B43F30733002B07DB02F07A
:100460001F040122A2405B091D4C44F823200468AC
:100470004B78D4F8042503F0030322F0030213435E
:10048000C4F8043504688B78D4F8082503F0030316
:1004900022F003021343C4F8083500680B78D0F843
:1004A000102503F00F0322F00F021343C0F810359C
:1004B0000C2303FB065501232B72002003B0F0BD73
:1004C000A40004F5A074013243F804C01B59019341
:1004D000019BA5E70820F1E7042B002014ED00E0C4
:1004E00000E100E0036801221A600379034A0C214D
:1004F00001FB032302221A72704700BF042B002065
:100500000368044901221A6103790C2000FB0313DC
:100510001A727047042B002038B503681A0B43F396
:100520000733002B04460CDB02F01F015B0901229C
:100530008A4020330D4941F82320BFF34F8FBFF38A
:100540006F8F23680025D3F80022C3F80052236878
:100550004FF0FF32C3F808232046FFF7D1FF23797D
:10056000034A0C2101FB03231D7238BD00E100E0AA
:10057000042B002003680122DA60704773B54FF442
:10058000803405688C408BB18B0003F5A073002686
:10059000EE50EB580193019B0368C3F804430368D2
:1005A00001F5A87143F8212002B070BDC5F80843D9
:1005B000F5E7F0B4076840F20116D7F800528E4014
:1005C00025EA0605C7F800520468D4F800522B4308
:1005D000C4F800329DF81030F0BCFFF7CFBF8B009D
:1005E00013B503F5A07302689BB20024D450D3580E
:1005F0000193019B02684FF4803303FA01F1C2F8C2
:10060000041302B010BD02684FF4803303FA01F105
:10061000C2F80813704700002DE9F341104C114F48
:10062000114E00254FF48038236883B1D7F8043386
:1006300008FA05F21A420AD00023236023680193C6
:1006400004F5E040019B80B2D6E9003198470135BE
:10065000042D04F10404E7D102B0BDE8F08100BF2D
:100660004091004000900040042B00202DE9F74FFE
:100670004FF00009154D164F06464FF0040AC846C4
:100680005FFA89FB01240DF1070004FA0BF48DF8E1
:10069000078000F05BFC2C4208D03B6814EA0302A0
:1006A00001BF23433B6086F800B092469DF80700E7
:1006B00000F070FCBAF1000F03D0A54309F1010965
:1006C000DED1504603B0BDE8F08F00BFFFFF010050
:1006D000102B0020012337B503FA00F5C5F31003F2
:1006E000ABB10C4B0024C3F808550DF107008DF891
:1006F000074000F02BFC084B186820EA0500186042
:100700009DF8070000F046FC204603B030BD0720EE
:10071000FBE700BF00F00140102B002010B5A1B195
:100720009AB101238340C3F3100484B10A4C2468B6
:1007300023420ED0C00000F1804000F5F830C0F830
:100740001015C0F81425002010BD0E20FCE707206E
:10075000FAE70820F8E700BF102B0020012202FA78
:1007600000F3580C400440B91BB1064A126813420A
:1007700005D0054AC2F804357047072070470820A5
:10078000704700BF102B002000F00140012202FA48
:1007900000F3580C400440B91BB1064A12681342DA
:1007A00005D0054AC2F80835704707207047082071
:1007B000704700BF102B002000F0014000F1804086
:1007C00000F5C040002382B0036003680193019BE1
:1007D00002B0704703681F2B83BF03F01F03036041
:1007E00001484FF0A04070470003005007B501904A
:1007F00001A8FFF7EFFF019B00EB8300D0F8003763
:1008000023F44033C0F80037D0F8003743EA014101
:10081000C0F8001703B05DF804FB0000054B4FF073
:10082000FF32072843F8202084BFC01880F84620F4
:10083000704700BF142B002038B51E4C94F855307B
:10084000ABBB40F2FF31FF205A09012A14BF4FF021
:10085000FF320A4603F01F05EA40D20748BFE218FC
:1008600003F1010348BF82F824002A2BECD10021B8
:10087000C8B2FFF7D3FF01310929F9D106220021BF
:100880000D481DF0F3FA0D4BC02283F806234022D9
:100890001A604FF4BE70FFF791FF094B4FF0004212
:1008A000C3F80423012384F85530002038BD082004
:1008B000FCE700BF142B0020632B002000E100E0C8
:1008C00000600040034B93F85500003818BF01202A
:1008D000704700BF142B002037B5354B1A1804465B
:1008E00092F92400013061D18878002852D018464E
:1008F000002250F8045B013546D1181980F82420F5
:10090000002043F82200920002F1804202F5C0422A
:100910000B78D2F81055487825F499151B0400057A
:1009200025F4F85500F4801003F44033C2F8105554
:1009300003432002D2F8105500F47C5003432B43AC
:10094000C2F810354A780194012A01A826D1FFF790
:1009500041FF019B9A40C0F8082501A80194FFF7C8
:1009600039FF019B134903F5E073032240F823206C
:1009700024FA02F2012304F0070003FA00F08B5C72
:1009800018438854002003E00132082AB1D1042022
:1009900003B030BDFE2382F82430D3E7FFF71AFFFF
:1009A000019A01239340C0F80C35D6E70820EFE701
:1009B000142B0020632B002037B5174C2518014657
:1009C00095F82400072809D8FFF728FF95F9243067
:1009D000124A03F5A273002042F823006318FF2295
:1009E0000F4D83F82420CC0801F0070301229A4020
:1009F0002B5D13420DD001A80191FFF7EBFE019B87
:100A000003F5E073022140F823102B5D23EA020274
:100A10002A5503B030BD00BF142B002000600040F9
:100A2000632B0020074B184490F924309B0003F1FE
:100A3000804303F5C043D3F8102542F00302C3F806
:100A400010257047142B0020054B184490F9240002
:100A50000C308000C0B200F1804000F5C04070470B
:100A6000142B0020054B184490F924001830800006
:100A7000C0B200F1804000F5C0407047142B002048
:100A80000A4B1844003990F924304FEA830303F1EC
:100A9000804303F5C04318BF0121D3F8102522F489
:100AA000801242EA0152C3F810257047142B00202F
:100AB0002DE9F043002485B0CDE90244544D4FF4B4
:100AC0008072012102F1804303F5C04390B21B689C
:100AD000012B06D1D5F804330B4202D0FFF76EFE8E
:100AE0000C430432B2F5907F4FEA4101EAD1494B01
:100AF0001B68012B11D14FF4BE70FFF75FFE4FF062
:100B0000A04344F00044D3F820250292C3F82025E6
:100B1000D3F820280392C3F8202814F0FF0F1AD02E
:100B20003D4F01260025344210D0AB0003F1804335
:100B300003F5C043D3F81005D3F8101557F8253046
:100B400023B1C1F30141C0F3052098470135082DB9
:100B50004FEA4606E7D1002C51DA2F4D2F4C2E4696
:100B600095F94E305A1C3CD0C3F3C20104A801448D
:100B7000DAB211F8081C03F03F074FF0010903F047
:100B8000070309FA03F319422BD001A80197FFF7D5
:100B900021FE019B03F5E07350F82330C3F30148B5
:100BA000B8F1020F0CBF032102213846FFF71EFEE9
:100BB00001A80197FFF70EFE019B09FA03F3C0F8A5
:100BC0002035F31993F9243056F823304BB19109AD
:100BD000032904D0B8F1020F14D1494501D1384698
:100BE00098474FF0A043D3F820250292C3F8202560
:100BF000D4F820350393C4F820351343B0D105B0A1
:100C0000BDE8F083B8F1030FEBD10229E6E700BF9E
:100C1000006000407C610040142B00200003005065
:100C2000034B187810B901221A707047852070475D
:100C30006C2B002072DF704773DF704774DF7047E2
:100C40002DE9F0412F4CA2B006460F4690460021F8
:100C5000102220461DF00AF92B4A2C491378C3EBC9
:100C60004315294421602A49013303F001030D444F
:100C70001F211370A180A1813C22002104A8A5603E
:100C80001DF0F4F8062301AA8DF813300E9201230B
:100C90003C22002113A88DF80230ADF820308DF8E9
:100CA0003C30ADF80060CDF824D0ADF80460ADF86C
:100CB000088003971DF0DAF82246022352F8041B3D
:100CC0008DF84C3004A800F0F5F908B11BF06EFC6B
:100CD000104AA16813A800F0EDF908B11BF066FCFA
:100CE0000D4A08490D48FFF7A5FF082804D105491A
:100CF0000A480022FFF79EFF08B11BF057FC22B004
:100D0000BDE8F081AC2B00206D2B00206E2B002065
:100D1000BC2B0020B82B0020502400204C240020A5
:100D2000B0F5202F0AD20A23B0FBF3F310B1012B48
:100D300038BF0123034A9381916070474FF6FF73D8
:100D4000F5E700BF5024002008B5064B01211878B4
:100D5000FFF772FF08B11BF029FCBDE80840002036
:100D600004F0ACBD4C24002008B5054B1878FFF703
:100D700065FF18B1BDE808401BF018BC08BD00BFF6
:100D80004C24002076DF70477ADF70477CDF7047A5
:100D900069DF70471BF00ABC03F0D8BF07B50378C2
:100DA0004BB940883B21FFF7EDFF08B303B05DF876
:100DB00004EB1BF0FBBB012B1AD1134B1B685B042C
:100DC00016D5124B1B68032B12DD11482F211DF085
:100DD0001FF980B12F210E481DF01AF9411C0D4B4F
:100DE0000D4AD3F8043500920420682206F046F834
:100DF00003B05DF804FB06485C211DF009F908B159
:100E00005C21E8E70249EAE77C24002078240020FE
:100E1000D6EC03000010014006ED03001FB500F002
:100E200047FC08B11BF0C2FB002369460120009378
:100E300000F06EFB08B11BF0B9FB0C22002101A8E9
:100E40001DF014F8BDF80430114823F47F7323F02B
:100E5000030343F4887343F00103ADF80430002327
:100E60000293ADF80C301DF0CBF8009AADF80E00EF
:100E700001A94120FFF78CFF08B11BF097FB6846E2
:100E800000F0AAFB08B11BF091FB05B05DF804FB74
:100E9000BBEB03001FB5112310488DF804301DF083
:100EA000AFF80E4982B201A8FFF770FF08B11BF03E
:100EB0007DFB08220DEB020000211CF0D7FF084A41
:100EC0004FF0C87302A8CDE90223FFF75DFF08B118
:100ED0001BF06CFB05B05DF804FB00BFBBEB03002F
:100EE0007800C80010B58AB001AC08220021204665
:100EF0001CF0BCFF124A4FF0C873CDE9012300215A
:100F00001C2203A81CF0B2FF4FF4803340F6CD4101
:100F1000CDE9041303238DF818300023ADF81A30FF
:100F20008DF81C30074B089303A8074B03940993D3
:100F300000F040FD08B11BF039FB0AB010BD00BF46
:100F40007800C8009D0D0200950D020070B5EFF30A
:100F5000108672B60C4A946801239CB993600B4BBF
:100F60000B4DD3F8801029401160C3F88050D3F89E
:100F7000841051604FF0FF32C3F88420047006B92A
:100F800062B670BD0370FAE7245D002000E100E066
:100F9000FC06FFBD10B5084B9A685AB150B9EFF383
:100FA000108172B6054A1C6814605C6854609860D1
:100FB00001B962B610BD00BF245D002000E100E071
:100FC0006DDF704779DF70477DDF704764DF704702
:100FD0002DE9F04F85B000250E9CBDF83CB0B4F86B
:100FE00000A00191074690461E46A9463A884A4508
:100FF0000DDC45B12388013BA3EB0A039BB2FF2B19
:101000003AD806F80A30002005B0BDE8F08F7A68BB
:1010100052F82900039000220DF10B0103A8FFF7FD
:10102000D5FF0028F0D19DF80B20424521D1228820
:10103000002D14BF0020022002EB08010144594595
:101040001ADC3DB9013292B2019B2280B35422884E
:101050000132228022880DF10B01324403A8FFF7F0
:10106000B5FF0028D0D121889DF80B200A442280AA
:10107000012509F10109B9E70C20C5E72DE9F34184
:10108000089FBDF824801546CDE900780222044669
:101090001E46FFF79DFF50B93346102229462046D1
:1010A000CDE9087802B0BDE8F041FFF791BF02B08A
:1010B000BDE8F0812DE9F04F00231788138090F8E8
:1010C0002D3085B006460D46144653B3082F01D87F
:1010D0000C2027E102A8FFF773FF002840F02281CF
:1010E00023880822EA54238801339BB21B222380E1
:1010F000EA542088013080B2208006220DF10901D7
:1011000028441CF0A5FE23889DF8082006339BB2D6
:1011100012F0FE0218BF01222380EA542388013313
:101120002380B378FBB123880433BB42D0D802A814
:10113000FFF748FF002840F0F58023880322EA5497
:10114000238801339BB219222380EA542388BDF8F7
:10115000082001339BB2E9182380EA54120A4A702E
:10116000238802332380F2789AB12388D91CB942AC
:10117000AED80221E954238801339BB20121238098
:10118000E95423880B449BB22380EA5423880B4400
:1011900023807268AAB12388D91CB94298D8022149
:1011A00092F90020E954238801339BB20A2123805D
:1011B000E954238801339BB22380EA542388013306
:1011C00023803389002B40F0A180338A5BB1CDE9C5
:1011D00000472B460722032106F11000FFF74EFFC0
:1011E000002840F09F80338B5BB1CDE900472B4650
:1011F0001522142106F11800FFF740FF002840F0E7
:101200009180326A002A40F09080D6F82480B8F1AC
:10121000000F30D0B8F804302188981C8A1C024492
:10122000BA423FF655AFFE283FF652AF03336B5438
:10123000238801339BB2FF222380EA5423880133A1
:101240009BB22380B8F80020EA54E918120A4A70C9
:101250002088023080B22080B8F804205AB1D8F833
:10126000081000296BD028441CF0F2FD2388B8F840
:1012700004201344238096F82C30002B40F09A80F1
:10128000307800284ED03388012B58D0228802F1C4
:10129000020CBC453FF61CAF012805D17378023320
:1012A00013449F42FFF414AF023FBF1ABFB202A91A
:1012B00005EB0C00ADF80870FFF786FE90BB3178A7
:1012C000BDF80830022900F0BA8072789A4202D341
:1012D000BB4240F2B280012940F0B380974293B202
:1012E000C0F0AF80ADF808300821BDF80830FE2B03
:1012F0003FF6EEAE22880133AB542288013292B21F
:101300002280A9542288134423800BE0CDE90047B2
:101310002B460622022106F10800FFF7AFFE002847
:101320003FF453AF05B0BDE8F08FB4F800C00CF146
:101330000603BB423FF6CCAE1188052901D8072031
:10134000F0E76FF4486E01EB0E039BB24FF27D3E67
:101350007345F4D95388052BF1D96FF448601818F8
:1013600080B27045EBD94FF6FF70814203D08342C3
:1013700001D09942E3D8052305F80C3023880133C6
:101380009BB212212380E954238801339BB223802E
:101390001188E954E818090A4170238802339BB286
:1013A00023805288EA54E918120A4A7023880233CB
:1013B00023802AE7B36A002BC1D04FF000094FF019
:1013C0000C0A4FF0160B96F82C305FFA89F2934214
:1013D0007FF656AFB16A0AFB02F201EB0208B8F8D9
:1013E0000430981CFE283FF673AE208803332B543C
:1013F000238801339BB2238005F803B0238801338F
:101400009BB223808A5AEA54E918120A4A7020884B
:10141000023080B22080B8F804205AB1D8F8081001
:1014200000298CD028441CF013FD2388B8F8042030
:101430001344238009F10109C5E7092155E7BB429F
:10144000FBD9ADF808704FE701600B6843604A684C
:10145000934204BF002343607047436843B102686E
:1014600091680B4443605268934204BF0023436079
:1014700070474BDF704700001FB50D4C01A8FFF708
:10148000F8FF70B9214602A8FFF7DEFF039B002B8F
:10149000F4D00198D3E90021904702A8FFF7DDFFBF
:1014A000F4E7052801D01BF081F804B010BD00BF9F
:1014B00034ED030060DF704769DF704761DF70471C
:1014C00030B5114B1B78A9B0E3B1104D94240DF148
:1014D000020103A8ADF80240FFF7F0FF70B92946FA
:1014E00001A8FFF7B1FF029B002BF0D003A8D3E9BE
:1014F0000021904701A8FFF7B0FFF4E7052801D0CD
:101500001BF054F829B030BDFA2B002040ED030049
:101510007FB505460C4600295AD02E4B0B600C2295
:10152000002101A81CF0A2FC012606232268ADF8C8
:10153000083001A920208DF804508DF80660FFF7CF
:10154000BBFF0C22002101A81CF090FC22688DF842
:10155000056001A94020FFF7AFFF0C22002101A880
:101560001CF084FC45232268ADF8063001A9232035
:101570008DF80450FFF7A0FF0C22002101A81CF0F9
:1015800075FC002522688DF8045001A93046FFF74C
:1015900093FF0C22294601A81CF068FC4FF4B063AD
:1015A0002268019301A9A120FFF786FF0C2229469A
:1015B00001A81CF05BFC9DF804302268334301A9AC
:1015C000A0208DF80430FFF777FF284604B070BDE7
:1015D0000E20FBE7601F002008B5FFF76BFF10B976
:1015E000014B01221A7008BDFA2B002010DF704752
:1015F00011DF704713B5044609496846FFF724FF19
:10160000019808B902B010BDD0E9002120469047EA
:1016100018B16846FFF721FFF2E71120F2E700BF9B
:1016200050ED030013B5044607496846FFF70CFF69
:10163000019B0BB902B010BD2046D3E900219047B1
:101640006846FFF70AFFF3E768ED0300084B9A6866
:1016500022B11A6822F480021A607047054B4FF4D9
:101660008002C3F88020BFF34F8FBFF36F8F7047A6
:10167000245D002000E100E00B4991F816335A097F
:10168000EC231341DB0706D5084B9A683AB94FF4AF
:1016900080030B60704742F202001AF087BF1A689D
:1016A00042F480021A60704700E100E0245D0020EF
:1016B000F7B5194F3C7864BB184E012520463570AC
:1016C000FFF798FF112821D02046FFF7ABFF144BFE
:1016D0008DF80340186801900DF10300FFF736FC08
:1016E000104901A8FFF782FF0446B0FA80F04009D4
:1016F00038709DF80300FFF74DFC3CB90A4B34707D
:101700001C70FFF7B9FF2846FFF78CFF204603B097
:10171000F0BD0824FAE700BFFC2B0020FB2B0020C3
:101720004CED0300351A0200FD2B0020F7B5154FD4
:101730003B781BB3144E01203070FFF75BFF11287C
:101740004FF000051CD00220FFF76CFF0DF10700E1
:101750008DF80750FFF7FAFBFFF74AFF04469DF8A4
:1017600007003D70FFF716FC2CB93470FFF76EFFD1
:101770000320FFF757FF204603B0F0BD0824FAE727
:101780002C46F8E7FC2B0020FB2B002007B508496E
:101790006846FFF759FE019B13B903B05DF804FBDF
:1017A000D3E9002090476846FFF757FEF3E700BFF4
:1017B0005CED0300FFF7EABF75DF704776DF704727
:1017C0007ADF70477BDF7047034B1A8882420CBF79
:1017D00018460020704700BF1C2C0020024B9B695C
:1017E00003B11847704700BF002C002073B585B2C5
:1017F0002846FFF7E9FF044670B1164E027A337BA4
:101800009A420BD200F10A012846FFF7D5FFE8B152
:10181000112801D0FFF7E2FF02B070BD0023037270
:10182000337C43B13B212846FFF7C8FF30F0080363
:1018300001D0FFF7D3FF7369002BEDD000228DF8A4
:101840000420ADF8065001A89847E5E7237A013354
:101850002372E1E7002C002037B50B46497A0F4A86
:1018600071B9D2E901141D7A0246002D18BF214634
:10187000586818F07BFB08B1FFF7B0FF03B030BD2C
:10188000002119725369002BF8D00122ADF806002F
:101890008DF8042001A89847F0E700BF002C002035
:1018A0004B8802889A4213D842889A4210D3808883
:1018B0008A8840F2F313984294BF031AC31A9342E2
:1018C00006D800F2F310904234BF00200120704788
:1018D0000020704770B50388122B014659D004D8F8
:1018E000102B1ED0112B44D070BD502BFCD12F4B90
:1018F000C288DB899A42F7D1038A022BF4D1868809
:101900003046FFF761FF05460028EDD001F11200D7
:1019100000F08AF838BB686818F074FB0028E3D040
:1019200009E0C37B012BDFD14FF6FF70FFF74CFFBF
:10193000054620B90420BDE87040FFF74FBF8E88F0
:101940001B4A0680002303721368C0F80A305368EC
:10195000C0F80E3010310A30FFF7A2FF134B687247
:10196000DB89002BC0D129463046BDE87040FFF727
:1019700073BF8088FFF728FF04460028B4D0406872
:1019800018F040FB08B1FFF729FF4FF6FF732380E3
:10199000AAE786883046FFF717FF05460028A3D040
:1019A00008310A30FFF77CFF6872DCE7002C00206A
:1019B000302C0020F8B5064648B305460FCD154F2C
:1019C0003C460FC495E8070084E807003068124CD5
:1019D0003C60B0B1FFF7F4FEC0B932681368236011
:1019E000536863600D480E4A4FF6FF7303800D4B3A
:1019F00040F8043F002118F0A7FA002818BF032080
:101A000004E02046FFF7DEFE0028EBD0F8BD0E20F4
:101A1000FCE700BF002C0020302C00201C2C0020F4
:101A2000ED170200382C0020007800F0010070470C
:101A30000620704730B5754B14461B6844F201020E
:101A4000904287B00D4603F4804300F0A98022D86D
:101A5000012844D041F20102904276D0002B58D0A8
:101A60006B4B1B68002B54DD6A482F211CF0D0FA09
:101A7000002800F0BF802F2166481CF0C9FA411CE5
:101A8000654B664AD3F80435009201957B2201200C
:101A900005F0F4F93DE044F202029042DED1002B61
:101AA00037D05B4B1B68002B33DD5A482F211CF0CD
:101AB000AFFA00286BD02F2156481CF0A9FA411C20
:101AC000554B2268D3F8043503926268CDE9015280
