:020000022000DC
:1070000000FD032021FC030049FC03004BFC0300AE
:107010004DFC03004FFC030051FC03000000000086
:1070200000000000000000000000000053FC03000E
:1070300055FC03000000000057FC030059FC03004E
:107040005BFC03005BFC03005BFC03005BFC0300D8
:107050005BFC03005BFC0300899002005BFC030007
:107060005BFC03005BFC0300153303005BFC0300C7
:107070005BFC03005BFC03005BFC03005BFC0300A8
:107080005BFC030049D103006DE502005BFC0300DB
:1070900019D203005BFC0300C59E02005BFC0300E9
:1070A0005BFC03005BFC03005BFC03005BFC030078
:1070B0005BFC03005BFC030000000000000000001C
:1070C0005BFC03005BFC03005BFC03005BFC030058
:1070D0005BFC03005BFC03005BFC03005BFC030048
:1070E0005BFC03005BFC03005BFC03000000000092
:1070F000000000005BFC0300000000005BFC0300DC
:10710000000000000000000000000000000000007F
:10711000000000000000000000000000000000006F
:10712000000000000000000000000000000000005F
:10713000000000000000000000000000000000004F
:10714000000000000000000000000000000000003F
:10715000000000000000000000000000000000002F
:10716000000000000000000000000000000000001F
:10717000000000000000000000000000000000000F
:1071800000000000000000000000000000000000FF
:1071900000000000000000000000000000000000EF
:1071A00000000000000000000000000000000000DF
:1071B00000000000000000000000000000000000CF
:1071C00000000000000000000000000000000000BF
:1071D00000000000000000000000000000000000AF
:1071E000000000000000000000000000000000009F
:1071F000000000000000000000000000000000008F
:1072000010B5054C237833B9044B13B10448AFF3E0
:1072100000800123237010BD182F00200000000003
:10722000AC37040008B5034B1BB103490348AFF367
:10723000008008BD000000001C2F0020AC370400B7
:10724000154B002B08BF134B9D46A3F5803A002138
:107250008B460F461348144A121A1AF00BF90F4BBB
:10726000002B00D098470E4B002B00D098470020F1
:10727000002104000D000D48002802D00C48AFF397
:1072800000801AF0A7F82000290000F0BFFF1AF0D4
:107290008DF800BF0000080000FD03200000000082
:1072A00000000000182F0020785F00200000000080
:1072B0000000000041DF704770B5394B14461B6871
:1072C000126988B00D4603F48043002A38D0002BA1
:1072D0002BD0344B1B68032B27DD33482F211AF0AA
:1072E0009BF920B32F2130481AF096F901302F4B2B
:1072F0002269D3F804350692A2890592A2880392E6
:107300004FF6FF762268B2FBF6F292B202926A88DA
:10731000A1680192B1FBF6F1254A009289B204916D
:10732000F7220146042008F031F908B070BD1E486C
:107330005C211AF071F908B15C21D4E71A48D6E74C
:10734000002BF2D0174B1B68032BEEDD16482F21C4
:107350001AF062F9D8B12F2113481AF05DF9013003
:10736000124BA288D3F8043503924FF6FF712268BE
:10737000B2FBF1F292B202926A8801920D4A009237
:1073800001464FF48172042008F000F9CDE7064869
:107390005C211AF041F908B15C21DDE70248DFE722
:1073A000602E00205C2E0020B0160400001001406A
:1073B000DC1604004917040070B5394B14461B68ED
:1073C000126988B00D4603F48043002A38D0002BA0
:1073D0002BD0344B1B68032B27DD33482F211AF0A9
:1073E0001BF920B32F2130481AF016F901302F4B2A
:1073F0002269D3F804350692228904924FF6FF766B
:107400006268B2FBF6F292B20392228802926A8814
:10741000E1680192B1FBF6F1254A009289B205912B
:10742000DE220146042008F0B1F808B070BD1E4805
:107430005C211AF0F1F808B15C21D4E71A48D6E7CC
:10744000002BF2D0174B1B68032BEEDD16482F21C3
:107450001AF0E2F8D0B12F2113481AF0DDF801300C
:10746000124B6268D3F804354FF6FF71B2FBF1F2AC
:1074700092B20392228802926A8801920D4A009287
:107480000146E922042008F081F8CEE706485C2195
:107490001AF0C2F808B15C21DEE70348E0E700BF5C
:1074A000602E00205C2E0020B01604000010014069
:1074B00082170400F817040030B5964D2B68044677
:1074C000092898BF013458048BB018D5924B1B681B
:1074D000032B14DD91482F211AF09EF840B32F2181
:1074E0008E481AF099F8411C8D4B8E4AD3F804351A
:1074F0000092019440F25512042008F047F8013C34
:10750000132C31D8DFE814F01D00650079008700E6
:1075100090009C003000300030003000AB00B7001D
:10752000C200CA00D100DD00E800F300FC00010148
:107530007A485C211AF070F808B15C21D0E77749ED
:10754000D2E7794B18884DF6EF0142F2107288426B
:1075500094BF121852181A80744A116892881A81BE
:107560009A7A596001329A7206F0E2F9704A136809
:1075700003F5371303F5D863834207D26B498B7940
:1075800001338B7168498B7A01338B724FF47A73B4
:107590000021CDE908312B68106003F48043142CDE
:1075A00000F2D982DFE814F0D600D6002A012A01C1
:1075B0002A012A016A019601C201EE013402340255
:1075C00034023402340234026E026E026E026E0223
:1075D000A902554A138842F210718B4238BF0B46FC
:1075E000A3F51C53103B1380504B19689B881381E3
:1075F000937A516001339372B6E74C4B4D4A196848
:10760000914202D84C4A0A4400E04C4A1A609A79E6
:1076100001329A71A8E7454B494A1968914201D94C
:10762000484AF0E7484AF1E7404B98884DF6EF01A9
:1076300042F21072884294BF121852189A80E6E7FC
:107640003A4A938842F210718B4238BF0B46A3F539
:107650001C53103B938093790133937184E73B4A29
:1076600010884DF6EF0142F21073884294BF1B1848
:107670005B18138078E7354A138842F210718B4209
:1076800038BF0B46A3F51C53103BF2E72F4B59684C
:10769000284A914236D8284A0A4434E02B4B59688C
:1076A000274A914233D9274AF6E7284A10894DF6EE
:1076B000EF0142F21073884294BF1B185B181381CC
:1076C00052E7224A138942F210718B4238BF0B46AF
:1076D000A3F51C53103BF2E71D4B164A1968914263
:1076E00002D8154A0A4400E0144A1A603CE7184BD5
:1076F000134A1968914201D9124AF3E7124AF4E792
:10770000134BC4E70D4A5A602EE7114BC7E70E4AE8
:10771000F9E700BF602E00205C2E0020B0160400A8
:107720000010014033180400C02F0020CC2F00208F
:10773000D42F002067C5973A78EC8713E0B11F4E2D
:1077400058E9A716881378ECE0FC1F03A82F002047
:10775000B82F0020002B2AD09F4B1B68032B26DD5F
:107760009E482F2119F058FF00283ED02F219B481A
:1077700019F052FF411C9A4B099AD3F804359948E5
:107780000692089A0592827A0492028903924268CC
:107790004FF6FF74B2FBF4F292B2029202880192A9
:1077A000914A009204204FF4ED7207F0EFFE8F4BE8
:1077B0008F4C18788B49C0EBC000002308AA04EB5B
:1077C000C0000EF0ABFA0828044600F23B820828FD
:1077D00000F23A82DFE810F0D801380238023802AD
:1077E000E301380238021102E3017C485C2119F000
:1077F00013FF08B15C21BAE77849BCE743B3764B85
:107800001B68032B24DD75482F2119F005FF002884
:107810002BD02F21714819F0FFFE411C704B099AA3
:10782000D3F804350592089A0492724A907903902D
:107830009088029012684FF6FF70B2FBF0F292B29D
:1078400001926D4A0092042040F2EB1207F09EFE76
:10785000664B674C18786749C0EBC000002308AA44
:1078600004EBC0000EF0A4FAADE75C485C2119F00F
:10787000D3FE08B15C21CDE75849CFE7BBB1564BE9
:107880001B68032B13DD55482F2119F0C5FEC0B12D
:107890002F21524819F0C0FE411C514B574AD3F8D2
:1078A0000435009204204FF4FD7207F06FFE4F4B39
:1078B00018784F4BC0EBC00003EBC0000EF02CFB60
:1078C00081E746485C2119F0A7FE08B15C21E0E79A
:1078D0004249E2E7BBB1404B1B68032B13DD3F4835
:1078E0002F2119F099FEC0B12F213C4819F094FEC8
:1078F000411C3B4B424AD3F804350092042040F22D
:10790000FF1207F043FE394B1878394BC0EBC0002B
:1079100003EBC0000EF028FB55E730485C2119F05E
:107920007BFE08B15C21E0E72C49E2E7BBB12A4BC2
:107930001B68032B13DD29482F2119F06DFEC0B100
:107940002F21264819F068FE411C254B2D4AD3F8FB
:107950000435009204204FF4017207F017FE234B08
:107960001878234BC0EBC00003EBC0000EF04CFBBB
:1079700029E71A485C2119F04FFE08B15C21E0E7C5
:107980001649E2E7BBB1144B1B68032B13DD134808
:107990002F2119F041FEC0B12F21104819F03CFEF3
:1079A000411C0F4B184AD3F804350092042040F2D2
:1079B000092207F0EBFD0D4B18780D4BC0EBC00012
:1079C00003EBC0000EF0F8FAFDE604485C2119F064
:1079D00023FED8B15C21E0E75C2E0020B016040045
:1079E00000100140C02F002046180400342F002052
:1079F000382F0020CC2F0020B418040020190400D8
:107A00003619040058190400801904009249C8E787
:107A10001BB3924B1B68032B1FDD8F482F2119F0DE
:107A2000FBFD30B32F218C4819F0F6FD411C8C482A
:107A30008C4B0289D3F80435039242684FF6FF74E9
:107A4000B2FBF4F292B2029202880192864A00924C
:107A500004204FF4057207F099FD844B8049187893
:107A6000834BC0EBC000002203EBC0000EF0E8F92E
:107A7000A9E679485C2119F0CFFD08B15C21D2E775
:107A80007549D4E723B3754B1B68032B20DD72487F
:107A90002F2119F0C1FD38B32F216F4819F0BCFD1B
:107AA000411C744A6F4B5068D3F804354FF6FF748D
:107AB000B0FBF4F080B202901268B2FBF4F292B222
:107AC00001926D4A0092042040F2222207F05EFDEE
:107AD000664B68491878664BC0EBC000002203EB88
:107AE000C0000EF0DDF96EE65B485C2119F094FDF4
:107AF00008B15C21D1E75849D3E75C4C22780132C8
:107B0000D2B2022A28BF00222270002B3CD0534B55
:107B10001B68032B38DD50482F2119F07DFD88B1FB
:107B20002F214D4819F078FD411C4E4B2278D3F897
:107B300004350192514A00924FF40B72042007F071
:107B400025FD21E044485C2119F066FD08B15C2167
:107B5000E7E74149E9E7BBB1404B1B68032B13DD65
:107B60003D482F2119F058FD80B12F213A4819F0D6
:107B700053FD411C3B4B424AD3F80435009204208C
:107B800040F22F2207F002FD0BB030BD32485C21DD
:107B900019F042FD08B15C21E8E72F49EAE72B68BC
:107BA0005A041BD52D4B1B68032B17DD2A482F21A8
:107BB00019F032FDC0B12F21274819F02DFD411CCD
:107BC000284B2A4AD3F804350294127801922D4AA0
:107BD0000092042040F23B2207F0D8FC062232211A
:107BE0000F2000F0BBFFCFE71B485C2119F014FD0C
:107BF00008B15C21E0E71849E2E72B685B04C3D5D4
:107C0000164B1B68032BBFDD13482F2119F004FD11
:107C100078B12F21104819F0FFFC411C134A114B79
:107C20001278D3F804350192174A009240F24722A5
:107C300084E709485C2119F0EFFC08B15C21E9E711
:107C40000549EBE71128AAD0034A40F24B21204610
:107C500018F011F898E700BFB01604005C2E002061
:107C6000A82F0020001001409E190400342F00208E
:107C7000382F0020B82F0020ED1904002A1A040024
:107C8000181D04004C1A04006F1A0400012A07B5DD
:107C90002AD0022A4FD0002A6FD13C4B1B685904CE
:107CA00016D53B4B1B68032B12DD3A482F2119F0E8
:107CB000B3FC80B12F21374819F0AEFC411C364B84
:107CC000364AD3F804350092C522042007F05EFC42
:107CD00003B05DF804FB2F485C2119F09DFC08B14E
:107CE0005C21E8E72B49EAE7062232210F2000F069
:107CF00035FF264B1B685A04EAD5254B1B68032B1E
:107D0000E6DD24482F2119F087FC58B12F212148A6
:107D100019F082FC411C204B214AD3F80435009213
:107D2000CA22D2E71B485C2119F076FC08B15C211D
:107D3000EDE71849EFE7154B1B685B04C8D5144BFA
:107D40001B68032BC4DD13482F2119F065FC58B1C3
:107D50002F21104819F060FC411C0F4B114AD3F839
:107D600004350092CE22B0E70A485C2119F054FC99
:107D700008B15C21EDE70749EFE7064AD22103206D
:107D800003B05DF804EB17F076BF00BF602E002053
:107D90005C2E0020B016040000100140991A040067
:107DA000B91A0400D91A040037B5244B1B685B04C8
:107DB00017D5234B1B68032B13DD22482F2119F005
:107DC0002BFC80B32F211F4819F026FC411C1E4BB1
:107DD0001E4AD3F804350092042040F2662207F0D0
:107DE000D5FB1B4C1B4D6563002301212046E3623C
:107DF00023860DF061FF20B1124A40F26F2117F087
:107E00003AFF00231448E56602216366A4F868304F
:107E10000DF052FF80B10B4A40F26F2103B0BDE874
:107E2000304017F028BF07485C2119F0F5FB08B176
:107E30005C21C8E70349CAE703B030BD602E0020CB
:107E40005C2E0020B016040000100140FB1A040054
:107E5000382F0020001D0400702F002007B5037884
:107E6000232B2ED1184B1B685B0417D5174B1B68AF
:107E7000032B13DD16482F2119F0CEFBC0B12F21A3
:107E8000134819F0C9FB411C124B134AD3F80435AF
:107E9000009204204FF4927207F078FB0322C8216D
:107EA0000F2000F05BFE03B05DF804EB00F0FABBBE
:107EB00007485C2119F0B0FB08B15C21E0E70449F8
:107EC000E2E703B05DF804FB602E00205C2E00208A
:107ED000B0160400001001401B1B040010B504463E
:107EE00000210F2004EB840400F022FE6200322106
:107EF000BDE81040032000F031BE00F075BE000068
:107F00001FB503A814F034F8144B1B685B0419D593
:107F1000134B1B68032B15DD12482F2119F07CFB36
:107F200098B12F210F4819F077FB411C0E4BBDF87B
:107F30000C20D3F8043501920C4A00920420A022B0
:107F400007F024FB05B05DF804FB06485C2119F03E
:107F500063FB08B15C21E5E70249E7E7602E0020FA
:107F60005C2E0020B016040000100140341B0400F9
:107F700007B51C4B1B685B0416D51B4B1B68032BFA
:107F800012DD1A482F2119F047FB08B32F2117489B
:107F900019F042FB411C164B164AD3F804350092E7
:107FA0000420A52207F0F2FA01F0F8FA01F01EFB16
:107FB000FFF7A6FF00F018FE00210F2000F0B8FD2B
:107FC0000422C8210F2003B05DF804EB00F0C6BD09
:107FD00006485C2119F020FB08B15C21D7E7034972
:107FE000D9E700BF602E00205C2E0020B0160400F0
:107FF000001001404B1B040007B5134B1B685B04CA
:1080000016D5124B1B68012B12DD11482F2119F0D8
:1080100003FB80B12F210E4819F0FEFA411C0D4BD5
:108020000D4AD3F8043500920220B72207F0AEFAC9
:1080300003B05DF804FB06485C2119F0EDFA08B1C5
:108040005C21E8E70249EAE7602E00205C2E002070
:10805000B016040000100140651B040030B51C4B35
:108060001B685B0487B00D46144625D5194B1B6869
:10807000032B21DD18482F2119F0CEFAF0B12F2162
:10808000154819F0C9FA0130144B2289D3F8043588
:1080900004924FF6FF716268B2FBF1F292B2039262
:1080A000228802926A8801920D4A009201464FF49A
:1080B0008E72042007F06AFA07B030BD06485C21D2
:1080C00019F0AAFA08B15C21DAE70348DCE700BF3F
:1080D000602E00205C2E0020B0160400001001402D
:1080E000841B0400F0B5204B1B685B0487B00D4671
:1080F00014462DD51D4B1B68032B29DD1C482F2151
:1081000019F08AFA30B32F21194819F085FA013095
:108110006F882178174A184D184B002918BF15464B
:108120004FF6FF766268B2FBF6F292B2D3F80435EE
:10813000A168B1FBF6F1CDE9025289B2104A04916F
:108140000092014601974FF48872042007F01EFA4E
:1081500007B0F0BD06485C2119F05EFA08B15C2159
:10816000D2E70348D4E700BF602E00205C2E002039
:10817000B0160400D21B0400CA1B0400001001400A
:10818000E21B0400A0F13103082B07B505D81846FF
:1081900003B05DF804EBFFF78FB9A0F161030B2B7F
:1081A00001D85738F4E7144B1B685B0417D5134B01
:1081B0001B68032B13DD12482F2119F02DFA88B10B
:1081C0002F210F4819F028FA411C0E4B0E4AD3F804
:1081D0000435009204204FF4187207F0D7F903B069
:1081E0005DF804FB06485C2119F016FA08B15C2121
:1081F000E7E70349E9E700BF602E00205C2E00207E
:10820000B016040000100140181D040000B58C4C8D
:108210008C4A4FF4C0408DB0042107F09BF92368CD
:10822000580419D5884B1B68032B15DD87482F216F
:1082300019F0F2F9002800F0C4802F21834819F0CA
:10824000EBF9411C824B834AD3F804350092042099
:108250004FF4247207F09AF97F4A804B136047F677
:10826000FF7191807E4A7F48506013607E4A536060
:10827000118115F019F920B1744A40F2992117F0D3
:10828000FAFC00F0C1FC794800F0ECFC20B16F4A28
:1082900040F29D2117F0EFFC01F044F901F07EF966
:1082A00001F0A4F90021202203A819F0E3F801232A
:1082B0008DF80C3007238DF80F3006238DF814301D
:1082C0006B4B07936B496C4B0B9303A800F09EF923
:1082D00020B30B2840F0A480236859041ED55A4EC1
:1082E0003268032A1ADD59482F2119F095F9002820
:1082F00070D02F21554819F08FF9411C544D5F4A19
:10830000D5F804350092042040F2822207F03EF9AD
:1083100023685A0402D53368032B64DC642158486F
:1083200000F044FB534B197800297CD1102203A89C
:1083300019F0A0F8534B0493534B0593534B0793F9
:10834000534B089303A8534B099300F0D3FA20B181
:108350003E4A40F2BA2117F08EFC02F02BF800F0F2
:1083600053FF00F0B7F820B1384A40F2C32117F0AC
:1083700082FC23685B0418D5334B1B68032B14DD88
:1083800032482F2119F048F900284FD02F212F48CB
:1083900019F042F9411C2E4B3F4AD3F804350092A4
:1083A000042040F2C52207F0F1F800210F2000F070
:1083B000BFFB0222C8210F2000F0D0FBFEF77AFF9E
:1083C000FCE722485C2119F027F908B15C2135E768
:1083D0001E4937E71D485C2119F01EF908B15C21E0
:1083E00088E71A498AE719482F2119F015F970B161
:1083F0002F21164819F010F9411C284AD5F80435E8
:10840000009204204FF4217207F0C0F886E70F486D
:108410005C2119F001F908B15C21EAE70B49ECE7AE
:1084200017F01CFC7AE7FFF76BFD96E707485C2125
:1084300019F0F2F808B15C21A9E70449ABE700BFE5
:10844000602E002029F502005C2E0020B0160400EA
:1084500000100140281C0400CC2F0020E0FC1F036A
:10846000B82F0020E0B11F4EA82F0020B9740200E1
:108470005D7E0200B42F0020A97D0200541C040080
:1084800085810200717F0200DD7E0200FB7E02001A
:10849000DE1C04004F220400181D0400A21C04006E
:1084A0000378142B05D1C3880F2B9EBF014B0122EB
:1084B0001A7070473030002010B5044607F004FEF3
:1084C00038B123780E2B04D1BDE81040002005F010
:1084D0001DB810BD08B514F0E5FD20B10CF000FF8B
:1084E00008B10CF07BFEBDE8084004F041BF00007D
:1084F00070B5837DC27D86B043EA0223ADF81430A7
:108500000546032305A80E46ADF8163013F0FCFC13
:10851000044610BB288A04AA294613F0D5FE044657
:10852000D8B9BDF81010E88A0DF11203324614F0E4
:10853000DBF8044688B9297ED5F8120001F0010164
:1085400004F096FB044640B92B7E9A0708D4BDF888
:10855000120010F02FFA044690B1204606B070BD0C
:10856000BDF81000294613F05DFF04460028F4D141
:10857000BDF8100013F0BEFF04460028E7D0ECE77A
:10858000164B1B681B03E8D5154B1B68062BE4DD57
:1085900014482F2119F040F8B0B12F21114819F0DB
:1085A0003BF8411C2A7E104B02F00102D3F804353F
:1085B0000292D5F8122001920C4A009207204FF443
:1085C000837206F0E3FFC8E706485C2119F024F83F
:1085D00008B15C21E2E70349E4E700BF602E002018
:1085E0005C2E00205F220400001001407E22040067
:1085F00008B505F0E6FA11F00DFE13F025FC04F0C5
:10860000FDF8BDE8084008F08BB9000073B50E46D0
:10861000054600283ED004F03DFE0446002836D131
:1086200013F060FC11F00AFE286910F093F904467B
:1086300068BB2B7F0193AB69009301466B691648B9
:10864000592210F055FC044608BB2B6A03B1984729
:10865000124804F0FFFE09F087FB104804F0FCFE0E
:1086600013F092FB054611F051FB0B2D04D00B28A3
:1086700002D00B4B1B7813B1FFF7BAFF0B2414F099
:1086800011FD054608B10CF04DFD06B135702046D0
:1086900002B070BD0E24FAE7D82F0020002E002073
:1086A0003030002008B507F00FFD20B1BDE80840CC
:1086B000002004F02BBFBDE80840014804F0CABE0A
:1086C0000C2E002069DF704703781F2B02BF024B7E
:1086D00001221A70704700BF3430002030B5394D88
:1086E0002A7887B01AB1012803D0032862D007B0D6
:1086F00030BD002301A9019301F08EFA08B117F0F3
:10870000ADFA0C2200210DEB020018F0B3FEBDF80B
:108710000C302D4823F47F7323F0030343F4887354
:1087200043F00103ADF80C3000230493ADF814308E
:1087300018F06AFF019AADF8160003A94120FFF76F
:10874000C1FF08B117F08AFA01A801F0CDFA08B10B
:1087500017F084FA1D4C236803B19847012302A93E
:108760000DF10200029313F091FF08B117F076FAB1
:10877000BDF8020013F018FD0DF1010113F038FEF1
:1087800008B117F06BFA0CF0CDFC9DF80110002039
:108790000DF00EF910B1784601F0D4FD04F0E8FDBB
:1087A00008B117F05BFA00232B706368002B9ED092
:1087B00098479CE701F004FB002898D017F04EFA88
:1087C00095E700BF333000209E220400383000209F
:1087D00008B503781C2B0CD1064B1B784BB101F06C
:1087E0002DFB08B117F03AFABDE80840024804F042
:1087F00033BE08BD33300020182E002010B5094BC1
:108800001B786BB90849094815F002FB48B90849BB
:108810000246BDE8104049690648032315F011BB24
:10882000082010BD3430002054300020C033002018
:10883000383000208C32002010B50378023B082B22
:108840004AD8DFE803F01E051249493849493F007C
:10885000224B9B68002B3FD0007A00283CD0204A56
:1088600001211170BDE8104018471C4BDB68002B3C
:1088700032D01B4A117879B300211170BDE8104045
:108880001847184B1A784AB9144B1B6913B114498D
:108890000A709847BDE81040FFF7B0BF124B13486D
:1088A00001221A7004F0D6FD04F0BCFDA0B1BDE8B1
:1088B000104017F0D3B9094B0D489969102215F0F3
:1088C00005FBF3E7D0E90210FFF712FE08B117F03D
:1088D000C5F9044B01221A7010BD00BF38300020CA
:1088E000313000203230002033300020182E00209C
:1088F0008C32002070B51D4A1D4E5168044686B06A
:10890000106803AB03C31189927A19809A700FCC57
:1089100035460FC594E8070085E80700B3691BB327
:10892000144B0093144A1549154803AB15F042FA4D
:10893000C0B9144816F0C2FE0146114815F054FAA9
:1089400080B9114817F02AF860B90F4817F058F8A5
:1089500001460B4815F048FA20B90C4804F07AFD9E
:10896000FFF74CFF06B070BD0720FBE7BA220400FA
:10897000383000203988020054300020C0330020F5
:108980008C320020743000203C320020242E002045
:1089900010B5054C226832B117F0A2FA002802DBAC
:1089A00023689847F8E710BD00340020154B164A9D
:1089B00010B50C4618600121144814F0D5FD18B10B
:1089C000134A4A2117F057F9610C0023E00341F2E2
:1089D0006F728B4208BF824210D24FF47A7200232A
:1089E00018F068FB01460B48002214F0CFFD38B1A7
:1089F000BDE81040064A4B2117F03DB90521F2E7CA
:108A000010BD00BF0034002091890200E82204005C
:108A1000C5220400043400202DE9F843104FDFF88C
:108A20004880DFF848900546002417F8013BAB4228
:108A300010D1D8F8006004F07BFF331A48BF831BC5
:108A40004B4507D904F074FF064BC8F800001B68BB
:108A5000204698470134042CE7D1BDE8F88300BFD5
:108A6000F42204004C34002050340020801A060008
:108A70001F288ABF064B4FF0A04300F01F00D3F819
:108A8000043523FA00F0C04300F00100704700BF36
:108A90000003005009B100F024BA00F015BA00003C
:108AA0002DE9F8431D4D286808B917F0D7F81C4E7A
:108AB000DFF87890376800244FF0010808FA04F3D3
:108AC0003B420AD014F809201046FFF7D1FF80F08E
:108AD0000100C1B21046FFF7DDFF0134042CEDD1D7
:108AE0002C68013C2C60B4B90E480F4FDFF83C8075
:108AF00014F098FD0125326805FA04F3134207D0FB
:108B0000396818F80400E14001F00101FFF7C2FFE5
:108B10000134042CEFD1BDE8F88300BF24340020D9
:108B2000283400202C34002054340020F822040083
:108B30002DE9F041084F054688460024012606FA33
:108B400004F32B4203D0385D4146FFF7A3FF013405
:108B5000042CF4D1BDE8F081F82204002DE9F041A5
:108B60000546AAB3132933D91A4EDFF8788030604E
:108B700052001948013A002402600127224607FAF0
:108B800002F32B4205D018F80200FFF771FF904066
:108B900004430132042AF2D1104B4FF400401C6010
:108BA00000254FF4FA74E0FB01454FF47A7200237C
:108BB0002046294618F07EFA00220146084814F0A3
:108BC000E5FC28B930680121BDE8F041FFF7B0BFEE
:108BD000BDE8F081283400202434002054340020E3
:108BE0002C340020F822040008B5054814F01AFDC2
:108BF000044B00211868BDE80840FFF799BF00BF8B
:108C00002C3400202834002037B500F0E3F820B9D8
:108C100000F09AF808B117F021F8002401230E4D56
:108C2000ADF804408DF806408DF8053015F8010BBD
:108C300001A900F0D9F808B117F010F80134042C9C
:108C4000F4D1064A0648012114F08EFC08B117F051
:108C500005F803B030BD00BFF8220400A18A02006D
:108C6000F0220400F7B538B3144B186000F0B2F8E6
:108C700020B900F069F808B116F0F0FF104B114E62
:108C80001A88114F9B78ADF804208DF80630002427
:108C900016F8015B3A4601A9284600F02FF908B101
:108CA00016F0DCFF01212846013400F0A3F9042C62
:108CB000EED1002003B0F0BD0E20FBE74C340020C5
:108CC000EC220400F4220400198A020000F1804022
:108CD00000F5C040002382B0036003680193019B4C
:108CE00002B0704703681F2B83BF03F01F030360AC
:108CF00001484FF0A04070470003005007B50190B5
:108D000001A8FFF7EFFF019B00EB8300D0F80037CD
:108D100023F44033C0F80037D0F8003743EA01416C
:108D2000C0F8001703B05DF804FB0000054B4FF0DE
:108D3000FF32072843F8202084BFC01880F858204D
:108D4000704700BF5834002038B51E4C94F86A3084
:108D5000ABBB4FF6FF71FF205A09012A14BF4FF039
:108D6000FF320A4603F01F05EA40D20748BFE21867
:108D700003F1010348BF82F83000302BECD1002111
:108D8000C8B2FFF7D3FF01310C29F9D10622002127
:108D90000D4818F06FFB0D4BC02283F806234022CC
:108DA0001A604FF4BE70FFF791FF094B4FF000427D
:108DB000C3F80423012384F86A30002038BD08205A
:108DC000FCE700BF58340020BC34002000E100E084
:108DD00000600040034B93F86A00003818BF012080
:108DE000704700BF5834002037B5354B1A18044679
:108DF00092F93000013061D18878002852D01846AD
:108E0000002250F8045B013546D1181980F8302053
:108E1000002043F82200920002F1804202F5C04295
:108E20000B78D2F81055487825F499151B040005E5
:108E300025F4F85500F4801003F44033C2F81055BF
:108E400003432002D2F8105500F47C5003432B4317
:108E5000C2F810354A780194012A01A826D1FFF7FB
:108E600041FF019B9A40C0F8082501A80194FFF733
:108E700039FF019B134903F5E073032240F82320D7
:108E800024FA02F2012304F0070003FA00F08B5CDD
:108E900018438854002003E00132082AB1D104208D
:108EA00003B030BDFE2382F83030D3E7FFF71AFF5E
:108EB000019A01239340C0F80C35D6E70820EFE76C
:108EC00058340020BC34002007B5019001A8FFF7FA
:108ED00009FF019A01239340C0F8083503B05DF8FB
:108EE00004FB07B5019001A8FFF7FCFE019A0123DE
:108EF0009340C0F80C3503B05DF804FBF7B53B4E6A
:108F00003318054693F93030002B6CDA8B78C3F3B5
:108F10004003002B0BBF082400240C2008208442AF
:108F200002D1042003B0F0BD56F82470013743D1BC
:108F3000701946F8242080F8304013B9331983F8AB
:108F400058508B785A0717D4D80737D501A8019500
:108F5000FFF7C8FE019B00EB8300D0F8003723F039
:108F60000203C0F800372248EA0805F0070701238A
:108F7000BB40875C3B4383548B780A7813F0020331
:108F800028D0A40004F1804404F5C0442D02D4F894
:108F9000103523F44F3323F44073C4F81035120412
:108FA000D4F8103505F47C5502F4403215431D43C6
:108FB000C4F810550020B5E70134B0E701A84A789D
:108FC0000195FFF78FFE019B03F5E073920040F8D7
:108FD0002320C8E7083C344494F8605045EA8212E4
:108FE00084F86020E6E708209CE700BF58340020A2
:108FF000BC34002073B5224C2618054696F9302063
:10900000072A1ADD224492F858309B09032B0FD10E
:10901000019001A8FFF766FE019BD0F81015D9401A
:1090200001F0010102312846FFF768FE02B070BD71
:10903000012B0CBF02210321F5E7D3B2072BF5D892
:10904000930003F1804303F5C043D3F8100540F0CB
:109050000100C3F8100502F14000800080B2FFF764
:1090600035FE0029E2D096F9303054F82330002B39
:10907000DCD0012303FA02F2024BC3F80423D5E744
:1090800058340020006000402DE9FF470024CDE95E
:109090000244584D4FF48072012102F1804303F5E0
:1090A000C04390B21B68012B06D1D5F804330B42A4
:1090B00002D0FFF70BFE0C430432B2F5907F4FEA6B
:1090C0004101EAD14C4B1B68012B11D14FF4BE700A
:1090D000FFF7FCFD4FF0A04344F00044D3F82025F7
:1090E0000292C3F82025D3F820280392C3F8202841
:1090F00014F0FF0F1AD0414F01260025344210D042
:10910000AB0003F1804303F5C043D3F81005D3F857
:10911000101557F8253023B1C1F30141C0F30520E4
:1091200098470135082D4FEA4606E7D1002C59DA59
:10913000324D334C334E4FF00008012716F9013BF6
:109140005A1C3CD0C3F3C20104A801445FFA83F95E
:1091500011F8081C03F03F0203F0070307FA03F3BA
:1091600019422CD001A80192FFF7BCFD019B03F529
:10917000E07350F82330C3F3014ABAF1020F1046EE
:109180000CBF03210221FFF7B9FD01A80192FFF7EF
:10919000A9FD019B07FA03F3C0F82035AB1893F93A
:1091A000303055F8233053B14FEA9911032904D0D8
:1091B000BAF1020F19D1012901D11046984708F1DF
:1091C0000108B8F1040FB9D14FF0A043D3F820251E
:1091D0000292C3F82025D4F820350393C4F8203533
:1091E0001343A7D104B0BDE8F087BAF1030FE6D16D
:1091F0000229E1E7006000407C6100405834002013
:1092000000030050B83400202DE9F0410446CEB0F0
:1092100038B1424D2B685A0403D5414E3368032BB5
:1092200002DC4EB0BDE8F0813E4B18680DAB611E0C
:1092300004F10F0C1F4611F8012F4FEA121E02F025
:109240000F0210F80EE083F800E0825C5A7061456E
:1092500003F10203EFD10023334887F820302F2198
:1092600018F0DAF9002846D02F212F4818F0D4F949
:10927000411CDFF8C4802D4AD8F8043501922C4AED
:10928000009202974222042006F080F92B685B04CA
:10929000C7D53368032BC4DD23482F2118F0BCF950
:1092A000002831D02F21204818F0B6F9411CE27B6C
:1092B0002068D8F804350B92A27B0A92627B09924F
:1092C000227B0892E27A0792A27A0692627A05924B
:1092D000227A0492E28852BA92B20392A28852BAD7
:1092E00000BA92B2CDE90102124A00920420432250
:1092F00006F04CF995E70C485C2118F08DF908B19F
:109300005C21B2E70849B4E707485C2118F084F90A
:1093100008B15C21C7E70449C9E700BF602E0020FF
:109320005C2E0020642E0020FC2204002423040074
:10933000362304003E2304000010014072DF704712
:1093400073DF704774DF70472DE9F0412F4CA2B0F6
:1093500006460F46904600211022204618F08AF853
:109360002B4A2C491378C3EB4315294421602A4921
:10937000013303F001030D441F211370A180A1816B
:109380003C22002104A8A56018F074F8062301AA65
:109390008DF813300E9201233C22002113A88DF882
:1093A0000230ADF820308DF83C30ADF80060CDF8DB
:1093B00024D0ADF80460ADF80880039718F05AF88F
:1093C0002246022352F8041B8DF84C3004A800F00A
:1093D000F5F908B116F042FC104AA16813A800F094
:1093E000EDF908B116F03AFC0D4A08490D48FFF7AF
:1093F000A5FF082804D105490A480022FFF79EFF6F
:1094000008B116F02BFC22B0BDE8F0810435002035
:10941000C4340020C534002014350020103500204D
:10942000342E0020302E0020B0F5202F0AD20A233F
:10943000B0FBF3F310B1012B38BF0123034A938132
:10944000916070474FF6FF73F5E700BF342E0020A0
:1094500008B5064B01211878FFF772FF08B116F026
:10946000FDFBBDE80840002004F0B0BD302E002018
:1094700008B5054B1878FFF765FF18B1BDE808403F
:1094800016F0ECBB08BD00BF302E002076DF704721
:109490007ADF70477CDF704769DF704716F0DEBB0C
:1094A00003F0DCBF07B503784BB940883B21FFF7D9
:1094B000EDFF08B303B05DF804EB16F0CFBB012B52
:1094C0001AD1134B1B685B0416D5124B1B68032B78
:1094D00012DD11482F2118F09FF880B12F210E487E
:1094E00018F09AF8411C0D4B0D4AD3F80435009240
:1094F0000420682206F04AF803B05DF804FB064831
:109500005C2118F089F808B15C21E8E70249EAE734
:10951000602E00205C2E00207E23040000100140FD
:10952000AE2304001FB500F04BFC08B116F096FB0B
:10953000002369460120009300F06EFB08B116F08D
:109540008DFB0C22002101A817F094FFBDF8043018
:10955000114823F47F7323F0030343F4887343F02B
:109560000103ADF8043000230293ADF80C3018F07D
:109570004BF8009AADF80E0001A94120FFF78CFFCF
:1095800008B116F06BFB684600F0AEFB08B116F0B0
:1095900065FB05B05DF804FB9E2204001FB5112396
:1095A00010488DF8043018F02FF80E4982B201A847
:1095B000FFF770FF08B116F051FB08220DEB020017
:1095C000002117F057FF084A4FF0C87302A8CDE9F1
:1095D0000223FFF75DFF08B116F040FB05B05DF810
:1095E00004FB00BF9E2204007800C80010B58AB0BA
:1095F00001AC08220021204617F03CFF124A4FF030
:10960000C873CDE9012300211C2203A817F032FF03
:109610004FF4803340F6CD41CDE9041303238DF898
:1096200018300023ADF81A308DF81C30074B089322
:1096300003A8074B0394099300F044FD08B116F00A
:109640000DFB0AB010BD00BF7800C800A594020051
:109650009D94020070B5EFF3108672B60C4A9468C0
:1096600001239CB993600B4B0B4DD3F8801029401C
:109670001160C3F88050D3F8841051604FF0FF326E
:10968000C3F88420047006B962B670BD0370FAE7AF
:10969000EC5E002000E100E0FC06FFBD10B5084BC9
:1096A0009A685AB150B9EFF3108172B6054A1C6836
:1096B00014605C685460986001B962B610BD00BF68
:1096C000EC5E002000E100E06DDF704779DF70475D
:1096D0007DDF704764DF70472DE9F04F85B00025CE
:1096E0000E9CBDF83CB0B4F800A00191074690462E
:1096F0001E46A9463A884A450DDC45B12388013B00
:10970000A3EB0A039BB2FF2B3AD806F80A300020DD
:1097100005B0BDE8F08F7A6852F829000390002266
:109720000DF10B0103A8FFF7D5FF0028F0D19DF83C
:109730000B20424521D12288002D14BF0020022099
:1097400002EB0801014459451ADC3DB9013292B2DD
:10975000019B2280B35422880132228022880DF19D
:109760000B01324403A8FFF7B5FF0028D0D12188B0
:109770009DF80B200A442280012509F10109B9E76F
:109780000C20C5E72DE9F341089FBDF8248015465C
:10979000CDE90078022204461E46FFF79DFF50B92E
:1097A0003346102229462046CDE9087802B0BDE8AC
:1097B000F041FFF791BF02B0BDE8F0812DE9F04F15
:1097C00000231788138090F82D3085B006460D468B
:1097D000144653B3082F01D80C2027E102A8FFF745
:1097E00073FF002840F0228123880822EA5423884E
:1097F00001339BB21B222380EA542088013080B2BF
:10980000208006220DF10901284417F025FE238847
:109810009DF8082006339BB212F0FE0218BF012209
:109820002380EA54238801332380B378FBB1238853
:109830000433BB42D0D802A8FFF748FF002840F00D
:10984000F58023880322EA54238801339BB219222E
:109850002380EA542388BDF8082001339BB2E9181D
:109860002380EA54120A4A70238802332380F27854
:109870009AB12388D91CB942AED80221E954238871
:1098800001339BB201212380E95423880B449BB20E
:109890002380EA5423880B4423807268AAB123886A
:1098A000D91CB94298D8022192F90020E9542388A2
:1098B00001339BB20A212380E954238801339BB2F0
:1098C0002380EA542388013323803389002B40F01E
:1098D000A180338A5BB1CDE900472B4607220321E3
:1098E00006F11000FFF74EFF002840F09F80338BF9
:1098F0005BB1CDE900472B461522142106F1180073
:10990000FFF740FF002840F09180326A002A40F0C3
:109910009080D6F82480B8F1000F30D0B8F8043029
:109920002188981C8A1C0244BA423FF655AFFE2893
:109930003FF652AF03336B54238801339BB2FF22AF
:109940002380EA54238801339BB22380B8F8002097
:10995000EA54E918120A4A702088023080B2208046
:10996000B8F804205AB1D8F8081000296BD0284460
:1099700017F072FD2388B8F804201344238096F86A
:109980002C30002B40F09A80307800284ED033885D
:10999000012B58D0228802F1020CBC453FF61CAFC7
:1099A000012805D17378023313449F42FFF414AFAA
:1099B000023FBF1ABFB202A905EB0C00ADF8087058
:1099C000FFF786FE90BB3178BDF80830022900F021
:1099D000BA8072789A4202D3BB4240F2B280012927
:1099E00040F0B380974293B2C0F0AF80ADF808303A
:1099F0000821BDF80830FE2B3FF6EEAE2288013379
:109A0000AB542288013292B22280A9542288134496
:109A100023800BE0CDE900472B460622022106F108
:109A20000800FFF7AFFE00283FF453AF05B0BDE8D4
:109A3000F08FB4F800C00CF10603BB423FF6CCAE89
:109A40001188052901D80720F0E76FF4486E01EB73
:109A50000E039BB24FF27D3E7345F4D95388052B1C
:109A6000F1D96FF44860181880B27045EBD94FF601
:109A7000FF70814203D0834201D09942E3D805238D
:109A800005F80C30238801339BB212212380E9545E
:109A9000238801339BB223801188E954E818090A0E
:109AA0004170238802339BB223805288EA54E9181C
:109AB000120A4A702388023323802AE7B36A002BF4
:109AC000C1D04FF000094FF00C0A4FF0160B96F87A
:109AD0002C305FFA89F293427FF656AFB16A0AFBE7
:109AE00002F201EB0208B8F80430981CFE283FF699
:109AF00073AE208803332B54238801339BB2238019
:109B000005F803B0238801339BB223808A5AEA54B4
:109B1000E918120A4A702088023080B22080B8F812
:109B200004205AB1D8F8081000298CD0284417F026
:109B300093FC2388B8F804201344238009F1010919
:109B4000C5E7092155E7BB42FBD9ADF808704FE7DF
:109B500001600B6843604A68934204BF002343607E
:109B60007047436843B1026891680B444360526890
:109B7000934204BF0023436070474BDF70470000EF
:109B80001FB50D4C01A8FFF7F8FF70B9214602A8D8
:109B9000FFF7DEFF039B002BF4D00198D3E90021EF
:109BA000904702A8FFF7DDFFF4E7052801D016F083
:109BB00055F804B010BD00BFDC23040060DF70471F
:109BC00069DF704761DF704730B5114B1B78A9B072
:109BD000E3B1104D94240DF1020103A8ADF8024049
:109BE000FFF7F0FF70B9294601A8FFF7B1FF029B0C
:109BF000002BF0D003A8D3E90021904701A8FFF77C
:109C0000B0FFF4E7052801D016F028F829B030BDE0
:109C100052350020E8230400F0B5064685B00D4615
:109C200000295CD02F4B0B600C22002101A817F0FB
:109C300021FC012706232A68ADF8083001A920205D
:109C40008DF804608DF80670FFF7BAFF0C22002132
:109C500001A817F00FFC00242A688DF8057001A9EF
:109C60004020ADF80640FFF7ABFF0C22214601A8CB
:109C700017F000FC45232A68ADF8063001A923201F
:109C80008DF80460FFF79CFF0C22214601A817F015
:109C9000F1FB2A688DF8044001A93846FFF790FFD0
:109CA0000C22214601A817F0E5FB4FF4B0632A68A7
:109CB000019301A9A120FFF783FF0C22214601A8EF
:109CC00017F0D8FB9DF804302A683B4301A9A02077
:109CD0008DF80430FFF774FF204605B0F0BD0E206C
:109CE000FBE700BF002E002008B5FFF767FF10B9A3
:109CF000014B01221A7008BD5235002010DF704759
:109D000011DF704713B5044609496846FFF720FF85
:109D1000019808B902B010BDD0E900212046904753
:109D200018B16846FFF71DFFF2E71120F2E700BF08
:109D3000F823040013B5044607496846FFF708FFF7
:109D4000019B0BB902B010BD2046D3E9002190471A
:109D50006846FFF706FFF3E710240400084B9A68F3
:109D600022B11A6822F480021A607047054B4FF442
:109D70008002C3F88020BFF34F8FBFF36F8F70470F
:109D8000EC5E002000E100E00B4991F816335A091F
:109D9000EC231341DB0706D5084B9A683AB94FF418
:109DA00080030B60704742F2020015F057BF1A683B
:109DB00042F480021A60704700E100E0EC5E00208F
:109DC000F7B5194F3C7864BB184E01252046357015
:109DD000FFF798FF112821D02046FFF7ABFF144B67
:109DE0008DF80340186801900DF10300FFF732FC75
:109DF000104901A8FFF782FF0446B0FA80F040093D
:109E000038709DF80300FFF749FC3CB90A4B3470E9
:109E10001C70FFF7B9FF2846FFF78CFF204603B000
:109E2000F0BD0824FAE700BF543500205335002068
:109E3000F423040045A1020055350020F7B5154F65
:109E40003B781BB3144E01203070FFF75BFF1128E5
:109E50004FF000051CD00220FFF76CFF0DF107004A
:109E60008DF80750FFF7F6FBFFF74AFF04469DF811
:109E700007003D70FFF712FC2CB93470FFF76EFF3E
:109E80000320FFF757FF204603B0F0BD0824FAE790
:109E90002C46F8E7543500205335002007B5084913
:109EA0006846FFF755FE019B13B903B05DF804FB4C
:109EB000D3E9002090476846FFF753FEF3E700BF61
:109EC00004240400FFF7EABF75DF704776DF7047B0
:109ED0007ADF70477BDF7047034B1A8882420CBFE2
:109EE00018460020704700BF74350020024B9B6964
:109EF00003B11847704700BF5835002073B585B2CD
:109F00002846FFF7E9FF044670B1164E027A337B0C
:109F10009A420BD200F10A012846FFF7D5FFE8B1BB
:109F2000112801D0FFF7E2FF02B070BD00230372D9
:109F3000337C43B13B212846FFF7C8FF30F00803CC
:109F400001D0FFF7D3FF7369002BEDD000228DF80D
:109F50000420ADF8065001A89847E5E7237A0133BD
:109F60002372E1E75835002037B50B46497A0F4A8E
:109F700071B9D2E901141D7A0246002D18BF21469D
:109F8000586813F003FB08B1FFF7B0FF03B030BD12
:109F9000002119725369002BF8D00122ADF8060098
:109FA0008DF8042001A89847F0E700BF583500203D
:109FB0004B8802889A4213D842889A4210D38088EC
:109FC0008A8840F2F313984294BF031AC31A93424B
:109FD00006D800F2F310904234BF002001207047F1
:109FE0000020704770B50388122B014659D004D861
:109FF000102B1ED0112B44D070BD502BFCD12F4BF9
:10A00000C288DB899A42F7D1038A022BF4D1868871
:10A010003046FFF761FF05460028EDD001F1120040
:10A0200000F08AF838BB686813F0FCFA0028E3D027
:10A0300009E0C37B012BDFD14FF6FF70FFF74CFF28
:10A04000054620B90420BDE87040FFF74FBF8E8859
:10A050001B4A0680002303721368C0F80A30536855
:10A06000C0F80E3010310A30FFF7A2FF134B6872B0
:10A07000DB89002BC0D129463046BDE87040FFF790
:10A0800073BF8088FFF728FF04460028B4D04068DB
:10A0900013F0C8FA08B1FFF729FF4FF6FF732380CA
:10A0A000AAE786883046FFF717FF05460028A3D0A9
:10A0B00008310A30FFF77CFF6872DCE75835002072
:10A0C00088350020F8B5064648B305460FCD154F34
:10A0D0003C460FC495E8070084E807003068124C3E
:10A0E0003C60B0B1FFF7F4FEC0B93268136823607A
:10A0F000536863600D480E4A4FF6FF7303800D4BA3
:10A1000040F8043F002113F02FFA002818BF032065
:10A1100004E02046FFF7DEFE0028EBD0F8BD0E205D
:10A12000FCE700BF5835002088350020743500203A
:10A13000FD9E020090350020007800F0010070477D
:10A140000620704730B5754B14461B6844F2010277
:10A15000904287B00D4603F4804300F0A98022D8D6
:10A16000012844D041F20102904276D0002B58D011
:10A170006B4B1B68002B54DD6A482F2117F04CFAFB
:10A18000002800F0BF802F21664817F045FA411CD7
:10A19000654B664AD3F80435009201957B22012075
:10A1A00005F0F4F93DE044F202029042DED1002BCA
:10A1B00037D05B4B1B68002B33DD5A482F2117F03B
:10A1C0002BFA00286BD02F21564817F025FA411C96
:10A1D000554B2268D3F8043503926268CDE90152E9
:10A1E000534A00920120692205F0D0F919E0C3B169
:10A1F0004B4B1B68002B14DD4A482F2117F00CFA3B
:10A2000010B32F21474817F007FA411C464B494A23
:10A21000D3F804350092CDE901546022012005F005
:10A22000B5F94FF0A0434FF4F032C3F81825C3F846
:10A230000C25EFF3108372B64DF6AD6C3E4A1378E1
:10A24000002B68D107B030BD36485C2117F0E4F927
:10A2500008B15C21D6E73349D8E7002BE1D0304B79
:10A260001B68002BDDDD2F482F2117F0D5F968B1D1
:10A270002F212C4817F0D0F9411C2B4B2F4AD3F833
:10A2800004350092CDE901546322C7E725485C21DB
:10A2900017F0C2F908B15C21EBE72249EDE721484C
:10A2A0005C2117F0B9F908B15C218DE71D498FE7F2
:10A2B000002BB6D01A4B1B68002BB2DD19482F219A
:10A2C00017F0AAF9A8B12F21164817F0A5F9411CDB
:10A2D000154B2268D3F8043504926268CDE9025226
:10A2E000A2680192164A00920120732205F04EF9ED
:10A2F00097E70C485C2117F08FF908B15C21E3E780
:10A300000849E5E707485C2117F086F908B15C21A8
:10A310003AE704493CE730BF91E700BF602E0020D8
:10A320005C2E00201C24040000100140C024040006
:10A3300080240400442404004C2E00205E240400E9
:10A340009F24040007B50023014600936A46044B8E
:10A35000019344F20200FFF7F5FE03B05DF804FB41
:10A360006F27040001461022014817F075B800BF9E
:10A37000B035002010B50C4C0C490822204617F0CF
:10A380006BF808220A49A01817F066F8A37903F0C1
:10A390000F0343F04003A371237A03F03F0363F0FC
:10A3A0007F03237210BD00BFB03500206000001095
:10A3B000A400001000487047B03500200022064974
:10A3C00013460132202A4B804B6001F8083BF8D13C
:10A3D000024A1360704700BFC0350020C03600201D
:10A3E000F0B50C4B0C4D1B68044620227BB1013BA1
:10A3F00015F8330050B105EBC3067788A74202D1A8
:10A4000076688E4202D0013AF0D11046F0BD1F238B
:10A41000EEE700BFC0360020C035002030B5094A45
:10A42000094C136804EBC3051F2B69604FF0010151
:10A4300004F83310194408BF0023688014BF11606A
:10A44000136030BDC0360020C0350020C0F30C03BF
:10A450008B42084438BFA0F50050C01A7047000076
:10A46000F0B50D4B0D4A1E6800218E4212D01568C2
:10A4700000230AE052F8044C04EBC30714F83340FD
:10A48000844201D17868F0BD01339D42F2D101319F
:10A490000832EAE70020F6E74C3700205437002066
:10A4A00000B58DB048B9991C07D0012101A8CDE9AC
:10A4B00002328DF8041001F05FFA034B186803F0C4
:10A4C0007DFF0DB05DF804FB5837002010B5037810
:10A4D000044613B97846FFF735FF607A431C012024
:10A4E0009840013810BD2DE9F0410E468EB015465A
:10A4F0001C46074610B97846FFF724FF16B9784680
:10A50000FFF720FF636AA27802330593E378A2F194
:10A510000800002B14BF012102210DF10408424262
:10A520004241434604F10C0004F07DF8A3788DF815
:10A530003430237BADF82050022B16FA85F5CDE997
:10A5400006870B960C950FD1236913B97846FFF750
:10A55000F9FE23690993102305A8ADF8283004F00B
:10A560005EF80EB0BDE8F0810023F5E7B2F5C07FDC
:10A570002DE9F04781468846174602D97846FFF70D
:10A58000E1FE244B00259A4693F848605EB93846B0
:10A5900008F0A9FA702404FB05A4E06648B9002479
:10A5A0002046BDE8F0870135042D03F17003EBD19F
:10A5B000F5E730224946204616F04EFFB8F1010F6C
:10A5C000E664A4F84A701BD1134BA4F852601B7DBB
:10A5D00084F8513084F85060D9F8283063656FF002
:10A5E0000103A3620D4BA4F85860A3632464012007
:10A5F00002F08CFA702303FB05A585F84880CFE7AD
:10A600006FF00103A362064BA36584F86860054BF5
:10A610002466EAE7743700205C3700209DAD020015
:10A62000B1B3020095AD020010B50446C06E08F04B
:10A630005CFA04F1300003F031F994F84830022B51
:10A6400003D104F1500003F029F9204670220021C3
:10A6500016F010FF002084F84800BDE8104002F01A
:10A6600055BA10B590F84830012B8CB0044602D092
:10A670007846FFF767FE01238DF80430636D02937F
:10A6800003F056F9039001A801F076F92046FFF790
:10A69000CBFF0CB010BD10B50446808A02F022FD3D
:10A6A00001281CD1237BD3B194F91620002A18DB92
:10A6B000E27D5AB1022B12D094F90330002B10DB4B
:10A6C000A378002B0CBF0020072010BDE2780AB948
:10A6D000012B06D1237833B9A378042BF2E710209D
:10A6E000F3E70720F1E70020EFE700001FB50023A4
:10A6F0000A468DF80F3028B3023008600DF10F01C3
:10A70000104603F08EFF9DF80F30DBB1144B1B6831
:10A710005B0717D5134B1B68032B13DD12482F2142
:10A7200016F07AFF98B12F210F4816F075FF411CE3
:10A730000E4B0F4AD3F804350092042040F2154224
:10A7400004F024FF9DF80F0005B05DF804FB0648F7
:10A750005C2116F061FF08B15C21E5E70249E7E7FB
:10A76000602E00205C2E0020D9240400001001403F
:10A77000F624040070B50446D4E906122378808AD2
:10A780008CB0D3B1E38805F0EDFF054690B1A68A01
:10A79000E4692C22002101A816F06CFE04F00104EB
:10A7A0000F2301A88DF80430ADF80860ADF80A4019
:10A7B00001F0E2F828460CB070BD05F0CFFFE4E7E9
:10A7C0002DE9F04799461378D2F818A0F4B0064660
:10A7D0000D46144623B1D1885046FFF737FE9061ED
:10A7E000E378A278002BA2F1080005AF14BF012185
:10A7F000022104F10C0842423B464241404603F02C
:10A8000012FFA3788DF84430ADB2E81A002380B26D
:10A81000ADF83830E378C4F818A0CDE90A760644DC
:10A8200014AFADF8300010960F97002B77D04FF093
:10A83000100A03AE237B022B04BF23690D934FF054
:10A840000003C6E9003308BFADF838A06362206A90
:10A85000217904AB324612F069FA3068002838D00A
:10A8600009A9FFF743FF78BB706878B309A9FFF720
:10A870003DFF58B3012356F8233063622046FFF7AB
:10A8800079FFF0B9A1780D906D1A8DF8240098E841
:10A890000300A38AADF8323001220EAB8DF83020D0
:10A8A00083E80300A37D8DF84830236A109309A83C
:10A8B000636A0A97ADF82C501193CDF84C9001F0D3
:10A8C0005BF874B0BDE8F0870023D4E73368002B51
:10A8D000BDD1237B022B05D1E089414612F01EFB3E
:10A8E0000028A7D1214B1B685B07EAD5204B1B68CA
:10A8F000052BE6DD1F482F2116F08EFE68B32F21B1
:10A900001C4816F089FE411C1B4B1C4AD3F8043529
:10A910000092062040F2037204F038FED1E7227B59
:10A92000012ADFD12646E089B4F814A046F8243F76
:10A93000314612F071FA606A09A9FFF7D7FE0028C4
:10A940009CD160623146504612F066FA606A09A9ED
:10A95000FFF7CCFE0028C5D090E706485C2116F032
:10A960005BFE08B15C21CBE70249CDE7602E0020F9
:10A970005C2E0020D92404000010014009250400A9
:10A98000C37D0A7830B5002B3DD0C37822F07F021A
:10A9900003F07F031A430A700B78027803F07F03F9
:10A9A00043EAC2130B70037863B38378083B5A42BF
:10A9B0005A414B7803F07F0343EAC2134B708A7805
:10A9C000C58802F00302C5F3861442EA850223F02B
:10A9D0007F032343D2B28A704B70CB78057A03F0A1
:10A9E0001F03C5F3C10422F0030243EA45132243C7
:10A9F000DBB2CB708A70427A23F01F0302F01F0291
:10AA00001343CB7030BDC47822F0400343EA841373
:10AA1000DBB20B70027923F03F0302F03F021343D5
:10AA20000B70B9E72DE9F04F824689B00D4609B1A8
:10AA300000220A600AF10C039AF8504001930127A2
:10AA40004FF0000B9AF80900A04203D2002009B091
:10AA5000BDE8F08FDAF84C1007FA04F20A4264D12C
:10AA60009AF81720019B8AF80840002A0CBF0C2690
:10AA7000082684429AF80020029306FB04F908BFD6
:10AA8000BAF84A608DF818B008BFA6EB0906002A8C
:10AA900014BF4FF004084FF0010806EB08020492BF
:10AAA000DAF82820039202A8DAF82C20059203F0A5
:10AAB0005CFF0028CBD1079A904454B99AF85320F0
:10AAC0003AB9DAF818208AF85370C2F30C02AAF8DF
:10AAD00006209AF817209AB99AF8522082B914B130
:10AAE0007846FFF72FFCBAF84A109AF802208A1A23
:10AAF000DAF86C1053460846FFF7F5FC8AF85270F6
:10AB000007995046FFF73CFFDAF86C10324649448B
:10AB1000404616F0A1FC02A803F048FF15B12A68D0
:10AB200001322A60621C8AF850200134E4B289E7BD
:10AB300038B590F84830012B044602D07846FFF72C
:10AB400001FC02F0F5FE237B074A012B05BFD2E989
:10AB50000315A37DD16805FB0311014404F1300006
:10AB6000BDE8384002F0B2BE5C370020F0B5C37DCE
:10AB700016468278002B324414BF4FF480734FF492
:10AB8000C0739342C7B00F467DD3424B002493F865
:10AB90004810012907D19D8A818A8D4203D1DD8920
:10ABA000C1898D4271D00134042C03F17003EED1C0
:10ABB0000121FFF7DBFC0546002844D03246394628
:10ABC000C06E16F049FC002304A928460493FFF741
:10ABD00029FF30F00404064650D1049B13B12846E7
:10ABE000FFF7A6FF2C4B1B6813F004034FD02B4B31
:10ABF0001B68032B27DDB5F84A00294B802805AADE
:10AC00001F6828BF802000231646834202F10202FB
:10AC10001CD10022234806F813202F2116F0FCFC3B
:10AC200018B32F211F4816F0F7FC411C1E4B1F4A7A
:10AC3000D3F8043501921E4A009202964FF4AC629A
:10AC4000042004F0A3FC204647B0F0BDE96EC95CC7
:10AC50004FEA111C01F00F0117F80CC002F802CCEA
:10AC6000795C02F8011C0133CFE70E485C2116F035
:10AC7000D3FC08B15C21D5E70A49D7E72846FFF79E
:10AC8000D3FC3446DFE70924DDE70824DBE71C4674
:10AC9000D9E700BF74370020602E00205C2E002012
:10ACA000642E0020D9240400001001403225040045
:10ACB00036230400F0B50D4691B0044610B978462D
:10ACC000FFF740FB94F84830022B18D1E188A069C7
:10ACD000FFF7BCFB284AE16913680F0A0E06591CEE
:10ACE0001160264A361803F007034FEA031147F1B3
:10ACF000000702EB0313A08A5052C3E902672C221B
:10AD0000002105A8666D16F0B5FB102305A88DF887
:10AD1000143006968DF81C5000F02EFE2046FFF7EA
:10AD200083FC174B1B685B071BD5164B1B68032B5B
:10AD300017DD15482F2116F06FFCA0B12F21124806
:10AD400016F06AFC411C114BD3F80435029594F8B7
:10AD5000482001920E4A0092042040F2F31204F0BF
:10AD600015FC11B0F0BD08485C2116F055FC08B187
:10AD70005C21E4E70449E6E748370020C8360020B4
:10AD8000602E00205C2E0020D92404000010014019
:10AD90004025040008460021FFF78CBF10B591F84C
:10ADA0004830012B0C4602D07846FFF7CBFA94F8D6
:10ADB00051305BB1013B84F85130002384F85030AE
:10ADC000084BBDE81040186803F0F8BA217B012950
:10ADD000204603D1BDE81040FFF76CBFBDE810402E
:10ADE000FFF73FBC583700202DE9F04306468FB0EF
:10ADF00010460F4615469846FFF7BCFC044600284F
:10AE00005ED195F80390B9F1000F40F0AA80062FAB
:10AE100056D130787378820102F4FE5242EA9302EE
:10AE2000604B1F4693F84810012928D1B3F814C08D
:10AE3000E9898C4523D1D988914220D1B3F858C0F3
:10AE4000A98ABCF1000F01D08C4518D110F0800FF9
:10AE5000D6F802204FF070033ED003FB0473A3F832
:10AE60005810702000FB047412BAE56C1543E564B9
:10AE7000002A63D103212046FFF71CFF20E00134A4
:10AE8000042C03F17003CDD1474B1B685B0717D52A
:10AE9000464B1B68012B13DD45482F2116F0BCFBE8
:10AEA00088B12F21424816F0B7FB411C414B424A62
:10AEB000D3F804350092022040F2796204F066FB78
:10AEC0000FB0BDE8F0833A485C2116F0A5FB08B14D
:10AED0005C21E7E73649E9E703FB0473DB898B4232
:10AEE000BFD0314B1B685A07EAD5304B1B68012B8A
:10AEF000E6DD2F482F2116F08FFBB0B12F212C4813
:10AF000016F08AFB411C70202A4BAA8AD3F804351C
:10AF1000029200FB04740220E2890192274A009207
:10AF200040F27D6204F032FBCAE721485C2116F052
:10AF300073FB08B15C21E2E71D49E4E72046FFF717
:10AF4000C5FA854203D12046FFF78BFBB8E7002105
:10AF500084F850102046FFF765FD2046FFF7E8FD16
:10AF6000AEE74846FFF77CFA02460028A8D0D5E9AC
:10AF700003012B6A0B93AB8AADF8223009AB83E84F
:10AF80000300AB7D8DF830302B788DF82030EB6AE4
:10AF90008DF81490CDE906670D93414605A89047BA
:10AFA0008EE700BF74370020602E00205C2E00204A
:10AFB000D9240400001001406325040091250400F9
:10AFC000F0B589B005460E460192FFF764FB0446D2
:10AFD00038B92B78019A3BB131462846FFF7C6FDB8
:10AFE0000446204609B0F0BDE97DAB780192002906
:10AFF000134414BF0B210F218B4226D80133049335
:10B0000005F10C030293AB6A03938DF81800EB6A09
:10B01000059302A803F0A9FC04460028E1D1079992
:10B0200028464F1CFFF7ACFCEB7D019A3BB1314643
:10B03000384616F011FA02A803F0B8FCD1E72B4607
:10B0400039463046FFF74FFAF5E70924C9E7000013
:10B0500010B54FF4E0720021134816F00BFA0024EB
:10B0600005F04EFB114B12481C602146802216F061
:10B0700001FA104B1049114A11489C75C3E900129E
:10B0800010494CF25032C3E902211A6140F6040221
:10B090009A8203F075F90C4B18600C4B0C481C603D
:10B0A000BDE8104005F05CBD743700204837002033
:10B0B000C83600205C37002080969800F0490200D6
:10B0C000ADB8020020A10700583700204C370020FF
:10B0D000A1A4020005F034BB30B504468DB00028B1
:10B0E0005FD00369002B5CD0C369002B59D0856900
:10B0F000002D56D05A788DF804201A780993838A47
:10B1000082F001020B2B8DF80320027B09D901216B
:10B11000022A8DF8001001D1234A927D5AB90422E7
:10B120000AE0C17A0029F2D1012A0CBF01220022D3
:10B130008DF8002031D1082213448DF802200B3302
:10B140000C22B3FBF2F3013B8DF8093000238DF89C
:10B15000083094E8030000238DF8173003AB83E830
:10B1600003002389ADF81430A37A8DF81630236AD2
:10B170000A932046DF2308950B9311F06FFF28B147
:10B180002378012B14BFFF2320230B93A28A21696C
:10B190006846FFF715FF0DB030BD04238DF802306F
:10B1A000D7E70E20F7E700BF5C37002030B50A462E
:10B1B00091B00446002860D04368002B5DD08569BB
:10B1C000002D5AD003788DF8133000230D93836837
:10B1D0000B2B94BF017B012101F001008DF81000C1
:10B1E00000208DF8120031B10733DB08013B8DF8E8
:10B1F00019308DF81800D4E9040101238DF82730A7
:10B2000007AB83E80300E389ADF82430237F8DF892
:10B210002630236A0C95CDE90E23194B1B685B077A
:10B220001BD5184B1B68062B17DD17482F2116F06E
:10B23000F3F9C8B12F21144816F0EEF9411C134B55
:10B24000A269D3F80435029222780192104A009242
:10B25000072040F6050204F099F9D4E9011204A888
:10B26000FFF7AEFE11B030BD07485C2116F0D4F9EF
:10B2700008B15C21DFE70449E1E70E20F2E700BFF7
:10B28000602E00205C2E0020D92404000010014014
:10B29000D225040070B5037B012B90B004460D4607
:10B2A00077D13D4B1B685B0718D53C4B1B68032BC4
:10B2B00014DD3B482F2116F0AFF900285ED02F2176
:10B2C000374816F0A9F9411C364B374AD3F80435F4
:10B2D0000092042040F2632204F058F904AE0B22DD
:10B2E0000021304616F0C6F89DF81130E288089625
:10B2F00003F0030343EA82038DF811302B0E8DF81F
:10B3000012302B0C8DF813306378022B0CBF802386
:10B310000023C2F3861242EA03024FF006030993A8
:10B320004FF001038DF82C30A38AADF82E304FF08A
:10B3300000036DBA8DF810200C93226A8DF81C3032
:10B340008DF82830E36AADF814500D920F931ED19A
:10B350000DF10E0103A811F071FEBDF80C30ADF82F
:10B360002A30A37D0BB1114B5B7D8DF838306FF027
:10B37000010107A8FFF71AFF10B070BD08485C2153
:10B3800016F04AF908B15C219AE705499CE7E38980
:10B39000E5E70020F0E700BF602E00205C2E0020D3
:10B3A000D924040000100140FD2504005C37002072
:10B3B00010B591F84830022B0C4602D07846FEF7C3
:10B3C000C1FF022384F8683094F84830022B06D17C
:10B3D000E16C2046FFF75EFF08B984F8680010BDF5
:10B3E0002DE9F04F0D469DB01746984604460028BB
:10B3F00000F05882002A00F0558221B90926304613
:10B400001DB0BDE8F08F1822394613A816F024F8B5
:10B41000237894F900100020DA0981428DF8402049
:10B42000B4BF0422012295428DF84100E6D39DF875
:10B430005760EEB103F07F0381428DF843308DF801
:10B4400042002EDA6278A378920102F4FE5242EAB8
:10B450009302ADF84620DB00E27803F0180343EADC
:10B46000521302F01F028DF848308DF8492018E081
:10B47000C3F38010002903F03F038DF843008DF8DB
:10B48000443008DA94F90130002BB4BF08230423B8
:10B490008DF84230D6E704231A4495428DF84230A5
:10B4A000ACD30023199398F80030032B02D97846C7
:10B4B000FEF748FF98F80020CB4B10A853F8223035
:10B4C0001B93FFF7E8F80646002898D101460822AA
:10B4D00003A815F0CFFF788803A911F01FFD28B14C
:10B4E0009DF8413043F001038DF84130D7E9031254
:10B4F000388905F071F9002855D19DF84130002BAD
:10B500003FF47DAF13F001031CBF049A14929DF821
:10B510004020002A00F0B481BDF846101698FEF7CE
:10B5200095FF179BBDF854C0B0494FEA036A4FEA34
:10B53000132B1AEB000A4FF000074BF1000B0B889E
:10B54000634506D1D1E902239B4508BF92453FF4EC
:10B5500056AF0137082F01F11001F0D1A44B4FF085
:10B560000009184693F84820022A25D19A8A624594
:10B5700022D1702303FB0909B9F80610D9F8180085
:10B58000FEF764FFD9F81C100A0612184FEA1123BF
:10B5900043F100035B4508BF524535D205214846BB
:10B5A000FFF788FB0FE09DF8413003F0FE038DF8B4
:10B5B0004130002BA1D122E709F10109B9F1040FB3
:10B5C00003F17003CED1DDE91612BDF84630BDF8A7
:10B5D000540005F02BF9002800F0C980DDE91612AF
:10B5E000BDF84630BDF8540005F050F900283FF48E
:10B5F00006AF10A8FEF76AFF014610A8FFF74AFE43
:10B6000010A8FFF7B7F8FAE69B4508BF9245FFF48C
:10B61000F6AE784B1B685B071CD5774B1B68032B7A
:10B6200018DD76482F2115F0F7FF002800F00E8175
:10B630002F21724815F0F0FF411C714B9DF84820F6
:10B64000D3F8043501926F4A0092042040F2A332ED
:10B6500003F09CFF99F84830022B02D07846FEF7A1
:10B6600071FEDFF8A8A1DAF800B002F061F90BEB87
:10B67000000109F1300002F029F999F80C30012B92
:10B680001AD199F86830BBB999F84830022B02D02A
:10B690007846FEF757FEDAE901329AF8151002FBF8
:10B6A000013A02F045F900EB0A0109F1500002F0FD
:10B6B0000DF9012389F868309DF84810D9F84C300D
:10B6C00001228A4013EA020A7FF499AE1343C9F8B3
:10B6D0004C309DF8573099F80920002B14BF4FF0DB
:10B6E000080E4FF00C0E8A42A5F104050EFB01FE78
:10B6F00040F0B5800EEB0503A9F84A30D9F81820C0
:10B70000169B9A420AD20DF14C0CBCE80F0009F1CD
:10B710000C070FC79CE8030087E80300D9F86C000A
:10B72000211D2A46704415F097FE4846D9F84C4032
:10B73000FEF7CCFE84427FF462AED9F84C10484646
:10B74000FFF7A8FD99F80130DA070CD599F8173002
:10B75000D9F86C00B9F84A10002B00F08C804346F1
:10B760004A46FFF741FB4846FEF75EFF81E09DF841
:10B7700057209DF84930002A14BF4FF008094FF0B8
:10B780000C0903FB099914BF4FF480734FF4C07385
:10B7900099453DD9174B1B6859077FF530AE164BBD
:10B7A0001B68002B7FF72BAE14482F2115F034FFB8
:10B7B00088B12F21114815F02FFF411C104B124A60
:10B7C000D3F804350092CDF8049040F27F32012086
:10B7D00003F0DCFE13E609485C2115F01DFF08B1FB
:10B7E0005C21E7E70549E9E734260400C836002074
:10B7F00074370020602E00205C2E0020D924040025
:10B8000000100140212604000D2604005C370020B2
:10B810004A46022110A8FEF7A9FE814600287FF4BF
:10B82000F8AE014610A8FFF735FD2C22494605A8C1
:10B8300015F020FE10238DF8143005A80223CDF852
:10B8400018908DF81C3000F097F8D8E516485C2168
:10B8500015F0E2FE08B15C21EBE61349EDE6002BA2
:10B8600008BF0C27BD423FF449AF04214846FFF70B
:10B8700021FA0026C3E543464A46FEF7A1FF72E7D8
:10B88000002B3FF4BCAD9DF85730601C691E23B1FE
:10B89000434610AAFFF7A8FAB1E5434610AAFEF7FF
:10B8A0008FFFACE50E26AAE5D9240400F7B5184CA5
:10B8B00000262546374695F84830012B0BD101A9C3
:10B8C00028460197FFF7AEF8042801D0019B13B179
:10B8D0002846FFF72DF90136042E05F17005EAD14F
:10B8E000002594F84830022B0AD194F86830022BD6
:10B8F00006D1E16C2046FFF7CDFC08B984F868005A
:10B900000135042D04F17004EBD1012003B0F0BD2A
:10B91000743700202DE9F8430F46064610B3144B48
:10B920001C689846E4B9254600F10409BD4208D1D7
:10B93000104BC3E900650123C8F800302046BDE87C
:10B94000F88359F835306BB116F9353016F83500F3
:10B95000002B09DB50B1FEF783FD38B90135E5E76F
:10B960000424EBE70E24E9E70B24E7E70F24E5E7DF
:10B970004C37002050370020F8B5074610B97846FC
:10B98000FEF7E0FC104E346884B1104D01232B709B
:10B9900023791BB954F8043C384698472468002C96
:10B9A000F6D12B78022B02D000232B70F8BD316822
:10B9B000054C0029F8D00B790E6813B1204603F02E
:10B9C0006BFD3146F5E700BF3839002034390020DF
:10B9D00010B5044610B97846FEF7B4FC0023237274
:10B9E000211D0248BDE8104003F035BD3839002064
:10B9F00010B5044610B97846FEF7A4FC074A137840
:10BA0000013B012B04D8022313700123237210BDC4
:10BA1000211D0348BDE8104003F03EBD343900202D
:10BA2000383900200B888268D25A073222F003028C
:10BA3000134402889BB2043A934288BF00230B80D0
:10BA4000704713B58368C91AADF806100DF10601E9
:10BA5000FFF7E8FFBDF806308068184402B010BD5B
:10BA600070B5064615460C4611B97846FEF76AFCD5
:10BA700016B97846FEF766FCB4F1005F24D94FF0A2
:10BA80008053D3F80C3103F50023B4EB832F1ED27F
:10BA90006B1E2344B3F1005F26D94FF08052D2F8D9
:10BAA0000C2102F50022B3EB822F20D2042D02D804
:10BAB0007846FEF747FC35800023043D7380B38051
:10BAC000B4602580A37070BDB4F5000F08D94FF0A5
:10BAD0008053D3F80C3103F50053B4EB832FD7D345
:10BAE0007846FEF72FFCD3E7B3F5000F08D94FF0E7
:10BAF0008052D2F80C2102F50052B3EB822FD5D33D
:10BB00007846FEF71FFCD1E738B5044610B97846F1
:10BB1000FEF718FC6288A36813449B78012B02D1BE
:10BB20007846FEF70FFCEFF3108572B6A268A18885
:10BB300011448B78032B0AD12046FFF782FFA368BC
:10BB4000C31A63800023837005B962B638BD002331
:10BB500093706380A380F7E7F8B50E461546044658
:10BB600010B97846FEF7EEFB16B97846FEF7EAFB09
:10BB70006288A36813449B78012B02D17846FEF7B4
:10BB8000E1FB002D37D02388043B9BB29D4232D885
:10BB9000EFF3108772B66288A388E81D20F00300D7
:10BBA0009A4280B204D29B1A984210DD042016E01B
:10BBB00018D92188891A814209D29842F6D80329D6
:10BBC00081BFA3689B1804229A7000236380628857
:10BBD000A1688B188D5201229A700020336007B93A
:10BBE00062B6F8BDA26813449B78002BDED1937037
:10BBF0006380A380EBE70920F3E7F8B50D4616460E
:10BC0000044610B97846FEF79DFB15B97846FEF755
:10BC100099FBAB78012B02D07846FEF793FB2B887B
:10BC2000B34202D27846FEF78DFB16B97846FEF78E
:10BC300089FBEFF3108772B60223AB70E1182E80F8
:10BC40002046FFF7EFFE6288A38893421FBFA368D8
:10BC50009B1800229A7007B962B6F8BD70B50D4600
:10BC6000044610B97846FEF76DFB15B97846FEF725
:10BC700069FBEFF3108672B6A288A36813449A7822
:10BC8000042A06D1211D2046FFF7CCFEA288A36816
:10BC900013449A78022A05D0032A08D0052006B951
:10BCA00062B670BD03229A702B600020F7E77846D9
:10BCB000FEF748FBF9E738B5044610B97846FEF7B9
:10BCC00041FBEFF3108572B6A088A16801448B7820
:10BCD000042B03D12046FFF7B4FE01468878831E6B
:10BCE0005842584105B962B638BD38B5044610B956
:10BCF0007846FEF727FBEFF3108572B6A088A1689F
:10BD000001448878C31E012B05D9831E584258412F
:10BD100005B962B638BD2046FFF793FE0146F0E74D
:10BD2000F8B50D46044610B97846FEF70BFB15B979
:10BD30007846FEF707FBEFF3108672B6AB78012B5F
:10BD400019D0032B22D1A288A36813449D4202D0AC
:10BD50007846FEF7F7FA0027AF70211D2046FFF75F
:10BD600061FEA288A36813449B78042B00D1A780AE
:10BD700006B962B6F8BD6288A36813449D4202D03A
:10BD80007846FEF7DFFA0023AB70F1E77846FEF75E
:10BD9000D9FAEDE710B5EFF3108472B682888168A6
:10BDA00011448B78042B02D1FFF74BFE01468878B3
:10BDB000B0FA80F0400904B962B610BD0379427947
:10BDC0009B1A03F57F2303F6FF7300EB03307047E4
:10BDD000024B00221A769A60022070473C390020FC
:10BDE00010B5054884681C22002115F043FB20464D
:10BDF000BDE8104004F078B93C39002070B5194C0A
:10BE0000E36813B97846FEF79DFA237E13B17846AE
:10BE1000FEF798FA63680A2B02D97846FEF792FA81
:10BE2000114D0026636855F823309847022811D039
:10BE300003280DD0012810D1636801330A2B6360F9
:10BE400002D97846FEF77EFA237E002BEAD004E082
:10BE50006660F9E7237E0BB1207070BDBDE87040CD
:10BE6000FFF7BEBF3C390020A0260400074A00238C
:10BE700052F8041B814202D1054A536070470133D6
:10BE80000B2BF5D17846FEF75DBA00BFA026040063
:10BE90003C39002010B50388044613B97846FEF7F4
:10BEA00051FA2088084B04EB800030EA030203D0EB
:10BEB0006288B2F5FE4F05D104EA030000F5805018
:10BEC0000478204410BD00BF00F0FFFF70B50446A9
:10BED0000D4647F6FE66FFF7DDFFA84207D2844213
:10BEE00005D24388013B9BB2B342F4D870BD002019
:10BEF000FCE700000B78032B094B04BF00221A76E5
:10BF00001A78012A03D11B7E43B9FFF777BF022AB3
:10BF100004D10B78032B01D1FFF762BF704700BF3C
:10BF20003C39002010B50C4CE3681878002203F56A
:10BF30008051184404F0D8FD50B9E1680846FFF775
:10BF40003DFF814206D001F58051E160032010BD24
:10BF50000120FCE70220FAE73C3900201FB50A4B1C
:10BF600002221B688DF800200193084A4FF4805389
:10BF700069460120029300F0F7FFB0FA80F0400913
:10BF800005B05DF804FB00BF5C3900205A39002081
:10BF90001FB50123CDE902210190054A8DF800303B
:10BFA0006946184600F0E0FF05B05DF804FB00BFED
:10BFB0005A3900202DE9F047254BD868027941799C
:10BFC000013A91421F4603D101205876BDE8F0871F
:10BFD00000F580531F491C781C440B6813F8045F5C
:10BFE0001D44FFF7EBFE6388013B9BB247F6FE6200
:10BFF000934200F58056884604D920463146FFF723
:10C0000065FF0446DFF850A04FF001092CB9B4FADF
:10C0100084F464097C760120D8E7D8F8001062889F
:10C02000284601F5805104F05FFD05460028EED05A
:10C0300004225146204687F81890FFF7A9FF28B937
:10C0400020463146FFF742FF0446DFE70020BDE708
:10C050003C3900205C3900207828040038B5104CA9
:10C06000E36818784FF6FF7203F58051184404F026
:10C070003BFD88B1E36819780B4498420CD0657E8B
:10C080000849094B0422002D08BF1946FFF780FF1D
:10C0900020B90120207638BD0120FCE70020FAE716
:10C0A0003C390020802804007C28040070B50C4D29
:10C0B0000C4EE96830680C7804302246FFF768FFC0
:10C0C00058B93268EB6804F0FC04043414446C6121
:10C0D0001A7813442B61012070BD0020FCE700BFDB
:10C0E0003C3900205C39002008B5054B054918682B
:10C0F0000422FFF74DFFB0FA80F0400908BD00BFF1
:10C100005C3900204839002010B5074B074C1968EE
:10C11000E06840F6FC720431FFF73AFF10B90120E5
:10C12000207610BD0020FCE75C3900203C3900205F
:10C1300010B50C4CE1680846FFF740FE81420AD179
:10C14000094B0A4918680422FFF722FF40B901236E
:10C150002376022010BD01F58051E1600320F9E74C
:10C160000020F7E73C3900205C39002060390020CE
:10C170002DE9F74F324D2B6913B97846FEF7E2F8F7
:10C180006B6913B97846FEF7DDF8DFF8B89047F62B
:10C19000FE6A6B69D5E9030603EA0908A8EB030800
:10C1A000FFF70CFE7388013B9BB2534508F580589E
:10C1B00000F5805B05D930465946FFF787FE0646F5
:10C1C00068B1344600275C4513D327BB012334B143
:10C1D000618847F6FF72914201D0002BD9D001202F
:10C1E0002AE020460192FFF755FE019A04461746C1
:10C1F000E9E7228807EB8202904509D986EA040321
:10C2000013EA090F04D16388013B9BB25345E8D977
:10C210000FB90123DCE768693A463146FFF7B8FEFB
:10C2200048B96A693A446A6114B97846FEF78AF8EF
:10C230002C610023CBE7002003B0BDE8F08F00BFE6
:10C240003C39002000F0FFFF1FB50A4B0222DB68DB
:10C250008DF800200193084A4FF48053694601206D
:10C26000029300F081FEB0FA80F0400905B05DF85D
:10C2700004FB00BF3C3900205A3900201FB5364B63
:10C2800000221A7040F6F8731B685A1C0CD1334B0D
:10C290001A68013202D01A68002A4FD14FF080523A
:10C2A000516913694B4303E0002BF7D0A3F580538A
:10C2B0002B4CA3F5805323602A4B1B68DB0223D54C
:10C2C000294B1B68062B1FDD28482F2115F0A4F9E8
:10C2D000002835D02F21254815F09EF9411C40F645
:10C2E000F872234B1268D3F80435501C08BF1B4A60
:10C2F000206808BF1268CDE901201E4A009207207D
:10C3000040F2762203F042F9236819684B1E03338A
:10C310001FD8C1F30B02E2B9174B18481A83012446
:10C32000D9601C709A60FFF7A1FD2046144900F007
:10C330000BFEFFF763FD204604B010BD1B68B5E798
:10C340000A485C2115F068F908B15C21C3E7074988
:10C35000C5E70020F0E700BF583900201410001096
:10C360005C390020602E00205C2E00204426040052
:10C37000001001406C2604003C39002049C2020034
:10C38000F5BE020010B5044610B97846FDF7DAFF95
:10C39000094A107860B1E068D1684379A0EB0333B3
:10C3A000994206D3FFF70AFD81428CBF002001208D
:10C3B00010BD0020FCE700BF3C390020024B18787C
:10C3C000003818BF012070473C39002038B5114CA7
:10C3D0002378054613B17846FDF7B4FF2B78032B7D
:10C3E00002D07846FDF7AEFFEB68E3600A4B0B49DD
:10C3F0001B78A560002B14BF0A2300236360012073
:10C4000000232070238300F09FFDBDE83840FFF734
:10C41000F5BC00BF3C39002058390020F5BE0200B1
:10C42000014B1868704700BF5C39002010B5044606
:10C4300010B97846FDF786FF63681BB123680BB11E
:10C44000A36813B97846FDF77DFFA3685A1E1A4208
:10C4500002D07846FDF776FF0023C4E9033310BD10
:10C4600070B50E460446F0B18368F3B1EFF3108562
:10C4700072B6D0E90331994203D105B962B60525F8
:10C480000FE04EB18368013B0B40D0E9001230460B
:10C4900002FB031114F0E0FF23690133236135B976
:10C4A00062B6284670BD0E25FBE70925F9E7002591
:10C4B000F7E70000024AD2F80034002BFBD07047A7
:10C4C00000E0014038B5C0F30B05EDB9F1B1104CF7
:10C4D0000223C4F80435FFF7EDFF01F6FF7121F4E4
:10C4E0007F6121F00F010144884206D10023C4F886
:10C4F0000435FFF7DFFF284638BDC4F80805FFF70D
:10C50000D9FF00F58050EFE71025F4E70925F2E7A1
:10C5100000E0014040EA010370B5064698071ED1CD
:10C52000FAB112F003001CD10F4B94080122C3F89A
:10C530000425FFF7BFFF0546A54206D10A4B00229E
:10C54000C3F80425FFF7B6FF70BD51F825305A1C1B
:10C5500003D046F82530FFF7ADFF0135ECE710209A
:10C56000F2E70920F0E700BF00E0014041F28263FA
:10C5700098429DBF024B1878C0F3C000012070475D
:10C58000FB39002013B50190000C01280C4602D0A5
:10C590007846FDF7D7FE084A0849236813600B78F0
:10C5A00043F001030B7083F00203C3F34003002048
:10C5B000137102B010BD00BFF4390020FB39002018
:10C5C00013B50190000C02280C4602D07846FDF706
:10C5D000B9FE084B22681A6022791A71064A0020B7
:10C5E00058719871D871137843F00203137002B038
:10C5F00010BD00BFEC390020FB39002007B50190C9
:10C60000000C032802D07846FDF79CFE0348052263
:10C61000002103B05DF804EB14F02CBFF4390020C6
:10C6200007B50190000C042802D07846FDF78AFE79
:10C6300003480822002103B05DF804EB14F01ABF90
:10C64000EC39002013B50190000C03280C4602D0F1
:10C650007846FDF777FE04490522204602B0BDE882
:10C66000104014F0F9BE00BFF439002007B5019066
:10C67000000C032804D000917846FDF763FE009972
:10C680000648052214F0E8FE054A1378002043F01E
:10C690000103137003B05DF804FB00BFF439002000
:10C6A000FB39002013B50190000C04280C4602D081
:10C6B0007846FDF747FE04490822204602B0BDE84F
:10C6C000104014F0C9BE00BFEC39002007B501903E
:10C6D000000C042804D000917846FDF733FE009941
:10C6E0000648082214F0B8FE054A1378002043F0EB
:10C6F0000203137003B05DF804FB00BFEC390020A7
:10C70000FB39002000B50A4B1A7B9B688DB0012ACB
:10C7100008BF03F1FF3304930390022301A88DF8AF
:10C7200008208DF80430FFF727F90DB05DF804FB01
:10C7300090390020074A1378590709D50178122942
:10C7400006D10549086805496FF3820348601370F4
:10C75000704700BFFB390020F439002090390020D9
:10C760001FB5124C2378590602D47846FDF7EAFD2E
:10C7700023785A0717D40E4A526802F50052B2F1D4
:10C78000807F02920FD80B4A43F0040312788DF891
:10C790000C2002A94FF44030237005F01FFA10B1AD
:10C7A0007846FDF7CFFD04B010BD00BFFB39002077
:10C7B00090390020FC3900201FB50023ADF80D3062
:10C7C0000C4B9A6802920C4A1B7B8DF80C30137844
:10C7D0000133DBB202A94FF4802013708DF80F30C3
:10C7E00005F0FCF910B17846FDF7ACFD05B05DF839
:10C7F00004FB00BF90390020FC39002008B5002060
:10C8000005F064FA14220748002114F033FE064AAA
:10C81000137823F0600343F040031370BDE8084031
:10C82000FFF79EBF90390020FB39002010B50C4C5B
:10C8300014220021204614F01DFE01F079F8094B66
:10C84000094A0A499A600022C3E9031258605A61F2
:10C85000074B6260197862F3C301197010BD00BF05
:10C86000903900206C390020E9C902000087930349
:10C87000FB39002037B5264D2B78DB062FD4254811
:10C88000254B036000F0E6FD2448254B036000F0D3
:10C89000E1FD2B7813F0200212D103F00303032BE8
:10C8A000204C1ED02260A26022732282FFF784FFF8
:10C8B000236863602B7843F040032B70FFF750FF31
:10C8C0004FF4803005F0DCF94FF4003005F0D8F972
:10C8D000154800F0B9FF2B7843F010032B7003B01C
:10C8E00030BD124B1A68A2601A792273987959796F
:10C8F00041EA00212182D9790D4B19700D4B18792D
:10C90000884202D00AB92260D2E71B682360CFE7D1
:10C91000FB3900208439002085CA0200E03900205C
:10C9200035C70200903900206C390020EC39002016
:10C93000FC390020F4390020034B187880F0040003
:10C94000C0F38000704700BFFB39002010B501F034
:10C95000A7FC0D4A137BA3B9947B94B9108AFFF707
:10C9600005FE70B101231373936814820133936041
:10C97000FFF722FF2046FFF7C5FE01F0D1FC20465D
:10C9800010BD0824F9E700BF9039002010B501F070
:10C9900087FC144A547B9CB1917B09BB108AFFF73A
:10C9A000E5FD044660B1137B51732BB1012B0BD015
:10C9B0007846FDF7C7FC03E0FFF7C8FF0028F7D172
:10C9C00001F0AEFC204610BD0846C2E9001111730B
:10C9D0001182FFF797FEFFF7EFFEFFF7C1FEEFE7CB
:10C9E0000024EDE7903900201FB5244C227B2AB1AA
:10C9F000012A0FD07846FDF7A5FC1CE0208AFFF73E
:10CA0000B5FDC0B1FFF7C2FF638A0BB1013B638282
:10CA100004B010BD218A0846FFF7A8FD58B142F2C4
:10CA2000B013994288BF6273FFF7B0FF0028EBD1C3
:10CA3000637B002BE8D1238A01339BB21E21184669
:10CA40002382B3FBF1F201FB12339BB2002BDBD14B
:10CA5000A3680293237B8DF80C30094BADF80D00D1
:10CA60001B788DF80F3002A94FF4802005F0B6F83E
:10CA70000028C9D07846FDF765FCC5E7903900204D
:10CA8000FC39002010B50378042B0ED143681B78C5
:10CA90005BB11C4B4269197B047E69BB598AF9B9A9
:10CAA000012C996802D08A4203D810BD4C1CA242C6
:10CAB00018D92A318A42F8D8997B0029F5D184689F
:10CAC0009A60114A1A619981C3E90011FFF774FE57
:10CAD000FFF746FE04F11000BDE81040FFF712BE5C
