:020000022000DC
:1060000000FD00206DE5030095E5030097E5030022
:1060100099E503009BE503009DE5030000000000F7
:106020000000000000000000000000009FE50300E9
:10603000A1E5030000000000A3E50300A5E50300BF
:10604000A7E50300A7E50300A7E50300A7E5030014
:10605000A7E50300A7E50300317B0200A7E50300E5
:10606000A7E50300A7E50300A91D0300A7E50300BA
:10607000A7E50300A7E50300A7E50300A7E50300E4
:10608000A7E50300E5B9030001D00200A7E503007E
:10609000B5BA0300A7E503003D890200A7E50300A8
:1060A000A7E50300A7E50300A7E50300A7E50300B4
:1060B000A7E50300A7E503000000000000000000C2
:1060C000A7E50300A7E50300A7E50300A7E5030094
:1060D000A7E50300A7E50300A7E503000000000013
:1060E00000000000000000000000000000000000B0
:1060F00000000000000000000000000000000000A0
:10610000000000000000000000000000000000008F
:10611000000000000000000000000000000000007F
:10612000000000000000000000000000000000006F
:10613000000000000000000000000000000000005F
:10614000000000000000000000000000000000004F
:10615000000000000000000000000000000000003F
:10616000000000000000000000000000000000002F
:10617000000000000000000000000000000000001F
:10618000000000000000000000000000000000000F
:1061900000000000000000000000000000000000FF
:1061A00000000000000000000000000000000000EF
:1061B00000000000000000000000000000000000DF
:1061C00000000000000000000000000000000000CF
:1061D00000000000000000000000000000000000BF
:1061E00000000000000000000000000000000000AF
:1061F000000000000000000000000000000000009F
:1062000010B5054C237833B9044B13B10448AFF3F0
:1062100000800123237010BD102F0020000000001B
:10622000341C040008B5034B1BB103490348AFF30A
:10623000008008BD00000000142F0020341C040062
:10624000154B002B08BF134B9D46A3F5803A002148
:106250008B460F461348144A121A19F0B1FD0F4B22
:10626000002B00D098470E4B002B00D09847002001
:10627000002104000D000D48002802D00C48AFF3A7
:10628000008019F04DFD2000290000F081FD19F07B
:1062900033FD00BF0000080000FD002000000000EA
:1062A00000000000102F0020305F002000000000E0
:1062B0000000000041DF70472DE9F0413A4E33689D
:1062C00014465A0492B00F4624D5384B1A68032A54
:1062D00098461FDD36482F2119F044FEE8B12F21E2
:1062E000334819F03FFE411C324D2278D5F8043571
:1062F0000392628802927A8801922F4A00920420C7
:10630000C22207F08DFE33685B0403D5D8F8003055
:10631000032B0BDC12B0BDE8F08125485C2119F09D
:1063200021FE08B15C21DBE72149DDE720482F2170
:1063300019F018FE00282DD02F211D4819F012FE4B
:10634000411C628CD5F804351092228C0F92E28B9E
:106350000E92A28B0D92628B0C92228B0B92E28A90
:106360000A92A28A0992628A0892228A0792E28994
:106370000692A28905926289049222890392E28898
:106380000292A28801920D4A00920420C62207F0D0
:1063900047FEBFE706485C2119F0E4FD08B15C2127
:1063A000CBE70349CDE700BF542E0020502E00203C
:1063B0001A000400001001403E0004008E0004009A
:1063C00030B5304B14461B68926887B00D4603F415
:1063D0008043002A2CD003B32B4B1B68032B1CDDFE
:1063E0002A482F2119F0BEFDC8B12F21274819F0E6
:1063F000B9FD411C264B2278D3F804350592A268DA
:106400000492A2880392628802926A880192214AC9
:1064100000920420B22207F003FE07B030BD1B48F3
:106420005C2119F09FFD08B15C21DFE71749E1E726
:10643000002BF2D0144B1B68032BEEDD13482F21E9
:1064400019F090FDA0B12F21104819F08BFD411CCF
:106450000F4B2278D3F804350392628802926A883F
:1064600001920D4A00920420B82207F0D9FDD4E72A
:1064700006485C2119F076FD08B15C21E4E7034988
:10648000E6E700BF542E0020502E00201A00040022
:1064900000100140D100040038010400012A07B5B2
:1064A0002AD0022A4FD0002A6FD13C4B1B685904D6
:1064B00016D53B4B1B68032B12DD3A482F2119F0F0
:1064C00051FD80B12F21374819F04CFD411C364B4E
:1064D000364AD3F804350092D522042007F0A0FDF7
:1064E00003B05DF804FB2F485C2119F03BFD08B1B7
:1064F0005C21E8E72B49EAE7062232210F2001F070
:10650000C5F8264B1B685A04EAD5254B1B68032B9C
:10651000E6DD24482F2119F025FD58B12F2121480F
:1065200019F020FD411C204B214AD3F8043500927C
:10653000DA22D2E71B485C2119F014FD08B15C2176
:10654000EDE71849EFE7154B1B685B04C8D5144B02
:106550001B68032BC4DD13482F2119F003FD58B12C
:106560002F21104819F0FEFC411C0F4B114AD3F8A3
:1065700004350092DE22B0E70A485C2119F0F2FCF3
:1065800008B15C21EDE70749EFE7064AE221032065
:1065900003B05DF804EB18F014B800BF542E0020CF
:1065A000502E00201A000400001001407601040063
:1065B00096010400B6010400F0B58F4D8F4C904F4A
:1065C000904E2A68002389B0CDE9063323883B80AA
:1065D000338002F48042072800F2AD81DFE810F03A
:1065E000080037008100AF00DF002801550180015D
:1065F000CAB1854B1B68032B15DD84482F2119F088
:10660000B1FCD8B12F21814819F0ACFC411C804B62
:106610002288D3F8043501927E4A009204204FF478
:10662000867207F0FDFC7C4B744918787B4B342252
:1066300000FB02300EF05CF8044638E073485C2141
:1066400019F090FC08B15C21DDE77049DFE702B387
:106650006D4B1B68032B1CDD6C482F2119F082FC4D
:10666000002835D02F21694819F07CFC411C684B6B
:10667000079AD3F804350492069A0392BA780292E4
:106680003A880192664A0092042040F2111207F003
:10669000C7FC614B5A491C78604B342004FB003026
:1066A00006AA0EF089F8BB7801330446BB70082CAB
:1066B00000F2B881082C00F2B781DFE814F0550130
:1066C000B501B501B5016001B501B5018E016001EB
:1066D0004E485C2119F046FC08B15C21C3E74B49E8
:1066E000C5E7CAB1484B1B68032B15DD47482F216E
:1066F00019F038FCD0B12F21444819F033FC411C6B
:10670000434B3288D3F804350192464A0092042064
:1067100040F2191207F084FC3F4B3A4918783F4B7E
:10672000342200FB02300EF015F885E737485C2173
:1067300019F018FC08B15C21DEE73449E0E7364C7B
:1067400023780133DBB2022B28BF00232370002AF9
:1067500000F00A812C4B1B68032B40F305812B486A
:106760002F2119F0FFFB88B12F21284819F0FAFBDF
:10677000411C274B2278D3F8043501922A4A009213
:106780004FF49072042007F04BFCEDE01F485C21B1
:1067900019F0E8FB08B15C21E7E71C49E9E7012BA8
:1067A0001ABF03F1FF339BB24FF6FF732380002A19
:1067B00000F0DA80144B1B68032B40F3D58013489C
:1067C0002F2119F0CFFB70B12F21104819F0CAFB0F
:1067D000411C0F4B2288D3F804350192134A0092D2
:1067E0004FF49272CEE709485C2119F0BBFB08B167
:1067F0005C21EAE70549ECE7542E0020F02D00204B
:106800009A2F00202E2F0020502E00201A00040066
:1068100000100140D80104002C2F0020302F002050
:10682000040204005802040085020400A7020400C8
:106830004FF6FF718B421ABF01339BB201232380B5
:10684000002A00F091807C4B1B68032B40F38C8066
:106850007A482F2119F086FB70B12F21774819F063
:1068600081FB411C764B2288D3F804350192754A8E
:1068700000924FF4947285E770485C2119F072FB26
:1068800008B15C21EAE76D49ECE7BAB16A4B1B68D5
:10689000032B13DD69482F2119F064FBB8B12F21B8
:1068A000664819F05FFB411C654B674AD3F8043515
:1068B0000092042040F22B1207F0B2FB634B1878D1
:1068C000634B342200FB02300DF0C4FFB4E65B489A
:1068D0005C2119F047FB08B15C21E1E75749E3E788
:1068E000BAB1554B1B68032B13DD54482F2119F007
:1068F00039FBB8B12F21514819F034FB411C504BE2
:10690000544AD3F804350092042040F22F1207F0C5
:1069100087FB4E4B18784E4B342200FB02300DF0B3
:10692000C1FF89E645485C2119F01CFB08B15C21D8
:10693000E1E74249E3E7BAB13F4B1B68032B13DDA4
:106940003E482F2119F00EFB80B12F213B4819F052
:1069500009FB411C3A4B404AD3F80435009204200D
:1069600040F2331207F05CFB09B0F0BD33485C2104
:1069700019F0F8FA08B15C21E8E73049EAE72B683A
:106980005A041BD52C4B1B68032B17DD2B482F21DA
:1069900019F0E8FAC0B12F21284819F0E3FA411C98
:1069A000274B2A4AD3F804350294127801922B4AD5
:1069B000009204204FF49F7207F032FB062232212E
:1069C0000F2000F063FECFE71C485C2119F0CAFAE3
:1069D00008B15C21E0E71949E2E72B685B04C3D505
:1069E000154B1B68032BBFDD14482F2119F0BAFA91
:1069F00078B12F21114819F0B5FA411C134A104BF8
:106A00001278D3F804350192154A00924FF4A5721A
:106A1000B8E60A485C2119F0A5FA08B15C21E9E75B
:106A20000649EBE7112CAAD0044A4FF4A77120467F
:106A300017F0C7FD98E700BF502E00201A00040091
:106A400000100140A7020400C60204002C2F002001
:106A5000302F0020DE020400B4040400FF02040012
:106A60002203040037B5244B1B685B0417D5234B66
:106A70001B68032B13DD22482F2119F073FA80B312
:106A80002F211F4819F06EFA411C1E4B1E4AD3F8E5
:106A90000435009204204FF4B17207F0C1FA1B4C88
:106AA0001B4D2563002301212046A362A3850DF021
:106AB000EFFD20B1124A40F26B1117F082FD002366
:106AC000144865660221E365A4F860300DF0E0FD2E
:106AD00080B10B4A40F26B1103B0BDE8304017F0B3
:106AE00070BD07485C2119F03DFA08B15C21C8E788
:106AF0000349CAE703B030BD542E0020502E0020B9
:106B00001A000400001001404C030400302F002044
:106B1000A4040400642F002007B50378232B2DD193
:106B2000184B1B685B0416D5174B1B68032B12DD33
:106B300016482F2119F016FAB8B12F21134819F071
:106B400011FA411C124B134AD3F804350092042069
:106B5000992207F065FA0322C8210F2000F096FD64
:106B600003B05DF804EB00F03DBB08485C2119F070
:106B7000F9F908B15C21E1E70449E3E703B05DF806
:106B800004FB00BF542E0020502E00201A000400E9
:106B9000001001406C03040010B5044600210F20D2
:106BA00004EB840400F05CFD62003221BDE810407B
:106BB000032000F06BBD00F0AFBD00001FB503A8BF
:106BC00013F024FE144B1B685B0419D5134B1B6890
:106BD000032B15DD12482F2119F0C4F998B12F218C
:106BE0000F4819F0BFF9411C0E4BBDF80C20D3F82B
:106BF000043501920C4A00920420832207F010FA17
:106C000005B05DF804FB06485C2119F0ABF908B14A
:106C10005C21E5E70249E7E7542E0020502E0020D2
:106C20001A000400001001408503040007B51C4B46
:106C30001B685B0416D51B4B1B68032B12DD1A481F
:106C40002F2119F08FF908B32F21174819F08AF96D
:106C5000411C164B164AD3F80435009204208822B2
:106C600007F0DEF901F0D6F901F0FCF9FFF7A6FF15
:106C700000F052FD00210F2000F0F2FC0422C82198
:106C80000F2003B05DF804EB00F000BD06485C2166
:106C900019F068F908B15C21D7E70349D9E700BFCB
:106CA000542E0020502E00201A0004000010014035
:106CB0009C03040007B5134B1B685B0416D5124BED
:106CC0001B68012B12DD11482F2119F04BF980B1FF
:106CD0002F210E4819F046F9411C0D4B0D4AD3F8EF
:106CE000043500920220A92207F09AF903B05DF85A
:106CF00004FB06485C2119F035F908B15C21E8E78E
:106D00000249EAE7542E0020502E00201A00040009
:106D100000100140B603040007B53138072804D835
:106D200003B05DF804EBFFF747BC144B1B685B0432
:106D300017D5134B1B68032B13DD12482F2119F0B5
:106D400011F988B12F210F4819F00CF9411C0E4B95
:106D50000E4AD3F80435009204204FF4AE7207F0C7
:106D60005FF903B05DF804FB06485C2119F0FAF8FE
:106D700008B15C21E7E70349E9E700BF542E002092
:106D8000502E00201A00040000100140B40404003A
:106D900000B5844E844A46F201008DB0042107F00C
:106DA00023F93368580419D5804B1B68032B15DD74
:106DB0007F482F2119F0D6F8002800F0B1802F214C
:106DC0007B4819F0CFF8411C7A4B7B4AD3F8043545
:106DD0000092042040F28B1207F022F914F0B2FF67
:106DE00020B1734A40F28D1117F0EBFB00F0A4FCC8
:106DF000724800F0CFFC20B16D4A40F2911117F0BB
:106E0000E0FB01F0CBF801F005F901F02BF90021CE
:106E1000202203A818F0D4FF01238DF80C3007239B
:106E20008DF80F3006238DF81430654B07936549B4
:106E3000654B0B9303A800F089F920B30B2840F0B1
:106E40009E80336859041ED5584D2A68032A1ADDDE
:106E500057482F2119F086F800286AD02F2154486E
:106E600019F080F8411C534C584AD4F8043500926C
:106E700004204FF4BF7207F0D3F833685A0402D5E8
:106E80002B68032B5EDC5248642100F02FFB4D4B36
:106E90001B78002B79D14F4D0FCD03AC0FC495E873
:106EA000070084E8070003A800F0C4FA20B1404AB4
:106EB00040F2AF1117F085FB01F0B8FF00F0E0FEE3
:106EC00000F0A8F820B13A4A4FF4DC7117F079FBD2
:106ED00033685B0418D5354B1B68032B14DD34482D
:106EE0002F2119F03FF8002852D02F21304819F0F7
:106EF00039F8411C2F4B384AD3F80435009204204E
:106F00004FF4DD7207F08CF800210F2000F0A8FB91
:106F10000222C8210F2000F0B9FBFFF7CBF9FCE7F4
:106F200023485C2119F01EF808B15C2148E720498C
:106F30004AE71F485C2119F015F808B15C218EE77B
:106F40001B4990E71A482F2119F00CF870B12F2136
:106F5000174819F007F8411C204AD4F8043500926C
:106F6000042040F27F1207F05BF88CE710485C21A8
:106F700018F0F8FF08B15C21EAE70D49ECE70C4A8C
:106F80004FF4C27117F01DFB7DE7FFF717FE93E783
:106F900007485C2118F0E6FF08B15C21A6E7044928
:106FA000A8E700BF542E0020BDDF0200502E0020B5
:106FB0001A00040000100140D5030400B965020066
:106FC000196B0200982F0020656A0200FD0304007F
:106FD000196D020088040400B40404004B0404008A
:106FE0000378142B05D1C3880F2B9EBF014B0122C0
:106FF0001A707047F82F002010B5044607F0AEFD58
:1070000038B123780E2B04D1BDE81040002004F0E5
:10701000BDBF10BD08B514F093FC20B10CF0AAFE62
:1070200008B10CF025FEBDE8084004F0DDBE00000C
:1070300070B5837DC27D86B043EA0223ADF814307B
:107040000546032305A80E46ADF8163013F0AAFB3B
:10705000044610BB288A04AA294613F083FD04467F
:10706000D8B9BDF81010E88A0DF11203324613F0BA
:1070700089FF044688B9297ED5F8120001F0010184
:1070800004F032FB044640B92B7E9A0708D4BDF8C1
:10709000120010F0DDF8044690B1204606B070BD35
:1070A000BDF81000294613F00BFE04460028F4D169
:1070B000BDF8100013F06CFE04460028E7D0ECE7A2
:1070C000164B1B681B03E8D5154B1B68062BE4DD2C
:1070D00014482F2118F046FFB0B12F21114818F0A5
:1070E00041FF411C2A7E104B02F00102D3F8043507
:1070F0000292D5F8122001920C4A009207204FF418
:10710000837206F08DFFC8E706485C2118F02AFF5D
:1071100008B15C21E2E70349E4E700BF542E0020F8
:10712000502E0020F3060400001001401207040056
:1071300008B505F090FA11F0BBFC13F0D3FA04F097
:1071400099F8BDE8084008F035B9000073B50E465F
:10715000054600283ED004F0D9FD0446002836D16B
:1071600013F00EFB11F0B8FC286910F041F804464A
:1071700068BB2B7F0193AB69009301466B6916488E
:10718000592210F003FB044608BB2B6A03B1984751
:10719000124804F09BFE09F031FB104804F098FE01
:1071A00013F040FA054611F0FFF90B2D04D00B281F
:1071B00002D00B4B1B7813B1FFF7BAFF0B2414F06E
:1071C000BFFB054608B10CF0F7FC06B13570204650
:1071D00002B070BD0E24FAE7A02F0020F42D00208D
:1071E000F82F002008B507F0B9FC20B1BDE8084031
:1071F000002004F0CBBEBDE80840014804F066BEA4
:10720000002E002069DF704703781F2B02BF024B5E
:1072100001221A70704700BFFC2F002030B5394D95
:107220002A7887B01AB1012803D0032862D007B0AA
:1072300030BD002301A9019301F02AFA08B117F02B
:10724000B3F90C2200210DEB020018F0B9FDBDF8D6
:107250000C302D4823F47F7323F0030343F4887329
:1072600043F00103ADF80C3000230493ADF8143063
:1072700018F070FE019AADF8160003A94120FFF73F
:10728000C1FF08B117F090F901A801F069FA08B13F
:1072900017F08AF91D4C236803B19847012302A90E
:1072A0000DF10200029313F03FFE08B117F07CF9D4
:1072B000BDF8020013F0C6FB0DF1010113F0E6FC6E
:1072C00008B117F071F90CF077FC9DF8011000205F
:1072D0000DF0B8F810B1784601F070FD04F084FDAF
:1072E00008B117F061F900232B706368002B9ED062
:1072F00098479CE701F0A0FA002898D017F054F9BD
:1073000095E700BFFB2F002032070400003000206B
:1073100008B503781C2B0CD1064B1B784BB101F040
:10732000C9FA08B117F040F9BDE80840024804F076
:10733000CFBD08BDFB2F00200C2E002010B5094B3F
:107340001B786BB90849094815F0B0F948B90849E4
:107350000246BDE8104049690648032315F0BFB94D
:10736000082010BDFC2F00201C3000208833002096
:10737000003000205432002010B50378023B082B67
:107380004AD8DFE803F01E051249493849493F0051
:10739000224B9B68002B3FD0007A00283CD0204A2B
:1073A00001211170BDE8104018471C4BDB68002B11
:1073B00032D01B4A117879B300211170BDE810401A
:1073C0001847184B1A784AB9144B1B6913B1144962
:1073D0000A709847BDE81040FFF7B0BF124B134842
:1073E00001221A7004F072FD04F058FDA0B1BDE84E
:1073F000104017F0D9B8094B0D489969102215F0C3
:10740000B3F9F3E7D0E90210FFF712FE08B117F065
:10741000CBF8044B01221A7010BD00BF00300020D1
:10742000F92F0020FA2F0020FB2F00200C2E002027
:107430005432002070B51D4A1D4E5168044686B076
:10744000106803AB03C31189927A19809A700FCC2C
:1074500035460FC594E8070085E80700B3691BB3FC
:10746000144B0093144A1549154803AB15F0F0F876
:10747000C0B9144816F070FD0146114815F002F924
:1074800080B9114816F0D8FE60B90F4816F006FF13
:1074900001460B4815F0F6F820B90C4804F016FD2B
:1074A000FFF74CFF06B070BD0720FBE74A0704005A
:1074B00000300020797302001C3000208833002047
:1074C000543200203C30002004320020182E0020CE
:1074D00010B5054C226832B117F0A8F9002802DB7C
:1074E00023689847F8E710BDC8330020154B164AAB
:1074F00010B50C4618600121144814F083FC18B133
:10750000134A4A2117F05DF8610C0023E00341F2B1
:107510006F728B4208BF824210D24FF47A720023FE
:1075200018F06EFA01460B48002214F07DFC38B1C9
:10753000BDE81040064A4B2117F043B80521F2E799
:1075400010BD00BFC8330020D174020078070400CA
:1075500055070400CC3300202DE9F843104FDFF825
:107560004880DFF848900546002417F8013BAB42FD
:1075700010D1D8F8006004F025FF331A48BF831BF0
:107580004B4507D904F01EFF064BC8F800001B68E6
:10759000204698470134042CE7D1BDE8F88300BFAA
:1075A000840704001434002018340020801A0600D8
:1075B0004FF0A043D3F8043523FA00F0C04300F0A5
:1075C0000100704709B100F0F5B900F0EBB9000017
:1075D0002DE9F8431D4D286808B916F0E5FF1C4E4B
:1075E000DFF87890376800244FF0010808FA04F3B8
:1075F0003B420AD014F809201046FFF7D9FF80F06B
:107600000100C1B21046FFF7DDFF0134042CEDD1BB
:107610002C68013C2C60B4B90E480F4FDFF83C8059
:1076200014F04EFC0125326805FA04F3134207D02A
:10763000396818F80400E14001F00101FFF7C2FFCA
:107640000134042CEFD1BDE8F88300BFEC330020F7
:10765000F0330020F43300201C340020880704009D
:107660002DE9F041084F054688460024012606FA18
:1076700004F32B4203D0385D4146FFF7A3FF0134EA
:10768000042CF4D1BDE8F081880704002DE9F04115
:107690000546AAB3132933D91A4EDFF87880306033
:1076A00052001948013A002402600127224607FAD5
:1076B00002F32B4205D018F80200FFF779FF904043
:1076C00004430132042AF2D1104B4FF400401C60F5
:1076D00000254FF4FA74E0FB01454FF47A72002361
:1076E0002046294618F08CF900220146084814F07B
:1076F0009BFB28B930680121BDE8F041FFF7B0BF1E
:10770000BDE8F081F0330020EC3300201C34002071
:10771000F43300208807040008B5054814F0D0FBB6
:10772000044B00211868BDE80840FFF799BF00BF6F
:10773000F4330020F033002037B500F0C7F820B94B
:1077400000F086F808B116F02FFF002401230E4D3B
:10775000ADF804408DF806408DF8053015F8010BA2
:1077600001A900F0BDF808B116F01EFF0134042C89
:10777000F4D1064A0648012114F044FB08B116F082
:1077800013FF03B030BD00BF88070400D1750200AD
:1077900080070400F7B538B3144B186000F096F872
:1077A00020B900F055F808B116F0FEFE104B114E4E
:1077B0001A88114F9B78ADF804208DF8063000240C
:1077C00016F8015B3A4601A9284600F0FBF808B11B
:1077D00016F0EAFE01212846013400F065F9042C78
:1077E000EED1002003B0F0BD0E20FBE714340020E2
:1077F0007C070400840704005975020000F18040F2
:1078000000F5C040002382B0036003680193019B30
:1078100002B07047800000F1A040D0F8002722F4A9
:107820004032C0F80027D0F8003743EA0141C0F8E1
:1078300000177047054B4FF0FF32072843F8202010
:1078400084BFC01880F84820704700BF2034002053
:1078500010B51A4C94F858306BBB4FF0FF3222FA37
:1078600003F1C90748BFE11803F1010348BF81F8DC
:107870003020202BF3D10021C8B2FFF7DBFF01310C
:107880000C29F9D1042200210D4818F099FA0D4B6A
:10789000C02283F8062340221A604FF4BE70FFF71F
:1078A000ADFF094B4FF00042C3F80423012384F8D5
:1078B0005830002010BD0820FCE700BF2034002015
:1078C0007434002000E100E000600040034B93F8B6
:1078D0005800003818BF0120704700BF2034002036
:1078E00030B52E4B1A1892F93040013453D18C78B0
:1078F000002C4CD01C46002254F8045B013541D1C9
:107900001C1884F83020002443F82240920002F131
:10791000804202F5C0420B78D2F810554C7825F41D
:1079200098151B04240525F4F85504F4801403F479
:107930004033C2F8105523430402D2F8105504F422
:10794000F85423432B43C2F810354A780123012A07
:107950004FF0A04203FA00F30CBFC2F80835C2F89A
:107960000C3500F5E073032142F82310C2080C49DE
:10797000012300F0070003FA00F08B5C18438854E1
:10798000002003E00132082AB6D1042030BDFE23D6
:1079900082F83030D9E70820F8E700BF2034002013
:1079A00074340020012303FA00F04FF0A043C3F821
:1079B00008057047012303FA00F04FF0A043C3F815
:1079C0000C057047F0B5364D2C1894F93040002C5A
:1079D00064DA8C78C4F34004002C0BBF0823002326
:1079E0000C260826B34201D10420F0BD55F82370BF
:1079F00001373FD12E1845F8232086F8303014B9CE
:107A0000EA1882F848008A78540713D4D60733D589
:107A1000820002F1A042D2F8004724F00204C2F82A
:107A20000047204EC20800F007070124BC40B75CA5
:107A30003C43B4548A780C7812F0020225D09B00A3
:107A400003F1804303F5C0430202D3F8101521F47B
:107A5000473121F44071C3F810152404D3F81015F0
:107A600002F4F85204F4403422430A43C3F81025C8
:107A70000020BAE70133B5E74C7800F5E0724FF02B
:107A8000A046A40046F82240CBE7083B2B4493F8DD
:107A9000501041EA841483F85040E9E70820A4E735
:107AA000203400207434002038B51F4C251895F977
:107AB0003020072A16DD224492F848309B09032B18
:107AC0000BD14FF0A043D3F81015C14001F00101D4
:107AD0000231BDE83840FFF79DBE012B0CBF0221EB
:107AE0000321F6E7D3B2072B1CD8930003F18043A0
:107AF00003F5C043D3F8100540F00100C3F81005AA
:107B000002F14000800080B2FFF778FE51B195F994
:107B1000303054F823302BB1012303FA02F2034B27
:107B2000C3F8042338BD00BF2034002000600040AB
:107B30002DE9F74F00244E4D01944FF4807201213E
:107B400002F1804303F5C04390B21B68012B06D1BC
:107B5000D5F804330B4202D0FFF750FE0C43043239
:107B6000B2F5907F4FEA4101EAD1424B1B68012BED
:107B70000CD14FF4BE70FFF741FE4FF0A04344F02C
:107B80000044D3F820250192C3F8202514F0FF0FFC
:107B90001AD0394F01260025344210D0AB0003F132
:107BA000804303F5C043D3F81005D3F8101557F8F8
:107BB000253023B1C1F30141C0F3042098470135BA
:107BC000082D4FEA4606E7D1002C48DA2A4D4FF03F
:107BD000A0482A4E4FF00009012716F9013B5A1C14
:107BE00031D0C3F3C20202A90A44DCB212F8042C59
:107BF00003F03F0A03F0070307FA03F31A4222D007
:107C00000AF5E073504658F82330C3F3014BBBF13B
:107C1000020F0CBF03210221FFF7FCFD07FA0AF354
:107C2000C8F8203505EB0A0393F9303055F82330B6
:107C30004BB1A109032904D0BBF1020F12D10129D4
:107C400001D15046984709F10109B9F1040FC4D197
:107C5000D8F820350193C8F82035002BB9D103B0EE
:107C6000BDE8F08FBBF1030FEDD10229E8E700BFBB
:107C7000006000407C61004020340020703400200F
:107C80002DE9F0410446CEB038B1424D2B685A047C
:107C900003D5414E3368032B02DC4EB0BDE8F081C2
:107CA0003E4B18680DAB611E04F10F0C1F4611F816
:107CB000012F4FEA121E02F00F0210F80EE083F8B7
:107CC00000E0825C5A70614503F10203EFD10023AA
:107CD000334887F820302F2118F044F9002846D087
:107CE0002F212F4818F03EF9411CDFF8C4802D4A9F
:107CF000D8F8043501922C4A0092029742220420BF
:107D000006F08EF92B685B04C7D53368032BC4DDFE
:107D100023482F2118F026F9002831D02F212048A0
:107D200018F020F9411CE27B2068D8F804350B924A
:107D3000A27B0A92627B0992227B0892E27A0792E6
:107D4000A27A0692627A0592227A0492E28852BA64
:107D500092B20392A28852BA00BA92B2CDE901025D
:107D6000124A00920420432206F05AF995E70C4883
:107D70005C2118F0F7F808B15C21B2E70849B4E7D4
:107D800007485C2118F0EEF808B15C21C7E7044908
:107D9000C9E700BF542E0020502E0020582E00208E
:107DA0008C070400B4070400C6070400CE070400D3
:107DB0000010014072DF704773DF704774DF704757
:107DC0002DE9F0412F4CA2B006460F469046002107
:107DD0001022204617F0F4FF2B4A2C491378C3EBEE
:107DE0004315294421602A49013303F001030D445E
:107DF0001F211370A180A1813C22002104A8A5604D
:107E000017F0DEFF062301AA8DF813300E9201232E
:107E10003C22002113A88DF80230ADF820308DF8F7
:107E20003C30ADF80060CDF824D0ADF80460ADF87A
:107E30000880039717F0C4FF2246022352F8041B60
:107E40008DF84C3004A800F0F5F908B116F0ACFB41
:107E5000104AA16813A800F0EDF908B116F0A4FBD0
:107E60000D4A08490D48FFF7A5FF082804D1054928
:107E70000A480022FFF79EFF08B116F095FB22B0DA
:107E8000BDE8F081BC3400207C3400207D3400202B
:107E9000CC340020C8340020282E0020242E0020BE
:107EA000B0F5202F0AD20A23B0FBF3F310B1012B57
:107EB00038BF0123034A9381916070474FF6FF73E7
:107EC000F5E700BF282E002008B5064B01211878E1
:107ED000FFF772FF08B116F067FBBDE8084000200D
:107EE00004F0BEBD242E002008B5054B1878FFF71E
:107EF00065FF18B1BDE8084016F056BB08BD00BFCD
:107F0000242E002076DF70477ADF70477CDF7047D1
:107F100069DF704716F048BB03F0DCBF07B5037894
:107F20004BB940883B21FFF7EDFF08B303B05DF884
:107F300004EB16F039BB012B1AD1134B1B685B0401
:107F400016D5124B1B68032B12DD11482F2118F098
:107F500009F880B12F210E4818F004F8411C0D4B90
:107F60000D4AD3F8043500920420682206F058F830
:107F700003B05DF804FB06485C2117F0F3FF08B17D
:107F80005C21E8E70249EAE7542E0020502E002049
:107F90000E080400001001403E0804001FB500F068
:107FA0004BFC08B116F000FB00236946012000934A
:107FB00000F06EFB08B116F0F7FA0C22002101A8C0
:107FC00017F0FEFEBDF80430114823F47F7323F050
:107FD000030343F4887343F00103ADF80430002336
:107FE0000293ADF80C3017F0B5FF009AADF80E0013
:107FF00001A94120FFF78CFF08B116F0D5FA6846B9
:1080000000F0AEFB08B116F0CFFA05B05DF804FB46
:10801000320704001FB5112310488DF8043017F003
:1080200099FF0E4982B201A8FFF770FF08B116F060
:10803000BBFA08220DEB0200002117F0C1FE084A2E
:108040004FF0C87302A8CDE90223FFF75DFF08B126
:1080500016F0AAFA05B05DF804FB00BF3207040071
:108060007800C80010B58AB001AC08220021204673
:1080700017F0A6FE124A4FF0C873CDE90123002184
:108080001C2203A817F09CFE4FF4803340F6CD412C
:10809000CDE9041303238DF818300023ADF81A300E
:1080A0008DF81C30074B089303A8074B03940993E2
:1080B00000F044FD08B116F077FA0AB010BD00BF19
:1080C0007800C8001D7F0200157F020070B5EFF335
:1080D000108672B60C4A946801239CB993600B4BCE
:1080E0000B4DD3F8801029401160C3F88050D3F8AD
:1080F000841051604FF0FF32C3F88420047006B939
:1081000062B670BD0370FAE7A45E002000E100E0F3
:10811000FC06FFBD10B5084B9A685AB150B9EFF391
:10812000108172B6054A1C6814605C6854609860DF
:1081300001B962B610BD00BFA45E002000E100E0FE
:108140006DDF704779DF70477DDF704764DF704710
:108150002DE9F04F85B000250E9CBDF83CB0B4F879
:1081600000A00191074690461E46A9463A884A4516
:108170000DDC45B12388013BA3EB0A039BB2FF2B27
:108180003AD806F80A30002005B0BDE8F08F7A68CA
:1081900052F82900039000220DF10B0103A8FFF70C
:1081A000D5FF0028F0D19DF80B20424521D122882F
:1081B000002D14BF0020022002EB080101445945A4
:1081C0001ADC3DB9013292B2019B2280B35422885D
:1081D0000132228022880DF10B01324403A8FFF7FF
:1081E000B5FF0028D0D121889DF80B200A442280B9
:1081F000012509F10109B9E70C20C5E72DE9F34193
:10820000089FBDF824801546CDE900780222044677
:108210001E46FFF79DFF50B93346102229462046DF
:10822000CDE9087802B0BDE8F041FFF791BF02B098
:10823000BDE8F0812DE9F04F00231788138090F8F6
:108240002D3085B006460D46144653B3082F01D88D
:108250000C2027E102A8FFF773FF002840F02281DD
:1082600023880822EA54238801339BB21B222380EF
:10827000EA542088013080B2208006220DF10901E5
:10828000284417F08FFD23889DF8082006339BB201
:1082900012F0FE0218BF01222380EA542388013322
:1082A0002380B378FBB123880433BB42D0D802A823
:1082B000FFF748FF002840F0F58023880322EA54A6
:1082C000238801339BB219222380EA542388BDF806
:1082D000082001339BB2E9182380EA54120A4A703D
:1082E000238802332380F2789AB12388D91CB942BB
:1082F000AED80221E954238801339BB201212380A7
:10830000E95423880B449BB22380EA5423880B440E
:1083100023807268AAB12388D91CB94298D8022157
:1083200092F90020E954238801339BB20A2123806B
:10833000E954238801339BB22380EA542388013314
:1083400023803389002B40F0A180338A5BB1CDE9D3
:1083500000472B460722032106F11000FFF74EFFCE
:10836000002840F09F80338B5BB1CDE900472B465E
:108370001522142106F11800FFF740FF002840F0F5
:108380009180326A002A40F09080D6F82480B8F1BB
:10839000000F30D0B8F804302188981C8A1C0244A1
:1083A000BA423FF655AFFE283FF652AF03336B5447
:1083B000238801339BB2FF222380EA5423880133B0
:1083C0009BB22380B8F80020EA54E918120A4A70D8
:1083D0002088023080B22080B8F804205AB1D8F842
:1083E000081000296BD0284417F0DCFC2388B8F86B
:1083F00004201344238096F82C30002B40F09A8000
:10840000307800284ED03388012B58D0228802F1D2
:10841000020CBC453FF61CAF012805D1737802332E
:1084200013449F42FFF414AF023FBF1ABFB202A928
:1084300005EB0C00ADF80870FFF786FE90BB3178B5
:10844000BDF80830022900F0BA8072789A4202D34F
:10845000BB4240F2B280012940F0B380974293B210
:10846000C0F0AF80ADF808300821BDF80830FE2B11
:108470003FF6EEAE22880133AB542288013292B22D
:108480002280A9542288134423800BE0CDE90047C1
:108490002B460622022106F10800FFF7AFFE002856
:1084A0003FF453AF05B0BDE8F08FB4F800C00CF155
:1084B0000603BB423FF6CCAE1188052901D8072040
:1084C000F0E76FF4486E01EB0E039BB24FF27D3E76
:1084D0007345F4D95388052BF1D96FF44860181807
:1084E00080B27045EBD94FF6FF70814203D08342D2
:1084F00001D09942E3D8052305F80C3023880133D5
:108500009BB212212380E954238801339BB223803C
:108510001188E954E818090A4170238802339BB294
:1085200023805288EA54E918120A4A7023880233D9
:1085300023802AE7B36A002BC1D04FF000094FF027
:108540000C0A4FF0160B96F82C305FFA89F2934222
:108550007FF656AFB16A0AFB02F201EB0208B8F8E7
:108560000430981CFE283FF673AE208803332B544A
:10857000238801339BB2238005F803B0238801339D
:108580009BB223808A5AEA54E918120A4A7020885A
:10859000023080B22080B8F804205AB1D8F8081010
:1085A00000298CD0284417F0FDFB2388B8F804205C
:1085B0001344238009F10109C5E7092155E7BB42AE
:1085C000FBD9ADF808704FE701600B6843604A685B
:1085D000934204BF002343607047436843B102687D
:1085E00091680B4443605268934204BF0023436088
:1085F00070474BDF704700001FB50D4C01A8FFF717
:10860000F8FF70B9214602A8FFF7DEFF039B002B9D
:10861000F4D00198D3E90021904702A8FFF7DDFFCD
:10862000F4E7052801D015F0BFFF04B010BD00BF6E
:108630006C08040060DF704769DF704761DF7047D6
:1086400030B5114B1B78A9B0E3B1104D94240DF156
:10865000020103A8ADF80240FFF7F0FF70B9294608
:1086600001A8FFF7B1FF029B002BF0D003A8D3E9CC
:108670000021904701A8FFF7B0FFF4E7052801D0DB
:1086800015F092FF29B030BD0A35002078080400AB
:10869000F0B5064685B00D4600295CD02F4B0B6027
:1086A0000C22002101A817F08BFB012706232A6862
:1086B000ADF8083001A920208DF804608DF806700F
:1086C000FFF7BAFF0C22002101A817F079FB002464
:1086D0002A688DF8057001A94020ADF80640FFF723
:1086E000ABFF0C22214601A817F06AFB45232A683C
:1086F000ADF8063001A923208DF80460FFF79CFF38
:108700000C22214601A817F05BFB2A688DF8044073
:1087100001A93846FFF790FF0C22214601A817F067
:108720004FFB4FF4B0632A68019301A9A120FFF722
:1087300083FF0C22214601A817F042FB9DF804306C
:108740002A683B4301A9A0208DF80430FFF774FF8D
:10875000204605B0F0BD0E20FBE700BFF02D002045
:1087600008B5FFF767FF10B9014B01221A7008BD69
:108770000A35002010DF704711DF704713B504463B
:1087800009496846FFF720FF019808B902B010BDFB
:10879000D0E900212046904718B16846FFF71DFF39
:1087A000F2E71120F2E700BF8808040013B5044681
:1087B00007496846FFF708FF019B0BB902B010BDDF
:1087C0002046D3E9002190476846FFF706FFF3E70C
:1087D000A0080400084B9A6822B11A6822F48002AB
:1087E0001A607047054B4FF48002C3F88020BFF336
:1087F0004F8FBFF36F8F7047A45E002000E100E051
:108800000B4991F816335A09EC231341DB0706D5BF
:10881000084B9A683AB94FF480030B60704742F2F4
:10882000020015F0C1BE1A6842F480021A60704757
:1088300000E100E0A45E0020F7B5194F3C7864BB6E
:10884000184E012520463570FFF798FF112821D0DA
:108850002046FFF7ABFF144B8DF8034018680190DA
:108860000DF10300FFF732FC104901A8FFF782FF6A
:108870000446B0FA80F0400938709DF80300FFF715
:1088800049FC3CB90A4B34701C70FFF7B9FF28460D
:10889000FFF78CFF204603B0F0BD0824FAE700BFC5
:1088A0000C3500200B35002084080400BD8B02002D
:1088B0000D350020F7B5154F3B781BB3144E012042
:1088C0003070FFF75BFF11284FF000051CD002202D
:1088D000FFF76CFF0DF107008DF80750FFF7F6FB6F
:1088E000FFF74AFF04469DF807003D70FFF712FCB2
:1088F0002CB93470FFF76EFF0320FFF757FF2046B7
:1089000003B0F0BD0824FAE72C46F8E70C35002048
:108910000B35002007B508496846FFF755FE019B57
:1089200013B903B05DF804FBD3E900209047684613
:10893000FFF753FEF3E700BF94080400FFF7EABF18
:1089400075DF704776DF70477ADF70477BDF7047EF
:10895000034B1A8882420CBF18460020704700BFA4
:108960002C350020024B9B6903B11847704700BFAC
:108970001035002073B585B22846FFF7E9FF04469D
:1089800070B1164E027A337B9A420BD200F10A0183
:108990002846FFF7D5FFE8B1112801D0FFF7E2FF25
:1089A00002B070BD00230372337C43B13B212846E3
:1089B000FFF7C8FF30F0080301D0FFF7D3FF73695A
:1089C000002BEDD000228DF80420ADF8065001A850
:1089D0009847E5E7237A01332372E1E71035002059
:1089E00037B50B46497A0F4A71B9D2E901141D7A9D
:1089F0000246002D18BF2146586813F015FA08B139
:108A0000FFF7B0FF03B030BD002119725369002B8E
:108A1000F8D00122ADF806008DF8042001A898478F
:108A2000F0E700BF103500204B8802889A4213D827
:108A300042889A4210D380888A8840F2F313984281
:108A400094BF031AC31A934206D800F2F31090425F
:108A500034BF0020012070470020704770B50388A4
:108A6000122B014659D004D8102B1ED0112B44D004
:108A700070BD502BFCD12F4BC288DB899A42F7D1B5
:108A8000038A022BF4D186883046FFF761FF054642
:108A90000028EDD001F1120000F08AF838BB6868B8
:108AA00013F00EFA0028E3D009E0C37B012BDFD1DD
:108AB0004FF6FF70FFF74CFF054620B90420BDE8D4
:108AC0007040FFF74FBF8E881B4A06800023037259
:108AD0001368C0F80A305368C0F80E3010310A30FD
:108AE000FFF7A2FF134B6872DB89002BC0D1294628
:108AF0003046BDE87040FFF773BF8088FFF728FF5E
:108B000004460028B4D0406813F0DAF908B1FFF742
:108B100029FF4FF6FF732380AAE786883046FFF7C8
:108B200017FF05460028A3D008310A30FFF77CFF65
:108B30006872DCE71035002040350020F8B50646A5
:108B400048B305460FCD154F3C460FC495E80700C6
:108B500084E807003068124C3C60B0B1FFF7F4FEC7
:108B6000C0B9326813682360536863600D480E4AC9
:108B70004FF6FF7303800D4B40F8043F002113F0C4
:108B800041F9002818BF032004E02046FFF7DEFE6D
:108B90000028EBD0F8BD0E20FCE700BF1035002008
:108BA000403500202C350020758902004835002012
:108BB000007800F0010070470620704730B5754B13
:108BC00014461B6844F20102904287B00D4603F43C
:108BD000804300F0A98022D8012844D041F201024C
:108BE000904276D0002B58D06B4B1B68002B54DD85
:108BF0006A482F2117F0B6F9002800F0BF802F2116
:108C0000664817F0AFF9411C654B664AD3F8043546
:108C1000009201957B22012005F002FA3DE044F22A
:108C200002029042DED1002B37D05B4B1B68002B39
:108C300033DD5A482F2117F095F900286BD02F21EA
:108C4000564817F08FF9411C554B2268D3F804356C
:108C500003926268CDE90152534A009201206922D1
:108C600005F0DEF919E0C3B14B4B1B68002B14DD96
:108C70004A482F2117F076F910B32F21474817F0F3
:108C800071F9411C464B494AD3F804350092CDE9AD
:108C900001546022012005F0C3F94FF0A0434FF4C6
:108CA000F012C3F81825C3F80C25EFF3108372B641
:108CB0004DF6AD6C3E4A1378002B68D107B030BD3D
:108CC00036485C2117F04EF908B15C21D6E73349EC
:108CD000D8E7002BE1D0304B1B68002BDDDD2F489F
:108CE0002F2117F03FF968B12F212C4817F03AF9DE
:108CF000411C2B4B2F4AD3F804350092CDE9015487
:108D00006322C7E725485C2117F02CF908B15C21E4
:108D1000EBE72249EDE721485C2117F023F908B180
:108D20005C218DE71D498FE7002BB6D01A4B1B68DD
:108D3000002BB2DD19482F2117F014F9A8B12F210B
:108D4000164817F00FF9411C154B2268D3F804356B
:108D500004926268CDE90252A2680192164A00921A
:108D60000120732205F05CF997E70C485C2117F0AD
:108D7000F9F808B15C21E3E70849E5E707485C2119
:108D800017F0F0F808B15C213AE704493CE730BF3E
:108D900091E700BF542E0020502E0020AC080400A4
:108DA000001001405009040010090400D408040018
:108DB000402E0020EE0804002F09040007B5002310
:108DC000014600936A46044B019344F20200FFF708
:108DD000F5FE03B05DF804FBFF0B04000146102212
:108DE000014816F0DFBF00BF6835002010B50C4CFD
:108DF0000C490822204616F0D5FF08220A49A0187F
:108E000016F0D0FFA37903F00F0343F04003A371E2
:108E1000237A03F03F0363F07F03237210BD00BF8A
:108E20006835002060000010A40000100048704762
:108E3000683500200022064913460132202A4B8063
:108E40004B6001F8083BF8D1024A1360704700BF3D
:108E50007835002078360020F0B50C4B0C4D1B689F
:108E6000044620227BB1013B15F8330050B105EBDD
:108E7000C3067788A74202D176688E4202D0013AB3
:108E8000F0D11046F0BD1F23EEE700BF783600207A
:108E90007835002030B5094A094C136804EBC30546
:108EA0001F2B69604FF0010104F83310194408BF0B
:108EB0000023688014BF1160136030BD7836002035
:108EC00078350020C0F30C038B42084438BFA0F56E
:108ED0000050C01A70470000F0B50D4B0D4A1E68D7
:108EE00000218E4212D0156800230AE052F8044C8B
:108EF00004EBC30714F83340844201D17868F0BD15
:108F000001339D42F2D101310832EAE70020F6E751
:108F1000043700200C37002000B58DB048B9991CEB
:108F200007D0012101A8CDE902328DF8041001F02B
:108F30005FFA034B186803F08BFF0DB05DF804FB7C
:108F40001037002010B50378044613B97846FFF7B0
:108F500035FF607A431C01209840013810BD2DE98F
:108F6000F0410E468EB015461C46074610B97846AD
:108F7000FFF724FF16B97846FFF720FF636AA2784F
:108F800002330593E378A2F10800002B14BF0121FE
:108F900002210DF1040842424241434604F10C0013
:108FA00004F08BF8A3788DF83430237BADF8205093
:108FB000022B16FA85F5CDE906870B960C950FD195
:108FC000236913B97846FFF7F9FE23690993102343
:108FD00005A8ADF8283004F06CF80EB0BDE8F081BB
:108FE0000023F5E7B2F5C07F2DE9F04781468846BA
:108FF000174602D97846FFF7E1FE244B00259A4632
:1090000093F848605EB9384608F0B7FA702404FB5C
:1090100005A4E06648B900242046BDE8F087013584
:10902000042D03F17003EBD1F5E7302249462046C9
:1090300016F0B8FEB8F1010FE664A4F84A701BD12F
:10904000134BA4F852601B7D84F8513084F85060B3
:10905000D9F8283063656FF00103A3620D4BA4F8C3
:109060005860A3632464012002F08CFA702303FB90
:1090700005A585F84880CFE76FF00103A362064B92
:10908000A36584F86860054B2466EAE72C37002066
:109090001437002015980200299E02000D98020046
:1090A00010B50446C06E08F06AFA04F1300003F00F
:1090B0003FF994F84830022B03D104F1500003F03B
:1090C00037F920467022002116F07AFE002084F83D
:1090D0004800BDE8104002F055BA10B590F848308D
:1090E000012B8CB0044602D07846FFF767FE0123BF
:1090F0008DF80430636D029303F064F9039001A8C6
:1091000001F076F92046FFF7CBFF0CB010BD10B58B
:109110000446808A02F022FD01281CD1237BD3B1B2
:1091200094F91620002A18DBE27D5AB1022B12D0E6
:1091300094F90330002B10DBA378002B0CBF002028
:10914000072010BDE2780AB9012B06D1237833B984
:10915000A378042BF2E71020F3E70720F1E70020C3
:10916000EFE700001FB500230A468DF80F3028B343
:10917000023008600DF10F01104603F09CFF9DF8CE
:109180000F30DBB1144B1B685B0717D5134B1B6803
:10919000032B13DD12482F2116F0E4FE98B12F2186
:1091A0000F4816F0DFFE411C0E4B0F4AD3F8043572
:1091B0000092042040F2154204F032FF9DF80F00A7
:1091C00005B05DF804FB06485C2116F0CBFE08B143
:1091D0005C21E5E70249E7E7542E0020502E0020ED
:1091E00069090400001001408609040070B50446B6
:1091F000D4E906122378808A8CB0D3B1E38805F0D5
:10920000FBFF054690B1A68AE4692C22002101A843
:1092100016F0D6FD04F001040F2301A88DF80430E8
:10922000ADF80860ADF80A4001F0E2F828460CB04D
:1092300070BD05F0DDFFE4E72DE9F04799461378AE
:10924000D2F818A0F4B006460D46144623B1D188D2
:109250005046FFF737FE9061E378A278002BA2F129
:10926000080005AF14BF0121022104F10C0842429D
:109270003B464241404603F020FFA3788DF844303E
:10928000ADB2E81A002380B2ADF83830E378C4F804
:1092900018A0CDE90A76064414AFADF83000109658
:1092A0000F97002B77D04FF0100A03AE237B022BD1
:1092B00004BF23690D934FF00003C6E9003308BFD4
:1092C000ADF838A06362206A217904AB324612F00F
:1092D0007BF93068002838D009A9FFF743FF78BB35
:1092E000706878B309A9FFF73DFF58B3012356F81A
:1092F000233063622046FFF779FFF0B9A1780D9023
:109300006D1A8DF8240098E80300A38AADF8323076
:1093100001220EAB8DF8302083E80300A37D8DF889
:109320004830236A109309A8636A0A97ADF82C5055
:109330001193CDF84C9001F05BF874B0BDE8F08764
:109340000023D4E73368002BBDD1237B022B05D14A
:10935000E089414612F030FA0028A7D1214B1B6862
:109360005B07EAD5204B1B68052BE6DD1F482F2144
:1093700016F0F8FD68B32F211C4816F0F3FD411CD0
:109380001B4B1C4AD3F804350092062040F20372AE
:1093900004F046FED1E7227B012ADFD12646E08990
:1093A000B4F814A046F8243F314612F083F9606AFD
:1093B00009A9FFF7D7FE00289CD1606231465046CC
:1093C00012F078F9606A09A9FFF7CCFE0028C5D031
:1093D00090E706485C2116F0C5FD08B15C21CBE79B
:1093E0000249CDE7542E0020502E002069090400C8
:1093F0000010014099090400C37D0A7830B5002BA4
:109400003DD0C37822F07F0203F07F031A430A7035
:109410000B78027803F07F0343EAC2130B700378E2
:1094200063B38378083B5A425A414B7803F07F0379
:1094300043EAC2134B708A78C58802F00302C5F371
:10944000861442EA850223F07F032343D2B28A7056
:109450004B70CB78057A03F01F03C5F3C10422F0EB
:10946000030243EA45132243DBB2CB708A70427A8F
:1094700023F01F0302F01F021343CB7030BDC478EA
:1094800022F0400343EA8413DBB20B70027923F02D
:109490003F0302F03F0213430B70B9E72DE9F04F91
:1094A000824689B00D4609B100220A600AF10C0318
:1094B0009AF85040019301274FF0000B9AF80900E9
:1094C000A04203D2002009B0BDE8F08FDAF84C10BA
:1094D00007FA04F20A4264D19AF81720019B8AF82D
:1094E0000840002A0CBF0C26082684429AF8002067
:1094F000029306FB04F908BFBAF84A608DF818B069
:1095000008BFA6EB0906002A14BF4FF004084FF06D
:10951000010806EB08020492DAF82820039202A858
:10952000DAF82C20059203F06AFF0028CBD1079AC5
:10953000904454B99AF853203AB9DAF818208AF8C6
:109540005370C2F30C02AAF806209AF817209AB9B1
:109550009AF8522082B914B17846FFF72FFCBAF876
:109560004A109AF802208A1ADAF86C105346084614
:10957000FFF7F5FC8AF8527007995046FFF73CFF59
:10958000DAF86C1032464944404616F00BFC02A84B
:1095900003F056FF15B12A6801322A60621C8AF86E
:1095A00050200134E4B289E738B590F84830012BF7
:1095B000044602D07846FFF701FC02F003FF237B4C
:1095C000074A012B05BFD2E90315A37DD16805FB2E
:1095D0000311014404F13000BDE8384002F0C0BE80
:1095E00014370020F0B5C37D16468278002B324434
:1095F00014BF4FF480734FF4C0739342C7B00F464B
:109600007DD3424B002493F84810012907D19D8A4D
:10961000818A8D4203D1DD89C1898D4271D00134A7
:10962000042C03F17003EED10121FFF7DBFC0546AA
:10963000002844D032463946C06E16F0B3FB0023F2
:1096400004A928460493FFF729FF30F004040646D6
:1096500050D1049B13B12846FFF7A6FF2C4B1B6883
:1096600013F004034FD02B4B1B68032B27DDB5F8F9
:109670004A00294B802805AA1F6828BF80200023A4
:109680001646834202F102021CD10022234806F84A
:1096900013202F2116F066FC18B32F211F4816F057
:1096A00061FC411C1E4B1F4AD3F8043501921E4A2F
:1096B000009202964FF4AC62042004F0B1FC204604
:1096C00047B0F0BDE96EC95C4FEA111C01F00F0113
:1096D00017F80CC002F802CC795C02F8011C0133C7
:1096E000CFE70E485C2116F03DFC08B15C21D5E7C0
:1096F0000A49D7E72846FFF7D3FC3446DFE70924B9
:10970000DDE70824DBE71C46D9E700BF2C37002043
:10971000542E0020502E0020582E002069090400ED
:1097200000100140C2090400C6070400F0B50D4650
:1097300091B0044610B97846FFF740FB94F84830E2
:10974000022B18D1E188A069FFF7BCFB284AE16928
:1097500013680F0A0E06591C1160264A361803F0CA
:1097600007034FEA031147F1000702EB0313A08A36
:109770005052C3E902672C22002105A8666D16F03D
:109780001FFB102305A88DF8143006968DF81C5089
:1097900000F02EFE2046FFF783FC174B1B685B078B
:1097A0001BD5164B1B68032B17DD15482F2116F010
:1097B000D9FBA0B12F21124816F0D4FB411C114B4C
:1097C000D3F80435029594F8482001920E4A00928D
:1097D000042040F2F31204F023FC11B0F0BD08485D
:1097E0005C2116F0BFFB08B15C21E4E70449E6E721
:1097F0000037002080360020542E0020502E0020FC
:109800006909040000100140D00904000846002145
:10981000FFF78CBF10B591F84830012B0C4602D0F1
:109820007846FFF7CBFA94F851305BB1013B84F8EE
:109830005130002384F85030084BBDE810401868C0
:1098400003F006BB217B0129204603D1BDE810406F
:10985000FFF76CBFBDE81040FFF73FBC103700209A
:109860002DE9F04306468FB010460F461546984640
:10987000FFF7BCFC044600285ED195F80390B9F1CF
:10988000000F40F0AA80062F56D1307873788201FD
:1098900002F4FE5242EA9302604B1F4693F84810CE
:1098A000012928D1B3F814C0E9898C4523D1D9887E
:1098B000914220D1B3F858C0A98ABCF1000F01D061
:1098C0008C4518D110F0800FD6F802204FF07003AD
:1098D0003ED003FB0473A3F85810702000FB0474FF
:1098E00012BAE56C1543E564002A63D103212046D2
:1098F000FFF71CFF20E00134042C03F17003CDD1ED
:10990000474B1B685B0717D5464B1B68012B13DDC4
:1099100045482F2116F026FB88B12F21424816F02A
:1099200021FB411C414B424AD3F8043500920220EE
:1099300040F2796204F074FB0FB0BDE8F0833A485E
:109940005C2116F00FFB08B15C21E7E73649E9E737
:1099500003FB0473DB898B42BFD0314B1B685A0772
:10996000EAD5304B1B68012BE6DD2F482F2116F07E
:10997000F9FAB0B12F212C4816F0F4FA411C7020EE
:109980002A4BAA8AD3F80435029200FB0474022001
:10999000E2890192274A009240F27D6204F040FB86
:1099A000CAE721485C2116F0DDFA08B15C21E2E744
:1099B0001D49E4E72046FFF7C5FA854203D120465A
:1099C000FFF78BFBB8E7002184F850102046FFF723
:1099D00065FD2046FFF7E8FDAEE74846FFF77CFA55
:1099E00002460028A8D0D5E903012B6A0B93AB8A65
:1099F000ADF8223009AB83E80300AB7D8DF8303041
:109A00002B788DF82030EB6A8DF81490CDE906673D
:109A10000D93414605A890478EE700BF2C370020E4
:109A2000542E0020502E002069090400001001402F
:109A3000F3090400210A0400F0B589B005460E467A
:109A40000192FFF764FB044638B92B78019A3BB1C9
:109A500031462846FFF7C6FD0446204609B0F0BD52
:109A6000E97DAB7801920029134414BF0B210F212B
:109A70008B4226D80133049305F10C030293AB6AA1
:109A800003938DF81800EB6A059302A803F0B7FC66
:109A900004460028E1D1079928464F1CFFF7ACFC8B
:109AA000EB7D019A3BB13146384616F07BF902A8AE
:109AB00003F0C6FCD1E72B4639463046FFF74FFA94
:109AC000F5E70924C9E7000010B54FF4E072002162
:109AD000134816F075F9002405F05CFB114B124891
:109AE0001C602146802216F06BF9104B1049114A78
:109AF00011489C75C3E9001210494CF25032C3E979
:109B000002211A6140F604029A8203F083F90C4B99
:109B100018600C4B0C481C60BDE8104005F06ABD95
:109B20002C3700200037002080360020143700201A
:109B300080969800F049020025A3020020A10700AA
:109B40001037002004370020198F020005F042BBB7
:109B500030B504468DB000285FD00369002B5CD07F
:109B6000C369002B59D08569002D56D05A788DF8DD
:109B700004201A780993838A82F001020B2B8DF856
:109B80000320027B09D90121022A8DF8001001D19E
:109B9000234A927D5AB904220AE0C17A0029F2D1FF
:109BA000012A0CBF012200228DF8002031D10822A9
:109BB00013448DF802200B330C22B3FBF2F3013B6C
:109BC0008DF8093000238DF8083094E80300002355
:109BD0008DF8173003AB83E803002389ADF8143008
:109BE000A37A8DF81630236A0A932046DF2308955E
:109BF0000B9311F081FE28B12378012B14BFFF23B2
:109C000020230B93A28A21696846FFF715FF0DB048
:109C100030BD04238DF80230D7E70E20F7E700BFF0
:109C20001437002030B50A4691B00446002860D0B1
:109C30004368002B5DD08569002D5AD003788DF8DC
:109C4000133000230D9383680B2B94BF017B0121FC
:109C500001F001008DF8100000208DF8120031B1E4
:109C60000733DB08013B8DF819308DF81800D4E973
:109C7000040101238DF8273007AB83E80300E38953
:109C8000ADF82430237F8DF82630236A0C95CDE97A
:109C90000E23194B1B685B071BD5184B1B68062B43
:109CA00017DD17482F2116F05DF9C8B12F21144890
:109CB00016F058F9411C134BA269D3F804350292EF
:109CC00022780192104A0092072040F6050204F023
:109CD000A7F9D4E9011204A8FFF7AEFE11B030BD18
:109CE00007485C2116F03EF908B15C21DFE7044922
:109CF000E1E70E20F2E700BF542E0020502E002096
:109D00006909040000100140620A040070B5037B79
:109D1000012B90B004460D4677D13D4B1B685B0785
:109D200018D53C4B1B68032B14DD3B482F2116F044
:109D300019F900285ED02F21374816F013F9411C7D
:109D4000364B374AD3F804350092042040F26322A0
:109D500004F066F904AE0B220021304616F030F80C
:109D60009DF81130E288089603F0030343EA82036A
:109D70008DF811302B0E8DF812302B0C8DF813301E
:109D80006378022B0CBF80230023C2F3861242EAC1
:109D900003024FF0060309934FF001038DF82C30B6
:109DA000A38AADF82E304FF000036DBA8DF8102065
:109DB0000C93226A8DF81C308DF82830E36AADF8D8
:109DC00014500D920F931ED10DF10E0103A811F046
:109DD00083FDBDF80C30ADF82A30A37D0BB1114BDB
:109DE0005B7D8DF838306FF0010107A8FFF71AFF8F
:109DF00010B070BD08485C2116F0B4F808B15C21C1
:109E00009AE705499CE7E389E5E70020F0E700BF12
:109E1000542E0020502E002069090400001001403B
:109E20008D0A04001437002010B591F84830022B39
:109E30000C4602D07846FEF7C1FF022384F8683052
:109E400094F84830022B06D1E16C2046FFF75EFF04
:109E500008B984F8680010BD2DE9F04F0D469DB09B
:109E6000174698460446002800F05882002A00F061
:109E7000558221B9092630461DB0BDE8F08F182261
:109E8000394613A815F08EFF237894F900100020AE
:109E9000DA0981428DF84020B4BF042201229542A4
:109EA0008DF84100E6D39DF85760EEB103F07F03D3
:109EB00081428DF843308DF842002EDA6278A37823
:109EC000920102F4FE5242EA9302ADF84620DB0012
:109ED000E27803F0180343EA521302F01F028DF8F0
:109EE00048308DF8492018E0C3F38010002903F0B2
:109EF0003F038DF843008DF8443008DA94F90130BF
:109F0000002BB4BF082304238DF84230D6E7042386
:109F10001A4495428DF84230ACD30023199398F837
:109F20000030032B02D97846FEF748FF98F800204E
:109F3000CB4B10A853F822301B93FFF7E8F80646E6
:109F4000002898D10146082203A815F039FF788827
:109F500003A911F031FC28B19DF8413043F0010311
:109F60008DF84130D7E90312388905F07FF90028D0
:109F700055D19DF84130002B3FF47DAF13F0010324
:109F80001CBF049A14929DF84020002A00F0B4816E
:109F9000BDF846101698FEF795FF179BBDF854C004
:109FA000B0494FEA036A4FEA132B1AEB000A4FF04D
:109FB00000074BF1000B0B88634506D1D1E9022362
:109FC0009B4508BF92453FF456AF0137082F01F17A
:109FD0001001F0D1A44B4FF00009184693F8482027
:109FE000022A25D19A8A624522D1702303FB0909EE
:109FF000B9F80610D9F81800FEF764FFD9F81C105C
:10A000000A0612184FEA112343F100035B4508BF0B
:10A01000524535D205214846FFF788FB0FE09DF8F1
:10A02000413003F0FE038DF84130002BA1D122E72F
:10A0300009F10109B9F1040F03F17003CED1DDE993
:10A040001612BDF84630BDF8540005F039F9002865
:10A0500000F0C980DDE91612BDF84630BDF85400A5
:10A0600005F05EF900283FF406AF10A8FEF76AFF7E
:10A07000014610A8FFF74AFE10A8FFF7B7F8FAE666
:10A080009B4508BF9245FFF4F6AE784B1B685B0713
:10A090001CD5774B1B68032B18DD76482F2115F054
:10A0A00061FF002800F00E812F21724815F05AFF41
:10A0B000411C714B9DF84820D3F8043501926F4A3A
:10A0C0000092042040F2A33203F0AAFF99F848302E
:10A0D000022B02D07846FEF771FEDFF8A8A1DAF86D
:10A0E00000B002F06FF90BEB000109F1300002F053
:10A0F00037F999F80C30012B1AD199F86830BBB9AF
:10A1000099F84830022B02D07846FEF757FEDAE97C
:10A1100001329AF8151002FB013A02F053F900EBF4
:10A120000A0109F1500002F01BF9012389F8683097
:10A130009DF84810D9F84C3001228A4013EA020AEF
:10A140007FF499AE1343C9F84C309DF8573099F815
:10A150000920002B14BF4FF0080E4FF00C0E8A425E
:10A16000A5F104050EFB01FE40F0B5800EEB0503E2
:10A17000A9F84A30D9F81820169B9A420AD20DF154
:10A180004C0CBCE80F0009F10C070FC79CE803005A
:10A1900087E80300D9F86C00211D2A46704415F0A9
:10A1A00001FE4846D9F84C40FEF7CCFE84427FF4CD
:10A1B00062AED9F84C104846FFF7A8FD99F8013077
:10A1C000DA070CD599F81730D9F86C00B9F84A10AD
:10A1D000002B00F08C8043464A46FFF741FB48467F
:10A1E000FEF75EFF81E09DF857209DF84930002A78
:10A1F00014BF4FF008094FF00C0903FB099914BF75
:10A200004FF480734FF4C07399453DD9174B1B68C9
:10A2100059077FF530AE164B1B68002B7FF72BAE2E
:10A2200014482F2115F09EFE88B12F21114815F0FA
:10A2300099FE411C104B124AD3F804350092CDF818
:10A24000049040F27F32012003F0EAFE13E6094851
:10A250005C2115F087FE08B15C21E7E70549E9E7D5
:10A26000C40A0400803600202C370020542E002021
:10A27000502E00206909040000100140B10A0400BA
:10A280009D0A0400143700204A46022110A8FEF758
:10A29000A9FE814600287FF4F8AE014610A8FFF71A
:10A2A00035FD2C22494605A815F08AFD10238DF8AE
:10A2B000143005A80223CDF818908DF81C3000F05A
:10A2C00097F8D8E516485C2115F04CFE08B15C21E2
:10A2D000EBE61349EDE6002B08BF0C27BD423FF427
:10A2E00049AF04214846FFF721FA0026C3E543465B
:10A2F0004A46FEF7A1FF72E7002B3FF4BCAD9DF884
:10A300005730601C691E23B1434610AAFFF7A8FA14
:10A31000B1E5434610AAFEF78FFFACE50E26AAE58D
:10A3200069090400F7B5184C00262546374695F80C
:10A330004830012B0BD101A928460197FFF7AEF851
:10A34000042801D0019B13B12846FFF72DF90136EF
:10A35000042E05F17005EAD1002594F84830022B4F
:10A360000AD194F86830022B06D1E16C2046FFF741
:10A37000CDFC08B984F868000135042D04F170049F
:10A38000EBD1012003B0F0BD2C3700202DE9F843BC
:10A390000F46064610B3144B1C689846E4B9254690
:10A3A00000F10409BD4208D1104BC3E90065012347
:10A3B000C8F800302046BDE8F88359F835306BB155
:10A3C00016F9353016F83500002B09DB50B1FEF7D1
:10A3D00083FD38B90135E5E70424EBE70E24E9E70E
:10A3E0000B24E7E70F24E5E70437002008370020B7
:10A3F000F8B5074610B97846FEF7E0FC104E346811
:10A4000084B1104D01232B7023791BB954F8043CFF
:10A41000384698472468002CF6D12B78022B02D0BE
:10A4200000232B70F8BD3168054C0029F8D00B795A
:10A430000E6813B1204603F079FD3146F5E700BF01
:10A44000F0380020EC38002010B5044610B97846EA
:10A45000FEF7B4FC00232372211D0248BDE8104022
:10A4600003F043BDF038002010B5044610B978461B
:10A47000FEF7A4FC074A1378013B012B04D8022302
:10A4800013700123237210BD211D0348BDE8104045
:10A4900003F04CBDEC380020F03800200B888268B7
:10A4A000D25A073222F00302134402889BB2043AC4
:10A4B000934288BF00230B80704713B58368C91A85
:10A4C000ADF806100DF10601FFF7E8FFBDF8063004
:10A4D0008068184402B010BD70B5064615460C469B
:10A4E00011B97846FEF76AFC16B97846FEF766FCA5
:10A4F000B4F1005F24D94FF08053D3F80C3103F549
:10A500000023B4EB832F1ED26B1E2344B3F1005FF4
:10A5100026D94FF08052D2F80C2102F50022B3EB7D
:10A52000822F20D2042D02D87846FEF747FC3580D2
:10A530000023043D7380B380B4602580A37070BD98
:10A54000B4F5000F08D94FF08053D3F80C3103F560
:10A550000053B4EB832FD7D37846FEF72FFCD3E715
:10A56000B3F5000F08D94FF08052D2F80C2102F554
:10A570000052B3EB822FD5D37846FEF71FFCD1E70C
:10A5800038B5044610B97846FEF718FC6288A3680F
:10A5900013449B78012B02D17846FEF70FFCEFF3B2
:10A5A000108572B6A268A18811448B78032B0AD15A
:10A5B0002046FFF782FFA368C31A638000238370DD
:10A5C00005B962B638BD002393706380A380F7E7B6
:10A5D000F8B50E461546044610B97846FEF7EEFB70
:10A5E00016B97846FEF7EAFB6288A36813449B78A5
:10A5F000012B02D17846FEF7E1FB002D37D02388EE
:10A60000043B9BB29D4232D8EFF3108772B662884A
:10A61000A388E81D20F003009A4280B204D29B1A5E
:10A62000984210DD042016E018D92188891A814249
:10A6300009D29842F6D8032981BFA3689B18042247
:10A640009A70002363806288A1688B188D52012262
:10A650009A700020336007B962B6F8BDA26813444F
:10A660009B78002BDED193706380A380EBE70920F9
:10A67000F3E7F8B50D461646044610B97846FEF7DE
:10A680009DFB15B97846FEF799FBAB78012B02D0FC
:10A690007846FEF793FB2B88B34202D27846FEF74A
:10A6A0008DFB16B97846FEF789FBEFF3108772B67B
:10A6B0000223AB70E1182E802046FFF7EFFE628880
:10A6C000A38893421FBFA3689B1800229A7007B902
:10A6D00062B6F8BD70B50D46044610B97846FEF76F
:10A6E0006DFB15B97846FEF769FBEFF3108672B67D
:10A6F000A288A36813449A78042A06D1211D204613
:10A70000FFF7CCFEA288A36813449A78022A05D0EA
:10A71000032A08D0052006B962B670BD03229A70DC
:10A720002B600020F7E77846FEF748FBF9E738B5DD
:10A73000044610B97846FEF741FBEFF3108572B678
:10A74000A088A16801448B78042B03D12046FFF731
:10A75000B4FE01468878831E5842584105B962B656
:10A7600038BD38B5044610B97846FEF727FBEFF33D
:10A77000108572B6A088A16801448878C31E012B99
:10A7800005D9831E5842584105B962B638BD2046E6
:10A79000FFF793FE0146F0E7F8B50D46044610B901
:10A7A0007846FEF70BFB15B97846FEF707FBEFF38B
:10A7B000108672B6AB78012B19D0032B22D1A28858
:10A7C000A36813449D4202D07846FEF7F7FA0027AB
:10A7D000AF70211D2046FFF761FEA288A3681344D5
:10A7E0009B78042B00D1A78006B962B6F8BD6288B9
:10A7F000A36813449D4202D07846FEF7DFFA002397
:10A80000AB70F1E77846FEF7D9FAEDE710B5EFF354
:10A81000108472B68288816811448B78042B02D12F
:10A82000FFF74BFE01468878B0FA80F0400904B982
:10A8300062B610BD037942799B1A03F57F2303F6B4
:10A84000FF7300EB03307047024B00221A769A60C8
:10A8500002207047F438002010B5054884681C2297
:10A86000002115F0ADFA2046BDE8104004F086B98D
:10A87000F438002070B5194CE36813B97846FEF738
:10A880009DFA237E13B17846FEF798FA63680A2B87
:10A8900002D97846FEF792FA114D0026636855F802
:10A8A00023309847022811D003280DD0012810D159
:10A8B000636801330A2B636002D97846FEF77EFA9B
:10A8C000237E002BEAD004E06660F9E7237E0BB11B
:10A8D000207070BDBDE87040FFF7BEBFF4380020A7
:10A8E000300B0400074A002352F8041B814202D1B6
:10A8F000054A5360704701330B2BF5D17846FEF7BC
:10A900005DBA00BF300B0400F438002010B5038896
:10A91000044613B97846FEF751FA2088084B04EB39
:10A92000800030EA030203D06288B2F5FE4F05D101
:10A9300004EA030000F580500478204410BD00BFF5
:10A9400000F0FFFF70B504460D4647F6FE66FFF7C0
:10A95000DDFFA84207D2844205D24388013B9BB267
:10A96000B342F4D870BD0020FCE700000B78032B45
:10A97000094B04BF00221A761A78012A03D11B7EE4
:10A9800043B9FFF777BF022A04D10B78032B01D11B
:10A99000FFF762BF704700BFF438002010B50C4CC1
:10A9A000E3681878002203F58051184404F0E6FDAE
:10A9B00050B9E1680846FFF73DFF814206D001F536
:10A9C0008051E160032010BD0120FCE70220FAE77E
:10A9D000F43800201FB50A4B02221B688DF80020B6
:10A9E0000193084A4FF4805369460120029300F016
:10A9F000F7FFB0FA80F0400905B05DF804FB00BF36
:10AA000014390020123900201FB50123CDE902219D
:10AA10000190054A8DF800306946184600F0E0FFC5
:10AA200005B05DF804FB00BF123900202DE9F047A6
:10AA3000254BD86802794179013A91421F4603D1EA
:10AA400001205876BDE8F08700F580531F491C7837
:10AA50001C440B6813F8045F1D44FFF7EBFE63888A
:10AA6000013B9BB247F6FE62934200F58056884652
:10AA700004D920463146FFF765FF0446DFF850A0B1
:10AA80004FF001092CB9B4FA84F464097C760120F2
:10AA9000D8E7D8F800106288284601F5805104F004
:10AAA0006DFD05460028EED004225146204687F869
:10AAB0001890FFF7A9FF28B920463146FFF742FF5B
:10AAC0000446DFE70020BDE7F438002014390020F9
:10AAD000080D040038B5104CE36818784FF6FF7283
:10AAE00003F58051184404F049FD88B1E3681978F2
:10AAF0000B4498420CD0657E0849094B0422002D76
:10AB000008BF1946FFF780FF20B90120207638BD25
:10AB10000120FCE70020FAE7F4380020100D0400C3
:10AB20000C0D040070B50C4D0C4EE96830680C78C3
:10AB300004302246FFF768FF58B93268EB6804F02A
:10AB4000FC04043414446C611A7813442B61012012
:10AB500070BD0020FCE700BFF4380020143900204D
:10AB600008B5054B054918680422FFF74DFFB0FAF8
:10AB700080F0400908BD00BF1439002000390020D2
:10AB800010B5074B074C1968E06840F6FC720431B9
:10AB9000FFF73AFF10B90120207610BD0020FCE736
:10ABA00014390020F438002010B50C4CE168084638
:10ABB000FFF740FE81420AD1094B0A491868042276
:10ABC000FFF722FF40B901232376022010BD01F5D3
:10ABD0008051E1600320F9E70020F7E7F438002016
:10ABE00014390020183900202DE9F74F324D2B6918
:10ABF00013B97846FEF7E2F86B6913B97846FEF7A9
:10AC0000DDF8DFF8B89047F6FE6A6B69D5E9030610
:10AC100003EA0908A8EB0308FFF70CFE7388013B61
:10AC20009BB2534508F5805800F5805B05D9304646
:10AC30005946FFF787FE064668B1344600275C4553
:10AC400013D327BB012334B1618847F6FF729142C9
:10AC500001D0002BD9D001202AE020460192FFF735
:10AC600055FE019A04461746E9E7228807EB82025F
:10AC7000904509D986EA040313EA090F04D16388D1
:10AC8000013B9BB25345E8D90FB90123DCE7686962
:10AC90003A463146FFF7B8FE48B96A693A446A61F4
:10ACA00014B97846FEF78AF82C610023CBE7002020
:10ACB00003B0BDE8F08F00BFF438002000F0FFFFC4
:10ACC0001FB50A4B0222DB688DF800200193084A69
:10ACD0004FF4805369460120029300F081FEB0FAE0
:10ACE00080F0400905B05DF804FB00BFF438002097
:10ACF000123900201FB5364B00221A7040F6F87347
:10AD00001B685A1C0CD1334B1A68013202D01A68E6
:10AD1000002A4FD14FF08052516913694B4303E031
:10AD2000002BF7D0A3F580532B4CA3F58053236061
:10AD30002A4B1B68DB0223D5294B1B68062B1FDD22
:10AD400028482F2115F00EF9002835D02F2125484D
:10AD500015F008F9411C40F6F872234B1268D3F83D
:10AD60000435501C08BF1B4A206808BF1268CDE993
:10AD700001201E4A0092072040F2762203F050F98B
:10AD8000236819684B1E03331FD8C1F30B02E2B9C5
:10AD9000174B18481A830124D9601C709A60FFF77A
:10ADA000A1FD2046144900F00BFEFFF763FD20468D
:10ADB00004B010BD1B68B5E70A485C2115F0D2F855
:10ADC00008B15C21C3E70749C5E70020F0E700BFF1
:10ADD000103900201410001014390020542E0020C7
:10ADE000502E0020D40A040000100140FC0A040088
:10ADF000F4380020C1AC02006DA9020010B5044671
:10AE000010B97846FDF7DAFF094A107860B1E068BA
:10AE1000D1684379A0EB0333994206D3FFF70AFDCB
:10AE200081428CBF0020012010BD0020FCE700BF44
:10AE3000F4380020024B1878003818BF0120704702
:10AE4000F438002038B5114C2378054613B1784604
:10AE5000FDF7B4FF2B78032B02D07846FDF7AEFF49
:10AE6000EB68E3600A4B0B491B78A560002B14BF0D
:10AE70000A2300236360012000232070238300F055
:10AE80009FFDBDE83840FFF7F5BC00BFF438002057
:10AE9000103900206DA90200014B1868704700BFEF
:10AEA0001439002010B5044610B97846FDF786FF26
:10AEB00063681BB123680BB1A36813B97846FDF72B
:10AEC0007DFFA3685A1E1A4202D07846FDF776FF2E
:10AED0000023C4E9033310BD70B50E460446F0B13B
:10AEE0008368F3B1EFF3108572B6D0E9033199426C
:10AEF00003D105B962B605250FE04EB18368013B69
:10AF00000B40D0E90012304602FB031114F04AFF57
:10AF100023690133236135B962B6284670BD0E2519
:10AF2000FBE70925F9E70025F7E70000024AD2F818
:10AF30000034002BFBD0704700E0014038B5C0F36F
:10AF40000B05EDB9F1B1104C0223C4F80435FFF73D
:10AF5000EDFF01F6FF7121F47F6121F00F01014443
:10AF6000884206D10023C4F80435FFF7DFFF2846E6
:10AF700038BDC4F80805FFF7D9FF00F58050EFE7AA
:10AF80001025F4E70925F2E700E0014040EA01035B
:10AF900070B5064698071ED1FAB112F003001CD115
:10AFA0000F4B94080122C3F80425FFF7BFFF0546A5
:10AFB000A54206D10A4B0022C3F80425FFF7B6FFCD
:10AFC00070BD51F825305A1C03D046F82530FFF7E4
:10AFD000ADFF0135ECE71020F2E70920F0E700BFF4
:10AFE00000E0014041F2826398429DBF024B187815
:10AFF000C0F3C00001207047B339002013B50190A1
:10B00000000C01280C4602D07846FDF7D7FE084A0E
:10B010000849236813600B7843F001030B7083F039
:10B020000203C3F340030020137102B010BD00BF40
:10B03000AC390020B339002013B50190000C022870
:10B040000C4602D07846FDF7B9FE084B22681A601C
:10B0500022791A71064A002058719871D8711378B4
:10B0600043F00203137002B010BD00BFA4390020EA
:10B07000B339002007B50190000C032802D07846B0
:10B08000FDF79CFE03480522002103B05DF804EBA8
:10B0900014F096BEAC39002007B50190000C0428CE
:10B0A00002D07846FDF78AFE03480822002103B04B
:10B0B0005DF804EB14F084BEA439002013B50190B0
:10B0C000000C03280C4602D07846FDF777FE0449B1
:10B0D0000522204602B0BDE8104014F063BE00BF58
:10B0E000AC39002007B50190000C032804D0009172
:10B0F0007846FDF763FE00990648052214F052FEDB
:10B10000054A1378002043F00103137003B05DF883
:10B1100004FB00BFAC390020B339002013B5019007
:10B12000000C04280C4602D07846FDF747FE04497F
:10B130000822204602B0BDE8104014F033BE00BF24
:10B14000A439002007B50190000C042804D0009118
:10B150007846FDF733FE00990648082214F022FED7
:10B16000054A1378002043F00203137003B05DF822
:10B1700004FB00BFA4390020B339002000B50A4BFE
:10B180001A7B9B688DB0012A08BF03F1FF3304933B
:10B190000390022301A88DF808208DF80430FFF7F2
:10B1A00027F90DB05DF804FB48390020074A1378F1
:10B1B000590709D50178122906D1054908680549BA
:10B1C0006FF3820348601370704700BFB3390020EB
:10B1D000AC390020483900201FB5124C237859069D
:10B1E00002D47846FDF7EAFD23785A0717D40E4AB1
:10B1F000526802F50052B2F1807F02920FD80B4ADA
:10B2000043F0040312788DF80C2002A94FF440306B
:10B21000237005F02DFA10B17846FDF7CFFD04B08C
:10B2200010BD00BFB339002048390020B4390020D8
:10B230001FB50023ADF80D300C4B9A6802920C4AF2
:10B240001B7B8DF80C3013780133DBB202A94FF46D
:10B25000802013708DF80F3005F00AFA10B178468F
:10B26000FDF7ACFD05B05DF804FB00BF48390020D8
:10B27000B439002008B5002005F072FA14220748FE
:10B28000002114F09DFD064A137823F0600343F07B
:10B2900040031370BDE80840FFF79EBF4839002007
:10B2A000B339002010B50C4C14220021204614F0B4
:10B2B00087FD01F087F8094B094A0A499A60002284
:10B2C000C3E9031258605A61074B6260197862F350
:10B2D000C301197010BD00BF483900202439002077
:10B2E00061B4020000879303B339002037B5264DBF
:10B2F0002B78DB062FD42548254B036000F0E6FDB4
:10B300002448254B036000F0E1FD2B7813F0200268
:10B3100012D103F00303032B204C1ED02260A26045
:10B3200022732282FFF784FF236863602B7843F047
:10B3300040032B70FFF750FF4FF4803005F0EAF91F
:10B340004FF4003005F0E6F9154800F0C7FF2B7800
:10B3500043F010032B7003B030BD124B1A68A2608B
:10B360001A7922739879597941EA00212182D97991
:10B370000D4B19700D4B1879884202D00AB9226022
:10B38000D2E71B682360CFE7B33900203C390020A7
:10B39000FDB4020098390020ADB102004839002008
:10B3A00024390020A4390020B4390020AC39002011
:10B3B000034B187880F00400C0F38000704700BF92
:10B3C000B339002010B501F0B5FC0D4A137BA3B9C9
:10B3D000947B94B9108AFFF705FE70B101231373B3
:10B3E0009368148201339360FFF722FF2046FFF732
:10B3F000C5FE01F0DFFC204610BD0824F9E700BFC0
:10B400004839002010B501F095FC144A547B9CB1DA
:10B41000917B09BB108AFFF7E5FD044660B1137B01
:10B4200051732BB1012B0BD07846FDF7C7FC03E01D
:10B43000FFF7C8FF0028F7D101F0BCFC204610BD83
:10B440000846C2E9001111731182FFF797FEFFF75A
:10B45000EFFEFFF7C1FEEFE70024EDE748390020DB
:10B460001FB5244C227B2AB1012A0FD07846FDF764
:10B47000A5FC1CE0208AFFF7B5FDC0B1FFF7C2FFB5
:10B48000638A0BB1013B638204B010BD218A084678
:10B49000FFF7A8FD58B142F2B013994288BF62731A
:10B4A000FFF7B0FF0028EBD1637B002BE8D1238AA4
:10B4B00001339BB21E2118462382B3FBF1F201FB3C
:10B4C00012339BB2002BDBD1A3680293237B8DF850
:10B4D0000C30094BADF80D001B788DF80F3002A928
:10B4E0004FF4802005F0C4F80028C9D07846FDF755
:10B4F00065FCC5E748390020B439002010B5037851
:10B50000042B0ED143681B785BB11C4B4269197B3D
:10B51000047E69BB598AF9B9012C996802D08A4224
:10B5200003D810BD4C1CA24218D92A318A42F8D83F
:10B53000997B0029F5D184689A60114A1A61998132
:10B54000C3E90011FFF774FEFFF746FE04F1100097
:10B55000BDE81040FFF712BE012CE2D1996801311D
:10B560008A42DED101225A73BDE81040FFF74ABF7C
:10B570000129D6D1012CD4D09968F1E748390020AF
:10B580000000062D10B50C4A1368144628B101209E
:10B590000A4903448873136010BD13B97846FDF758
:10B5A0000DFC2368013B2360002BF5D1034A937304
:10B5B000BDE81040FFF726BF1C39002048390020A5
:10B5C00000B58DB00323ADF8080001A88DF8102058
:10B5D00003918DF80430FEF70BFF0DB05DF804FB0E
:10B5E000014B9868704700BF48390020034B9868AA
:10B5F0001B7B012B08BF00F1FF307047483900204A
:10B6000070B51A4B1B785B0605460E462AD5184CBA
:10B61000D4E900239A4223D2207B164B16490128F5
:10B6200008BF0B469A4207D263682268403B9A42A1
:10B6300008D3FFF7D1FD05E001236373FFF7E2FEB6
:10B640000028F1D0EFF3108272B62368591C2160F4
:10B650003360FFF7CBFF286032B962B6104670BD89
:10B66000FFF7BAFD0F22F9E70022F7E7B339002010
:10B6700048390020FFFF7F0000E0FF00044B9B687B
:10B680005840C20748BF03F1FF331846704700BF58
:10B6900048390020014B187B704700BF4839002013
:10B6A000F8B50F4E337813F02004174615D10D4D21
:10B6B00043F0200333702973A8602C82FFF7B8FD94
:10B6C0002046FFF75BFD337843F04003C5E9007780
:10B6D0003370FFF781FD2046F8BD0820FCE700BF6E
:10B6E000B3390020483900200022FFF7D9BF0000FD
:10B6F0002DE9F3411D4CDFF878800025022120461A
:10B7000002F08AFAEFB201460026B9B96EB12046BE
:10B71000019102F0E8FA0828019906D154F8043C96
:10B720001BB10A463846414698470135032D04F1BE
:10B73000BC04E3D1012002B0BDE8F08154F8043C20
:10B740001BB134F80C2C3846984734F80C3C0221D5
:10B750000133204624F80C3C02F07AFA02212046FC
:10B7600002F05AFA01360146CFE700BFCC3900207B
:10B770006C0B040038B5012104460C3002F04CFA81
:10B78000054628B3164BC4F89C300023C4F8A030FB
:10B7900003786268012B07D0022B1BD07846FDF797
:10B7A0000DFB4FF4FA7307E081688B1A99084FF488
:10B7B000A9734B4303F5FA730A4A934294BFC4F842
:10B7C000A830C4F8A8200123C4F8AC4084F8B830ED
:10B7D000284638BD83689B1A1A0B034B5343E9E78D
:10B7E0000DB8020060850100645E010010B50446DA
:10B7F000FFF7C0FF48B104F19C0006F06BFB20B1DD
:10B800007846BDE81040FDF7D9BA10BD2DE9F74FD5
:10B81000494B1B7807460C463BB106F091FB0023D1
:10B8200084F8B83003B0BDE8F08F01F10C09D1F80D
:10B83000A8504846012102F0EFF9064610B97846B3
:10B84000FDF7BCFADFF8F8A0A5F5FA784FF4A97B6C
:10B8500000253378012BA8EB050506D0022B3BD041
:10B860007846FDF7ABFA00231FE06368B268B5FBCA
:10B87000FBF5D21AAD00954228BF154625B90193B4
:10B880007846FDF79BFA019BF168706823F003038B
:10B890002A4619441844FFF779FB10B17846FDF7A2
:10B8A0008DFA63681D446560B36862689A422AD164
:10B8B00006F046FB4846012102F0CAF90023636006
:10B8C00084F8B8301D4B186801F0C2FA204603B066
:10B8D000BDE8F04FFFF78ABF6368B268B5FBFAF5C1
:10B8E000D21A2D03954228BF154625B901937846F3
:10B8F000FDF764FA019B706823F00303294618449E
:10B90000FFF71CFBC9E701F007F93378C51B48BFF7
:10B910003D1A012B0BD0022B0CD07846FDF74EFAC6
:10B9200000232B44434594D906F00AFBCEE74FF49D
:10B93000A973F6E75346F4E7BC390020B839002074
:10B94000645E010070B51B481B4C01F063FA1B4B91
:10B95000186004F11C0341F203060825636104F139
:10B960000C0004F118032361A681A57302F097F976
:10B9700004F1D803C4F8D03004F1C80004F1D403B2
:10B98000C4F8CC30A4F8C86084F8CA5002F087F933
:10B9900004F5CA73C4F88C3104F5C873A4F8846143
:10B9A00084F88651C4F8883104F5C270BDE870404F
:10B9B00002F075B9F1B60200C0390020B839002094
:10B9C000022838B504460D4602D97846FDF7F6F947
:10B9D0000248BC2303FB0404A56038BDC039002025
:10B9E00002282DE9F84F05460C46914602D97846C3
:10B9F000FDF7E4F914B97846FDF7E0F92378012B57
:10BA000012D16368990702D07846FDF7D7F9E36849
:10BA10009A0702D07846FDF7D1F9A3689B0711D0A9
:10BA20007846FDF7CBF90DE0022B0DD16368C3F327
:10BA30000B0313B17846FDF7C1F9A368C3F30B03F9
:10BA4000002BEDD1A36813B97846FDF7B7F9EFF3F2
:10BA5000108872B6BC26234F6E4306F10C0BBB4414
:10BA60000021584602F0D8F8824690B3002158468B
:10BA700002F0EEF810222146504614F093F9B9F185
:10BA8000000F03D0BB195B88A9F80030BC2000FB75
:10BA900005756B8895F8B84001336B8004BB124B79
:10BAA0001D78BDB9B819FFF765FEB8F1000F0ED1CA
:10BAB00062B6444640B106F19C00384406F00AFAEA
:10BAC00010B17846FDF77AF92046BDE8F88F2C468C
:10BAD000F0E70424B8F1000FF6D1A0460020E7E714
