:020000022000DC
:1060000000FD0020FDF9030025FA030027FA030034
:1060100029FA03002BFA03002DFA03000000000008
:106020000000000000000000000000002FFA030044
:1060300031FA03000000000033FA030035FA0300D0
:1060400037FA030037FA030037FA030037FA030080
:1060500037FA030037FA0300198E020037FA0300FB
:1060600037FA030037FA03009130030037FA0300D0
:1060700037FA030037FA030037FA030037FA030050
:1060800037FA030061CE0300E9E2020037FA0300A9
:1060900031CF030037FA0300259C020037FA0300D2
:1060A00037FA030037FA030037FA030037FA030020
:1060B00037FA030037FA0300000000000000000078
:1060C00037FA030037FA030037FA030037FA030000
:1060D00037FA030037FA030037FA03000000000024
:1060E00000000000000000000000000000000000B0
:1060F00000000000000000000000000000000000A0
:10610000000000000000000000000000000000008F
:10611000000000000000000000000000000000007F
:10612000000000000000000000000000000000006F
:10613000000000000000000000000000000000005F
:10614000000000000000000000000000000000004F
:10615000000000000000000000000000000000003F
:10616000000000000000000000000000000000002F
:10617000000000000000000000000000000000001F
:10618000000000000000000000000000000000000F
:1061900000000000000000000000000000000000FF
:1061A00000000000000000000000000000000000EF
:1061B00000000000000000000000000000000000DF
:1061C00000000000000000000000000000000000CF
:1061D00000000000000000000000000000000000BF
:1061E00000000000000000000000000000000000AF
:1061F000000000000000000000000000000000009F
:1062000010B5054C237833B9044B13B10448AFF3F0
:1062100000800123237010BD682F002000000000C3
:10622000F433040008B5034B1BB103490348AFF333
:10623000008008BD000000006C2F0020F433040033
:10624000154B002B08BF134B9D46A3F5803A002148
:106250008B460F461348144A121A1AF0F9FF0F4BD7
:10626000002B00D098470E4B002B00D09847002001
:10627000002104000D000D48002802D00C48AFF3A7
:1062800000801AF095FF2000290000F00DFD1AF0A3
:106290007BFF00BF0000080000FD002000000000A0
:1062A00000000000682F0020406000200000000077
:1062B0000000000041DF704737B51D462A4B0A88B1
:1062C0001B680C4603F4804342BBBBB1274B1B68E1
:1062D000032B13DD26482F211BF08CF8A8B12F21AA
:1062E00023481BF087F8411C224B234AD3F804357E
:1062F0000092042040F24F1209F006F8069B022299
:106300001A8023882B8003B030BD19485C211BF014
:1063100071F808B15C21E3E71549E5E7002BEDD002
:10632000124B1B68032BE9DD11482F211BF062F88B
:1063300088B12F210E481BF05DF8411C0D4B2288BF
:10634000D3F8043501920D4A009204204FF4AA724A
:1063500008F0DAFFD2E706485C211BF04BF808B1E1
:106360005C21E7E70249E9E7B02E0020AC2E0020CF
:106370008C14040000100140B1140400D514040072
:1063800037B51D462A4B0A881B680C4603F4804328
:1063900042BBBBB1274B1B68032B13DD26482F21C3
:1063A0001BF028F8A8B12F2123481BF023F8411C2B
:1063B000224B234AD3F80435009204204FF49B72F9
:1063C00008F0A2FF069B02221A8023882B8003B0CC
:1063D00030BD19485C211BF00DF808B15C21E3E7E2
:1063E0001549E5E7002BEDD0124B1B68032BE9DDC7
:1063F00011482F211AF0FEFF88B12F210E481AF004
:10640000F9FF411C0D4B2288D3F8043501920D4A47
:10641000009204204FF49E7208F076FFD2E70648FF
:106420005C211AF0E7FF08B15C21E7E70249E9E7E0
:10643000B02E0020AC2E00208C140400001001406F
:10644000FF140400D514040070B51E46194B1B68D8
:106450005B0486B00D4614461BD5174B1B68032BF7
:1064600017DD16482F211AF0C5FFC8B12F21134898
:106470001AF0C0FF411C124B124AD3F804350092A7
:10648000CDE90344CDE9015540F21D12042008F086
:106490003BFF0A9B04221A803580748006B070BDD1
:1064A00006485C211AF0A6FF08B15C21DFE703492A
:1064B000E1E700BFB02E0020AC2E00208C140400B9
:1064C000001001402215040070B51A4B1B6886B0FD
:1064D0005B040B9E0D4614461BD5174B1B68032B04
:1064E00017DD16482F211AF085FFC8B12F21134858
:1064F0001AF080FF411C124B124AD3F80435009267
:10650000CDE90344CDE901554FF48472042008F02D
:10651000FBFE0C9B04221A803580748006B070BD8F
:1065200006485C211AF066FF08B15C21DFE70349E9
:10653000E1E700BFB02E0020AC2E00208C14040038
:1065400000100140221504007FB51E46164B1B6843
:106550005B040C46154618D5144B1B68032B14DD41
:1065600013482F211AF046FFA0B12F2110481AF02E
:1065700041FF411C0F4B104AD3F804350092CDE97E
:106580000144F522042008F0BFFE022333802C8052
:1065900004B070BD06485C211AF02CFF08B15C21E4
:1065A000E4E70349E6E700BFB02E0020AC2E002050
:1065B0008C1404000010014075150400F0B5174656
:1065C00087B01E460C46002952D0422950D0324B8B
:1065D0001B685A0419D5314B1B68002B15DD304858
:1065E0002F211AF007FF002839D02F212C481AF04C
:1065F00001FF411C2B4B2C4AD3F804350092CDE906
:106600000144CD22012008F07FFE35880135ADB26E
:106610003388AB4237D2204B1B685B041BD51F4B22
:106620001B68002B17DD1E482F211AF0E3FE08B36C
:106630002F211B481AF0DEFE411C3288194BD3F87B
:106640000435CDE90352194A0092CDE90144D8221C
:10665000012008F059FE0023338007B0F0BD104838
:106660005C211AF0C7FE08B15C21BFE70C49C1E705
:106670000125CDE70A485C211AF0BCFE08B15C2177
:10668000D7E70749D9E70A4B0021187801F0B8FB92
:1066900001233870E0E700BFB02E0020AC2E0020B0
:1066A0008C14040000100140A0150400C71504005C
:1066B0008D30002007B5174B1B685B0417D5164BB0
:1066C0001B68032B13DD15482F211AF093FEC0B170
:1066D0002F2112481AF08EFE411C114B114AD3F89B
:1066E00004350092042040F2651208F00DFE0322EA
:1066F000C8210F2002F03EF903B05DF804EB01F071
:10670000E5BE06485C211AF075FE08B15C21E0E7A1
:106710000249E2E7B02E0020AC2E00208C140400C9
:10672000001001401216040073B56C4D2B6804462E
:10673000461C580418D56A4B1B68032B14DD6948A6
:106740002F211AF057FEC0B12F2166481AF052FED1
:10675000411C654B654AD3F804350092019640F21E
:106760008F12042008F0D0FD013E042E00F2838039
:10677000DFE806F00C3A41484F005A485C211AF015
:1067800039FE08B15C21E0E75649E2E7584A137840
:10679000012B38BF0123013B13702B685B041CD510
:1067A0004F4B1B68032B18DD4E482F211AF022FE99
:1067B000002800F087802F214A481AF01BFE411C58
:1067C0004B4A494B1278D3F804350192494A00925A
:1067D00004204FF4E67208F097FD4748422102B0CA
:1067E000BDE8704001F055BD414A13780A2B38BF0F
:1067F0000A230A3BD0E73E4A1378632B28BF632362
:106800000133C9E73A4A13785A2B28BF5A230A336F
:10681000C2E701F059FE40B10EF04EFF01F0FAFD63
:1068200002B0BDE87040FFF745BF2B68590417D58B
:106830002B4B1B68032B13DD2A482F211AF0DAFD9E
:1068400080B12F2127481AF0D5FD411C264B2B4A39
:10685000D3F80435009204204FF4E07208F054FDA0
:1068600002B070BD1F485C211AF0C4FD08B15C2164
:10687000E8E71C49EAE72B685A042CD5184B1B683B
:10688000032B28DD17482F211AF0B4FD88B12F21E2
:1068900014481AF0AFFD411C134B194AD3F80435C4
:1068A000009204204FF4E37208F02EFD032CD7D899
:1068B00073E70C485C211AF09DFD08B15C21E7E705
:1068C0000849E9E707485C211AF094FD08B15C210A
:1068D00072E7044974E7032CC2D87EE7B02E00208B
:1068E000AC2E00208C140400001001402B16040074
:1068F0008D30002075160400F42D00203E16040093
:10690000481804000378232B01D1FFF7D3BE70474A
:1069100013B52B4C2268520418D52A4B1B68032B45
:1069200014DD29482F211AF065FD002835D02F21CC
:1069300025481AF05FFD411C244B254AD3F8043545
:106940000092042040F2012208F0DEFC21480021E0
:1069500000F05EFC08B119F06FF823685B041AD5EB
:10696000184B1B68032B16DD17482F211AF042FD28
:10697000E0B12F2114481AF03DFD411C154A134B7C
:106980001288D3F804350192134A0092042040F291
:10699000072208F0B9FC02B010BD0B485C211AF0C8
:1069A00029FD08B15C21C3E70749C5E706485C211A
:1069B0001AF020FD08B15C21DCE70349DEE700BFE7
:1069C000B02E0020AC2E00208C14040000100140DA
:1069D00093160400F42D0020B316040013B51A4BCF
:1069E0001B685B04044617D5184B1B68032B13DD8B
:1069F00017482F211AF0FEFCE0B12F2114481AF09D
:106A0000F9FC411C134B144AD3F8043500920420BE
:106A100040F2751208F078FC00210F2001F094FF7D
:106A200004EB840462003221032002B0BDE8104070
:106A300001F0A0BF06485C211AF0DCFC08B15C2123
:106A4000DCE70349DEE700BFB02E0020AC2E0020BB
:106A50008C14040000100140E716040007B5154B24
:106A60001B685B0417D5144B1B68032B13DD1348FD
:106A70002F211AF0BFFC98B12F2110481AF0BAFC50
:106A8000411C0F4B0F4AD3F804350092042040F20A
:106A9000FB1208F039FC03B05DF804EB01F0B0BF65
:106AA00006485C211AF0A6FC08B15C21E5E7034921
:106AB000E7E700BFB02E0020AC2E00208C140400AD
:106AC000001001400617040007B5154B1B685B0456
:106AD00017D5144B1B68032B13DD13482F211AF015
:106AE00089FC98B12F2110481AF084FC411C0F4BEF
:106AF0000F4AD3F80435009204204FF4BF7208F017
:106B000003FC03B05DF804EB01F07ABF06485C219A
:106B10001AF070FC08B15C21E5E70349E7E700BF24
:106B2000B02E0020AC2E00208C1404000010014078
:106B30001C1704001FB503A815F0A6F8154B1B6819
:106B40005B041AD5144B1B68032B16DD13482F2149
:106B50001AF050FCA0B12F2110481AF04BFC411C38
:106B60000F4BBDF80C20D3F8043501920D4A00926A
:106B700004204FF4F27208F0C7FB05B05DF804FB87
:106B800006485C211AF036FC08B15C21E4E70349B1
:106B9000E6E700BFB02E0020AC2E00208C140400CD
:106BA000001001403B17040007B51C4B1B685B0439
:106BB00017D51B4B1B68032B13DD1A482F211AF026
:106BC00019FC10B32F2117481AF014FC411C164B66
:106BD000164AD3F804350092042040F2E91208F076
:106BE00093FB02F08BFB02F0B1FBFFF7A3FF01F078
:106BF00007FF00210F2001F0A7FE0422C8210F206B
:106C000003B05DF804EB01F0B5BE06485C211AF054
:106C1000F1FB08B15C21D6E70249D8E7B02E00208D
:106C2000AC2E00208C140400001001405217040008
:106C300007B53138042806D9164B1B685B0407D406
:106C400003B05DF804FB03B05DF804EBFFF76CBD27
:106C5000114B1B68032BF3DD10482F211AF0CAFBE0
:106C600078B12F210D481AF0C5FB411C0C4B0D4A81
:106C7000D3F80435009204204FF4EE7208F044FB80
:106C8000DEE706485C211AF0B5FB08B15C21E9E7B4
:106C90000249EBE7B02E0020AC2E00208C1404003B
:106CA000001001404818040000B54FF08043012255
:106CB000854CC3F878254FF4C040844A8DB0042138
:106CC00008F006FB2368580419D5814B1B68032B79
:106CD00015DD80482F211AF08DFB002800F0B680CA
:106CE0002F217C481AF086FB411C7B4B7B4AD3F852
:106CF00004350092042040F2332208F005FB16F020
:106D00005FFA20B1734A40F2352118F0A2FE01F07B
:106D100087FE734801F0B2FE20B16E4A40F239217D
:106D200018F097FE02F0AEFA02F0E8FA02F00EFB5D
:106D30000021202203A81AF08BFA01238DF80C30D1
:106D400007238DF80F3006238DF81430654B079319
:106D50006549664B0B9303A801F06AFB20B30B282F
:106D600040F0A380236859041ED5594E3268032A87
:106D70001ADD58482F211AF03DFB00286FD02F2133
:106D800054481AF037FB411C534D594AD5F8043585
:106D90000092042040F21B2208F0B6FA23685A043D
:106DA00002D53368032B63DC5248642101F012FDE5
:106DB0004D4B1B78002B7BD103934F4B04934F4BD0
:106DC00005934F4B06934F4B07934F4B089303A8E4
:106DD0004E4B099301F0A2FC20B13E4A40F25721EC
:106DE00018F037FE03F096F902F0BEF801F084FACD
:106DF00020B1384A4FF4187118F02BFE23685B0459
:106E000018D5334B1B68032B14DD32482F211AF0A1
:106E1000F1FA00284FD02F212E481AF0EBFA411C2E
:106E20002D4B3B4AD3F804350092042040F26222F5
:106E300008F06AFA00210F2001F086FD0222C82125
:106E40000F2001F097FDFFF735FAFCE721485C21A0
:106E50001AF0D0FA08B15C2143E71E4945E71D4806
:106E60005C211AF0C7FA08B15C2189E719498BE760
:106E700018482F211AF0BEFA70B12F2115481AF0C8
:106E8000B9FA411C234AD5F80435009204204FF486
:106E9000077208F039FA87E70E485C211AF0AAFA5F
:106EA00008B15C21EAE70B49ECE718F0C5FD7BE788
:106EB000FFF740FE96E707485C211AF09BFA08B1FD
:106EC0005C21A9E70349ABE7B02E0020A5F2020040
:106ED000AC2E00208C140400001001406C1704003C
:106EE00029670200056902008C2F00201169020049
:106EF00095170400316C0200A96B0200DD690200E5
:106F0000C96A02005D6A02001F180400C11904006A
:106F100048180400E31704001FB50446016C0191F2
:106F200001F09EF901990DF10E02204601F012F9CF
:106F3000BDF80E2001995223A01C11F0F9FD04B0F8
:106F400010BD73B51146DDE906651A46044608B161
:106F500006B135B9CDE90012784603F0A3F8DDE9B2
:106F60000012236C33600695256A2046AC4602B0B9
:106F7000BDE87040604773B5069E11461D46044645
:106F800008B103B126B90191784603F08BF8019955
:106F9000226C2A60A56933462046AC4602B0BDE8A3
:106FA0007040604773B51146DDE906651A46044630
:106FB00008B106B135B9CDE90012784603F072F890
:106FC000DDE90012236C33600695A56A2046AC46C5
:106FD00002B0BDE87040604773B51146DDE9066553
:106FE0001A46044608B106B135B9CDE90012784613
:106FF00003F058F8DDE90012236C33600695656AEA
:107000002046AC4602B0BDE8704060472DE9F04133
:1070100088B01146DDE910761A46BDF83C800E9B1B
:10702000044608B107B146B9CDE906230591784673
:1070300003F038F8DDE906230599256C3D60CDE9BC
:107040000156CDF800802046E769B84732885B23B7
:107050002946204608B0BDE8F04111F082BD00008D
:107060002DE9FF471646DDE90DA8BDF830901D4615
:10707000044630B12BB1BAF1000F02D0B8F1000FC5
:1070800002D1784603F00EF8276CCAF800702B88FE
:10709000B34221D0204B1B685B041AD51F4B1B68E1
:1070A000002B16DD1E482F211AF0A4F938B32F212A
:1070B0001B481AF09FF9411C2A881A4BD3F8043553
:1070C000CDE90162184A009201204FF4AF7208F036
:1070D0001BF9784602F0E6FFCDF800803B464A46B1
:1070E0002946204600F098FE90B1B8F800205723BA
:1070F0003946204604B0BDE8F04711F032BD0848DB
:107100005C211AF077F908B15C21D1E70449D3E793
:1071100004B0BDE8F08700BFB02E0020AC2E0020E8
:10712000D119040000100140F519040073B5069E42
:1071300011461D46044608B103B126B901917846AF
:1071400002F0B0FF0199226C2A603346204602B05B
:10715000BDE8704000F0D4BE2DE9F041069F164610
:107160009846044608B103B117B9784602F09AFF71
:10717000256CC8F8005076B93A462946204600F0FA
:10718000E9FF3B882BB903233B80FF232B70A5F835
:107190000160BDE8F0813B462A463146204600F0BA
:1071A000B7FFEEE7F7B5089DADF806201E4604468A
:1071B00008B103B115B9784602F074FF206CBDF830
:1071C00006303060228F3BB9D20092B22A80216D06
:1071D0001AF030F803B0F0BD00210A278EB2B24297
:1071E0000CD9E66B07FB01FE01F1010C36F80E60CD
:1071F0009E4208D1236D13EBC10106D102222A80E1
:107200000DF10601E4E76146E8E708222A80DFE79E
:10721000F7B504460191002840D000F093FEE66BDC
:10722000276D019900254FF00A0C228FABB29A42CC
:1072300009D81C4B2361E36AE360204603B0BDE834
:10724000F04011F0A7BCA8B20CFB00FE06EB0E024A
:1072500036F80EE027F830E007EBC003907898701E
:10726000D07800F00F0ED87820F00F0040EA0E0022
:10727000D870107900F00F0ED87800F00F0040EAB7
:107280000E10D8709088C0F307101871907958715B
:10729000D0799871127ADA710135C6E70E2003B001
:1072A000F0BD00BF201A0400422801D04D2804D1AF
:1072B000002914BF02200120704700207047422897
:1072C00070B506460D461ED04D38414241412980D9
:1072D00030460021FFF7E8FF012104463046FFF762
:1072E000E3FFA04238BF204680B21080298800EB1F
:1072F0004100583040001880288818B110880038A4
:1073000018BF012070BD0121E1E738B50D460446E4
:1073100010B9784602F0C6FEA06C00B938BDB0F8CE
:10732000A430AB42FAD00068F7E710B5044610B9B4
:10733000784602F0B7FED4F89430D4F88820187854
:10734000D4F88C3012781B78934208D3824204D848
:10735000834234BF0020012010BD0020FCE78242A0
:1073600004D3834294BF00200120F5E70120F3E716
:10737000F8B504460D46022200F1A401284619F092
:1073800059FF94F8A63003F07F03AB7094F8A72060
:1073900043EAC213AB7094F8A710B4F8A400FFF747
:1073A00083FF002399B2CA1C884292B221D80023DD
:1073B000C71C99B217FA83F2884296B215FA82F284
:1073C0001DD8400094F8A8301370043080B2002318
:1073D000B4F8AA101A18994292B216D80023B4F839
:1073E000AA6099B212FA83F08E4280B214D828466D
:1073F000F8BDD4F88010C95CA9540133D2E7D4F8A1
:107400008420D25CAA550133D3E7D4F88810C95C34
:10741000A95401339BB2DBE7D4F88C6099B20133F5
:10742000715C2954DBE7000030B50446B0F8AA309F
:10743000C06FD4F894204569B4F8A41087B0ADF8B3
:1074400016300DF11603A847B4F8AA20BDF816307F
:107450009A4224D0174B1B685B041DD5164B1B6842
:10746000002B19DD15482F2119F0C4FFC8B12F21B9
:10747000124819F0BFFF411C114BBDF81620D3F87C
:1074800004350292B4F8AA2001920E4A009201201B
:1074900040F2C92207F038FF784602F003FE07B039
:1074A00030BD06485C2119F0A5FF08B15C21DFE77B
:1074B0000249E1E7B02E0020AC2E0020481A04005B
:1074C00000100140721A040030B585B000230DF1A0
:1074D0000F020DF10E018DF80F3012F061FF002840
:1074E00033D19DF80E30032B11D81D4A32F81320EA
:1074F0009DF80F000023A0FB024500FB03554FF44D
:107500007A73A4FB030103FB051105B030BD154BD5
:107510001B685B0419D5144B1B68002B15DD134841
:107520002F2119F067FF90B12F21104819F062FF49
:10753000411C0F4B9DF80E20D3F8043501920D4AE3
:10754000009201209B2207F0DFFE0022D0E70748CF
:107550005C2119F04FFF08B15C21E6E70349E8E739
:10756000CA1D0400B02E0020AC2E0020BC1A04005E
:1075700000100140EF1A04002DE9F34116461F46A2
:10758000044610B9784602F08DFD04F10808404623
:1075900011F0F1FBD4F898302046984718B9012033
:1075A00002B0BDE8F08194F8A610C1F12005A1F168
:1075B000200026FA01F207FA05F52A4327FA00F01F
:1075C00027FA01F30243BB4208BFB242E7D294F864
:1075D000A8504FF47A7CA5F12000C5F120010CFAE7
:1075E00000F02CFA01F140EA01079F420CFA05F67F
:1075F00008BF964238BF1F46274B38BF1646D3E90F
:1076000000239F4208BF964238D3244D244AF903F1
:10761000F003401941EA56414FF000054FF00003D6
:1076200045EB010119F034FC0025C4E90401257281
:10763000404611F078FB04460028B0D0194B1B6877
:1076400013F4804318D0184B1B68AB4222DD174857
:107650002F2119F0CFFEA0B12F21144819F0CAFE36
:10766000411C134B134AD3F804350092019440F2A5
:107670009522012007F048FE002091E721200021FB
:10768000D2E70A485C2119F0B5FE08B15C21E4E7B5
:107690000649E6E7284683E7D030002020A107000E
:1076A00040420F00B02E0020AC2E0020481A0400EB
:1076B000001001401B1B0400F0B5244EC56FD0F82C
:1076C000A030B5F84C203168B0F8AE7085B00446F3
:1076D000984787422FD1A81CB4F8AE2031685223B6
:1076E00011F026FA054640B9D4E92401B4F8AA20DD
:1076F00005B0BDE8F04019F09DBD154B1B685B045B
:1077000019D5144B1B68002B15DD13482F2119F0D8
:1077100071FE90B12F21104819F06CFE411C0F4BE7
:107720000F4AD3F804350092CDE901554FF4ED72BC
:10773000012007F0E9FD05B0F0BD07485C2119F014
:1077400059FE08B15C21E6E70349E8E7D83000209C
:10775000B02E0020AC2E0020481A0400001001407A
:10776000501B0400F8B590F87830044600F140054D
:10777000A3B3002780F87870FFF79EFF94F8A81055
:107780004FF47A7000FA01F2A1F1200CC1F1200649
:10779000154900FA0CF320FA06F6D1E9000133434B
:1077A0008B4208BF824216D3104ED903D00341EA60
:1077B000524180190E4A4FF0000347EB010119F0C6
:1077C00067FB0023C4E9120184F840302846BDE875
:1077D000F84011F0A8BA21200021F2E72846BDE8C0
:1077E000F84011F0C8BA00BFD030002020A1070037
:1077F00040420F00F8B500F140050446284611F05C
:107800008FFA18B1012384F87830F8BD2046FFF7CD
:1078100053FF94F8A8104FF47A7000FA01F2A1F126
:10782000200CC1F12007144900FA0CF320FA07F7E5
:10783000D1E900013B438B4208BF824218D30F4E6F
:10784000D903D00341EA524180194FF000060C4A97
:107850004FF0000346EB010119F01AFB0023C4E9C5
:10786000120184F840302846BDE8F84011F05BBAB8
:1078700021200021F2E700BFD030002020A1070026
:1078800040420F00D0B5C36F04465888FFF71CFE76
:1078900006460F462046FFF7C7FD56EA070309D004
:1078A0002046FFF7A7FF32463B462046BDE8D040C2
:1078B000FFF762BED0BD10B5B0F8AA3001339342D5
:1078C0001DDA0022B0F8AA3094B29C420FD3013BDB
:1078D000B0F8A4205B0003F01E0343EA4213D20871
:1078E0000B704A70B0F8AA00023080B210BD93B29B
:1078F000D0F89440E45C0B4401329C70E2E7002035
:10790000F4E710B5B0F8AA30023393421FDA002230
:10791000B0F8AA3094B29C420FD3B0F8A420A3B11F
:10792000013BDBB25B0043F001030B70A1F80120C7
:10793000B0F8AA00033080B210BD93B2D0F89440E2
:10794000E45C0B440132DC70E2E77F23EAE70020CD
:10795000F2E70000F8B5044615460F46BDF81820BA
:1079600000211E4619F074FC102DA4F8A470A4F890
:10797000AA50A4F8AC6026D8B7F5006F23D2A81C93
:1079800080B2102DA4F8AE001FD81149114BB7F5E5
:10799000006F2CBF0F461F4604F1B0014B19C4F80D
:1079A000881001EB4501C4F8901029444A19C4F825
:1079B00080203244C4F8A070C4F88C30C4F894100D
:1079C000C4F88420F8BDE81CDAE7014FE4E700BF03
:1079D00003790200B77802002DE9F04F054689B01F
:1079E00014460DF11E0002220F4619F023FCB5F8D3
:1079F000A430BDF81E0098422BD06D4B1B68590473
:107A00001CD56C4B1B68002B18DD6B482F2119F01F
:107A1000F1FCA8B12F21684819F0ECFC411C674B20
:107A2000BDF81E20D3F804350292B5F8A4200192C7
:107A3000634A009201209C2207F066FC0B20B2E012
:107A40005D485C2119F0D6FC08B15C21E3E75A4996
:107A5000E5E797F80280A31E18F070029BB204922B
:107A60002BD0534B1B685A04E8D5524B1B68002B94
:107A7000E4DD51482F2119F0BDFCA8B12F214E485B
:107A800019F0B8FC411CBA784C4B02F07F02002080
:107A9000D3F804350192CDE902204A4A0092AF2280
:107AA000012007F031FCC9E743485C2119F0A2FC32
:107AB00008B15C21E3E74049E5E74FEAD811FFF759
:107AC000F3FB8342064671D9441C1FFA84FB10FA6B
:107AD00084F4A3426ADBA4B2A34267D307F102098C
:107AE00019F804A0BAF11A0F26D9314B1B685B04B0
:107AF000A4D5304B1B68002BA0DD2F482F2119F097
:107B000079FC80B12F212C4819F074FC411C19F824
:107B100004202A4BD3F804350192CDE902242A4AE5
:107B20000092D322BCE724485C2119F063FC08B121
:107B30005C21E8E72049EAE7B5F8AA00621C94B2A4
:107B400010FA82F2934231DB1FFA82FC10FA82F2C1
:107B500093422BDB08F07F0809EB0C0385F8A71094
:107B60003246F91CD5F8800085F8A680059319F0F7
:107B700061FB324609EB0B01D5F8840019F05AFB82
:107B8000B5F8AA20D5F8880085F8A8A009EB04016B
:107B900019F050FB059BB5F8AA20D5F88C001946C2
:107BA00019F048FB049809B0BDE8F08F0920FAE706
:107BB000B02E0020AC2E0020481A04000010014016
:107BC000821B0400B71B0400051C04002DE9F047CC
:107BD000074686B010B9784602F064FAD7F89430B8
:107BE00097F8A7101E78D7F890301C78B246D7E9DE
:107BF0002032254600294DD0002C00F08780A64277
:107C000034BFA51B751BB3F80090414BB2F8008040
:107C10001B6834BFADB2ADB24FF0640000FB05F09D
:107C2000B0FBF4F000EB800000EB800034BF4F4667
:107C3000474680005A0485B21CD5364B1B68042B7E
:107C400018DD35482F2119F0D5FBD0B12F2132484E
:107C500019F0D0FB411C314B314AD3F80435009266
:107C6000CDE90495CDE9024801964FF49F720520B5
:107C700007F04AFBBD4234BF0020012006B0BDE83A
:107C8000F08725485C2119F0B5FB08B15C21DEE7DF
:107C90002149E0E71F781E4B92F800801B685B04C7
:107CA00020D51C4B1B68042B1CDD1B482F2119F011
:107CB000A1FBF8B12F21184819F09CFB411CAA45E3
:107CC000164B8CBF321BA21BD3F804350196CDE9AD
:107CD0000472144A0092CDE902484FF48E720520D6
:107CE00007F012FBAA450ED9341B4445B4BF00204F
:107CF0000120C3E708485C2119F07CFB08B15C2136
:107D0000D9E70549DBE7A41BBC42EFE70120B5E753
:107D1000B02E0020AC2E0020481A040000100140B4
:107D2000561C0400B61C0400F7B504460E46154662
:107D300002B111B9784602F0B5F914B92C8003B03C
:107D4000F0BDB4F8AE302B802046FFF76DFBD4F8C1
:107D5000A0302A88B4F8AE70314620469847874252
:107D6000EDD0154B1B685B0417D5144B1B68002B1B
:107D700013DD13482F2119F03DFBA0B12F2110482E
:107D800019F038FB411C0F4B0F4AD3F80435009211
:107D9000012040F2173207F0B7FA784603B0BDE889
:107DA000F04002F07FB906485C2119F023FB08B1CE
:107DB0005C21E4E70249E6E7B02E0020AC2E00206B
:107DC000481A0400001001400C1D040038B50D468F
:107DD000044610B9784602F065F994F8A710B4F893
:107DE000A400FFF761FAB4F8AA300230184440004A
:107DF0002880E36F2046196CBDE83840FFF7B8BA19
:107E0000012938B504460D4602D9784602F04AF9F0
:107E10006000C0B2284338BD2DE9F347DDF8288063
:107E20000C4616461F46054620B119B113B1B8F1EC
:107E3000000F02D1784602F035F96888FFF744FB5D
:107E40008246894628462188FFF75FFA054698B999
:107E5000264B1B685A0424D4002D14BF0023022390
:107E6000A8F8003002222146384619F0E3F900262E
:107E7000304602B0BDE8F087022EE9D932462146ED
:107E8000FFF7AAFD0028E3D152464B462846FFF7EC
:107E900073FB06460028DBD041462846FFF796FFD5
:107EA000E6E7134B1B68002BD6DD12482F2119F093
:107EB000A1FA88B12F210F4819F09CFA411C0E4BF2
:107EC0002288D3F8043501920C4A0092012040F236
:107ED000A73207F019FABFE706485C2119F08AFAC1
:107EE00008B15C21E7E70349E9E700BFB02E0020B5
:107EF000AC2E0020481A040000100140251D04008B
:107F000073B515461C46ADF80610064608B102B119
:107F100013B9784602F0C6F80023BDF80610238096
:107F20003046FFF7F2F940B9022222800DF1060136
:107F3000284619F07FF902B070BD2146FFF746FFD1
:107F4000F9E700002DE9F04F054687B010B97846F3
:107F500002F0A8F8624B634FDFF8AC81DFF8AC9118
:107F60004FF47A700021C3E900010026A5F84C60A7
:107F7000AE64EB6A1A785FFA86FA524508D8B5F80B
:107F80004C000AF06EFC584B186007B0BDE8F08F4B
:107F90000AF1010233F81240422C6FD10DF11603A1
:107FA00005AA0DF112012046FFF789F910B97846AC
:107FB00002F078F8BDF816000AF053FC04460028D9
:107FC00040F082803B685A041AD5D8F80030002B64
:107FD00016DD46482F2119F00DFA002845D02F2133
:107FE000424819F007FA411CBDF81620D9F80435AB
:107FF00001923F4A0092012040F24F2207F084F99B
:10800000784602F04FF80023A4F8A6300A2384F83B
:10801000A830E5672A6B374BE36102EB8A02A26264
:10802000A46104F1080010F0BDFE6B6B24654FEAFB
:108030008A0B5B442366304B636504F1400010F00B
:10804000B1FE2E4BC4F898302D4BC4F89C30B5F8D7
:108050004C30B4F8AE201344A5F84C30214605F15D
:10806000480007F0B6F8013683E720485C2119F094
:10807000C1F908B15C21B3E71C49B5E73B685B0473
:10808000F1D5D8F80030002BEDDD18482F2119F07C
:10809000B1F980B12F21154819F0ACF9411C194AEA
:1080A000D9F804350092CDE9014440F20A4201209A
:1080B00007F02AF9D7E70D485C2119F09BF908B1C0
:1080C0005C21E8E70949EAE7BDF816300093BDF8FE
:1080D0001220BDF814304221FFF73CFC93E700BFAB
:1080E000D0300020B02E0020D8300020481A0400E4
:1080F0005F1D040085780200657702002B73020083
:10810000CD7B0200821D0400AC2E00200010014037
:10811000F7B516461F46044608B102B123B90191CE
:10812000784601F0BFFF01992046FFF7EEF83A4686
:1081300005463146FFF7F8FD55B16088FFF7C4F9F1
:1081400002460B46284603B0BDE8F040FFF714BADC
:1081500003B0F0BD2DE9F04F2DED028B884685B0C0
:108160001746054608B101B112B9784601F09AFFE9
:108170006888DFF8E4A0DFF8E4B0FFF7A5F900268F
:108180003E8008EE100A08EE901AB5F84C90AC6CE0
:1081900084B9B5F84C20DAF80010A2EB090292B2CB
:1081A0003A80404619F046F8284605B0BDEC028BEF
:1081B000BDE8F08F2046FFF737F9DAF80010B4F881
:1081C000AE3003934A46D4F8A03031442046984755
:1081D000039B83421ED0DBF800305B0417D51A4B9B
:1081E0001B68002B13DD19482F2119F003F910B378
:1081F0002F21164819F0FEF8411C154B154AD3F8EB
:1082000004350092012040F2414207F07DF87846A3
:1082100001F048FF18EE102A204618EE903AFFF7BA
:10822000ABF9B4F8AE2024681644A9EB0209B6B243
:108230001FFA89F9ACE705485C2119F0DBF808B1B1
:108240005C21D6E70149D8E7AC2E0020481A04008B
:1082500000100140AF1D0400D8300020B02E0020D7
:10826000F8B5044610B9784601F01CFFA46C00254F
:1082700001270CB92846F8BD94F8A86004F108005D
:1082800007FA06F610F077FDB542246838BF354688
:10829000EFE737B5056CFFF738F8044678B10DF114
:1082A00006022946FFF740FDD4F89C302046984747
:1082B00018B12046FFF79EFA002003B030BD05201C
:1082C000FBE700000378142B05D1C3880F2B9EBF5A
:1082D000014B01221A7070473431002010B504465A
:1082E00007F0B0FD38B123780E2B04D1BDE8104063
:1082F000002004F0BFBF10BD08B514F05FFD20B131
:108300000CF0ACFE08B10CF027FEBDE8084004F00C
:10831000DFBE000070B5837DC27D86B043EA0223D4
:10832000ADF814300546012305A80E46ADF8163009
:1083300013F076FC044610BB288A04AA294613F0E1
:108340004FFE0446D8B9BDF81010E88A0DF11203AB
:10835000324614F055F8044688B9297ED5F8120043
:1083600001F0010104F034FB044640B92B7E9A076A
:1083700008D4BDF812000FF0EBFE044690B1204681
:1083800006B070BDBDF81000294613F0D7FE0446B4
:108390000028F4D1BDF8100013F038FF044600287F
:1083A000E7D0ECE7164B1B681B03E8D5154B1B68A1
:1083B000062BE4DD14482F2119F01CF8B0B12F2151
:1083C000114819F017F8411C2A7E104B02F00102E7
:1083D000D3F804350292D5F8122001920C4A00928B
:1083E00007204FF4837206F08FFFC8E706485C2130
:1083F00019F000F808B15C21E2E70349E4E700BFA7
:10840000B02E0020AC2E0020D21D04000010014030
:10841000F11D040008B505F092FA11F01DFE13F0ED
:108420009FFB04F09BF8BDE8084008F037B9000056
:1084300073B50E46054600283ED004F0DBFD044629
:10844000002836D113F0DAFB11F01AFE28690FF07C
:108450004FFE044668BB2B7F0193AB690093014636
:108460006B691648592210F0F3F8044608BB2B6AD2
:1084700003B19847124804F09DFE09F033FB104801
:1084800004F09AFE13F00CFB054611F05DFB0B2D7A
:1084900004D00B2802D00B4B1B7813B1FFF7BAFFA7
:1084A0000B2414F08BFC054608B10CF0F9FC06B166
:1084B0003570204602B070BD0E24FAE7DC30002093
:1084C000502E00203431002014F078BC08B507F09D
:1084D000B9FC20B1BDE80840002004F0CBBEBDE8E7
:1084E0000840014804F066BE5C2E002069DF70473A
:1084F00003781F2B02BF024B01221A70704700BF86
:108500003831002030B5394D2A7887B01AB10128AA
:1085100003D0032862D007B030BD002301A9019326
:1085200001F02AFA08B117F087FA0C2200210DEBAE
:10853000020018F08DFEBDF80C302D4823F47F7337
:1085400023F0030343F4887343F00103ADF80C30C8
:1085500000230493ADF8143018F044FF019AADF8ED
:10856000160003A94120FFF7C1FF08B117F064FA14
:1085700001A801F069FA08B117F05EFA1D4C2368F2
:1085800003B19847012302A90DF10200029313F0F1
:1085900009FF08B117F050FABDF8020013F090FC83
:1085A0000DF1010113F0B0FD08B117F045FA0CF020
:1085B00077FC9DF8011000200DF0B8F810B1784656
:1085C00001F070FD04F084FD08B117F035FA0023C6
:1085D0002B706368002B9ED098479CE701F0A0FAAF
:1085E000002898D017F028FA95E700BF373100200F
:1085F000111E04003C31002008B503781C2B0CD15F
:10860000064B1B784BB101F0C9FA08B117F014FA08
:10861000BDE80840024804F0CFBD08BD3731002056
:10862000682E002010B5094B1B786BB90849094822
:1086300015F084FA48B908490246BDE81040496976
:108640000648032315F093BA082010BD38310020E6
:1086500058310020C43400203C31002090330020E9
:1086600010B50378023B082B4AD8DFE803F01E055B
:108670001249493849493F00224B9B68002B3FD0A3
:10868000007A00283CD0204A01211170BDE810403A
:1086900018471C4BDB68002B32D01B4A117879B38A
:1086A00000211170BDE810401847184B1A784AB9DC
:1086B000144B1B6913B114490A709847BDE8104068
:1086C000FFF7B0BF124B134801221A7004F072FD7D
:1086D00004F058FDA0B1BDE8104017F0ADB9094B4A
:1086E0000D489969102215F087FAF3E7D0E90210D6
:1086F000FFF710FE08B117F09FF9044B01221A7022
:1087000010BD00BF3C310020353100203631002043
:1087100037310020682E00209033002070B51D4AAC
:108720001D4E5168044686B0106803AB03C311891F
:10873000927A19809A700FCC35460FC594E80700DD
:1087400085E80700B3691BB3144B0093144A15491D
:10875000154803AB15F0C4F9C0B9144816F044FE2F
:108760000146114815F0D6F980B9114816F0ACFF52
:1087700060B90F4816F0DAFF01460B4815F0CAF948
:1087800020B90C4804F016FDFFF74CFF06B070BD91
:108790000720FBE7301E04003C3100206186020008
:1087A00058310020C434002090330020783100205C
:1087B00040330020742E002010B5054C226832B1E1
:1087C00017F07CFA002802DB23689847F8E710BD11
:1087D00004350020154B164A10B50C4618600121CF
:1087E000144814F04DFD18B1134A4A2117F031F91D
:1087F000610C0023E00341F26F728B4208BF82429A
:1088000010D24FF47A72002318F042FB01460B4855
:10881000002214F047FD38B1BDE81040064A4B2154
:1088200017F017B90521F2E710BD00BF043500208D
:10883000B9870200601E04003B1E040008350020BA
:108840002DE9F843104FDFF84880DFF848900546DF
:10885000002417F8013BAB4210D1D8F8006004F0B7
:1088600025FF331A48BF831B4B4507D904F01EFF71
:10887000064BC8F800001B68204698470134042CBA
:10888000E7D1BDE8F88300BF6C1E0400503500201E
:1088900054350020801A06004FF0A043D3F8043569
:1088A00023FA00F0C04300F00100704709B100F066
:1088B000F5B900F0EBB900002DE9F8431D4D28682B
:1088C00008B917F0B9F81C4EDFF878903768002423
:1088D0004FF0010808FA04F33B420AD014F80920CB
:1088E0001046FFF7D9FF80F00100C1B21046FFF734
:1088F000DDFF0134042CEDD12C68013C2C60B4B9AF
:108900000E480F4FDFF83C8014F018FD0125326847
:1089100005FA04F3134207D0396818F80400E1405F
:1089200001F00101FFF7C2FF0134042CEFD1BDE8D3
:10893000F88300BF283500202C350020303500207A
:1089400058350020701E04002DE9F041084F0546FF
:1089500088460024012606FA04F32B4203D0385D32
:108960004146FFF7A3FF0134042CF4D1BDE8F081A8
:10897000701E04002DE9F0410546AAB3132933D92E
:108980001A4EDFF87880306052001948013A00240E
:1089900002600127224607FA02F32B4205D018F89D
:1089A0000200FFF779FF904004430132042AF2D11C
:1089B000104B4FF400401C6000254FF4FA74E0FBAC
:1089C00001454FF47A7200232046294618F060FAD8
:1089D00000220146084814F065FC28B930680121DE
:1089E000BDE8F041FFF7B0BFBDE8F0812C350020B5
:1089F000283500205835002030350020701E040036
:108A000008B5054814F09AFC044B00211868BDE82D
:108A10000840FFF799BF00BF303500202C350020FB
:108A200037B500F0C7F820B900F086F808B117F0A4
:108A300003F8002401230E4DADF804408DF80640E4
:108A40008DF8053015F8010B01A900F0BDF808B14B
:108A500016F0F2FF0134042CF4D1064A0648012135
:108A600014F00EFC08B116F0E7FF03B030BD00BFF4
:108A7000701E0400B9880200681E0400F7B538B300
:108A8000144B186000F096F820B900F055F808B1C2
:108A900016F0D2FF104B114E1A88114F9B78ADF88B
:108AA00004208DF80630002416F8015B3A4601A92F
:108AB000284600F0FBF808B116F0BEFF0121284659
:108AC000013400F065F9042CEED1002003B0F0BDB4
:108AD0000E20FBE750350020641E04006C1E0400CD
:108AE0004188020000F1804000F5C040002382B0C0
:108AF000036003680193019B02B07047800000F19E
:108B0000A040D0F8002722F44032C0F80027D0F867
:108B1000003743EA0141C0F800177047054B4FF09A
:108B2000FF32072843F8202084BFC01880F848206F
:108B3000704700BF5C35002010B51A4C94F85830CF
:108B40006BBB4FF0FF3222FA03F1C90748BFE118AF
:108B500003F1010348BF81F83020202BF3D100211D
:108B6000C8B2FFF7DBFF01310C29F9D10422002143
:108B70000D4818F06DFB0D4BC02283F806234022F0
:108B80001A604FF4BE70FFF7ADFF094B4FF0004283
:108B9000C3F80423012384F85830002010BD0820B6
:108BA000FCE700BF5C350020B035002000E100E0AC
:108BB00000600040034B93F85800003818BF0120B4
:108BC000704700BF5C35002030B52E4B1A1892F963
:108BD0003040013453D18C78002C4CD01C460022FC
:108BE00054F8045B013541D11C1884F8302000246E
:108BF00043F82240920002F1804202F5C0420B7815
:108C0000D2F810554C7825F498151B04240525F44A
:108C1000F85504F4801403F44033C2F8105523438C
:108C20000402D2F8105504F4F85423432B43C2F83D
:108C300010354A780123012A4FF0A04203FA00F3CD
:108C40000CBFC2F80835C2F80C3500F5E0730321FB
:108C500042F82310C2080C49012300F0070003FA70
:108C600000F08B5C18438854002003E00132082A8E
:108C7000B6D1042030BDFE2382F83030D9E7082079
:108C8000F8E700BF5C350020B0350020012303FA6F
:108C900000F04FF0A043C3F808057047012303FA22
:108CA00000F04FF0A043C3F80C057047F0B5364D07
:108CB0002C1894F93040002C64DA8C78C4F340040A
:108CC000002C0BBF082300230C260826B34201D139
:108CD0000420F0BD55F8237001373FD12E1845F818
:108CE000232086F8303014B9EA1882F848008A78D0
:108CF000540713D4D60733D5820002F1A042D2F82C
:108D0000004724F00204C2F80047204EC20800F0D9
:108D100007070124BC40B75C3C43B4548A780C7804
:108D200012F0020225D09B0003F1804303F5C043FB
:108D30000202D3F8101521F4473121F44071C3F831
:108D400010152404D3F8101502F4F85204F440343A
:108D500022430A43C3F810250020BAE70133B5E7E0
:108D60004C7800F5E0724FF0A046A40046F822408F
:108D7000CBE7083B2B4493F8501041EA841483F866
:108D80005040E9E70820A4E75C350020B03500201A
:108D900038B51F4C251895F93020072A16DD2244D6
:108DA00092F848309B09032B0BD14FF0A043D3F826
:108DB0001015C14001F001010231BDE83840FFF754
:108DC0009DBE012B0CBF02210321F6E7D3B2072B76
:108DD0001CD8930003F1804303F5C043D3F810057A
:108DE00040F00100C3F8100502F14000800080B29D
:108DF000FFF778FE51B195F9303054F823302BB19C
:108E0000012303FA02F2034BC3F8042338BD00BF69
:108E10005C350020006000402DE9F74F00244E4DE6
:108E200001944FF48072012102F1804303F5C043A5
:108E300090B21B68012B06D1D5F804330B4202D047
:108E4000FFF750FE0C430432B2F5907F4FEA410128
:108E5000EAD1424B1B68012B0CD14FF4BE70FFF7D7
:108E600041FE4FF0A04344F00044D3F82025019286
:108E7000C3F8202514F0FF0F1AD0394F0126002522
:108E8000344210D0AB0003F1804303F5C043D3F864
:108E90001005D3F8101557F8253023B1C1F301415F
:108EA000C0F3042098470135082D4FEA4606E7D164
:108EB000002C48DA2A4D4FF0A0482A4E4FF0000906
:108EC000012716F9013B5A1C31D0C3F3C20202A993
:108ED0000A44DCB212F8042C03F03F0A03F0070343
:108EE00007FA03F31A4222D00AF5E073504658F805
:108EF0002330C3F3014BBBF1020F0CBF032102214E
:108F0000FFF7FCFD07FA0AF3C8F8203505EB0A0362
:108F100093F9303055F823304BB1A109032904D01F
:108F2000BBF1020F12D1012901D15046984709F136
:108F30000109B9F1040FC4D1D8F820350193C8F85C
:108F40002035002BB9D103B0BDE8F08FBBF1030F82
:108F5000EDD10229E8E700BF006000407C610040DD
:108F60005C350020AC3500202DE9F0410446CEB040
:108F700038B1424D2B685A0403D5414E3368032B58
:108F800002DC4EB0BDE8F0813E4B18680DAB611EAF
:108F900004F10F0C1F4611F8012F4FEA121E02F0C8
:108FA0000F0210F80EE083F800E0825C5A70614511
:108FB00003F10203EFD10023334887F820302F213B
:108FC00018F018FA002846D02F212F4818F012FA6E
:108FD000411CDFF8C4802D4AD8F8043501922C4A90
:108FE000009202974222042006F08EF92B685B045F
:108FF000C7D53368032BC4DD23482F2118F0FAF9B5
:10900000002831D02F21204818F0F4F9411CE27BD0
:109010002068D8F804350B92A27B0A92627B0992F1
:10902000227B0892E27A0792A27A0692627A0592ED
:10903000227A0492E28852BA92B20392A28852BA79
:1090400000BA92B2CDE90102124A009204204322F2
:1090500006F05AF995E70C485C2118F0CBF908B1F5
:109060005C21B2E70849B4E707485C2118F0C2F96F
:1090700008B15C21C7E70449C9E700BFB02E002052
:10908000AC2E0020B42E0020741E04009C1E040090
:10909000AE1E0400B61E04000010014072DF7047CF
:1090A00073DF704774DF70472DE9F0412F4CA2B099
:1090B00006460F46904600211022204618F0C8F8B8
:1090C0002B4A2C491378C3EB4315294421602A49C4
:1090D000013303F001030D441F211370A180A1810E
:1090E0003C22002104A8A56018F0B2F8062301AACA
:1090F0008DF813300E9201233C22002113A88DF825
:109100000230ADF820308DF83C30ADF80060CDF87D
:1091100024D0ADF80460ADF80880039718F098F8F3
:109120002246022352F8041B8DF84C3004A800F0AC
:10913000F5F908B116F080FC104AA16813A800F0F8
:10914000EDF908B116F078FC0D4A08490D48FFF713
:10915000A5FF082804D105490A480022FFF79EFF11
:1091600008B116F069FC22B0BDE8F081F8350020A6
:10917000B8350020B935002008360020043600201C
:10918000842E0020802E0020B0F5202F0AD20A2342
:10919000B0FBF3F310B1012B38BF0123034A9381D5
:1091A000916070474FF6FF73F5E700BF842E0020F3
:1091B00008B5064B01211878FFF772FF08B116F0C9
:1091C0003BFCBDE80840002004F0BEBD802E00201E
:1091D00008B5054B1878FFF765FF18B1BDE80840E2
:1091E00016F02ABC08BD00BF802E002076DF704735
:1091F0007ADF70477CDF704769DF704716F01CBC70
:1092000003F0DCBF07B503784BB940883B21FFF77B
:10921000EDFF08B303B05DF804EB16F00DBC012BB5
:109220001AD1134B1B685B0416D5124B1B68032B1A
:1092300012DD11482F2118F0DDF880B12F210E48E2
:1092400018F0D8F8411C0D4B0D4AD3F804350092A4
:109250000420682206F058F803B05DF804FB0648C5
:109260005C2118F0C7F808B15C21E8E70249EAE799
:10927000B02E0020AC2E0020F61E0400001001408D
:10928000261F04001FB500F04BFC08B116F0D4FBFC
:10929000002369460120009300F06EFB08B116F030
:1092A000CBFB0C22002101A817F0D2FFBDF804303F
:1092B000114823F47F7323F0030343F4887343F0CE
:1092C0000103ADF8043000230293ADF80C3018F020
:1092D00089F8009AADF80E0001A94120FFF78CFF34
:1092E00008B116F0A9FB684600F0AEFB08B116F015
:1092F000A3FB05B05DF804FB111E04001FB511238C
:1093000010488DF8043018F06DF80E4982B201A8AB
:10931000FFF770FF08B116F08FFB08220DEB02007B
:10932000002117F095FF084A4FF0C87302A8CDE955
:109330000223FFF75DFF08B116F07EFB05B05DF874
:1093400004FB00BF111E04007800C80010B58AB0ED
:1093500001AC08220021204617F07AFF124A4FF094
:10936000C873CDE9012300211C2203A817F070FF68
:109370004FF4803340F6CD41CDE9041303238DF83B
:1093800018300023ADF81A308DF81C30074B0893C5
:1093900003A8074B0394099300F044FD08B116F0AD
:1093A0004BFB0AB010BD00BF7800C8000592020058
:1093B000FD91020070B5EFF3108672B60C4A946806
:1093C00001239CB993600B4B0B4DD3F880102940BF
:1093D0001160C3F88050D3F8841051604FF0FF3211
:1093E000C3F88420047006B962B670BD0370FAE752
:1093F000B45F002000E100E0FC06FFBD10B5084BA3
:109400009A685AB150B9EFF3108172B6054A1C68D8
:1094100014605C685460986001B962B610BD00BF0A
:10942000B45F002000E100E06DDF704779DF704736
:109430007DDF704764DF70472DE9F04F85B0002570
:109440000E9CBDF83CB0B4F800A0019107469046D0
:109450001E46A9463A884A450DDC45B12388013BA2
:10946000A3EB0A039BB2FF2B3AD806F80A30002080
:1094700005B0BDE8F08F7A6852F829000390002209
:109480000DF10B0103A8FFF7D5FF0028F0D19DF8DF
:109490000B20424521D12288002D14BF002002203C
:1094A00002EB0801014459451ADC3DB9013292B280
:1094B000019B2280B35422880132228022880DF140
:1094C0000B01324403A8FFF7B5FF0028D0D1218853
:1094D0009DF80B200A442280012509F10109B9E712
:1094E0000C20C5E72DE9F341089FBDF824801546FF
:1094F000CDE90078022204461E46FFF79DFF50B9D1
:109500003346102229462046CDE9087802B0BDE84E
:10951000F041FFF791BF02B0BDE8F0812DE9F04FB7
:1095200000231788138090F82D3085B006460D462D
:10953000144653B3082F01D80C2027E102A8FFF7E7
:1095400073FF002840F0228123880822EA542388F0
:1095500001339BB21B222380EA542088013080B261
:10956000208006220DF10901284417F063FE2388AC
:109570009DF8082006339BB212F0FE0218BF0122AC
:109580002380EA54238801332380B378FBB12388F6
:109590000433BB42D0D802A8FFF748FF002840F0B0
:1095A000F58023880322EA54238801339BB21922D1
:1095B0002380EA542388BDF8082001339BB2E918C0
:1095C0002380EA54120A4A70238802332380F278F7
:1095D0009AB12388D91CB942AED80221E954238814
:1095E00001339BB201212380E95423880B449BB2B1
:1095F0002380EA5423880B4423807268AAB123880D
:10960000D91CB94298D8022192F90020E954238844
:1096100001339BB20A212380E954238801339BB292
:109620002380EA542388013323803389002B40F0C0
:10963000A180338A5BB1CDE900472B460722032185
:1096400006F11000FFF74EFF002840F09F80338B9B
:109650005BB1CDE900472B461522142106F1180015
:10966000FFF740FF002840F09180326A002A40F066
:109670009080D6F82480B8F1000F30D0B8F80430CC
:109680002188981C8A1C0244BA423FF655AFFE2836
:109690003FF652AF03336B54238801339BB2FF2252
:1096A0002380EA54238801339BB22380B8F800203A
:1096B000EA54E918120A4A702088023080B22080E9
:1096C000B8F804205AB1D8F8081000296BD0284403
:1096D00017F0B0FD2388B8F804201344238096F8CF
:1096E0002C30002B40F09A80307800284ED0338800
:1096F000012B58D0228802F1020CBC453FF61CAF6A
:10970000012805D17378023313449F42FFF414AF4C
:10971000023FBF1ABFB202A905EB0C00ADF80870FA
:10972000FFF786FE90BB3178BDF80830022900F0C3
:10973000BA8072789A4202D3BB4240F2B2800129C9
:1097400040F0B380974293B2C0F0AF80ADF80830DC
:109750000821BDF80830FE2B3FF6EEAE228801331B
:10976000AB542288013292B22280A9542288134439
:1097700023800BE0CDE900472B460622022106F1AB
:109780000800FFF7AFFE00283FF453AF05B0BDE877
:10979000F08FB4F800C00CF10603BB423FF6CCAE2C
:1097A0001188052901D80720F0E76FF4486E01EB16
:1097B0000E039BB24FF27D3E7345F4D95388052BBF
:1097C000F1D96FF44860181880B27045EBD94FF6A4
:1097D000FF70814203D0834201D09942E3D8052330
:1097E00005F80C30238801339BB212212380E95401
:1097F000238801339BB223801188E954E818090AB1
:109800004170238802339BB223805288EA54E918BE
:10981000120A4A702388023323802AE7B36A002B96
:10982000C1D04FF000094FF00C0A4FF0160B96F81C
:109830002C305FFA89F293427FF656AFB16A0AFB89
:1098400002F201EB0208B8F80430981CFE283FF63B
:1098500073AE208803332B54238801339BB22380BB
:1098600005F803B0238801339BB223808A5AEA5457
:10987000E918120A4A702088023080B22080B8F8B5
:1098800004205AB1D8F8081000298CD0284417F0C9
:10989000D1FC2388B8F804201344238009F101097E
:1098A000C5E7092155E7BB42FBD9ADF808704FE782
:1098B00001600B6843604A68934204BF0023436021
:1098C0007047436843B1026891680B444360526833
:1098D000934204BF0023436070474BDF7047000092
:1098E0001FB50D4C01A8FFF7F8FF70B9214602A87B
:1098F000FFF7DEFF039B002BF4D00198D3E9002192
:10990000904702A8FFF7DDFFF4E7052801D016F025
:1099100093F804B010BD00BF541F040060DF70470F
:1099200069DF704761DF704730B5114B1B78A9B014
:10993000E3B1104D94240DF1020103A8ADF80240EB
:10994000FFF7F0FF70B9294601A8FFF7B1FF029BAE
:10995000002BF0D003A8D3E90021904701A8FFF71E
:10996000B0FFF4E7052801D016F066F829B030BD45
:1099700046360020601F0400F0B5064685B00D464F
:1099800000295CD02F4B0B600C22002101A817F09E
:109990005FFC012706232A68ADF8083001A92020C2
:1099A0008DF804608DF80670FFF7BAFF0C220021D5
:1099B00001A817F04DFC00242A688DF8057001A954
:1099C0004020ADF80640FFF7ABFF0C22214601A86E
:1099D00017F03EFC45232A68ADF8063001A9232084
:1099E0008DF80460FFF79CFF0C22214601A817F0B8
:1099F0002FFC2A688DF8044001A93846FFF790FF34
:109A00000C22214601A817F023FC4FF4B0632A680A
:109A1000019301A9A120FFF783FF0C22214601A891
:109A200017F016FC9DF804302A683B4301A9A020DA
:109A30008DF80430FFF774FF204605B0F0BD0E200E
:109A4000FBE700BFF02D002008B5FFF767FF10B956
:109A5000014B01221A7008BD4636002010DF704706
:109A600011DF704713B5044609496846FFF720FF28
:109A7000019808B902B010BDD0E9002120469047F6
:109A800018B16846FFF71DFFF2E71120F2E700BFAB
:109A9000701F040013B5044607496846FFF708FF26
:109AA000019B0BB902B010BD2046D3E900219047BD
:109AB0006846FFF706FFF3E7881F0400084B9A6823
:109AC00022B11A6822F480021A607047054B4FF4E5
:109AD0008002C3F88020BFF34F8FBFF36F8F7047B2
:109AE000B45F002000E100E00B4991F816335A09F9
:109AF000EC231341DB0706D5084B9A683AB94FF4BB
:109B000080030B60704742F2020015F095BF1A689F
:109B100042F480021A60704700E100E0B45F002068
:109B2000F7B5194F3C7864BB184E012520463570B7
:109B3000FFF798FF112821D02046FFF7ABFF144B09
:109B40008DF80340186801900DF10300FFF732FC17
:109B5000104901A8FFF782FF0446B0FA80F04009DF
:109B600038709DF80300FFF749FC3CB90A4B34708C
:109B70001C70FFF7B9FF2846FFF78CFF204603B0A3
:109B8000F0BD0824FAE700BF483600204736002021
:109B90006C1F0400A59E020049360020F7B5154F42
:109BA0003B781BB3144E01203070FFF75BFF112888
:109BB0004FF000051CD00220FFF76CFF0DF10700ED
:109BC0008DF80750FFF7F6FBFFF74AFF04469DF8B4
:109BD00007003D70FFF712FC2CB93470FFF76EFFE1
:109BE0000320FFF757FF204603B0F0BD0824FAE733
:109BF0002C46F8E7483600204736002007B50849CC
:109C00006846FFF755FE019B13B903B05DF804FBEE
:109C1000D3E9002090476846FFF753FEF3E700BF03
:109C20007C1F0400FFF7EABF75DF704776DF7047DF
:109C30007ADF70477BDF7047034B1A8882420CBF84
:109C400018460020704700BF68360020024B9B6911
:109C500003B11847704700BF4C36002073B585B27A
:109C60002846FFF7E9FF044670B1164E027A337BAF
:109C70009A420BD200F10A012846FFF7D5FFE8B15E
:109C8000112801D0FFF7E2FF02B070BD002303727C
:109C9000337C43B13B212846FFF7C8FF30F008036F
:109CA00001D0FFF7D3FF7369002BEDD000228DF8B0
:109CB0000420ADF8065001A89847E5E7237A013360
:109CC0002372E1E74C36002037B50B46497A0F4A3C
:109CD00071B9D2E901141D7A0246002D18BF214640
:109CE000586813F0DFFA08B1FFF7B0FF03B030BDDA
:109CF000002119725369002BF8D00122ADF806003B
:109D00008DF8042001A89847F0E700BF4C360020EA
:109D10004B8802889A4213D842889A4210D380888E
:109D20008A8840F2F313984294BF031AC31A9342ED
:109D300006D800F2F310904234BF00200120704793
:109D40000020704770B50388122B014659D004D803
:109D5000102B1ED0112B44D070BD502BFCD12F4B9B
:109D6000C288DB899A42F7D1038A022BF4D1868814
:109D70003046FFF761FF05460028EDD001F11200E3
:109D800000F08AF838BB686813F0D8FA0028E3D0EE
:109D900009E0C37B012BDFD14FF6FF70FFF74CFFCB
:109DA000054620B90420BDE87040FFF74FBF8E88FC
:109DB0001B4A0680002303721368C0F80A305368F8
:109DC000C0F80E3010310A30FFF7A2FF134B687253
:109DD000DB89002BC0D129463046BDE87040FFF733
:109DE00073BF8088FFF728FF04460028B4D040687E
:109DF00013F0A4FA08B1FFF729FF4FF6FF73238091
:109E0000AAE786883046FFF717FF05460028A3D04B
:109E100008310A30FFF77CFF6872DCE74C3600201F
:109E20007C360020F8B5064648B305460FCD154FE1
:109E30003C460FC495E8070084E807003068124CE0
:109E40003C60B0B1FFF7F4FEC0B93268136823601C
:109E5000536863600D480E4A4FF6FF7303800D4B45
:109E600040F8043F002113F00BFA002818BF03202C
:109E700004E02046FFF7DEFE0028EBD0F8BD0E2000
:109E8000FCE700BF4C3600207C36002068360020FE
:109E90005D9C020084360020007800F001007047CD
:109EA0000620704730B5754B14461B6844F201021A
:109EB000904287B00D4603F4804300F0A98022D879
:109EC000012844D041F20102904276D0002B58D0B4
:109ED0006B4B1B68002B54DD6A482F2117F08AFA60
:109EE000002800F0BF802F21664817F083FA411C3C
:109EF000654B664AD3F80435009201957B22012018
:109F000005F002FA3DE044F202029042DED1002B5D
:109F100037D05B4B1B68002B33DD5A482F2117F0DD
:109F200069FA00286BD02F21564817F063FA411CBC
:109F3000554B2268D3F8043503926268CDE901528B
:109F4000534A00920120692205F0DEF919E0C3B1FD
:109F50004B4B1B68002B14DD4A482F2117F04AFA9F
:109F600010B32F21474817F045FA411C464B494A88
:109F7000D3F804350092CDE901546022012005F0A8
:109F8000C3F94FF0A0434FF4F012C3F81825C3F8FB
:109F90000C25EFF3108372B64DF6AD6C3E4A137884
:109FA000002B68D107B030BD36485C2117F022FA8B
:109FB00008B15C21D6E73349D8E7002BE1D0304B1C
:109FC0001B68002BDDDD2F482F2117F013FA68B135
:109FD0002F212C4817F00EFA411C2B4B2F4AD3F897
:109FE00004350092CDE901546322C7E725485C217E
:109FF00017F000FA08B15C21EBE72249EDE72148B0
:10A000005C2117F0F7F908B15C218DE71D498FE756
:10A01000002BB6D01A4B1B68002BB2DD19482F213C
:10A0200017F0E8F9A8B12F21164817F0E3F9411C01
:10A03000154B2268D3F8043504926268CDE90252C8
:10A04000A2680192164A00920120732205F05CF981
:10A0500097E70C485C2117F0CDF908B15C21E3E7E4
:10A060000849E5E707485C2117F0C4F908B15C210D
:10A070003AE704493CE730BF91E700BFB02E00202B
:10A08000AC2E0020941F0400001001403820040072
:10A09000F81F0400BC1F04009C2E0020D61F0400E3
:10A0A0001720040007B50023014600936A46044BBD
:10A0B000019344F20200FFF7F5FE03B05DF804FBE4
:10A0C000E722040001461022014817F0B3B800BF90
:10A0D000A436002010B50C4C0C490822204617F07D
:10A0E000A9F808220A49A01817F0A4F8A37903F0E8
:10A0F0000F0343F04003A371237A03F03F0363F09F
:10A100007F03237210BD00BFA43600206000001042
:10A11000A400001000487047A43600200022064921
:10A1200013460132202A4B804B6001F8083BF8D1DE
:10A13000024A1360704700BFB4360020B4370020D5
:10A14000F0B50C4B0C4D1B68044620227BB1013B43
:10A1500015F8330050B105EBC3067788A74202D14A
:10A1600076688E4202D0013AF0D11046F0BD1F232E
:10A17000EEE700BFB4370020B436002030B5094AFE
:10A18000094C136804EBC3051F2B69604FF00101F4
:10A1900004F83310194408BF0023688014BF11600D
:10A1A000136030BDB4370020B4360020C0F30C0378
:10A1B0008B42084438BFA0F50050C01A7047000019
:10A1C000F0B50D4B0D4A1E6800218E4212D0156865
:10A1D00000230AE052F8044C04EBC30714F83340A0
:10A1E000844201D17868F0BD01339D42F2D1013142
:10A1F0000832EAE70020F6E73C3800204438002027
:10A2000000B58DB048B9991C07D0012101A8CDE94E
:10A2100002328DF8041001F05FFA034B186803F066
:10A220008BFF0DB05DF804FB4838002010B50378B3
:10A23000044613B97846FFF735FF607A431C0120C6
:10A240009840013810BD2DE9F0410E468EB01546FC
:10A250001C46074610B97846FFF724FF16B9784622
:10A26000FFF720FF636AA27802330593E378A2F137
:10A270000800002B14BF012102210DF10408424205
:10A280004241434604F10C0004F08BF8A3788DF8AA
:10A290003430237BADF82050022B16FA85F5CDE93A
:10A2A00006870B960C950FD1236913B97846FFF7F3
:10A2B000F9FE23690993102305A8ADF8283004F0AE
:10A2C0006CF80EB0BDE8F0810023F5E7B2F5C07F71
:10A2D0002DE9F04781468846174602D97846FFF7B0
:10A2E000E1FE244B00259A4693F848605EB9384653
:10A2F00008F0B7FA702404FB05A4E06648B900240E
:10A300002046BDE8F0870135042D03F17003EBD141
:10A31000F5E730224946204616F08CFFB8F1010FD0
:10A32000E664A4F84A701BD1134BA4F852601B7D5D
:10A3300084F8513084F85060D9F8283063656FF0A4
:10A340000103A3620D4BA4F85860A36324640120A9
:10A3500002F08CFA702303FB05A585F84880CFE74F
:10A360006FF00103A362064BA36584F86860054B98
:10A370002466EAE7643800204C380020FDAA020079
:10A3800011B10200F5AA020010B50446C06E08F033
:10A390006AFA04F1300003F03FF994F84830022BD8
:10A3A00003D104F1500003F037F920467022002158
:10A3B00016F04EFF002084F84800BDE8104002F07F
:10A3C00055BA10B590F84830012B8CB0044602D035
:10A3D0007846FFF767FE01238DF80430636D029322
:10A3E00003F064F9039001A801F076F92046FFF725
:10A3F000CBFF0CB010BD10B50446808A02F022FDE0
:10A4000001281CD1237BD3B194F91620002A18DB34
:10A41000E27D5AB1022B12D094F90330002B10DBED
:10A42000A378002B0CBF0020072010BDE2780AB9EA
:10A43000012B06D1237833B9A378042BF2E710203F
:10A44000F3E70720F1E70020EFE700001FB5002346
:10A450000A468DF80F3028B3023008600DF10F0165
:10A46000104603F09CFF9DF80F30DBB1144B1B68C6
:10A470005B0717D5134B1B68032B13DD12482F21E5
:10A4800016F0B8FF98B12F210F4816F0B3FF411C0A
:10A490000E4B0F4AD3F804350092042040F21542C7
:10A4A00004F032FF9DF80F0005B05DF804FB06488C
:10A4B0005C2116F09FFF08B15C21E5E70249E7E760
:10A4C000B02E0020AC2E00205120040000100140CE
:10A4D0006E20040070B50446D4E906122378808A01
:10A4E0008CB0D3B1E38805F0FBFF054690B1A68A96
:10A4F000E4692C22002101A816F0AAFE04F0010450
:10A500000F2301A88DF80430ADF80860ADF80A40BB
:10A5100001F0E2F828460CB070BD05F0DDFFE4E77D
:10A520002DE9F04799461378D2F818A0F4B0064602
:10A530000D46144623B1D1885046FFF737FE90618F
:10A54000E378A278002BA2F1080005AF14BF012127
:10A55000022104F10C0842423B464241404603F0CE
:10A5600020FFA3788DF84430ADB2E81A002380B202
:10A57000ADF83830E378C4F818A0CDE90A7606447F
:10A5800014AFADF8300010960F97002B77D04FF036
:10A59000100A03AE237B022B04BF23690D934FF0F7
:10A5A0000003C6E9003308BFADF838A06362206A33
:10A5B000217904AB324612F045FA3068002838D0D1
:10A5C00009A9FFF743FF78BB706878B309A9FFF7C3
:10A5D0003DFF58B3012356F8233063622046FFF74E
:10A5E00079FFF0B9A1780D906D1A8DF8240098E8E4
:10A5F0000300A38AADF8323001220EAB8DF8302073
:10A6000083E80300A37D8DF84830236A109309A8DE
:10A61000636A0A97ADF82C501193CDF84C9001F075
:10A620005BF874B0BDE8F0870023D4E73368002BF3
:10A63000BDD1237B022B05D1E089414612F0FAFA05
:10A640000028A7D1214B1B685B07EAD5204B1B686C
:10A65000052BE6DD1F482F2116F0CCFE68B32F2115
:10A660001C4816F0C7FE411C1B4B1C4AD3F804358E
:10A670000092062040F2037204F046FED1E7227BEE
:10A68000012ADFD12646E089B4F814A046F8243F19
:10A69000314612F04DFA606A09A9FFF7D7FE00288B
:10A6A0009CD160623146504612F042FA606A09A9B4
:10A6B000FFF7CCFE0028C5D090E706485C2116F0D5
:10A6C00099FE08B15C21CBE70249CDE7B02E00200E
:10A6D000AC2E002051200400001001408120040015
:10A6E000C37D0A7830B5002B3DD0C37822F07F02BD
:10A6F00003F07F031A430A700B78027803F07F039C
:10A7000043EAC2130B70037863B38378083B5A4261
:10A710005A414B7803F07F0343EAC2134B708A78A7
:10A72000C58802F00302C5F3861442EA850223F0CD
:10A730007F032343D2B28A704B70CB78057A03F043
:10A740001F03C5F3C10422F0030243EA4513224369
:10A75000DBB2CB708A70427A23F01F0302F01F0233
:10A760001343CB7030BDC47822F0400343EA841316
:10A77000DBB20B70027923F03F0302F03F02134378
:10A780000B70B9E72DE9F04F824689B00D4609B14B
:10A7900000220A600AF10C039AF850400193012745
:10A7A0004FF0000B9AF80900A04203D2002009B034
:10A7B000BDE8F08FDAF84C1007FA04F20A4264D1CF
:10A7C0009AF81720019B8AF80840002A0CBF0C2633
:10A7D000082684429AF80020029306FB04F908BF79
:10A7E000BAF84A608DF818B008BFA6EB0906002A2F
:10A7F00014BF4FF004084FF0010806EB0802049262
:10A80000DAF82820039202A8DAF82C20059203F047
:10A810006AFF0028CBD1079A904454B99AF8532084
:10A820003AB9DAF818208AF85370C2F30C02AAF881
:10A8300006209AF817209AB99AF8522082B914B1D2
:10A840007846FFF72FFCBAF84A109AF802208A1AC5
:10A85000DAF86C1053460846FFF7F5FC8AF8527098
:10A8600007995046FFF73CFFDAF86C10324649442E
:10A87000404616F0DFFC02A803F056FF15B12A6827
:10A8800001322A60621C8AF850200134E4B289E760
:10A8900038B590F84830012B044602D07846FFF7CF
:10A8A00001FC02F003FF237B074A012B05BFD2E91D
:10A8B0000315A37DD16805FB0311014404F13000A9
:10A8C000BDE8384002F0C0BE4C380020F0B5C37D72
:10A8D00016468278002B324414BF4FF480734FF435
:10A8E000C0739342C7B00F467DD3424B002493F808
:10A8F0004810012907D19D8A818A8D4203D1DD89C3
:10A90000C1898D4271D00134042C03F17003EED162
:10A910000121FFF7DBFC0546002844D032463946CA
:10A92000C06E16F087FC002304A928460493FFF7A5
:10A9300029FF30F00404064650D1049B13B1284689
:10A94000FFF7A6FF2C4B1B6813F004034FD02B4BD3
:10A950001B68032B27DDB5F84A00294B802805AA80
:10A960001F6828BF802000231646834202F102029E
:10A970001CD10022234806F813202F2116F03AFD9F
:10A9800018B32F211F4816F035FD411C1E4B1F4ADE
:10A99000D3F8043501921E4A009202964FF4AC623D
:10A9A000042004F0B1FC204647B0F0BDE96EC95C5C
:10A9B0004FEA111C01F00F0117F80CC002F802CC8D
:10A9C000795C02F8011C0133CFE70E485C2116F0D8
:10A9D00011FD08B15C21D5E70A49D7E72846FFF702
:10A9E000D3FC3446DFE70924DDE70824DBE71C4617
:10A9F000D9E700BF64380020B02E0020AC2E002024
:10AA0000B42E00205120040000100140AA200400B0
:10AA1000AE1E0400F0B50D4691B0044610B978465C
:10AA2000FFF740FB94F84830022B18D1E188A06969
:10AA3000FFF7BCFB284AE16913680F0A0E06591C90
:10AA40001160264A361803F007034FEA031147F155
:10AA5000000702EB0313A08A5052C3E902672C22BD
:10AA6000002105A8666D16F0F3FB102305A88DF8EC
:10AA7000143006968DF81C5000F02EFE2046FFF78D
:10AA800083FC174B1B685B071BD5164B1B68032BFE
:10AA900017DD15482F2116F0ADFCA0B12F2112486B
:10AAA00016F0A8FC411C114BD3F80435029594F81C
:10AAB000482001920E4A0092042040F2F31204F062
:10AAC00023FC11B0F0BD08485C2116F093FC08B1DE
:10AAD0005C21E4E70449E6E738380020B837002075
:10AAE000B02E0020AC2E00205120040000100140A8
:10AAF000B820040008460021FFF78CBF10B591F87C
:10AB00004830012B0C4602D07846FFF7CBFA94F878
:10AB100051305BB1013B84F85130002384F8503050
:10AB2000084BBDE81040186803F006BB217B0129E3
:10AB3000204603D1BDE81040FFF76CBFBDE81040D0
:10AB4000FFF73FBC483800202DE9F04306468FB0A0
:10AB500010460F4615469846FFF7BCFC04460028F1
:10AB60005ED195F80390B9F1000F40F0AA80062F4E
:10AB700056D130787378820102F4FE5242EA930291
:10AB8000604B1F4693F84810012928D1B3F814C030
:10AB9000E9898C4523D1D988914220D1B3F858C096
:10ABA000A98ABCF1000F01D08C4518D110F0800F9C
:10ABB000D6F802204FF070033ED003FB0473A3F8D5
:10ABC0005810702000FB047412BAE56C1543E5645C
:10ABD000002A63D103212046FFF71CFF20E0013447
:10ABE000042C03F17003CDD1474B1B685B0717D5CD
:10ABF000464B1B68012B13DD45482F2116F0FAFB4D
:10AC000088B12F21424816F0F5FB411C414B424AC6
:10AC1000D3F804350092022040F2796204F074FB0C
:10AC20000FB0BDE8F0833A485C2116F0E3FB08B1B1
:10AC30005C21E7E73649E9E703FB0473DB898B42D4
:10AC4000BFD0314B1B685A07EAD5304B1B68012B2C
:10AC5000E6DD2F482F2116F0CDFBB0B12F212C4877
:10AC600016F0C8FB411C70202A4BAA8AD3F8043581
:10AC7000029200FB04740220E2890192274A0092AA
:10AC800040F27D6204F040FBCAE721485C2116F0E7
:10AC9000B1FB08B15C21E2E71D49E4E72046FFF77C
:10ACA000C5FA854203D12046FFF78BFBB8E70021A8
:10ACB00084F850102046FFF765FD2046FFF7E8FDB9
:10ACC000AEE74846FFF77CFA02460028A8D0D5E94F
:10ACD00003012B6A0B93AB8AADF8223009AB83E8F2
:10ACE0000300AB7D8DF830302B788DF82030EB6A87
:10ACF0008DF81490CDE906670D93414605A890475D
:10AD00008EE700BF64380020B02E0020AC2E00205B
:10AD10005120040000100140DB2004000921040040
:10AD2000F0B589B005460E460192FFF764FB044674
:10AD300038B92B78019A3BB131462846FFF7C6FD5A
:10AD40000446204609B0F0BDE97DAB7801920029A8
:10AD5000134414BF0B210F218B4226D801330493D7
:10AD600005F10C030293AB6A03938DF81800EB6AAC
:10AD7000059302A803F0B7FC04460028E1D1079927
:10AD800028464F1CFFF7ACFCEB7D019A3BB13146E6
:10AD9000384616F04FFA02A803F0C6FCD1E72B465E
:10ADA00039463046FFF74FFAF5E70924C9E70000B6
:10ADB00010B54FF4E0720021134816F049FA002450
:10ADC00005F05CFB114B12481C602146802216F0F6
:10ADD0003FFA104B1049114A11489C75C3E9001203
:10ADE00010494CF25032C3E902211A6140F60402C4
:10ADF0009A8203F083F90C4B18600C4B0C481C60D2
:10AE0000BDE8104005F06ABD6438002038380020E5
:10AE1000B83700204C38002080969800F049020096
:10AE20000DB6020020A10700483800203C38002061
:10AE300001A2020005F042BB30B504468DB00028E7
:10AE40005FD00369002B5CD0C369002B59D08569A2
:10AE5000002D56D05A788DF804201A780993838AE9
:10AE600082F001020B2B8DF80320027B09D901210E
:10AE7000022A8DF8001001D1234A927D5AB904228A
:10AE80000AE0C17A0029F2D1012A0CBF0122002276
:10AE90008DF8002031D1082213448DF802200B33A5
:10AEA0000C22B3FBF2F3013B8DF8093000238DF83F
:10AEB000083094E8030000238DF8173003AB83E8D3
:10AEC00003002389ADF81430A37A8DF81630236A75
:10AED0000A932046DF2308950B9311F04BFF28B10E
:10AEE0002378012B14BFFF2320230B93A28A21690F
:10AEF0006846FFF715FF0DB030BD04238DF8023012
:10AF0000D7E70E20F7E700BF4C38002030B50A46DF
:10AF100091B00446002860D04368002B5DD085695D
:10AF2000002D5AD003788DF8133000230D938368D9
:10AF30000B2B94BF017B012101F001008DF8100063
:10AF400000208DF8120031B10733DB08013B8DF88A
:10AF500019308DF81800D4E9040101238DF8273049
:10AF600007AB83E80300E389ADF82430237F8DF835
:10AF70002630236A0C95CDE90E23194B1B685B071D
:10AF80001BD5184B1B68062B17DD17482F2116F011
:10AF900031FAC8B12F21144816F02CFA411C134B7A
:10AFA000A269D3F80435029222780192104A0092E5
:10AFB000072040F6050204F0A7F9D4E9011204A81D
:10AFC000FFF7AEFE11B030BD07485C2116F012FA53
:10AFD00008B15C21DFE70449E1E70E20F2E700BF9A
:10AFE000B02E0020AC2E00205120040000100140A3
:10AFF0004A21040070B5037B012B90B004460D4636
:10B0000077D13D4B1B685B0718D53C4B1B68032B66
:10B0100014DD3B482F2116F0EDF900285ED02F21DA
:10B02000374816F0E7F9411C364B374AD3F8043558
:10B030000092042040F2632204F066F904AE0B2271
:10B040000021304616F004F99DF81130E288089688
:10B0500003F0030343EA82038DF811302B0E8DF8C1
:10B0600012302B0C8DF813306378022B0CBF802329
:10B070000023C2F3861242EA03024FF0060309934B
:10B080004FF001038DF82C30A38AADF82E304FF02D
:10B0900000036DBA8DF810200C93226A8DF81C30D5
:10B0A0008DF82830E36AADF814500D920F931ED13D
:10B0B0000DF10E0103A811F04DFEBDF80C30ADF8F6
:10B0C0002A30A37D0BB1114B5B7D8DF838306FF0CA
:10B0D000010107A8FFF71AFF10B070BD08485C21F6
:10B0E00016F088F908B15C219AE705499CE7E389E5
:10B0F000E5E70020F0E700BFB02E0020AC2E0020D6
:10B100005120040000100140752104004C3800203B
:10B1100010B591F84830022B0C4602D07846FEF765
:10B12000C1FF022384F8683094F84830022B06D11E
:10B13000E16C2046FFF75EFF08B984F8680010BD97
:10B140002DE9F04F0D469DB017469846044600285D
:10B1500000F05882002A00F0558221B909263046B5
:10B160001DB0BDE8F08F1822394613A816F062F81A
:10B17000237894F900100020DA0981428DF84020EC
:10B18000B4BF0422012295428DF84100E6D39DF818
:10B190005760EEB103F07F0381428DF843308DF8A4
:10B1A00042002EDA6278A378920102F4FE5242EA5B
:10B1B0009302ADF84620DB00E27803F0180343EA7F
:10B1C000521302F01F028DF848308DF8492018E024
:10B1D000C3F38010002903F03F038DF843008DF87E
:10B1E000443008DA94F90130002BB4BF082304235B
:10B1F0008DF84230D6E704231A4495428DF8423048
:10B20000ACD30023199398F80030032B02D9784669
:10B21000FEF748FF98F80020CB4B10A853F82230D7
:10B220001B93FFF7E8F80646002898D1014608224C
:10B2300003A816F00DF8788803A911F0FBFC28B1DB
:10B240009DF8413043F001038DF84130D7E90312F6
:10B25000388905F07FF9002855D19DF84130002B41
:10B260003FF47DAF13F001031CBF049A14929DF8C4
:10B270004020002A00F0B481BDF846101698FEF771
:10B2800095FF179BBDF854C0B0494FEA036A4FEAD7
:10B29000132B1AEB000A4FF000074BF1000B0B8841
:10B2A000634506D1D1E902239B4508BF92453FF48F
:10B2B00056AF0137082F01F11001F0D1A44B4FF028
:10B2C0000009184693F84820022A25D19A8A624537
:10B2D00022D1702303FB0909B9F80610D9F8180028
:10B2E000FEF764FFD9F81C100A0612184FEA112362
:10B2F00043F100035B4508BF524535D2052148465E
:10B30000FFF788FB0FE09DF8413003F0FE038DF856
:10B310004130002BA1D122E709F10109B9F1040F55
:10B3200003F17003CED1DDE91612BDF84630BDF849
:10B33000540005F039F9002800F0C980DDE9161243
:10B34000BDF84630BDF8540005F05EF900283FF422
:10B3500006AF10A8FEF76AFF014610A8FFF74AFEE5
:10B3600010A8FFF7B7F8FAE69B4508BF9245FFF42F
:10B37000F6AE784B1B685B071CD5774B1B68032B1D
:10B3800018DD76482F2116F035F8002800F00E81E0
:10B390002F21724816F02EF8411C714B9DF8482061
:10B3A000D3F8043501926F4A0092042040F2A33290
:10B3B00003F0AAFF99F84830022B02D07846FEF736
:10B3C00071FEDFF8A8A1DAF800B002F06FF90BEB1C
:10B3D000000109F1300002F037F999F80C30012B27
:10B3E0001AD199F86830BBB999F84830022B02D0CD
:10B3F0007846FEF757FEDAE901329AF8151002FB9B
:10B40000013A02F053F900EB0A0109F1500002F091
:10B410001BF9012389F868309DF84810D9F84C30A1
:10B4200001228A4013EA020A7FF499AE1343C9F855
:10B430004C309DF8573099F80920002B14BF4FF07D
:10B44000080E4FF00C0E8A42A5F104050EFB01FE1A
:10B4500040F0B5800EEB0503A9F84A30D9F8182062
:10B46000169B9A420AD20DF14C0CBCE80F0009F170
:10B470000C070FC79CE8030087E80300D9F86C00AD
:10B48000211D2A46704415F0D5FE4846D9F84C4097
:10B49000FEF7CCFE84427FF462AED9F84C104846E9
:10B4A000FFF7A8FD99F80130DA070CD599F81730A5
:10B4B000D9F86C00B9F84A10002B00F08C80434694
:10B4C0004A46FFF741FB4846FEF75EFF81E09DF8E4
:10B4D00057209DF84930002A14BF4FF008094FF05B
:10B4E0000C0903FB099914BF4FF480734FF4C07328
:10B4F00099453DD9174B1B6859077FF530AE164B60
:10B500001B68002B7FF72BAE14482F2115F072FF1C
:10B5100088B12F21114815F06DFF411C104B124AC4
:10B52000D3F804350092CDF8049040F27F32012028
:10B5300003F0EAFE13E609485C2115F05BFF08B151
:10B540005C21E7E70549E9E7AC210400B8370020B2
:10B5500064380020B02E0020AC2E002051200400C2
:10B560000010014099210400852104004C3800207E
:10B570004A46022110A8FEF7A9FE814600287FF462
:10B58000F8AE014610A8FFF735FD2C22494605A864
:10B5900015F05EFE10238DF8143005A80223CDF8B7
:10B5A00018908DF81C3000F097F8D8E516485C210B
:10B5B00015F020FF08B15C21EBE61349EDE6002B06
:10B5C00008BF0C27BD423FF449AF04214846FFF7AE
:10B5D00021FA0026C3E543464A46FEF7A1FF72E77B
:10B5E000002B3FF4BCAD9DF85730601C691E23B1A1
:10B5F000434610AAFFF7A8FAB1E5434610AAFEF7A2
:10B600008FFFACE50E26AAE551200400F7B5184CD3
:10B6100000262546374695F84830012B0BD101A965
:10B6200028460197FFF7AEF8042801D0019B13B11B
:10B630002846FFF72DF90136042E05F17005EAD1F1
:10B64000002594F84830022B0AD194F86830022B78
:10B6500006D1E16C2046FFF7CDFC08B984F86800FC
:10B660000135042D04F17004EBD1012003B0F0BDCD
:10B67000643800202DE9F8430F46064610B3144BFA
:10B680001C689846E4B9254600F10409BD4208D17A
:10B69000104BC3E900650123C8F800302046BDE81F
:10B6A000F88359F835306BB116F9353016F8350096
:10B6B000002B09DB50B1FEF783FD38B90135E5E712
:10B6C0000424EBE70E24E9E70B24E7E70F24E5E782
:10B6D0003C38002040380020F8B5074610B97846BD
:10B6E000FEF7E0FC104E346884B1104D01232B703E
:10B6F00023791BB954F8043C384698472468002C39
:10B70000F6D12B78022B02D000232B70F8BD3168C4
:10B71000054C0029F8D00B790E6813B1204603F0D0
:10B7200079FD3146F5E700BF283A0020243A002091
:10B7300010B5044610B97846FEF7B4FC0023237216
:10B74000211D0248BDE8104003F043BD283A002007
:10B7500010B5044610B97846FEF7A4FC074A1378E2
:10B76000013B012B04D8022313700123237210BD67
:10B77000211D0348BDE8104003F04CBD243A0020D1
:10B78000283A00200B888268D25A073222F003023E
:10B79000134402889BB2043A934288BF00230B8073
:10B7A000704713B58368C91AADF806100DF106018C
:10B7B000FFF7E8FFBDF806308068184402B010BDFE
:10B7C00070B5064615460C4611B97846FEF76AFC78
:10B7D00016B97846FEF766FCB4F1005F24D94FF045
:10B7E0008053D3F80C3103F50023B4EB832F1ED222
:10B7F0006B1E2344B3F1005F26D94FF08052D2F87C
:10B800000C2102F50022B3EB822F20D2042D02D8A6
:10B810007846FEF747FC35800023043D7380B380F3
:10B82000B4602580A37070BDB4F5000F08D94FF047
:10B830008053D3F80C3103F50053B4EB832FD7D3E7
:10B840007846FEF72FFCD3E7B3F5000F08D94FF089
:10B850008052D2F80C2102F50052B3EB822FD5D3DF
:10B860007846FEF71FFCD1E738B5044610B9784694
:10B87000FEF718FC6288A36813449B78012B02D161
:10B880007846FEF70FFCEFF3108572B6A268A18828
:10B8900011448B78032B0AD12046FFF782FFA3685F
:10B8A000C31A63800023837005B962B638BD0023D4
:10B8B00093706380A380F7E7F8B50E4615460446FB
:10B8C00010B97846FEF7EEFB16B97846FEF7EAFBAC
:10B8D0006288A36813449B78012B02D17846FEF757
:10B8E000E1FB002D37D02388043B9BB29D4232D828
:10B8F000EFF3108772B66288A388E81D20F003007A
:10B900009A4280B204D29B1A984210DD042016E0BD
:10B9100018D92188891A814209D29842F6D8032978
:10B9200081BFA3689B1804229A70002363806288F9
:10B93000A1688B188D5201229A700020336007B9DC
:10B9400062B6F8BDA26813449B78002BDED19370D9
:10B950006380A380EBE70920F3E7F8B50D461646B0
:10B96000044610B97846FEF79DFB15B97846FEF7F8
:10B9700099FBAB78012B02D07846FEF793FB2B881E
:10B98000B34202D27846FEF78DFB16B97846FEF731
:10B9900089FBEFF3108772B60223AB70E1182E809B
:10B9A0002046FFF7EFFE6288A38893421FBFA3687B
:10B9B0009B1800229A7007B962B6F8BD70B50D46A3
:10B9C000044610B97846FEF76DFB15B97846FEF7C8
:10B9D00069FBEFF3108672B6A288A36813449A78C5
:10B9E000042A06D1211D2046FFF7CCFEA288A368B9
:10B9F00013449A78022A05D0032A08D0052006B9F4
:10BA000062B670BD03229A702B600020F7E778467B
:10BA1000FEF748FBF9E738B5044610B97846FEF75B
:10BA200041FBEFF3108572B6A088A16801448B78C2
:10BA3000042B03D12046FFF7B4FE01468878831E0D
:10BA40005842584105B962B638BD38B5044610B9F8
:10BA50007846FEF727FBEFF3108572B6A088A16841
:10BA600001448878C31E012B05D9831E58425841D2
:10BA700005B962B638BD2046FFF793FE0146F0E7F0
:10BA8000F8B50D46044610B97846FEF70BFB15B91C
:10BA90007846FEF707FBEFF3108672B6AB78012B02
:10BAA00019D0032B22D1A288A36813449D4202D04F
:10BAB0007846FEF7F7FA0027AF70211D2046FFF702
:10BAC00061FEA288A36813449B78042B00D1A78051
:10BAD00006B962B6F8BD6288A36813449D4202D0DD
