:020000022000DC
:1070000000FD03209D5E0400C55E0400C75E040011
:10701000C95E0400CB5E0400CD5E040000000000E9
:10702000000000000000000000000000CF5E04002F
:10703000D15E040000000000D35E0400D55E0400B1
:10704000D75E0400D75E0400D75E0400D75E04005C
:10705000D75E0400D75E040081C40200D75E04003E
:10706000D75E0400E9BF0200DD650300D75E0400BF
:10707000D75E0400D75E0400D75E0400D75E04002C
:10708000D75E0400B133040035180300D75E040056
:1070900081340400D75E04008DD10200D75E040065
:1070A000D75E0400D75E0400D75E0400D75E0400FC
:1070B000D75E0400D75E040000000000000000005E
:1070C000D75E0400D75E0400D75E0400D75E0400DC
:1070D000D75E0400D75E0400D75E0400D75E0400CC
:1070E000D75E0400D75E0400D75E040000000000F5
:1070F00000000000D75E040000000000D75E04001E
:10710000000000000000000000000000000000007F
:10711000000000000000000000000000000000006F
:10712000000000000000000000000000000000005F
:10713000000000000000000000000000000000004F
:10714000000000000000000000000000000000003F
:10715000000000000000000000000000000000002F
:10716000000000000000000000000000000000001F
:10717000000000000000000000000000000000000F
:1071800000000000000000000000000000000000FF
:1071900000000000000000000000000000000000EF
:1071A00000000000000000000000000000000000DF
:1071B00000000000000000000000000000000000CF
:1071C00000000000000000000000000000000000BF
:1071D00000000000000000000000000000000000AF
:1071E000000000000000000000000000000000009F
:1071F000000000000000000000000000000000008F
:1072000010B5054C237833B9044B13B10448AFF3E0
:1072100000800123237010BD7033002000000000A7
:107220009CA0040008B5034B1BB103490348AFF30E
:10723000008008BD00000000743300209CA0040002
:10724000154B002B08BF134B9D46A3F5803A002138
:107250008B460F461348144A121A20F09DFA0F4B22
:10726000002B00D098470E4B002B00D098470020F1
:10727000002104000D000D48002802D00C48AFF397
:10728000008020F039FA2000290000F07BFD20F07A
:107290001FFA00BF0000080000FD032000000000EE
:1072A0000000000070330020706B00200000000020
:1072B0000000000041DF7047024B1A689B880A609B
:1072C0008B807047D4330020014B1B880B807047A4
:1072D000D033002013B542F22413B3EB114F0191C8
:1072E000144602D0784606F091F9074B22684FF613
:1072F000FF71B2FBF1F21A80044A6368B3FBF1F349
:10730000138002B010BD00BF5A3100205831002058
:1073100010B586B00C4606A901E90C00194B1B6894
:107320005B0423D5184B1B68032B1FDD17482F2147
:1073300020F004FBE0B12F21144820F0FFFA0130C7
:10734000134BBDF81420D3F8043503924FF6FF71A8
:10735000049AB2FBF1F292B2CDE901420D4A0092D9
:1073600001464FF4817204200BF074FA06B010BD90
:1073700006485C2120F0E2FA08B15C21DCE7034812
:10738000DEE700BFB8320020B4320020D479040018
:1073900000100140007A04001FB56248002103F08C
:1073A00003F808B11EF098FD5F4C236859041FD5FF
:1073B0005E4B1B68032B1BDD5D482F2120F0BEFABE
:1073C000002800F094802F21594820F0B7FA411C82
:1073D000544A584B92F8BC00D3F8043502901288F6
:1073E0000192554A0092042040F22F120BF032FA1B
:1073F0004C4A5248002101F05DFF08B11EF06CFDBF
:1074000023685A041ED5494B1B68032B1ADD4848D4
:107410002F2120F093FA002872D02F21444820F029
:107420008DFA411C454A434B92F89000D3F804353D
:10743000029012880192424A009204204FF49A72FC
:107440000BF008FA3F48002103F0CCFB20B1384A8A
:107450004FF49D711EF04DFD3B493A4803F0F2FB9D
:1074600020B1334A40F23B111EF043FD35492D480F
:1074700003F06AF820B12E4A4FF49E711EF039FDD8
:107480003249304803F0DEFB20B1294A40F23D1179
:107490001EF02FFD2B49294802F074F820B1244A30
:1074A0004FF49F711EF025FD23685B041DD51F4B13
:1074B0001B68032B19DD1E482F2120F03FFA40B333
:1074C0002F211B4820F03AFA411C1E4A194B92F812
:1074D0003400D3F804350290128801921C4A0092BD
:1074E000042040F23F120BF0B5F904B010BD104873
:1074F0005C2120F023FA08B15C2165E70C4967E7BD
:107500000B485C2120F01AFA08B15C2186E7084993
:1075100088E707485C2120F011FA08B15C21D0E728
:107520000349D2E7982F0020B8320020B43200205F
:10753000D479040000100140427A0400102E00208B
:107540007B7A04006031002030310020902F002031
:10755000A87A04002DE9FF413F4E404F338815467D
:107560003F4A0C4639881268994202F480424AD850
:10757000A34248D31C1BA4024FF4964394FBF3F39D
:1075800003FB00F6C3F580634343B70A4FEA932831
:10759000C6F38F26C3F38F24E2B1324B1B68062B50
:1075A00018DD31482F2120F0C9F918B32F212E48BA
:1075B00020F0C4F9411C2D4B1FFA88F2D3F8043592
:1075C0000292BFB22A4A009203950197DB2207205C
:1075D0000BF040F9274D0023314628462B7204F06A
:1075E00015F90123214628462B7204B0BDE8F0416D
:1075F00004F00CB91C485C2120F0A0F908B15C2112
:10760000D5E71949D7E7DAB1164B1B68002B17DD10
:1076100015482F2120F092F9A8B12F21124820F00F
:107620008DF9411C114BD3F8043503943A8802922A
:1076300032880192104A00920120E5220BF00AF9EB
:1076400004B0BDE8F08108485C2120F077F908B16A
:107650005C21E3E70449E5E7583100205A31002076
:10766000B8320020B4320020D47904000010014068
:10767000D77A040038310020017B040003C9074B8E
:1076800083E80300B3F90420054B4FF6FF71B0FB0C
:10769000F1F1188889B2FFF75DBF00BFD433002035
:1076A000D033002013B51C4B1C4C1B6821805B049D
:1076B00019D51B4B1B68032B15DD1A482F2120F011
:1076C0003DF9F8B12F21174820F038F9411C164B2D
:1076D0002288D3F804350192144A0092042040F223
:1076E0000B120BF0B7F8124B208819684FF6FF7297
:1076F000B1FBF2F1B3F9042089B202B0BDE8104049
:10770000FFF728BF07485C2120F018F908B15C2179
:10771000D9E70449DBE700BFB8320020D0330020AE
:10772000B4320020D4790400001001403E7B0400F4
:10773000D433002007B5164B1B685B0417D5154BD7
:107740001B68032B13DD14482F2120F0F7F8A8B194
:107750002F21114820F0F2F8411C104B104AD3F8A9
:107760000435009204204FF4B3720BF073F803F069
:10777000EDFF03B05DF804EB03F0CEBC06485C21DE
:1077800020F0DCF808B15C21E3E70349E5E700BF3E
:10779000B8320020B4320020D47904000010014037
:1077A000567B04000378232B01D1FFF7C3BF70473A
:1077B0001FB503A81AF00CFD154B1B685B041AD506
:1077C000144B1B68032B16DD13482F2120F0B6F84D
:1077D000A0B12F21104820F0B1F8411C0F4BBDF88B
:1077E0000C20D3F8043501920D4A0092042040F297
:1077F000E5120BF02FF805B05DF804FB06485C219C
:1078000020F09CF808B15C21E4E70349E6E700BFFB
:10781000B8320020B4320020D479040000100140B6
:107820006F7B040007B5174B1B685B0417D5164B1D
:107830001B68032B13DD15482F2120F07FF8B8B10A
:107840002F21124820F07AF8411C114B114AD3F82D
:107850000435009204204FF4F5720AF0FBFF05F0A6
:1078600001F805F027F803B05DF804EBFFF7A0BFBF
:1078700006485C2120F062F808B15C21E1E7034989
:10788000E3E700BFB8320020B4320020D47904000E
:1078900000100140867B040030B5164B1B685B046A
:1078A00085B00C46154619D5134B1B68032B15DD07
:1078B00012482F2120F042F890B12F210F4820F0DC
:1078C0003DF8411C0E4B0F4AD3F804350092CDE928
:1078D000014540F2251204200AF0BCFF05B030BD7E
:1078E00006485C2120F02AF808B15C21E6E703494C
:1078F000E8E700BFB8320020B4320020D479040099
:1079000000100140A07B040030B5164B1B685B04DF
:1079100085B00C46154619D5134B1B68032B15DD96
:1079200012482F2120F00AF890B12F210F4820F0A3
:1079300005F8411C0E4B0F4AD3F804350092CDE9EF
:1079400001454FF48E7204200AF084FF05B030BD6B
:1079500006485C211FF0F2FF08B15C21E6E703490D
:10796000E8E700BFB8320020B4320020D479040028
:1079700000100140C77B0400F0B53A4E3268520453
:10798000C7B0044623D5384F3A68042A1FDD37486C
:107990002F211FF0D3FFE0B12F2134481FF0CEFF7D
:1079A000411C334D2279D5F8043503922289029285
:1079B000E28801922F4A0092052040F25D120AF0FF
:1079C00049FF33685B0402D53B68042B0ADC47B0EF
:1079D000F0BD26485C211FF0B1FF08B15C21DCE757
:1079E0002249DEE72269244B802A1F6805AB28BFA5
:1079F000802200211E468A4203F1020319D100238E
:107A00001A4806F812302F211FF098FF00B32F21DB
:107A100016481FF093FF411C184AD5F8043501920F
:107A2000174A0092029640F25F1205200AF012FFF8
:107A3000CDE7E068405C4FEA101C00F00F0017F83B
:107A40000CC003F802CC385C03F8010C0131D2E71A
:107A500006485C211FF072FF08B15C21D8E703499A
:107A6000DAE700BFB8320020B4320020D479040035
:107A700000100140F27B0400BC320020207C040096
:107A80002A7C040007B503781D2B23D1144B6946CB
:107A900093F8980015F06FFE08B11EF01DFA114B17
:107AA000009A11484FF6FF71B2FBF1F21A800F4AAB
:107AB000019BB3FBF1F3138002F0ECFC08B11EF064
:107AC0000BFA074801F060FC08B11EF005FA03B09C
:107AD0005DF804FB142BFAD1FFF74EFFF7E700BF68
:107AE000102E00205A310020982F002058310020FD
:107AF0002DE9FF41974EA0F131073368032F03F4BE
:107B0000804300F20281A0F13005D3B1924B1B6893
:107B1000032B16DD91482F211FF010FF002800F0E5
:107B200091802F218D481FF009FF411C8C4B8D4AFD
:107B3000D3F804350092019540F2851204200AF032
:107B400089FE894C032D23684FF6FF70B3FBF0F3D9
:107B50009BB200F09280042D00F094808349022DA6
:107B60000A8878D0B2F5804F38BF4FF48042A2F532
:107B700080420A8042F26022934238BF1346A3F546
:107B8000FA539AB2C2EB0343032F236057D0774FC7
:107B90002168B4F9042038884FF6FF73B1FBF3F184
:107BA00089B2FFF7D7FC724801F076FC33685B04BA
:107BB000054644D5684B1A68032A984640F3C680A8
:107BC00066482F211FF0BAFE002800F08C802F217C
:107BD00062481FF0B3FE411C614BA288D3F8043504
:107BE00003924FF6FF702268B2FBF0F292B202925B
:107BF0003A8801925F4A009204204FF4E4720AF03E
:107C000029FEE5B133685A0419D5D8F80030012BA4
:107C100015DD52482F211FF091FE00286CD02F2136
:107C20004E481FF08BFE411C4D4B534AD3F8043590
:107C30000092019540F2CF1202200AF00BFE04B030
:107C4000BDE8F08145485C211FF078FE08B15C2159
:107C500068E742496AE702F58042824228BF02464D
:107C60000A8042F6E062934228BF134603F5FA53B6
:107C70009AB2C2EB0343236089E7A38803F58043EC
:107C8000A38084E703F046FA40B110F0BBFF03F095
:107C9000E7F904B0BDE8F041FFF74CBD3368590483
:107CA000CDD52D4B1B68032BC9DD2C482F211FF090
:107CB00045FE78B12F2129481FF040FE411C284B7A
:107CC0002E4AD3F80435009240F2B71204200AF08D
:107CD000C1FDB4E721485C211FF030FE08B15C21F2
:107CE000E9E71E49EBE71D485C211FF027FE08B1BC
:107CF0005C216DE719496FE718485C211FF01EFEF3
:107D000008B15C218CE715498EE7002B97D0124B08
:107D10001B68032B93DD11482F211FF00FFE60B16C
:107D20002F210E481FF00AFE411C0D4B144AD3F8B8
:107D30000435009240F2DD12C8E708485C211FF0CC
:107D4000FDFD08B15C21ECE70449EEE7002D7FF46E
:107D50005CAF74E7B8320020B4320020D47904005C
:107D600000100140327C0400D4330020D0330020C6
:107D7000102E00207C7C0400A87C0400457C0400BC
:107D8000DC7D040000B57B4C7B4A4FF4C0408DB0D5
:107D900004210AF043FD2368580418D5774B1B686B
:107DA000032B14DD76482F211FF0C8FD00283ED09C
:107DB0002F2173481FF0C2FD411C724B724AD3F849
:107DC00004350092042040F21F220AF043FD6F4860
:107DD00003F0CCFC1BF09CFC08B11EF07DF804F015
:107DE00005FD04F03FFD04F065FD03F06DFC00218E
:107DF000202203A81FF0D0FC01238DF80C300723AC
:107E00008DF80F3006238DF81430614B07936149CC
:107E1000614B0B9303A803F031F918B903F074FC1C
:107E2000002831D00B280BD01EF056F82CE0544817
:107E30005C211FF083FD08B15C21BAE75049BCE723
:107E400003F084FC236859041ED54C4E3268032A83
:107E50001ADD4B482F211FF071FD002857D02F212C
:107E600047481FF06BFD411C464D4C4AD5F8043580
:107E70000092042040F211220AF0ECFC23685A041C
:107E800002D53368032B4BDC6421454803F0C8FA64
:107E9000404B1978002960D1142203A81FF07CFC04
:107EA000404B0493404B089303A8404B099303F0C5
:107EB0005BFA08B11EF010F805F0E0FB03F0E6FAFB
:107EC0003B4808F02BFC03F03DF808B11EF004F825
:107ED00023685B0418D5294B1B68032B14DD284845
:107EE0002F211FF02BFD00283AD02F2124481FF00E
:107EF00025FD411C234B2F4AD3F804350092042062
:107F000040F24B220AF0A6FCFFF7D4F9FCE71C482C
:107F10005C211FF013FD08B15C21A1E71849A3E71C
:107F200017482F211FF00AFD70B12F2114481FF0B0
:107F300005FD411C204AD5F804350092042040F28A
:107F400013220AF087FC9FE70D485C211FF0F6FC26
:107F500008B15C21EAE70A49ECE7FFF729FCABE747
:107F600007485C211FF0EAFC08B15C21BEE7044928
:107F7000C0E700BFB8320020F1270300B432002070
:107F8000D479040000100140D67C04003831002070
:107F9000A57702008C33002099730200087D04004D
:107FA000F17A020025780200927D0400C37F04006C
:107FB000002E0020DC7D0400567D040013B5D0F8AF
:107FC000B0304A68934228BF13460A6893422CBFD8
:107FD00000930092B0F8B430ADF80430D0F8A0307F
:107FE00004460BB169469847009BC4F8B03002B014
:107FF00010BDA03802F030BF38B5084B1C68002512
:108000000CB9012038BD14F8022C2AB104F8025C26
:10801000A4F19C0002F020FF2468F1E70034002066
:1080200070B504468AB0A0F1E00650F83C3C06A9C1
:1080300030469847237F012B4CD114F80C3C002B81
:108040004BD154F8143C44F8283C34F80E3C24F846
:10805000243C2B4B1B685B0427D52A4B1B68032B46
:1080600023DD29482F211FF069FC00283ED02F2155
:1080700025481FF063FC411C244B226AD3F80435C9
:108080000492626A03924FF6FF7054F8202CB2FB00
:10809000F0F292B2029214F8502C01921C4A009213
:1080A000042040F23D320AF0D5FB54F8385C00233E
:1080B00044F8083C65B134F8243CADF8243054F859
:1080C000283C08930AAB13E90C00216A3046A84704
:1080D0000AB070BD13F0FD0FB3D154F8183C44F84A
:1080E000203C34F8103C24F81C3CAAE706485C21EC
:1080F0001FF024FC08B15C21BAE70349BCE700BFCC
:10810000B8320020B4320020D37F040000100140B8
:10811000FA7F040030B589B01446D0F8A43004A921
:1081200005469847049B2360BDF81430A380B5F83A
:10813000BC30A38195F80C31022B4AD195F89800F8
:1081400006A915F018FB20B12B4A4FF4A2711DF0BF
:10815000D0FED5F8B8000799284A47F6FF73884241
:1081600018BF1346A360D5F800312BB1D5F8043100
:10817000003B18BF01235B422361214B1B685B045A
:1081800025D5204B1B68032B21DD1B482F211FF019
:10819000D5FB38B32F2118481FF0D0FB411C1A4BD8
:1081A0002269D3F8043503924FF6FF752268B2FBBB
:1081B000F5F292B2A0680192B0FBF5F0134A00927A
:1081C00080B202904FF4AA7204200AF043FB09B077
:1081D00030BDD5F8B830A36005F1E00002F04AFEEA
:1081E0002061CAE704485C211FF0A8FB08B15C21AC
:1081F000D1E70149D3E700BFD37F04000080FFFF30
:10820000B8320020B4320020001001403D8004004C
:1082100030B505468DB0D0F8A4300AA91446984769
:10822000D5F89C000DF12601D0F8CC309847BDF868
:1082300026302380D5F89C30B3F8EA3023810A9B9E
:108240006360D5F8B830E36095F80C31022B38D173
:10825000D5F80031003B18BF01235B422361204B5E
:108260001B685B042BD51F4B1B68042B27DD1E48A6
:108270002F211FF063FB50B32F211B481FF05EFB23
:10828000411C1A4BD5F80421D3F804350692226913
:108290000592228903924FF6FF756268B2FBF5F2F0
:1082A00092B202922288E0680192B0FBF5F0104A87
:1082B000009280B20490D52205200AF0CBFA0DB0CE
:1082C00030BD05F1E00002F0D5FD2061C7E70648AA
:1082D0005C211FF033FB08B15C21CEE70249D0E7F7
:1082E000B8320020B4320020D37F040000100140D7
:1082F0005E80040070B504468EB0D0F8A4300E46FF
:1083000002A99847D4F89C000DF10601D0F8CC30B2
:10831000984794F87931002B3BD1D4F89C00D0F8E1
:1083200018316BBB3046BDF80630ADF81030029BFB
:108330000593D4F89C300890B3F8EA30ADF81830C3
:1083400004A9D4F8B8300793201D14F039FF05466E
:10835000029B0993BDF80C30ADF82830D4F8B83042
:108360000B9309A9B4F8BC30ADF8303004F13000FB
:108370000D9614F03EFF002D18BF28460EB070BDBC
:10838000F83002F077FD0028CCD0B04238BF30463C
:10839000C9E70025DCE7000070B550F8143C40F850
:1083A000283C554E30F80E3C20F8243C32685204EC
:1083B00086B00446A0F1E0051CD5504B1B68032B8A
:1083C00018DD4F482F211FF0B9FA002800F08180F6
:1083D0002F214B481FF0B2FA411C4A4B14F8502C85
:1083E000D3F804350192484A009204204FF4747285
:1083F0000AF030FA94F82C3014F8480C022B1FBF06
:1084000054F8283C44F8303C34F8243C24F82C3C04
:1084100002A915F0B0F920B1394A40F2D9311DF066
:1084200068FD3A4B029A9A4202D0039A9A421BD1B3
:1084300033685B0418D5314B1B68012B14DD3048C1
:108440002F211FF07BFA00284CD02F212C481FF041
:1084500075FA411C2B4B2E4AD3F8043500920220AA
:1084600040F2DA320AF0F6F902A92846FFF7A6FD33
:1084700054F8386C66B134F8243CADF8143054F834
:10848000283C049306AB13E90C00216A2846B04748
:1084900054F8301C14F8480C15F0E4F820B1184AD0
:1084A0004FF47A711DF025FD34F92C1C14F8480C9A
:1084B00015F0F5F820B1124A40F2E9311DF019FD2E
:1084C00000212846FFF716FF0023A4F8983006B0D5
:1084D00070BD0B485C211FF031FA08B15C2178E7D0
:1084E00007497AE706485C211FF028FA08B15C21A9
:1084F000ACE70349AEE700BFB8320020B432002039
:10850000D37F040000100140A78004000100FEFF9B
:10851000C98004002DE9FF470446066AA0F1E0087F
:1085200002F0C1FC94F82C3054F820AC022B054624
:10853000A6EB00097CD054F8282CB2EB0A0262EBBF
:108540000203A2FB0001F71705FB031132463B466D
:108550001EF0EEFE504444F8300C34F91CAC34F9F3
:10856000240CA0EB0A00C317A0FB050105FB0311B7
:1085700032463B461EF0DCFE504424F82C0C14F826
:10858000480C02A915F0F7F820B1394A40F2AD3194
:108590001DF0AFFC374B029A9A4202D0039A9A42DE
:1085A0001CD1354B1B685B0418D5344B1B68012B61
:1085B00014DD2F482F211FF0C1F900284CD02F21A6
:1085C0002B481FF0BBF9411C2D4B2E4AD3F8043524
:1085D0000092022040F2AF320AF03CF902A9404674
:1085E000FFF7ECFC94F82C30022B0ED1626A54F8A1
:1085F000303C002A39DD039A934206D1012384F8E6
:108600009A30214B186809F03DF840F2DC53994547
:108610000BD954F8083CEB1AB3F57A7F05D944F826
:10862000085C49464046FFF765FE04B0BDE8F087A8
:10863000626A4FF6FF76D117A2FB002300FB0133DD
:10864000A2FB060106FB0311226A00231EF070FE46
:10865000504444F8300C92E705485C211FF06EF955
:1086600008B15C21ACE70249AEE7CED0029AC3E77D
:10867000D37F04000100FEFFB8320020B432002096
:1086800000100140C9800400FC33002038B5D0F848
:108690009C300446114693F8C400154616F0FFF8C6
:1086A00020B10F4A4FF4D4711DF023FC94F89800C8
:1086B000291D15F026F820B1094A4FF4D5711DF097
:1086C00018FC94F8980005F1080115F03AF830B15B
:1086D000BDE83840024A40F2AB111DF00ABC38BD7B
:1086E000D37F04007FB51D46D0F89C301188044626
:1086F00093F8C400164616F0BFF820B1254A40F2A0
:10870000B9111DF0F6FB716894F8980014F0E7FFBA
:1087100020B1204A40F2BB111DF0EBFBB6F9081066
:1087200094F8980014F0FAFF20B11A4A4FF4DE7161
:108730001DF0DFFBD4F89C3001AE93F8C400314645
:1087400016F0ADF820B1134A4FF4DF711DF0D1FBE4
:1087500094F8980002A914F0D4FF20B10D4A4FF408
:10876000E0711DF0C6FB94F8980003A914F0E9FF2E
:1087700020B1084A40F2C1111DF0BBFB3146201D5B
:1087800014F059FD1DB196E8070085E8070004B014
:1087900070BD00BFD37F040070B588B0054603A943
:1087A00090F8980016461C4614F0E5FF20B1334AB5
:1087B00040F2E3111DF09DFB314B039A9A4202D027
:1087C000049A9A421BD12F4B1B685B0417D52E4B82
:1087D0001B68012B13DD29482F211FF0AFF858B378
:1087E0002F2126481FF0AAF8411C284B284AD3F80D
:1087F0000435009202204FF4F3720AF02BF80023A4
:108800008DF81430039B0693049B32680793214B29
:1088100021499A423CBF01238DF8143073688B4282
:1088200013D902238DF8143024B108AB13E90700E3
:1088300084E8070008B070BD10485C211FF07EF886
:1088400008B15C21CDE70D49CFE79DF81410002950
:10885000EAD195F8980003A9CDE90623CDE90323D1
:1088600014F07CFF20B1054A40F203211DF041FBCA
:1088700005A9281D14F0D6FCD6E700BFD37F04005D
:108880000100FEFFB8320020B43200200010014089
:10889000C9800400E0FC1F03E0B11F4E13B5154B67
:1088A0001B685B0404461AD5134B1B68032B16DDAB
:1088B00012482F211FF042F898B12F210F481FF0C6
:1088C0003DF8411C0E4B14F8502CD3F8043501929E
:1088D0000C4A0092042040F2233209F0BBFF02B0A0
:1088E00010BD06485C211FF029F808B15C21E5E7BE
:1088F0000249E7E7B8320020B4320020D37F0400F9
:1089000000100140EB80040070B54FF6FF74B1FB1E
:10891000F4F1B0FBF4F489B2A4B20C1B20469D1A0A
:108920001EF0D2FE064628461EF0CEFE8642CCBF82
:108930002046284670BD00002DE9F041A0F5C07426
:108940008AB01F4601230E4684F8783108A9D4F86E
:10895000A430054620469046984794F8980007AA08
:10896000314614F029FF20B14D4A4FF488611DF0C3
:10897000C0FA94F898000DF11A02314614F042FF43
:1089800020B1474A40F244411DF0B3FABDF81A3015
:10899000A4F8D230D4F8B0300799C4F8C830B4F88D
:1089A000B43094F89800C4F8CC10A4F8D03014F087
:1089B00059FE20B13A4A40F24E411DF09AFAB4F9FC
:1089C000D21094F8980014F06AFE20B1344A4FF4A3
:1089D0008A611DF08EFA94F899304BB1DDE90732C7
:1089E0009A4205D1BDF82420BDF91A309A424BD0E5
:1089F000A5F1A006304602F02FFAB4F9D230BDF945
:108A00002420D4F8CC100898FFF77EFF002305F847
:108A1000843C2D2345F8883C224B45F88C0CC4F847
:108A2000108145F8907C1B685B042AD51E4B1B689F
:108A3000032B26DD1A482F211EF080FF38B32F218B
:108A400017481EF07BFF411C184B55F88C2CD3F8AF
:108A50000435059255F8902C0492D4F81021039215
:108A6000BDF91A2002924FF6FF70079AB2FBF0F29E
:108A700092B201920E4A0092042040F2634209F041
:108A8000E9FE304602F0DAF90AB0BDE8F0810448A8
:108A90005C211EF053FF08B15C21D1E70049D3E708
:108AA000D37F0400B8320020B4320020001001400F
:108AB0000781040008B50023C0F81031D0F89C30BD
:108AC00000F1F00193F8C40015F088FF30B1BDE863
:108AD0000840034A40F209411DF00BBA08BD00BF2F
:108AE000D37F04002DE9F041154601228EB080F8B5
:108AF000782104462A88D0F89C00ADF82420AA7A70
:108B00008DF826200DF1300CD0F8C020CDF800C033
:108B1000D2F80480149E09AA1F46C047D4F8A43096
:108B20000AA9204698476968C4F8CC102B89A4F894
:108B3000D230D4F8B030C4F8C830B4F8B43094F8B7
:108B40009800A4F8D03014F08DFD20B1474A4FF4BE
:108B500081711DF0CEF9B4F9D21094F8980014F098
:108B60009EFD20B1414A40F203111DF0C2F994F874
:108B700099300A98BDF82C202BB16B68834202D142
:108B80002B8993426FD0B4F9D230D4F8CC1012B202
:108B9000FFF7BAFE002384F8FC302D23C4F8F4005C
:108BA000C4F8F830002F4ED12046FFF783FF304B3A
:108BB000D4F8F0701B685B042CD52E4B1B68032B7C
:108BC00028DD2A482F211EF0B9FE002842D02F218F
:108BD00026481EF0B3FE411C274BD4F8F420D3F8EE
:108BE00004350692D4F8F0200592D4F810210492AE
:108BF0002A8903924FF6FF706A68B2FBF0F292B2D4
:108C000002922A8801921D4A009204204FF4887231
:108C100009F020FE04F1E00002F010F9D4F884011C
:108C200002F023F866B1BDF830303380BDF8323041
:108C30003381D4F8B0307360D4F8CC30C6E9033750
:108C40000EB0BDE8F0817B68C4F810313B68C4F811
:108C5000F030ACE705485C211EF070FE08B15C21E5
:108C6000B6E70249B8E70027DCE700BFD37F04007E
:108C7000B8320020B43200200010014050810400BE
:108C800030B5A0F5C07487B010F8E80CD4F8B02067
:108C90000D4614F07DFD20B1234A40F21C411DF029
:108CA00028F9B4F9B42094F89800294614F094FDFA
:108CB00020B11D4A4FF484611DF01BF91B4B1B684A
:108CC0005B0426D51A4B1B68042B22DD16482F2186
:108CD0001EF034FEF8B12F2113481EF02FFE411C68
:108CE000144BB4F9B420D3F804350492D4F8B0206E
:108CF0004FF6FF70B2FBF0F292B2CDE9025294F857
:108D0000982001920C4A0092052040F2254209F079
:108D1000A1FD07B030BD04485C211EF00FFE08B174
:108D20005C21D9E70049DBE7D37F0400B83200209B
:108D3000B432002000100140A98104001FB590F852
:108D4000980002A9144614F016FD20B11B4A40F207
:108D5000D3111DF0CEF8002302992370184B039A0B
:108D600061609942A26001D09A421BD1154B1B68E9
:108D70005B0417D5144B1B68012B13DD0F482F2103
:108D80001EF0DCFD80B12F210C481EF0D7FD411CE8
:108D90000E4B0F4AD3F80435009202204FF4EC72C8
:108DA00009F058FD04B010BD04485C211EF0C6FD5A
:108DB00008B15C21E8E70149EAE700BFD37F04007E
:108DC0000100FEFFB8320020B43200200010014044
:108DD000C980040030B590F8993089B004460D463A
:108DE000BBB190F87831A3B9D0F8A43001A9984765
:108DF0002B88ADF80C306B88ADF814306B68079396
:108E0000019B049303A9D4F8B8300693201D14F0F5
:108E1000D7F909B030BD0000F0B51F4689B0012375
:108E2000044680F8793106A9D0F8A4300E9E154684
:108E30009847069BC4F8B030BDF81C3094F89800F1
:108E4000A4F8B43004A914F096FC20B13F4A40F2D3
:108E50006B211DF04EF82B68C4F8F43002222D234C
:108E600084F8FC20C4F8F830002F56D12046FFF7D4
:108E700021FE2B68002B57DDD4F8F030002B59D0A1
:108E8000059BC4F8CC30324B1B685B0420D5314BBA
:108E90001B68032B1CDD2D482F211EF04FFD0028E1
:108EA0004BD02F2129481EF049FD411C2A4BD4F8F4
:108EB000F020D3F804350392D4F8102102922A68E6
:108EC0000192264A0092042040F27D2209F0C2FC61
:108ED00004F1E00001F0B2FF2B6833B1D4F8F030B8
:108EE0001BB1D4F8840101F0C0FEA6B1D4F8B030B3
:108EF0003360D4F8CC30059A93424FF0FF3318BF5B
:108F00000023B360D4F8F03023B12B68003B18BFC6
:108F100001235B42336109B0F0BD7B68C4F81031B6
:108F20003B68C4F8F030A4E704D0D4F8F0300BB1BB
:108F3000049BA6E7D4F8B030A3E704485C211EF0F8
:108F4000FDFC08B15C21ADE70049AFE7D37F040029
:108F5000B8320020B432002000100140FD8104002E
:108F6000F0B5154689B01F460123044680F87931D3
:108F700006A9D0F8A4300E9E98472968C4F8CC10F2
:108F8000AB88A4F8D230D4F8B030C4F8C830B4F804
:108F9000B43094F89800A4F8D03014F063FB20B1FA
:108FA000454A4FF4B9711CF0A4FFB4F9D21094F8FB
:108FB000980014F074FB20B13F4A40F273111CF08A
:108FC00098FF94F899300698BDF81C202BB12B68B7
:108FD000834202D1AB8893426CD0B4F9D230D4F83A
:108FE000CC1012B2FFF790FC002384F8FC302D2344
:108FF000C4F8F400C4F8F830002F4BD12046FFF736
:1090000059FD2E4BD4F8F0701B685B042AD52C4B0D
:109010001B68032B26DD28482F211EF08FFC00281B
:109020003FD02F2124481EF089FC411C254BD4F849
:10903000F420D3F804350592D4F8F0200492D4F843
:1090400010210392AA8802924FF6FF702A68B2FBA1
:10905000F0F292B201921C4A009204204FF4C072C6
:1090600009F0F8FB04F1E00001F0E8FED4F8840117
:1090700001F0FBFD66B1D4F8B0303360D4F8CC30E9
:10908000B360B4F8B430B380B4F8D230B381376190
:1090900009B0F0BD7B68C4F810313B68C4F8F0300B
:1090A000AFE705485C211EF049FC08B15C21B9E737
:1090B0000149BBE70027DDE7D37F0400B832002079
:1090C000B432002000100140258204002DE9F04751
:1090D00088B01546DDF840909846044600B112B9B4
:1090E000784604F093FA012384F8793104F10800FA
:1090F00012F09AFF674B84F8D4001A6812F4804F7C
:109100009A4623D0644B1B68032B1FDD63482F2135
:109110001EF014FC002800F09E802F215F481EF0F6
:109120000DFC411C94F8D4705D4A5E4E28795E4B6C
:10913000002F08BF3246D3F80435CDE901025B4A5F
:109140000092042040F2252209F084FBD4F8A430D8
:1091500004A9204698472E6894F898004FF6FF73AC
:1091600006A986FB036714F006FB20B14B4A40F2C8
:109170002E211CF0BEFE94F8D430002B00F0868027
:10918000D4F8B030C4F8C830B4F8B430A4F8D03053
:10919000049B079AF61847F100070021B24271EBD1
:1091A000070306DB069A0023B24273EB0701B8BF40
:1091B0003246C4F8CC202B68C4F8F43001222D23A9
:1091C00084F8FC20C4F8F830B8F1000F4CD12046E8
:1091D000FFF770FCDAF800305B0420D52E4B1B68DB
:1091E000032B1CDD2D482F211EF0A8FB002844D0A6
:1091F0002F212A481EF0A2FB411C2B4BD4F8F02053
:10920000D3F804350392D4F8102102922A6801920F
:10921000274A009204204FF4107209F01BFB04F15E
:10922000E00001F00BFE2B681BB1D4F8840101F0C3
:109230001CFDB9F1000F0BD0D4F8B030C9F80030E4
:10924000D4F8CC30C9F80830D4F8F030C9F8103070
:1092500008B0BDE8F08711485C211EF06FFB08B133
:109260005C215BE70D495DE7D8F80430C4F81031A4
:10927000D8F80030C4F8F030ACE708485C211EF0A4
:109280005DFB08B15C21B4E70449B6E7D4F8C0300F
:109290007FE700BFB8320020B4320020D37F040043
:1092A000748204007C820400001001409B82040050
:1092B000A782040070B50E46044600284DD0002A4F
:1092C0004BD0D0F8A430002B47D0D0F8A0301BB939
:1092D000D0F8A830002B40D0C4F89C20C2F8D84069
:1092E000D4F89C301E4AC3F8D4201E4BC4F89430E6
:1092F00004F1980014F098FA054660BB84F89900D0
:10930000D4F89C103246204613F09EFF054610BB51
:10931000154BC4F88031154BC4F8E030144BC4F839
:10932000E430144BC4F8E83004F1E000124B84F848
:109330007A51C4F8EC30C4F8680101F0C9FD054663
:1093400048B90E4804F5BE7109F0E9F90C4808F077
:109350007BF90C4B1860284670BD0E25FBE700BF5B
:10936000D58D0200D0820400F88204009D8802009E
:10937000218002001585020099830200003400203C
:10938000F97F0200FC33002030B5044689B0002884
:1093900073D0D0F89C3090F8985093F8C40002A98C
:1093A00015F010FA20B1364A40F2C3411CF0A1FD7D
:1093B00003A9284614F067F920B1314A40F2C441AC
:1093C0001CF097FD04A9284614F09BF920B12C4A03
:1093D00040F2C5411CF08DFD05A9284614F072F934
:1093E00020B1274A40F2C6411CF083FD0DF1160161
:1093F000284614F0A6F920B1214A40F2C7411CF0DA
:1094000078FD06A9284614F0B6F920B11C4A4FF49D
:1094100099611CF06EFD1B4B069A9A4202D0079A86
:109420009A421BD1184B1B685B0417D5174B1B685E
:10943000012B13DD12482F211EF080FAA0B12F213D
:109440000F481EF07BFA411C114B124AD3F8043529
:109450000092022040F2CB4209F0FCF902A920461A
:1094600013F0F4FF09B030BD05485C211EF066FA28
:1094700008B15C21E4E70249E6E70E20F2E700BF0D
:10948000D37F04000100FEFFB8320020B432002078
:1094900000100140C98004007FB5044600286CD04C
:1094A000E03001F0D9FCD4F89C00F83001F0D4FC95
:1094B000D4F8A430D4F8B060B4F9B45002A920466E
:1094C0009847D4F89C000DF10601D0F8CC309847AD
:1094D000029BC4F8B030BDF80C30A4F8B430D4F816
:1094E0009C30BDF80620A3F8E820D4F8B01094F81A
:1094F000980014F0B7F820B1214A40F2EB411CF07B
:10950000F8FCB4F9B41094F8980014F0C8F820B13D
:109510001B4A40F2EC411CF0ECFCBDF8061061B1B6
:10952000D4F89C30012293F8C40015F057F920B10B
:10953000134A4FF49E611CF0DCFCD4F89C30BDF85B
:10954000061093F8C40015F017FA20B10C4A40F247
:10955000F5411CF0CEFCD4F8B030B34203D1B4F9DD
:10956000B430AB4203D0D4F8840101F07EFB00217B
:109570002046FEF7BFFE04B070BD0E20FBE700BF23
:10958000D37F040020B119B1C0F8841100207047C6
:109590000E207047A03801F05FBC00002DE9F341B8
:1095A0001C4B1D4D1C681D4E1D4F1CB9012002B0E7
:1095B000BDE8F08114F8043CA4F5CA78FBB12B682F
:1095C0005B0415D53368032B12DD16482F211EF0DE
:1095D000B5F9B0B12F2113481EF0B0F9411C124A61
:1095E000D7F80435009204204FF4387209F032F9AC
:1095F000002388F89031A4F19C0001F02DFC246830
:10960000D3E708485C211EF099F908B15C21E2E734
:109610000449E4E718340020B8320020B4320020B6
:1096200000100140048304003183040010B5037F5F
:10963000012B86B004463CD110F8063C002B3BD1F0
:1096400034F8083C24F80E3C002344F8043C224B38
:109650001B685B0421D5214B1B68032B1DDD2048B3
:109660002F211EF06BF960B32F211D481EF066F903
:10967000411C1C4B226AD3F804350492626A03929F
:1096800034F80C2C029214F83C2C0192164A0092E9
:10969000042040F2153209F0DDF854F8283CCBB133
:1096A00034F80E2C216AA4F1F80006B0BDE8104091
:1096B000184713F0FD0FC3D134F80A3C24F80C3CD2
:1096C000BEE707485C211EF039F908B15C21CCE700
:1096D0000349CEE706B010BDB8320020B4320020F6
:1096E00004830400001001403F83040038B5C4B275
:1096F0000D462046023115F012F918B10C4A9B2193
:109700001CF0F7FB291D204615F029F918B1084A6D
:109710009C211CF0EEFB2946204615F0E0F828B10C
:10972000BDE83840024A9D211CF0E3BB38BD00BFB4
:109730000483040038B51546044600B112B97846D2
:1097400003F064FF94F82000294615F047F930B182
:10975000BDE83840024A40F2ED111CF0CABB38BDEA
:109760000483040037B50546144612B9784603F061
:109770004DFF95F8C4006946FFF7B8FFBDF8023009
:109780006380BDF80430A3809DF80030237003B0DF
:1097900030BD000073B514461E46054600B112B92F
:1097A000784603F033FF216895F8200015F004F99E
:1097B00020B1084A40F205211CF09BFB236801936D
:1097C00001A9284612F088FD0EB12368336002B06B
:1097D00070BD00BF0483040013B5D0F8E830CDE9B4
:1097E0000031D0F8D43004461BB1D0F8D800694617
:1097F00098476946201D14F059FD02B010BD0000C5
:1098000030B5154689B0044600B112B9784603F068
:10981000FDFED4F8CC300DF1160120469847BDF876
:1098200016302B8094F82431022B3BD194F8C400DD
:1098300006A9FFF75BFFB4F8EA30BDF81C2093429D
:109840004FF0FF3318BF00236B80D4F818312BB1D1
:10985000D4F81C31003B18BF01235B426B601A4BEC
:109860001B685B041CD5194B1B68042B18DD1848BA
:109870002F211EF063F8F0B12F2115481EF05EF87D
:10988000411C144B6A68D3F8043503926A8802922B
:109890002A880192104A00920520D32208F0DAFFAC
:1098A00009B030BDB4F8EA306B8004F1F80001F083
:1098B000E1FA6860D3E706485C211EF03FF808B182
:1098C0005C21DAE70249DCE7B8320020B43200203C
:1098D0000483040000100140808304002DE9B34F8D
:1098E0000446A0F1F80901F0DEFA0746204601F02F
:1098F000C1FA94F82C3034F80C5C226A022B8046B2
:109900004BD034F80E0C401B4FEAE07BA0FB070164
:1099100007FB0B11D3171DF00BFD6946054414F826
:10992000340CFFF7E3FE002D40D0BDF802108D424D
:10993000B8BF0D46BDF804108D42A8BF0D46A9B2B0
:1099400054F8303C24F8101C0BB14846984794F862
:109950002C30022B0FD1626A34F8103C002A27DD2C
:10996000BDF804209A4206D1012384F89830124BA6
:10997000186807F087FEB8F5FA7F0BD954F8043C55
:10998000FB1AB3F57A7F05D944F8047C4146484672
:10999000FFF722FF02B0BDE8B08F606A4FEAE07BBC
:1099A000A0FB070107FB0B110023B4E72946C7E71B
:1099B000E1D0BDF80220D5E71434002038B51546B3
:1099C000044600B112B9784603F020FE94F8600016
:1099D000294614F0F7FE30B1BDE83840024A40F2A3
:1099E000D5111CF086BA38BD0483040070B5144646
:1099F0001D46064600B112B9784603F007FE2178ED
:109A000096F8600014F0CCFE20B1044A40F2C11177
:109A10001CF06FFA0DB123782B7070BD0483040025
:109A200073B504461D46164612B9784603F0EEFD9E
:109A3000694694F8C400FFF759FE318800238DF879
:109A4000003071B901238DF8003045B1BDF8023006
:109A50006B80BDF80430AB809DF800302B7002B0F5
:109A600070BD738894F8C400ADF80210ADF80430EE
:109A700014F042FF20B1114A40F27F211CF039FA64
:109A8000BDF8041094F8C40014F056FF20B10B4A3E
:109A90004FF420711CF02DFA9DF8001094F8C400CA
:109AA00014F00AFF20B1054A40F281211CF021FA8E
:109AB0006946201D14F020FCC7E700BF04830400A2
:109AC00073B506461D46144612B9784603F09EFD4E
:109AD000218896F8C40014F0CFFE20B1084A40F265
:109AE0003E211CF006FA2388ADF8043001A9301D90
:109AF00014F0F9FB0DB123882B8002B070BD00BFBC
:109B00000483040038B50546144612B9784603F0BC
:109B10007DFD95F8C400214614F0C1FE30B1BDE8CA
:109B20003840034A40F225211CF0E3B938BD00BF9C
:109B30000483040038B50546144612B9784603F08C
:109B400065FD95F8C400214614F070FE30B1BDE803
:109B50003840034A40F21A211CF0CBB938BD00BF8F
:109B6000048304001FB5174B1B685B0404461DD516
:109B7000154B1B68032B19DD14482F211DF0DEFE49
:109B8000B0B12F2111481DF0D9FE411C104B34F803
:109B9000102CD3F80435029214F83C2C01920D4A93
:109BA000009204204FF43F7208F054FE04B010BD40
:109BB00006485C211DF0C2FE08B15C21E2E70349C2
:109BC000E4E700BFB8320020B43200200483040070
:109BD00000100140A683040008B50023C0F8283116
:109BE00000F5847190F8C40014F0F8FE30B1BDE8BF
:109BF0000840034A40F2BB311CF07BB908BD00BFEE
:109C0000048304002DE9F0418AB01646DDF8408057
:109C10001F46044600B112B9784603F0F7FCD4F8A9
:109C2000DC301BB13188D4F8E0009847D4F8CC3050
:109C30000DF11E012046984794F8C400358808A904
:109C4000FFF754FDBDF824309D427ED8BDF8223088
:109C50009D4202D2002D18BF1D46B4F8E83094F89A
:109C6000C400A4F8F050A4F8EE30294614F084FEA5
:109C700018B1404AF2211CF03CF9B4F8F01049B197
:109C800094F8C400002214F0A9FD18B1394AF52156
:109C90001CF02FF994F8C530BDF81E2013B133889D
:109CA000934264D0B4F8F0309B1AC4F80C3100220F
:109CB0002D2384F81421C4F81031002F47D12046F9
:109CC000FFF78AFF2C4BD4F808511B685B0424D59E
:109CD0002A4B1B68032B20DD26482F211DF02EFE6A
:109CE00000283BD02F2123481DF028FE411C244B87
:109CF000D4F80C21D3F804350492D4F80821039247
:109D0000D4F828210292B4F8F02001921D4A009262
:109D1000042040F2011208F09DFD04F1F80001F06A
:109D20008DF8D4F89C0100F0A0FFB8F1000F09D025
:109D3000B4F8E830A8F80030B4F8F030A8F80230F1
:109D4000C8F804500AB0BDE8F0811D4685E77B687D
:109D5000C4F828313B68C4F80831B3E705485C21F2
:109D60001DF0ECFD08B15C21BDE70249BFE700250D
:109D7000DBE700BF04830400B8320020B4320020C7
:109D800000100140D983040030B5A0F5CC7530F83F
:109D9000B02C10F8D40C85B00C4614F02CFE20B179
:109DA000194A40F2CE311CF0A4F8184B1B685B0432
:109DB0001ED5174B1B68042B1ADD13482F211DF0ED
:109DC000BDFDB8B12F2110481DF0B8FD411CB5F8FC
:109DD000E820104BD3F80435CDE9024295F8C420B1
:109DE00001920D4A0092052040F2D33208F032FD74
:109DF00005B030BD04485C211DF0A0FD08B15C2118
:109E0000E1E70149E3E700BF04830400B832002022
:109E1000B4320020001001401784040013B504463A
:109E2000694690F8C400FFF761FCB4F8E810BDF88B
:109E30000220BDF8043029B1914238BF1146994241
:109E400028BF1946D4F8C830A4F8E8100BB1204652
:109E5000984702B010BD000030B590F82C2030F8C3
:109E6000083C20F80E3C022AA0F1F80518BF20F8A3
:109E7000103C85B004462846FFF7D0FF2A4B1B68EC
:109E80005B041ED5294B1B68032B1ADD28482F21A4
:109E90001DF054FD00283DD02F2125481DF04EFD1A
:109EA000411C244B34F8102CD3F80435029214F8DA
:109EB0003C2C0192204A009204204FF4647208F076
:109EC000C9FC54F8283C23B134F80E2C216A2846EA
:109ED000984734F8101C51B114F8340C012214F0D6
:109EE0007DFC20B1124A40F29F311CF002F834F898
:109EF000101C14F8340C14F03FFD20B10C4A40F251
:109F0000A3311BF0F6FF0021284605B0BDE8304024
:109F1000FFF762BC06485C211DF010FD08B15C2112
:109F2000BBE70349BDE700BFB8320020B4320020D0
:109F3000048304000010014058840400F0B587B089
:109F400015460C9E1F46044600B112B9784603F030
:109F50005DFBD4F8DC301BB12988D4F8E0009847C9
:109F6000B5F90030C4F80C3102222D2384F81421F5
:109F7000C4F81031002F67D12046FFF72DFED4F82A
:109F8000CC3004F1E8012046984794F8C40004A9B5
:109F9000FFF7ACFBB5F90030002B5CDDD4F80831DD
:109FA000002B5FD0BDF81430A4F8F030334B1B68A1
:109FB0005B0421D5324B1B68032B1DDD31482F215B
:109FC0001DF0BCFC002850D02F212E481DF0B6FCFF
:109FD000411C2D4BD4F80821D3F804350392D4F852
:109FE00028210292B5F900200192284A009204200B
:109FF0004FF4CB7208F02EFC04F1F80000F01EFFC5
:10A00000B5F9003033B1D4F808311BB1D4F89C0154
:10A0100000F02BFEB6B1B4F8E8303380B4F8EA3083
:10A02000BDF8142093424FF0FF3318BF0023738014
:10A03000D4F808312BB1B5F90030003B18BF01232B
:10A040005B42736007B0F0BD7B68C4F828313B68A1
:10A05000C4F8083193E705D0D4F8083113B1BDF83E
:10A060001230A1E7B4F8E8309EE706485C211DF005
:10A0700065FC08B15C21A8E70249AAE7B8320020D4
:10A08000B4320020048304000010014089840400DD
:10A090002DE9F04188B015460E9F1E46044600B1DA
:10A0A00012B9784603F0B2FAD4F8DC301BB1298833
:10A0B000D4F8E000984704F1080011F0B5FF5E4BBA
:10A0C00084F8F2001A6812F4804F984625D05B4B52
:10A0D0001B68032B21DD5A482F211DF02FFC00287F
:10A0E00000F08B802F2156481DF028FC411C94F86D
:10A0F000F2E0544ADFF85CC12879534BBEF1000FFF
:10A1000008BF6246D3F80435CDE901024F4A0092F8
:10A11000042040F2331208F09DFBD4F8CC3004F157
:10A12000E8012046984794F8C40006A9FFF7DEFA34
:10A1300094F8F230002B7BD0B4F8E820A4F8EE209D
:10A140002B681A44002A61DDBDF81C30934205DB00
:10A15000BDF81A309A42B8BF1A4693B2A4F8F0304C
:10A160002B68C4F80C3101222D2384F81421C4F883
:10A170001031002E4CD12046FFF72EFDD8F80030CC
:10A180005B0423D52D4B1B68032B1FDD2C482F218F
:10A190001DF0D4FB002842D02F2129481DF0CEFB12
:10A1A000411C294BB4F8F020D3F804350492D4F8BC
:10A1B00008210392D4F8282102922A680192244AA5
:10A1C000009204204FF4A87208F044FB04F1F80058
:10A1D00000F034FE2B681BB1D4F89C0100F045FD63
:10A1E00047B1B4F8E8303B80B4F8F0307B80D4F865
:10A1F00008317B6008B0BDE8F08111485C211DF09A
:10A200009DFB08B15C216EE70D4970E70023A5E7CF
:10A210007368C4F828313368C4F80831AEE70848D9
:10A220005C211DF08BFB08B15C21B6E70449B8E75F
:10A23000B4F8EE2084E700BFB8320020B43200202A
:10A240000483040074820400001001409B82040017
:10A25000BB8404007C8204002DE9F041A0F5CC749D
:10A2600088B00E46054605A920469846D4F8CC305D
:10A270001746984794F8C4000DF11602314614F0C1
:10A28000D0FB20B1434A40F2E7311BF032FE94F894
:10A29000C400BDF8166006A9FFF728FABDF81C3007
:10A2A0009E426BD8BDF81A309E4202D2002E18BFD3
:10A2B0001E46B4F8E83094F8C400A4F8F060A4F89E
:10A2C000EE30314614F058FB20B1324A4FF47C7125
:10A2D0001BF00FFEB4F8F01051B194F8C400002246
:10A2E00014F07CFA20B12B4A40F2F5311BF001FE4C
:10A2F00094F8C5302BB1BDF81420BDF816309A4241
:10A3000039D0A5F1A006304600F0A6FDB4F8F03033
:10A31000BDF814209B1A45F88C3C2D2345F8883C49
:10A3200000221D4B05F8842CC4F8287145F8908C48
:10A330001B685B041CD5194B1B68032B18DD1548E3
:10A340002F211DF0FBFAD8B12F2112481DF0F6FA8B
:10A35000411C134BD3F80435CDE90278B4F8F02052
:10A360000192104A0092042040F2064208F072FA6C
:10A37000304600F063FD08B0BDE8F0811E4698E766
:10A3800004485C211DF0DAFA08B15C21DDE70149DF
:10A39000DFE700BF04830400B8320020B43200209D
:10A3A00000100140EF84040037B50446002850D067
:10A3B000D0F8CC30002B4CD0D0F8C8301BB9D0F836
:10A3C000D030002B45D0244BC4F8C030234B244A56
:10A3D0001A60244A5A60C4F8B830234B234A1A60E2
:10A3E000C4F8AC30224A019104F1C4005A6014F060
:10A3F00029FB054650BB84F8C5000199204613F09F
:10A4000085FF054610BB1B4BC4F898311A4BC4F8A6
:10A41000F8301A4BC4F8FC30194BC4F8003104F181
:10A42000F800184B84F89051C4F80431C4F8800146
:10A4300000F04EFD054648B9134804F5CA7108F00E
:10A440006EF9124807F000F9114B1860284603B066
:10A4500030BD0E25FAE700BF288504000C3400202B
:10A46000ED990200BD990200043400209597020086
:10A47000359702004C850400659B02002D96020072
:10A48000DD980200599E0200183400209D950200BC
:10A490001434002030B5054685B0002850D090F81F
:10A4A000C44002A9204614F01AFA20B1254A4FF4FC
:10A4B0008B611BF01EFD0DF10A01204614F02FFAEE
:10A4C00020B1204A40F259411BF013FD03A9204658
:10A4D00014F045FA20B11B4A40F25A411BF009FD25
:10A4E0006946204614F06EF920B1164A40F25B41ED
:10A4F0001BF0FFFC0DF10201204614F050FA20B1D0
:10A50000104A40F25C411BF0F4FC01A9204614F013
:10A510008DF920B10B4A40F25D411BF0EAFC0DF1D0
:10A520000601204614F0BBF920B1064A40F25E4114
:10A530001BF0DFFC6946284613F0B4FF05B030BDC0
:10A540000E20FBE70483040020B119B1C0F89C1170
:10A55000002070470E20704710B5214B1B685B042C
:10A5600086B0044621D51F4B1B68042B1DDD1E48F9
:10A570002F211DF0E3F938B32F211B481DF0DEF920
:10A58000411C1A4B226AD3F804350492626A039282
:10A5900034F8062C029214F81C2C0192144A0092F2
:10A5A00005204FF4C67208F055F9002324F8083C42
:10A5B00054F8103C8BB134F8062C216AA4F15000F9
:10A5C00006B0BDE81040184707485C211DF0B6F9F9
:10A5D00008B15C21D1E70449D3E706B010BD00BF44
:10A5E000B8320020B4320020588504000010014029
:10A5F0007B850400F8B50A4F05460E46002495F801
:10A600003C0006EB4402E1B214F0BAFD18B13A4640
:10A6100062211BF06EFC0134102CF0D1F8BD00BF9C
:10A6200058850400F0B5174687B01D46044600B1B2
:10A6300012B9784602F0EAFF398894F83C000DF12F
:10A64000170214F0B5FD064628B3002D41D12A4B60
:10A650001B685B041DD5294B1B68032B19DD28489B
:10A660002F211DF06BF900283DD02F2124481DF02B
:10A6700065F9411C234BB4F84820D3F80435029205
:10A68000B4F84A200192204A00920420C32208F024
:10A69000E1F807B0F0BD3B88B4F848209A4203D0F7
:10A6A000B4F84A209A4205D104F1500000F0D4FBDE
:10A6B0000023A36404F1E807D4F8F030B342C4D90E
:10A6C00057F8040B9DF8171003689B6898470136EC
:10A6D000F2E700232B70B4F848306B80291D204628
:10A6E000FFF788FFB3E706485C211DF027F908B1A2
:10A6F0005C21BBE70249BDE7B8320020B43200203C
:10A700005885040000100140BF850400F0B51746CD
:10A7100087B01D46044600B112B9784602F076FFB4
:10A72000398894F83C000DF1170214F0FFFC06463E
:10A7300000283FD13B88A4F8483004F1E807D4F85A
:10A74000F030B3422DD800263DB12E70B4F8483019
:10A750006B80291D2046FFF74DFF1C4B1B685B04D7
:10A760001DD51B4B1B68032B19DD1A482F211DF02B
:10A77000E5F808B32F2117481DF0E0F8411C164BEF
:10A78000B4F84820D3F804350392B4F84A20CDE950
:10A790000162124A00920420982208F05BF807B088
:10A7A000F0BD57F8040B9DF8171003681B68984715
:10A7B0000136C4E70126C7E706485C211DF0BEF854
:10A7C00008B15C21D7E70349D9E700BFB8320020C0
:10A7D000B43200205885040000100140E6850400D2
:10A7E00013B5154B1B685B0404461AD5134B1B6845
:10A7F000042B16DD12482F211DF0A0F898B12F214F
:10A800000F481DF09BF8411C0E4B14F81C2CD3F87C
:10A81000043501920C4A0092052040F2831208F0A0
:10A8200019F802B010BD06485C211DF087F808B188
:10A830005C21E5E70249E7E7B8320020B4320020A6
:10A840005885040000100140EB80040037B5144621
:10A85000054600B112B9784602F0D8FE00232370F5
:10A86000B5F848306380211D2846FFF7C3FE144B1E
:10A870001B685B0418D5134B1B68032B14DD1248AF
:10A880002F211DF05BF888B12F210F481DF056F8DD
:10A89000411C0E4B6288D3F8043501920C4A009299
:10A8A0000420F82207F0D6FF03B030BD06485C2133
:10A8B0001DF044F808B15C21E7E70349E9E700BF70
:10A8C000B8320020B4320020588504000010014046
:10A8D0001886040030B5144687B0054600B112B999
:10A8E000784602F093FE00232370B5F84830638069
:10A8F000B5F84A30A38095F87C30022B2AD12B6F13
:10A90000003B18BF01235B42A3601A4B1B685B042A
:10A910001ED5194B1B68032B1ADD18482F211DF07B
:10A920000DF8E8B12F2115481DF008F8411C144B13
:10A930006A6FD3F804350492A2680392A288029247
:10A94000628801920F4A00920420E22207F082FFFF
:10A9500007B030BD05F1500000F08CFAA060D4E7DC
:10A9600006485C211CF0EAFF08B15C21DBE70349E3
:10A97000DDE700BFB8320020B43200205885040063
:10A98000001001403B86040010B530F8063C20F86A
:10A99000083C002320F8063C244B1B685B0488B06D
:10A9A00004461DD5224B1B68042B19DD21482F219D
:10A9B0001CF0C4FF88B32F211E481CF0BFFF411CB0
:10A9C0001D4B34F8082CD3F80435029214F81C2CD3
:10A9D00001921A4A009205204FF4D27207F03AFF12
:10A9E00054F8103C2BB134F8062C216AA4F1500025
:10A9F000984700228DF8142034F8082C236AADF80B
:10AA0000162005A934F8062CADF81820A4F14C0046
:10AA1000079314F0B9FA08B010BD06485C211CF089
:10AA20008DFF08B15C21C7E70249C9E7B8320020B1
:10AA3000B4320020588504000010014081860400D3
:10AA40002DE9F0438BB01646DDF848801F460446DA
:10AA500000B112B9784602F0D9FD3188B4F8483017
:10AA60008B425AD094F83C000DF11B0214F082FB8B
:10AA70000546002869D1CDE908007FB9236B9B68A2
:10AA80005B6813B9784602F0C1FD206B836807AAA2
:10AA90005B6800219847079B089308AF002384F860
:10AAA0006C3001212D23C4E919137B68C4F8803070
:10AAB0003B6823663388A4F84A3004F1E807D4F8E9
:10AAC000F030AB422BD8414B1B685A0421D5404B88
:10AAD0001B68042B1DDD3F482F211CF02FFF58B3AE
:10AAE0002F213C481CF02AFF411C3B4B226ED3F81F
:10AAF00004350492D4F8802003929DF81B20029222
:10AB000032880192354A0092052040F22B1207F05C
:10AB1000A1FE04F1500000F091F9002516E057F86D
:10AB2000040BD4F8802003689DF81B10D3F8049020
:10AB3000236EC8470135C2E726485C211CF0FEFEA3
:10AB400008B15C21CDE72349CFE70225B8F1000F1A
:10AB50000CD088F80050B4F84830A8F80230B4F8A7
:10AB60004A30A8F80430236EC8F80830174B1B6829
:10AB70005B041ED5164B1B68032B1ADD15482F21CD
:10AB80001CF0DCFEC0B12F2112481CF0D7FE411C86
:10AB9000114BB4F84A20D3F804350392B4F8482096
:10ABA000CDE901520E4A009204204FF49F7207F043
:10ABB00051FE0BB0BDE8F08306485C211CF0BEFEE0
:10ABC00008B15C21E0E70349E2E700BFB8320020AA
:10ABD000B43200205885040000100140B6860400FD
:10ABE000EE86040013B50446019100B3036CF3B183
:10ABF0003C3014F0F5FAC0B90E4B0199A36320461E
:10AC000014F0CCF988B90C4B23650C4BA4F8480020
:10AC1000C4E915300A4BE36504F15000C4F8D800CC
:10AC200000F056F908B9C4F8F00002B010BD0E20CB
:10AC3000FBE700BF24870400E1A7020059A502003A
:10AC400089A9020068B161B1D0F8F030012B0AD8AF
:10AC500003F13A02013340F82210C0F8F03000202E
:10AC600070470E207047042070470023A0F848303A
:10AC700070470000024B53F820300846184700BFC9
:10AC800038870400024B53F820300846184700BFAD
:10AC900050870400836803B118477047006B003881
:10ACA00018BF012070470369013B033304D8406992
:10ACB000003818BF0120704700207047024601216C
:10ACC0008C300AF067BA0A4600230B6302F18C004D
:10ACD00002210AF05FBA70B590F82C30022B0646BC
:10ACE00015D0383011F0FBF94FF47A74A0FB04232F
:10ACF00004FB0133D40B44EA4344DD0B326A0023E6
:10AD00009D4208BF94422CBF0120002070BD00204E
:10AD1000FCE710B50023044603630362703005F0BE
:10AD200021FF04F13800BDE8104011F015BA10B54C
:10AD30000446383011F010FA00232362E3681BB197
:10AD40002046BDE81040184710BD30B400F1100394
:10AD5000044600F120050FCB85E80F00204630BCEB
:10AD6000FFF7E5BFFFF7E3BF2DE9F04100F138053C
:10AD70000446284611F0F0F904F110030FCB04F15A
:10AD8000200686E80F00606A1CF09EFC064610B99B
:10AD9000784602F03BFC206A4FF47A783246002372
:10ADA000A0FB08011CF014FBA26AA2FB08238B4243
:10ADB00008BF82423CBF0B460246002B08BFB2F5DB
:10ADC0007A7F1DD3114ED903D00341EA5241801935
:10ADD0004FF000060E4A4FF0000346EB01011CF055
:10ADE000F7FA0123C4E9100184F83830284611F03D
:10ADF0008BF940B9636833B12046BDE8F04118478C
:10AE000021200021EDE7BDE8F08100BF20A107006F
:10AE100040420F0010B5044605F0EEFE236B4FF4E0
:10AE20007A7101FB030104F1700005F0B3FE2368A1
:10AE30001BB12046BDE81040184710BD10B50446B0
:10AE400010B9784602F0E2FB224604F18C000021A2
:10AE5000BDE810400AF09EB910B5044610B9784616
:10AE600002F0D4FB224604F18C000321BDE810401F
:10AE70000AF090B92DE93048044610B9784602F03E
:10AE8000C5FB04F13800256A11F029F94FF47A73F3
:10AE9000A0FB03BC03FB01CC4FEADB3040EA4C4093
:10AEA000281ABDE8308838B5044610B9784602F053
:10AEB000ADFB04F1380011F012F94FF47A73A0FBE6
:10AEC000034503FB0155E00B40EA454038BD000057
:10AED00038B5044610B9784602F098FB094BA367D1
:10AEE000094BE364C4F88040A46404F1380011F015
:10AEF00049F90649054604F18C000AF01AF928467A
:10AF000038BD00BFC7AC0200BDAC0200888704009A
:10AF10000378142B05D1C3880F2B9EBF014B012250
:10AF20001A7070477434002010B5044608F030FAE7
:10AF300038B123780E2B04D1BDE81040002005F075
:10AF400049BC10BD08B518F0E1F920B10DF02CFB9B
:10AF500008B10DF0A7FABDE8084005F06DBB000090
:10AF600070B5837DC27D86B043EA0223ADF814300C
:10AF70000546022305A80E46ADF8163017F0F4F882
:10AF8000044610BB288A04AA294617F0D1FA0446C1
:10AF9000D8B9BDF81010E88A0DF11203324617F047
:10AFA000D7FC044688B9297ED5F8120001F00101CA
:10AFB00004F0C2FF044640B92B7E9A0708D4BDF8BE
:10AFC000120010F081FB044690B1204606B070BD1F
:10AFD000BDF81000294617F059FB04460028F4D1AB
:10AFE000BDF8100017F0BAFB04460028E7D0ECE7E4
:10AFF000164B1B681B03E8D5154B1B68062BE4DDBD
:10B0000014482F211CF09AFCB0B12F2111481CF0DC
:10B0100095FC411C2A7E104B02F00102D3F8043546
:10B020000292D5F8122001920C4A009207204FF4A8
:10B03000837207F00FFCC8E706485C211CF07EFC19
:10B0400008B15C21E2E70349E4E700BFB832002021
:10B05000B43200209887040000100140B787040034
:10B0600008B505F012FF15F065FA17F01BF804F0AB
:10B0700029FDBDE8084008F0B7BD000073B50E46D5
:10B08000054600283ED005F069FA0446002836D16E
:10B0900017F058F815F062FA286910F0E5FA04463E
:10B0A00068BB2B7F0193AB69009301466B6916481F
:10B0B000592210F09DFD044608BB2B6A03B1984746
:10B0C000124805F02BFB09F0B3FF104805F028FBF0
:10B0D00016F088FF054614F0A5FF0B2D04D00B28B1
:10B0E00002D00B4B1B7813B1FFF7BAFF0B2418F0FB
:10B0F0000DF9054608B10DF079F906B13570204615
:10B1000002B070BD0E24FAE71C3400205832002033
:10B110007434002018F0FAB808B508F039F920B1F5
:10B12000BDE80840002005F055BBBDE808400148D7
:10B1300005F0F4BA6432002069DF704703781F2BF2
:10B1400002BF024B01221A70704700BF7834002002
:10B1500030B5394D2A7887B01AB1012803D00328B9
:10B1600062D007B030BD002301A9019301F0B8FE01
:10B1700008B11AF0B1FE0C2200210DEB02001CF008
:10B180000BFBBDF80C302D4823F47F7323F0030331
:10B1900043F4887343F00103ADF80C3000230493AB
:10B1A000ADF814301CF0C2FB019AADF8160003A9EB
:10B1B0004120FFF7C1FF08B11AF08EFE01A801F08F
:10B1C000F7FE08B11AF088FE1D4C236803B19847BA
:10B1D000012302A90DF10200029317F08BFB08B1C5
:10B1E0001AF07AFEBDF8020017F012F90DF1010114
:10B1F00017F032FA08B11AF06FFE0DF0F7F89DF86B
:10B20000011000200DF038FD10B1784602F0FEF973
:10B2100005F012FA08B11AF05FFE00232B70636884
:10B22000002B9ED098479CE701F02EFF002898D075
:10B230001AF052FE95E700BF77340020D78704004C
:10B240007C34002008B503781C2B0CD1064B1B78EE
:10B250004BB101F057FF08B11AF03EFEBDE80840BF
:10B26000024805F05DBA08BD773400207032002036
:10B2700010B5094B1B786BB90849094818F006FF4F
:10B2800048B908490246BDE8104049690648032309
:10B2900018F015BF082010BD783400209834002025
:10B2A000043800207C340020D036002010B503780C
:10B2B000023B082B4AD8DFE803F01E051249493843
:10B2C00049493F00224B9B68002B3FD0007A002861
:10B2D0003CD0204A01211170BDE8104018471C4B9A
:10B2E000DB68002B32D01B4A117879B30021117032
:10B2F000BDE810401847184B1A784AB9144B1B691F
:10B3000013B114490A709847BDE81040FFF7B0BF69
:10B31000124B134801221A7005F000FA05F0E6F905
:10B32000A0B1BDE810401AF0D7BD094B0D4899698E
:10B33000102218F009FFF3E7D0E90210FFF710FE22
:10B3400008B11AF0C9FD044B01221A7010BD00BFEC
:10B350007C340020753400207634002077340020BF
:10B3600070320020D036002070B51D4A1D4E516845
:10B37000044686B0106803AB03C31189927A198022
:10B380009A700FCC35460FC594E8070085E8070092
:10B39000B3691BB3144B0093144A1549154803AB0A
:10B3A00018F046FEC0B914481AF0C6FA0146114812
:10B3B00018F058FE80B911481AF02EFC60B90F48F9
:10B3C0001AF05CFC01460B4818F04CFE20B90C4802
:10B3D00005F0A4F9FFF74CFF06B070BD0720FBE7AE
:10B3E000F98704007C340020ADB2020098340020BC
:10B3F00004380020D0360020B834002080360020E9
:10B400007C32002010B5054C226832B11AF0A6FE3D
:10B41000002802DB23689847F8E710BD4438002075
:10B42000154B164A10B50C4618600121144818F047
:10B43000CFF918B1134A4A211AF05BFD610C0023C1
:10B44000E00341F26F728B4208BF824210D24FF488
:10B450007A7200231BF0BCFF01460B48002218F053
:10B46000C9F938B1BDE81040064A4B211AF041BD78
:10B470000521F2E710BD00BF4438002005B40200EA
:10B480002888040004880400483800202DE9F04191
:10B490000446CEB038B1424D2B685A0403D5414E14
:10B4A0003368032B02DC4EB0BDE8F0813E4B1868D8
:10B4B0000DAB611E04F10F0C1F4611F8012F4FEA6E
:10B4C000121E02F00F0210F80EE083F800E0825C1A
:10B4D0005A70614503F10203EFD10023334887F826
:10B4E00020302F211CF02AFA002846D02F212F4887
:10B4F0001CF024FA411CDFF8C4802D4AD8F804352A
:10B5000001922C4A009202974222042007F0A2F9ED
:10B510002B685B04C7D53368032BC4DD23482F2178
:10B520001CF00CFA002831D02F2120481CF006FA1C
:10B53000411CE27B2068D8F804350B92A27B0A926A
:10B54000627B0992227B0892E27A0792A27A0692A3
:10B55000627A0592227A0492E28852BA92B20392F7
:10B56000A28852BA00BA92B2CDE90102124A009200
:10B570000420432207F06EF995E70C485C211CF08B
:10B58000DDF908B15C21B2E70849B4E707485C215E
:10B590001CF0D4F908B15C21C7E70449C9E700BF32
:10B5A000B8320020B4320020BC3200202C880400C5
:10B5B000548804002A7C04006688040000100140BE
:10B5C00013B50190000C01280C4602D0784602F019
:10B5D0001DF80023012222806380A280E380238162
:10B5E0006381A28102B010BD13B50190000C012847
:10B5F0000C4602D0784602F009F82388012B14D1BA
:10B60000638893B9A388012B0FD1E3886BB9238991
:10B610005BB9608948B9A389012B06D1044A137824
:10B6200043F00103137002B010BD0B20FBE700BF15
:10B63000B43800200378142B07D1C388042B01BF32
:10B64000024A137843F0020313707047B4380020A5
:10B6500070B586B00E4B01930E4B02AA03F108069B
:10B66000154618685968144603C40833B342224685
:10B67000F7D118689B882060A3800198294609F0BB
:10B6800011FC10B1784601F0C1FF06B070BD00BFDB
:10B6900004000100A6880400704770477047704797
:10B6A000704770477047704708B5FFF7F9FFFFF71D
:10B6B000F8FF13F0D7F9FFF7F5FF12F0C5F813F014
:10B6C0009FFDFFF7F0FF08BD0C4808B50C4B036069
:10B6D00005F024F80B4B1A786FF341021A70FFF74C
:10B6E000DBFFFFF7DAFF13F047FAFFF7D7FF12F09F
:10B6F0001FF913F0B3FDFFF7D2FF08BD6C3800202F
:10B7000035B60200B438002010B50E4C237813F083
:10B7100002000FD0FFF7A4FCFFF7C6FF23786FF3FA
:10B7200000032370084B186809F00EFCFFF790FF28
:10B730000B2010BD13F00104FBD1FFF789FF204659
:10B74000F7E700BFB4380020B488040008B5FFF75D
:10B75000ABFF054A137823F003031370BDE80840DC
:10B76000042009F017BC00BFB438002013B543898A
:10B77000044613B1784601F049FFD4E900010022E4
:10B7800000F088F910B1784601F040FF206800F021
:10B790007DF9194B60811B685B0418D5174B1B683A
:10B7A000032B14DD16482F211CF0C8F8D0B12F212F
:10B7B00013481CF0C3F8411C124B6289D3F80435BE
:10B7C0000192114A00920420582207F043F863893D
:10B7D00013B9784601F01AFF206802B0BDE81040A6
:10B7E00000F0BEBA06485C211CF0A8F808B15C2144
:10B7F000DEE70349E0E700BFB8320020B4320020A2
:10B80000B888040000100140DB88040038B5438983
:10B8100005460C4613B9784601F0F8FE6A89297A84
:10B820002868013A62434FF6FF74B2FBF4F201322A
:10B83000BDE8384092B200F079B82DE9F8430468C9
:10B84000054694F8200000F02DFC04F11807FF26AF
:10B850004FF0FF394FF00008207AFF2802D000F0A7
:10B8600021FC2672607AFF2802D000F01BFC667271
:10B870002068431C03D000F087FDC4F8009084F8D2
:10B880000B800C34BC42E7D16868BDE8F84300F097
:10B890002BBB00002DE9F041134EDFF850800C4621
:10B8A0000025012706EB4106735D5BB1735D013B2B
:10B8B000DBB27355735D93B958F824301B6820468A
:10B8C000DB6998474DB167B1084B53F8243002212A
:10B8D000BDE8F041586800F07EBB0125E4E7002791
:10B8E000F0E7BDE8F08100BFD86A0020B83800203A
:10B8F00010B540680B4902798C5CFF2CE3B20DD087
:10B90000FE2B0DD0006803F5A87350F823300648CD
:10B9100050F82200984203D1FF238B54002010BD21
:10B920000120FCE7CC380020D43800202DE9F74F67
:10B930000368904693F82120022A04460F4640F0FF
:10B940009B800C254D435A195268904509D1DB69FB
:10B950001BB9002003B0BDE8F08F4268107998470A
:10B96000F7E7FFF7C5FF8346002840F0878063684C
:10B97000DFF814A11B79FE220AF80320266896F846
:10B98000200000F0EBFBD146B8F1000F1FD1354489
:10B99000687A00F0E3FB287A00F0C8FB63681B7943
:10B9A000FF220AF803200C2303FB0766C6F8048075
:10B9B0002368DB69002BCCD063681A79304B03EB2A
:10B9C00042030221D955606800F0F1FAC1E7B1697C
:10B9D000884507D335441FFA81F8287A00F0BEFB6A
:10B9E000687AD9E707EB47034FEA830A06EB83033C
:10B9F00060685A6891423AD0002A38D0904536D2D1
:10BA00005B46032100F0A2FA636896F820B019683B
:10BA100056F80A00354401F5A671AB7A01911BB3C3
:10BA200000F008FD02460199584600F05FFB96F8C9
:10BA3000200000F07BFB63681B7909F803706368E2
:10BA40001A79104B43F822800C2505FB07656068C6
:10BA500000234246394600F079FA287A00F066FB66
:10BA6000687A00F063FB9EE700F0D6FCDAE7037922
:10BA7000FF2209F80320E7E708206BE7112069E7B8
:10BA8000D86A0020D4380020CC3800200368188BF6
:10BA9000704700002DE9F04F2DED028B8BB004466E
:10BAA00004928A46002900F04981056895F8213002
:10BAB000002B40F0458100F09BFD08B1852846D160
:10BAC00000F0E8FB002839D09E4B9F4E1B6803F026
:10BAD000F003303B18BF01233370FF2385F820307B
:10BAE0004FF6FF7300222B814FF0FF33EA722B6079
:10BAF000EA75AB82EB6005F1200000F09FFA059635
:10BB0000074608BB0AF10803804606935AF828B096
:10BB10005FFA88F3BBF1FF3F08EE103A00F09D801A
:10BB2000266896F82110B9B108262046FFF785FE51
:10BB300030460BB0BDEC028BBDE8F08F00F064FB2B
:10BB40000028C1D00326F3E72046FFF776FE04263F
:10BB5000EEE74FF00108D9E74FF00C0909FB08F9AF
:10BB6000069B06EB090213F808309372516003221A
:10BB70008DF82020226803934A4408A9927AB2FAE9
:10BB800082F252098DF82120584601228DF8222098
:10BB900000F08AFBD8B9039B46F809B00122002BBC
:10BBA00000F0B480BBF11F0F86BF68490BF01F0B7C
:10BBB0004FF0A04102FA0BF2C1F80C250C2303FB55
:10BBC00008FB0BF10800304400F038FA08B10426F5
:10BBD000ABE70BF10900304400F030FA0028F6D151
:10BBE00006EB0B030793187A00F0B8FA079B587A14
:10BBF00000F0B4FA039B56F80900002B00F0938084
:10BC000000F018FC834656F8090000F005FC814658
:10BC1000606801680C2000FB08664FEA880303F5A2
:10BC2000A07319445A46307A00F060FA6368707A5B
:10BC300019684A4601F5A47100F058FA0123F3721D
:10BC40006368434A1B7902EB430318EE101A002283
:10BC5000204603F80820FFF769FEB8F1000F3FF413
:10BC600078AFDAF81030B3F5805F01D3092F62D1D5
:10BC7000059B1B7813B1012F38BF012700238DF8D6
:10BC8000213060688DF820704FF4E063ADF8223009
:10BC90000379304A099308A900F09CF80646002869
:10BCA0007FF443AF6368DAF810201B68D3F810758F
:10BCB000FFB2100FC7F12001120100FA01F1A7F144
:10BCC000200322FA07F720FA03F30F431F43AF6163
:10BCD00060684FF0010800F035F904233A466068C7
:10BCE000CDF80080022100F04CF90221606800F0DC
:10BCF00072F9049BEB616368174A1B7985F8218010
:10BD000042F82340154AFF21D15411E7BBF11F0F20
:10BD100086BF0E490BF01F0B4FF0A04102FA0BF249
:10BD2000C1F808254AE700F077FB834656F809007A
:10BD300000F080FB6BE75B08013794E70B26F7E622
:10BD40000826F5E6E80F00F0E83800200003005070
:10BD5000D86A002095B80200B8380020CC380020FE
:10BD60002DE9F0470768DFF86890002604463D4655
:10BD7000B0464FF00C0A63681B7909EB430303F8E4
:10BD80000680EB7A73B1236828680AFB0633997A38
:10BD9000B1FA81F1490900F05BFB286800F02AFB49
:10BDA000C5F804800C357EB16368084A1B79FF2111
:10BDB000D154606800F0C6F8606800F07BF8022398
:10BDC00087F82130BDE8F0870126D4E7CC38002081
:10BDD000D86A0020F7B50679334D0C2474432F1927
:10BDE0003B7A002B5ED12A514A687A609C461A46FB
:10BDF00047790368D4B2A7424AD8CA781C0B43F3E8
:10BE00000733002BAEBF03F16043284B04F00F044F
:10BE10004FEA4212D2B2AABF03F561431A5583F822
:10BE2000002303681A0B43F30733002B07DB02F0F0
:10BE30001F040122A2405B091D4C44F82320046822
:10BE40004B78D4F8042503F0030322F003021343D4
:10BE5000C4F8043504688B78D4F8082503F003038C
:10BE600022F003021343C4F8083500680B78D0F8B9
:10BE7000102503F00F0322F00F021343C0F8103512
:10BE80000C2303FB065501232B72002003B0F0BDE9
:10BE9000A40004F5A074013243F804C01B590193B7
:10BEA000019BA5E70820F1E7EC38002014ED00E045
:10BEB00000E100E0036801221A600379034A0C21C3
:10BEC00001FB032302221A72704700BFEC380020E6
:10BED0000368044901221A6103790C2000FB031353
:10BEE0001A727047EC38002038B503681A0B43F318
:10BEF0000733002B04460CDB02F01F015B09012213
:10BF00008A4020330D4941F82320BFF34F8FBFF300
:10BF10006F8F23680025D3F80022C3F800522368EE
:10BF20004FF0FF32C3F808232046FFF7D1FF2379F3
:10BF3000034A0C2101FB03231D7238BD00E100E020
:10BF4000EC38002003680122DA60704773B54FF4C3
:10BF5000803405688C408BB18B0003F5A0730026FC
:10BF6000EE50EB580193019B0368C3F80443036848
:10BF700001F5A87143F8212002B070BDC5F808434F
:10BF8000F5E7F0B4076840F20116D7F800528E408A
:10BF900025EA0605C7F800520468D4F800522B437E
:10BFA000C4F800329DF81030F0BCFFF7CFBF8B0013
:10BFB00013B503F5A07302689BB20024D450D35884
:10BFC0000193019B02684FF4803303FA01F1C2F838
:10BFD000041302B010BD02684FF4803303FA01F17C
:10BFE000C2F80813704700002DE9F341104C114FBF
:10BFF000114E00254FF48038236883B1D7F80433FD
:10C0000008FA05F21A420AD000232360236801933C
:10C0100004F5E040019B80B2D6E900319847013534
:10C02000042D04F10404E7D102B0BDE8F08100BFA3
:10C030004091004000900040EC3800202DE9F74F7F
:10C040004FF00009154D164F06464FF0040AC8463A
:10C050005FFA89FB01240DF1070004FA0BF48DF857
:10C06000078000F05BFC2C4208D03B6814EA030216
:10C0700001BF23433B6086F800B092469DF807005D
:10C0800000F070FCBAF1000F03D0A54309F10109DB
:10C09000DED1504603B0BDE8F08F00BFFFFF0100C6
:10C0A000F8380020012337B503FA00F5C5F3100373
:10C0B000ABB10C4B0024C3F808550DF107008DF807
:10C0C000074000F02BFC084B186820EA05001860B8
:10C0D0009DF8070000F046FC204603B030BD072065
:10C0E000FBE700BF00F00140F838002010B5A1B117
:10C0F0009AB101238340C3F3100484B10A4C24682D
:10C1000023420ED0C00000F1804000F5F830C0F8A6
:10C110001015C0F81425002010BD0E20FCE70720E4
:10C12000FAE70820F8E700BFF8380020012202FAF9
:10C1300000F3580C400440B91BB1064A1268134280
:10C1400005D0054AC2F8043570470720704708201B
:10C15000704700BFF838002000F00140012202FAC9
:10C1600000F3580C400440B91BB1064A1268134250
:10C1700005D0054AC2F808357047072070470820E7
:10C18000704700BFF838002000F0014000F1804007
:10C1900000F5C040002382B0036003680193019B57
:10C1A00002B0704703681F2B83BF03F01F030360B7
:10C1B00001484FF0A04070470003005007B50190C0
:10C1C00001A8FFF7EFFF019B00EB8300D0F80037D9
:10C1D00023F44033C0F80037D0F8003743EA014178
:10C1E000C0F8001703B05DF804FB0000054B4FF0EA
:10C1F000FF32072843F8202084BFC01880F84C2065
:10C20000704700BFFC38002038B51E4C94F85B30F6
:10C21000ABBB4FF6FF71FF205A09012A14BF4FF044
:10C22000FF320A4603F01F05EA40D20748BFE21872
:10C2300003F1010348BF82F82400302BECD1002128
:10C24000C8B2FFF7D3FF01310929F9D10622002135
:10C250000D481BF0A1FA0D4BC02283F806234022A3
:10C260001A604FF4BE70FFF791FF094B4FF0004288
:10C27000C3F80423012384F85B30002038BD082074
:10C28000FCE700BFFC3800205139002000E100E04D
:10C2900000600040034B93F85B00003818BF01209A
:10C2A000704700BFFC38002037B5354B1A180446DC
:10C2B00092F92400013061D18878002852D01846C4
:10C2C000002250F8045B013546D1181980F824206B
:10C2D000002043F82200920002F1804202F5C042A1
:10C2E0000B78D2F81055487825F499151B040005F1
:10C2F00025F4F85500F4801003F44033C2F81055CB
:10C3000003432002D2F8105500F47C5003432B4322
:10C31000C2F810354A780194012A01A826D1FFF706
:10C3200041FF019B9A40C0F8082501A80194FFF73E
:10C3300039FF019B134903F5E073032240F82320E2
:10C3400024FA02F2012304F0070003FA00F08B5CE8
:10C3500018438854002003E00132082AB1D1042098
:10C3600003B030BDFE2382F82430D3E7FFF71AFF75
:10C37000019A01239340C0F80C35D6E70820EFE777
:10C38000FC3800205139002037B5174C25180146DC
:10C3900095F82400072809D8FFF728FF95F92430DD
:10C3A000124A03F5A273002042F823006318FF220B
:10C3B0000F4D83F82420CC0801F0070301229A4096
:10C3C0002B5D13420DD001A80191FFF7EBFE019BFD
:10C3D00003F5E073022140F823102B5D23EA0202EB
:10C3E0002A5503B030BD00BFFC380020006000407B
:10C3F00051390020074B184490F924309B0003F179
:10C40000804303F5C043D3F8102542F00302C3F87C
:10C4100010257047FC380020054B184490F9240083
:10C420000C308000C0B200F1804000F5C040704781
:10C43000FC380020054B184490F924001830800087
:10C44000C0B200F1804000F5C0407047FC380020C9
:10C450000A4B1844003990F924304FEA830303F162
:10C46000804303F5C04318BF0121D3F8102522F4FF
:10C47000801242EA0152C3F810257047FC380020B0
:10C480002DE9F043002485B0CDE90244544D4FF42A
:10C490008072012102F1804303F5C04390B21B6812
:10C4A000012B06D1D5F804330B4202D0FFF76EFE04
:10C4B0000C430432B2F5907F4FEA4101EAD1494B77
:10C4C0001B68012B11D14FF4BE70FFF75FFE4FF0D8
:10C4D000A04344F00044D3F820250292C3F820255D
:10C4E000D3F820280392C3F8202814F0FF0F1AD0A5
:10C4F0003D4F01260025344210D0AB0003F18043AC
:10C5000003F5C043D3F81005D3F8101557F82530BC
:10C5100023B1C1F30141C0F3052098470135082D2F
:10C520004FEA4606E7D1002C51DA2F4D2F4C2E460C
:10C5300095F954305A1C3CD0C3F3C20104A80144FD
:10C54000DAB211F8081C03F03F074FF0010903F0BD
:10C55000070309FA03F319422BD001A80197FFF74B
:10C5600021FE019B03F5E07350F82330C3F301482B
:10C57000B8F1020F0CBF032102213846FFF71EFE5F
:10C5800001A80197FFF70EFE019B09FA03F3C0F81B
:10C590002035F31993F9243056F823304BB1910923
:10C5A000032904D0B8F1020F14D1494501D138460E
:10C5B00098474FF0A043D3F820250292C3F82025D6
:10C5C000D4F820350393C4F820351343B0D105B017
:10C5D000BDE8F083B8F1030FEBD10229E6E700BF15
:10C5E000006000407C610040FC38002000030050E7
:10C5F000034B187810B901221A70704785207047D4
:10C600005839002072DF704773DF704774DF70475E
:10C610002DE9F0412F4CA2B006460F46904600216E
:10C62000102220461BF0B8F82B4A2C491378C3EB94
:10C630004315294421602A49013303F001030D44C5
:10C640001F211370A180A1813C22002104A8A560B4
:10C650001BF0A2F8062301AA8DF813300E920123D5
:10C660003C22002113A88DF80230ADF820308DF85F
:10C670003C30ADF80060CDF824D0ADF80460ADF8E2
:10C68000088003971BF088F82246022352F8041B07
:10C690008DF84C3004A800F0F5F908B119F01CFC35
:10C6A000104AA16813A800F0EDF908B119F014FCC4
:10C6B0000D4A08490D48FFF7A5FF082804D1054990
:10C6C0000A480022FFF79EFF08B119F005FC22B0CE
:10C6D000BDE8F08198390020593900205A390020EE
:10C6E000A8390020A43900208C3200208832002094
:10C6F000B0F5202F0AD20A23B0FBF3F310B1012BBF
:10C7000038BF0123034A9381916070474FF6FF734E
:10C71000F5E700BF8C32002008B5064B01211878E0
:10C72000FFF772FF08B119F0D7FBBDE80840002001
:10C7300004F0B0BD8832002008B5054B1878FFF72B
:10C7400065FF18B1BDE8084019F0C6BB08BD00BFC1
:10C750008832002076DF70477ADF70477CDF7047D1
:10C7600069DF704719F0B8BB03F0DCBF07B5037889
:10C770004BB940883B21FFF7EDFF08B303B05DF8EC
:10C7800004EB19F0A9BB012B1AD1134B1B685B04F6
:10C7900016D5124B1B68032B12DD11482F211BF0FD
:10C7A000CDF880B12F210E481BF0C8F8411C0D4B6D
:10C7B0000D4AD3F8043500920420682206F04AF8A6
:10C7C00003B05DF804FB06485C211BF0B7F808B124
:10C7D0005C21E8E70249EAE7B8320020B4320020E1
:10C7E000EE880400001001401E8904001FB500F00F
:10C7F0004BFC08B119F070FB00236946012000933F
:10C8000000F06EFB08B119F067FB0C22002101A8B3
:10C810001AF0C2FFBDF80430114823F47F7323F0EF
:10C82000030343F4887343F00103ADF8043000239D
:10C830000293ADF80C301BF079F8009AADF80E00B9
:10C8400001A94120FFF78CFF08B119F045FB6846AC
:10C8500000F0AEFB08B119F03FFB05B05DF804FB3A
:10C86000D78704001FB5112310488DF804301BF042
:10C870005DF80E4982B201A8FFF770FF08B119F008
:10C880002BFB08220DEB020000211AF085FF084A5D
:10C890004FF0C87302A8CDE90223FFF75DFF08B18E
:10C8A00019F01AFB05B05DF804FB00BFD787040040
:10C8B0007800C80010B58AB001AC082200212046DB
:10C8C0001AF06AFF124A4FF0C873CDE90123002124
:10C8D0001C2203A81AF060FF4FF4803340F6CD41CC
:10C8E000CDE9041303238DF818300023ADF81A3076
:10C8F0008DF81C30074B089303A8074B039409934A
:10C9000000F044FD08B119F0E7FA0AB010BD00BF0D
:10C910007800C8006DC7020065C7020070B5EFF36C
:10C92000108672B60C4A946801239CB993600B4B35
:10C930000B4DD3F8801029401160C3F88050D3F814
:10C94000841051604FF0FF32C3F88420047006B9A0
:10C9500062B670BD0370FAE7E46A002000E100E00F
:10C96000FC06FFBD10B5084B9A685AB150B9EFF3F9
:10C97000108172B6054A1C6814605C685460986047
:10C9800001B962B610BD00BFE46A002000E100E01A
:10C990006DDF704779DF70477DDF704764DF704778
:10C9A0002DE9F04F85B000250E9CBDF83CB0B4F8E1
:10C9B00000A00191074690461E46A9463A884A457E
:10C9C0000DDC45B12388013BA3EB0A039BB2FF2B8F
:10C9D0003AD806F80A30002005B0BDE8F08F7A6832
:10C9E00052F82900039000220DF10B0103A8FFF774
:10C9F000D5FF0028F0D19DF80B20424521D1228897
:10CA0000002D14BF0020022002EB0801014459450B
:10CA10001ADC3DB9013292B2019B2280B3542288C4
:10CA20000132228022880DF10B01324403A8FFF766
:10CA3000B5FF0028D0D121889DF80B200A44228020
:10CA4000012509F10109B9E70C20C5E72DE9F341FA
:10CA5000089FBDF824801546CDE9007802220446DF
:10CA60001E46FFF79DFF50B9334610222946204647
:10CA7000CDE9087802B0BDE8F041FFF791BF02B000
:10CA8000BDE8F0812DE9F04F00231788138090F85E
:10CA90002D3085B006460D46144653B3082F01D8F5
:10CAA0000C2027E102A8FFF773FF002840F0228145
:10CAB00023880822EA54238801339BB21B22238057
:10CAC000EA542088013080B2208006220DF109014D
:10CAD00028441AF053FE23889DF8082006339BB2A1
