:020000022000DC
:1070000000FD0320D9B7030001B8030003B8030053
:1070100005B8030007B8030009B80300000000002A
:107020000000000000000000000000000BB803009A
:107030000DB80300000000000FB8030011B80300F2
:1070400013B8030013B8030013B8030013B8030008
:1070500013B8030013B80300C57F020013B8030080
:1070600013B8030013B8030089A1030013B8030089
:1070700013B8030013B8030013B8030013B80300D8
:1070800013B803007DB00300A956030013B8030032
:107090004DB1030013B80300C585020013B8030007
:1070A00013B8030013B8030013B8030013B80300A8
:1070B00013B8030013B80300000000000000000034
:1070C00013B8030013B8030013B8030013B8030088
:1070D00013B8030013B8030013B8030013B8030078
:1070E00013B8030013B8030013B803000000000036
:1070F0000000000013B803000000000013B80300F4
:10710000000000000000000000000000000000007F
:10711000000000000000000000000000000000006F
:10712000000000000000000000000000000000005F
:10713000000000000000000000000000000000004F
:10714000000000000000000000000000000000003F
:10715000000000000000000000000000000000002F
:10716000000000000000000000000000000000001F
:10717000000000000000000000000000000000000F
:1071800000000000000000000000000000000000FF
:1071900000000000000000000000000000000000EF
:1071A00000000000000000000000000000000000DF
:1071B00000000000000000000000000000000000CF
:1071C00000000000000000000000000000000000BF
:1071D00000000000000000000000000000000000AF
:1071E000000000000000000000000000000000009F
:1071F000000000000000000000000000000000008F
:1072000010B5054C237833B9044B13B10448AFF3E0
:1072100000800123237010BDD82E00200000000044
:10722000B8ED030008B5034B1BB103490348AFF3A6
:10723000008008BD00000000DC2E0020B8ED030037
:10724000154B002B08BF134B9D46A3F5803A002138
:107250008B460F461348144A121A15F081FE0F4B45
:10726000002B00D098470E4B002B00D098470020F1
:10727000002104000D000D48002802D00C48AFF397
:10728000008015F01DFE2000290000F061F915F0C6
:1072900003FE00BF0000080000FD03200000000006
:1072A00000000000D82E0020A05A0020000000009E
:1072B0000000000041DF7047F0B54FF0A0434FF4ED
:1072C00000520024C3F80825C3F80C458268EBB0CF
:1072D000117D92F90D300691D17C0591917C04913C
:1072E000517C0391117C0291D17B01910178009135
:1072F00009AE52682A490546304615F0F3FE294B7F
:107300001B685B0428D5284B1B68032B24DD687899
:10731000264B802829AA1F6828BF802023461446B0
:10732000834202F1020222D10022214804F81320F4
:107330002F2115F007FF48B32F211D4815F002FF3C
:10734000411C1C4B1C4AD3F804350092CDE9016462
:10735000612204200FF022F94FF0A0434FF40052B5
:10736000C3F80C250022C3F808256BB0F0BD69688E
:10737000C95C4FEA111C01F00F0117F80CC002F8AC
:1073800002CC795C02F8011C0133C9E708485C2192
:1073900015F0D8FE08B15C21CFE70549D1E700BF61
:1073A00019D90300482E0020442E00204C2E002026
:1073B000F8D803000010014060D9030007B5037836
:1073C000232B2DD1184B1B685B0416D5174B1B685C
:1073D000032B12DD16482F2115F0B4FEB8B12F2172
:1073E000134815F0AFFE411C124B134AD3F8043575
:1073F0000092042096220FF0D1F80322C8210F201A
:1074000000F044FC03B05DF804EB00F0FFBA08485C
:107410005C2115F097FE08B15C21E1E70449E3E740
:1074200003B05DF804FB00BF482E0020442E00206E
:10743000F8D803000010014068D9030010B50446D5
:1074400000210F2004EB840400F00AFC62003221CA
:10745000BDE81040032000F019BC00F05DBC000046
:107460001FB503A803F0E6FF144B1B685B0419D596
:10747000134B1B68032B15DD12482F2115F062FEFC
:1074800098B12F210F4815F05DFE411C0E4BBDF841
:107490000C20D3F8043501920C4A00920420B52246
:1074A0000FF07CF805B05DF804FB06485C2115F090
:1074B00049FE08B15C21E5E70249E7E7482E0020D4
:1074C000442E0020F8D803000010014081D90300A9
:1074D00007B51A4B1B685B0416D5194B1B68032BA9
:1074E00012DD18482F2115F02DFEE8B12F21154887
:1074F00015F028FE411C144B144AD3F804350092B1
:107500000420BA220FF04AF8FFF7AAFF00F004FCAB
:1075100000210F2000F0A4FB0422C8210F2003B09B
:107520005DF804EB00F0B2BB06485C2115F00AFEE2
:1075300008B15C21DBE70349DDE700BF482E0020EE
:10754000442E0020F8D803000010014098D9030011
:1075500000B58DB013F042FF18B19D4AE52114F03B
:1075600066F99C4C00F0E8FB9B4A04214FF48040F4
:107570000EF0F8FF23685D0418D5984B1B68032BA9
:1075800014DD93482F2115F0DDFD002800F0D78091
:107590002F218F4815F0D6FD411C914B914AD3F80D
:1075A000043500920420E9220EF0F8FF00F06AFE94
:1075B0000021242203A815F0D3FC01238DF80C3000
:1075C00007238DF80F3006238DF814308649874B3A
:1075D000079303A800F0D0F928B30B2840F0DD8012
:1075E000236858041FD57D4E3268032A1BDD784876
:1075F0002F2115F0A7FD002800F0AA802F21744844
:1076000015F0A0FD411C764D794AD5F8043500925D
:107610000420CF220EF0C2FF2368590403D533683B
:10762000032B00F39E8073480CF0C4FF724A73482A
:107630004023002112F04CFC23685A0418D5674BF4
:107640001B68032B14DD62482F2115F07BFD0028F9
:1076500000F0A8802F215E4815F074FD411C604B9E
:10766000674AD3F8043500920420EF220EF096FF0B
:107670005D4B1978002940F09E80102203A815F078
:107680006FFC604B0493604B0593604B0793604B1A
:10769000089303A85F4B099300F042FA20B14C4ACB
:1076A0004FF4807114F0C3F8092012F0F5F9534833
:1076B00012F00CFB5148122112F025FB054650B187
:1076C00055491222113015F03DFCFF234B482B7118
:1076D000294612F054FB09F041FF00F033FD00F0A1
:1076E000BBF820B13A4A4FF4877114F0A0F8236830
:1076F0005B0418D5394B1B68032B14DD34482F214C
:1077000015F020FD002859D02F21314815F01AFD21
:10771000411C334B414AD3F80435009204204FF406
:1077200088720EF03BFF00210F2000F099FA022230
:10773000C8210F2000F0AAFAFFF7BCFDFCE724489F
:107740005C2115F0FFFC08B15C2122E7204924E709
:107750001F485C2115F0F6FC08B15C214FE71C497D
:1077600051E71B482F2115F0EDFC68B12F21184877
:1077700015F0E8FC411C2A4AD5F804350092042093
:10778000D0220EF00BFF4EE711485C2115F0DAFC19
:1077900008B15C21EBE70E49EDE70D4AD52114F065
:1077A00046F840E70A485C2115F0CCFC08B15C21A2
:1077B00051E7074953E7FFF753FE75E704485C219B
:1077C00015F0C0FC08B15C219FE70149A1E700BFAB
:1077D000F8D80300482E002039650300442E00200D
:1077E00000100140B2D90300D02F0020BD73020069
:1077F000DDD90300B9720200F42E0020342F0020DE
:1078000067DA0300D17402003D7402005B74020069
:1078100081DA0300D3DA0300C1DA030099DA030046
:107820002BDA03000378142B05D1C3880F2B9EBFDE
:10783000014B01221A7070472C30002010B504460D
:107840000FF04AFC38B123780E2B04D1BDE810406C
:1078500000200CF007BF10BD0CF046BE70B5837D54
:10786000C27D86B043EA0223ADF8143005460123F9
:1078700005A80E46ADF8163003F0A8FD044610BB6F
:10788000288A04AA294603F085FF0446D8B9BDF822
:107890001010E88A0DF11203324604F081F9044613
:1078A00088B9297ED5F8120001F001010CF0B4FA74
:1078B000044640B92B7E9A0708D4BDF8120007F0A1
:1078C00039FB044690B1204606B070BDBDF81000EB
:1078D000294604F00DF804460028F4D1BDF8100044
:1078E00004F064F804460028E7D0ECE7164B1B6868
:1078F0001B03E8D5154B1B68062BE4DD14482F212C
:1079000015F020FCB0B12F21114815F01BFC411CD3
:107910002A7E104B02F00102D3F804350292D5F80A
:10792000122001920C4A009207204FF483720EF04D
:1079300035FEC8E706485C2115F004FC08B15C215F
:10794000E2E70349E4E700BF482E0020442E002070
:10795000E3DA03000010014002DB030008B50DF07C
:10796000DCF901F079FF03F0C7FC0CF01BF8BDE86F
:1079700008400FF0DDBF000073B50E460546002835
:107980003BD00CF043FD0446002833D103F00CFD3E
:1079900001F076FF286907F09DFA044650BB2B7F63
:1079A0000193AB69009301466B6915484FF6FF726E
:1079B00007F040FD0446E8B92B6A03B19847114827
:1079C0000CF0EEFD11F0B8F90E480CF0EBFD03F0F1
:1079D00033FC054601F0AEFC0B2D04D00B2802D081
:1079E000094B1B7813B1FFF7B9FF0B2404F0ACFD72
:1079F00006B13070204602B070BD0E24FAE700BF19
:107A0000D42F0020002E00202C30002008B50FF0CD
:107A100063FB20B1BDE8084000200CF023BEBDE8A8
:107A2000084001480CF0BCBD0C2E002003781F2B31
:107A300002BF024B01221A70704700BF2F30002096
:107A400010B5094B1B786BB90849094808F0EAF8EA
:107A500048B908490246BDE8104049690648012373
:107A600008F0F9B8082010BD2F3000204C3000205D
:107A700068330020303000203432002010B5037805
:107A8000023B082B2CD8DFE803F01B05102B2B2C16
:107A90002B2B38001E4B9B6813B3007A00B31D4A92
:107AA00001211170BDE810401847194BDB68BBB1CC
:107AB000184A1178A1B100211170BDE81040184793
:107AC000154B1A78124B42B91B6913B111490A7050
:107AD0009847BDE81040FFF7B3BF5B68002BECD1BF
:107AE00010BD0B4B0D489969102208F0F9F80028D9
:107AF000F6D0BDE8104013F08DBED0E90210FFF7BC
:107B0000ADFE08B113F086FE034B01221A70E7E7C1
:107B1000303000202D3000202E3000203432002064
:107B200070B5174A174E5168044686B0106803AB0B
:107B300003C31189927A19809A700FCC35460FC50C
:107B400094E8070085E80700B369BBB10E4B0093CA
:107B50000E4A0F490F4803AB08F036F860B90E48DB
:107B600009F0B6FC01460B4808F048F820B90B486C
:107B70000CF016FDFFF764FF06B070BD0720FBE7B1
:107B800022DB0300303000207D7A02004C300020E0
:107B900068330020343200206C300020182E002082
:107BA0001F288ABF064B4FF0A04300F01F00D3F8F8
:107BB000043523FA00F0C04300F00100704700BF15
:107BC0000003005009B100F0F0B900F0E1B9000085
:107BD0002DE9F8431D4D286808B913F01BFE1C4E13
:107BE000DFF87890376800244FF0010808FA04F3B2
:107BF0003B420AD014F809201046FFF7D1FF80F06D
:107C00000100C1B21046FFF7DDFF0134042CEDD1B5
:107C10002C68013C2C60B4B90E480F4FDFF83C8053
:107C200013F09AFC0125326805FA04F3134207D0D9
:107C3000396818F80400E14001F00101FFF7C2FFC4
:107C40000134042CEFD1BDE8F88300BFA833002035
:107C5000AC330020B0330020D033002034DB0300ED
:107C60002DE9F041084F054688460024012606FA12
:107C700004F32B4203D0385D4146FFF7A3FF0134E4
:107C8000042CF4D1BDE8F08134DB03002DE9F04190
:107C90000546AAB3132933D91A4EDFF8788030602D
:107CA00052001948013A002402600127224607FACF
:107CB00002F32B4205D018F80200FFF771FF904045
:107CC00004430132042AF2D1104B4FF400401C60EF
:107CD00000254FF4FA74E0FB01454FF47A7200235B
:107CE0002046294614F05CFF00220146084813F0A4
:107CF000E7FB28B930680121BDE8F041FFF7B0BFCC
:107D0000BDE8F081AC330020A8330020D033002040
:107D1000B033002034DB030008B5054813F01CFC29
:107D2000044B00211868BDE80840FFF799BF00BF69
:107D3000B0330020AC33002037B500F0AFF820B9E5
:107D400000F066F808B113F065FD002401230E4D24
:107D5000ADF804408DF806408DF8053015F8010B9C
:107D600001A900F0A5F808B113F054FD0134042C6A
:107D7000F4D1064A0648012113F090FB08B113F034
:107D800049FD03B030BD00BF34DB0300D17B0200EE
:107D900030DB030000F1804000F5C040002382B0DA
:107DA000036003680193019B02B0704703681F2BB7
:107DB00083BF03F01F03036001484FF0A0407047EA
:107DC0000003005007B5019001A8FFF7EFFF019BEA
:107DD00000EB8300D0F8003723F44033C0F80037BD
:107DE000D0F8003743EA0141C0F8001703B05DF84E
:107DF00004FB0000054B4FF0FF32072843F820201A
:107E000084BFC01880F85820704700BFD4330020CA
:107E100038B51E4C94F86A30ABBB4FF6FF71FF20AB
:107E20005A09012A14BF4FF0FF320A4603F01F051A
:107E3000EA40D20748BFE21803F1010348BF82F8C5
:107E40003000302BECD10021C8B2FFF7D3FF013155
:107E50000C29F9D1062200210D4815F081F80D4BAF
:107E6000C02283F8062340221A604FF4BE70FFF749
:107E700091FF094B4FF00042C3F80423012384F81B
:107E80006A30002038BD0820FCE700BFD433002052
:107E90003834002000E100E000600040034B93F81C
:107EA0006A00003818BF0120704700BFD43300209B
:107EB00037B5354B1A18044692F93000013061D1BC
:107EC0008878002852D01846002250F8045B01350B
:107ED00046D1181980F83020002043F82200920083
:107EE00002F1804202F5C0420B78D2F81055487872
:107EF00025F499151B04000525F4F85500F48010AD
:107F000003F44033C2F8105503432002D2F8105551
:107F100000F47C5003432B43C2F810354A78019497
:107F2000012A01A826D1FFF741FF019B9A40C0F822
:107F3000082501A80194FFF739FF019B134903F5B8
:107F4000E073032240F8232024FA02F2012304F014
:107F5000070003FA00F08B5C18438854002003E00C
:107F60000132082AB1D1042003B030BDFE2382F8CB
:107F70003030D3E7FFF71AFF019A01239340C0F88E
:107F80000C35D6E70820EFE7D43300203834002042
:107F900007B5019001A8FFF709FF019A012393405B
:107FA000C0F8083503B05DF804FB07B5019001A8DF
:107FB000FFF7FCFE019A01239340C0F80C3503B093
:107FC0005DF804FB2DE9FF470024CDE90244584D3C
:107FD0004FF48072012102F1804303F5C04390B257
:107FE0001B68012B06D1D5F804330B4202D0FFF7F2
:107FF000D1FE0C430432B2F5907F4FEA4101EAD141
:108000004C4B1B68012B11D14FF4BE70FFF7C2FE21
:108010004FF0A04344F00044D3F820250292C3F867
:108020002025D3F820280392C3F8202814F0FF0F4E
:108030001AD0414F01260025344210D0AB0003F185
:10804000804303F5C043D3F81005D3F8101557F853
:10805000253023B1C1F30141C0F305209847013514
:10806000082D4FEA4606E7D1002C59DA324D334C41
:10807000334E4FF00008012716F9013B5A1C3CD043
:10808000C3F3C20104A801445FFA83F911F8081C84
:1080900003F03F0203F0070307FA03F319422CD061
:1080A00001A80192FFF782FE019B03F5E07350F8EF
:1080B0002330C3F3014ABAF1020F10460CBF03216B
:1080C0000221FFF77FFE01A80192FFF76FFE019BDF
:1080D00007FA03F3C0F82035AB1893F9303055F8A0
:1080E000233053B14FEA9911032904D0BAF1020F9A
:1080F00019D1012901D11046984708F10108B8F1BA
:10810000040FB9D14FF0A043D3F820250292C3F851
:108110002025D4F820350393C4F820351343A7D184
:1081200004B0BDE8F087BAF1030FE6D10229E1E718
:10813000006000407C610040D43300200003005008
:10814000343400202DE9F0410446CEB038B1424D20
:108150002B685A0403D5414E3368032B02DC4EB022
:10816000BDE8F0813E4B18680DAB611E04F10F0CA9
:108170001F4611F8012F4FEA121E02F00F0210F8ED
:108180000EE083F800E0825C5A70614503F102035F
:10819000EFD10023334887F820302F2114F0D2FF8D
:1081A000002846D02F212F4814F0CCFF411CDFF8C7
:1081B000C4802D4AD8F8043501922C4A00920297C7
:1081C000422204200EF0EAF92B685B04C7D533681D
:1081D000032BC4DD23482F2114F0B4FF002831D035
:1081E0002F21204814F0AEFF411CE27B2068D8F814
:1081F00004350B92A27B0A92627B0992227B089241
:10820000E27A0792A27A0692627A0592227A049220
:10821000E28852BA92B20392A28852BA00BA92B2DB
:10822000CDE90102124A0092042043220EF0B6F971
:1082300095E70C485C2114F085FF08B15C21B2E79A
:108240000849B4E707485C2114F07CFF08B15C21C1
:10825000C7E70449C9E700BF482E0020442E00208C
:108260004C2E002038DB030060DB030060D90300E4
:1082700072DB03000010014060DF704769DF704768
:108280000CF092B910B588B000F04AF908B113F0BB
:10829000C1FA2B4B0393039B04930C22002105A8E6
:1082A00014F05EFE0023049A8DF8143005A9012015
:1082B000FFF7E4FF08B113F0ADFA0C22002105A886
:1082C00014F04EFEF823049A059305A9A120FFF7A8
:1082D000D5FF08B113F09EFA04A8FFF7CDFF039B6A
:1082E000049A9A4204461CD0164B1B685B0418D5AE
:1082F000154B1B68012B14DD14482F2114F022FFAD
:10830000A8B12F21114814F01DFF411C104B049AF5
:10831000D3F8043501920F4A00920220AB220EF0EE
:108320003DF914B1204613F075FA08B010BD0748A6
:108330005C2114F007FF08B15C21E3E70349E5E79E
:10834000002E0020482E0020442E0020B2DB030027
:1083500000100140E2DB030070B5EFF3108672B647
:108360000C4A946801239CB993600B4B0B4DD3F8D6
:10837000801029401160C3F88050D3F884105160F8
:108380004FF0FF32C3F88420047006B962B670BDA6
:108390000370FAE7145A002000E100E0FC06FFBD7C
:1083A00010B5084B9A685AB150B9EFF3108172B604
:1083B000054A1C6814605C685460986001B962B634
:1083C00010BD00BF145A002000E100E001600B68FE
:1083D00043604A68934204BF002343607047436888
:1083E00043B1026891680B4443605268934204BFF2
:1083F0000023436070474BDF704700001FB50D4CF2
:1084000001A8FFF7F8FF70B9214602A8FFF7DEFFC9
:10841000039B002BF4D00198D3E90021904702A8D8
:10842000FFF7DDFFF4E7052801D013F0F3F904B0FE
:1084300010BD00BF1CDC030061DF704730B5114B7D
:108440001B7891B0E3B1104D34240DF1020103A863
:10845000ADF80240FFF7F0FF70B9294601A8FFF719
:10846000B5FF029B002BF0D003A8D3E90021904771
:1084700001A8FFF7B4FFF4E7052801D013F0CAF90B
:1084800011B030BD4034002028DC030010DF7047FD
:1084900013B5044609496846FFF798FF019808B9E3
:1084A00002B010BDD0E900212046904718B16846BF
:1084B000FFF795FFF2E71120F2E700BF38DC030079
:1084C00013B5044607496846FFF780FF019B0BB9C7
:1084D00002B010BD2046D3E9002190476846FFF75F
:1084E0007EFFF3E750DC03000B4991F816335A097D
:1084F000EC231341DB0706D5084B9A683AB94FF4D1
:1085000080030B60704742F2020013F083B91A68CF
:1085100042F480021A60704700E100E0145A002023
:10852000F7B5194F3C7864BB184E012520463570CD
:10853000FFF7AEFF112821D02046FFF7C1FF144BF3
:108540008DF80340186801900DF10300FFF704FF58
:10855000104901A8FFF79AFF0446B0FA80F04009DD
:1085600038709DF80300FFF71BFF3CB90A4B3470CD
:108570001C70FFF7B9FF2846FFF7A2FF204603B0A3
:10858000F0BD0824FAE700BF423400204134002047
:1085900034DC030065C502004334002007B50849F8
:1085A0006846FFF713FF019B13B903B05DF804FBA6
:1085B000D3E9002090476846FFF711FFF3E700BFBB
:1085C00044DC0300FFF7EABF38B5827802F003030A
:1085D0000446032B23D8DFE803F002141A1E930885
:1085E000154A1648126813440268A3600021F2B1CC
:1085F00095685D1B002D17DAD9B91146E16004605A
:1086000038BD02F0FC0303EB92035B00E8E792083D
:1086100064235343E4E7920841F27073F9E7784624
:1086200004F0A0F80023DBE71146D268DFE7002959
:10863000E4D0CC60E260E3E75C34002064340020E6
:10864000032808B503D8044B53F8200008BD78462A
:1086500004F088F80020F9E75CDC03002DE9F04124
:10866000584D2B78ABB1584B584E5F680CF00CFA54
:1086700004463078FFF7E4FF3278554B2044C01BA6
:10868000002A42D14CF2503290423ED91A6801324F
:108690001A60DFF84C81D8F80020002A00F08980A9
:1086A0004A4E9378307803F003038342374666DD01
:1086B000474B94681B68E31A464C5C43FFF7C0FFC6
:1086C000D8F80030B4FBF0F09B78C3F3010403F05A
:1086D0000303022B20D0032B31D0012B47D10A22D8
:1086E000B0FBF2F302FB1300002840D10CF0CCF9F0
:1086F00000F5742101F5107134702B78002B50D0E7
:10870000BDE8F04130480CF08DB91A683149B0FB32
:10871000F1F010441860BCE7337863B96422B0FB11
:10872000F2F302FB130010BB0CF0AEF92A4902234E
:1087300001443B70E1E7012B19D10A22EFE73378BE
:1087400063B941F27072B0FBF2F302FB130070B92F
:108750000CF09AF9214903230144EAE7012B02D1E5
:108760004FF41672EFE7022B01D13C22EBE70CF03D
:108770008BF904463878FFF763FF2118BDE70CF04A
:1087800083F9D8F800300446987800F00300FFF72A
:1087900057FFD8F800309B78C3F3010321183370DA
:1087A000ABE70948012341602B70BDE8F0410CF0B4
:1087B000F7B82B7823B1BDE8F04103480CF01AB9A3
:1087C000BDE8F08160340020443400206134002092
:1087D0005C340020A0860100809698000046C323E8
:1087E000643400202DE9F341244B1B78032B2AD855
:1087F000DFE803F0021B1F23214A136801331360D3
:10880000204B214E1E4D00221A70B04634683CB1F8
:10881000A3682A6893421AD02A689B1A002B16DB99
:10882000FFF71CFF02B0BDE8F081154A13680A3358
:10883000E5E7134A13686433E1E7114A136803F567
:10884000BB531033DBE7784603F08CFFD8E727886B
:10885000E368C8F8003001A900233846019301F00D
:10886000D3FC10B1784603F07DFF38466368019968
:1088700098472046FFF7A8FEC8E700BF61340020F4
:108880005C340020603400206434002010B5084CB3
:1088900018220021204614F063FB064B064AA36011
:1088A00000231360054A1360054A137010BD00BF12
:1088B00044340020E58702005C340020643400204A
:1088C0006034002008B5054B1B7813B104480CF048
:1088D00091F8BDE80840FFF7D9BF00BF6034002021
:1088E00044340020F8B50D461646044610B97846C3
:1088F00003F038FF124F0CF071FD3B6800220BB102
:10890000A34215D105F0030545EA8605A5709BB184
:10891000DB6882B93B602EB12046FFF755FE3B680D
:108920009C4201D1FFF79AFEBDE8F8400CF096BDDD
:108930001A46DB68E3E7D360002EF5D0ECE700BF12
:10894000643400200A4B93F8390093F85D2080F0DE
:108950000100404280B24AB14FF6FF72904204D00B
:10896000586D1B6BC01AC00F70470120704700BFC5
:108970006834002038B5154C242303FB004305461A
:1089800093F8393013B9784603F0ECFEB4F8603050
:1089900013B9784603F0E6FE242202FB05430021CA
:1089A00083F83910B4F86030013B9BB2A4F8603012
:1089B0001BB94FF6FF73A4F8623002FB0544A06AAE
:1089C00010F0CDFF0023A36238BD00BF6834002043
:1089D0002DE9F8432D4DB5F86030064613B97846B9
:1089E00003F0C0FE294C06F57A79002794F8393057
:1089F0001FFA87F83BB3236BA3EB0903002B22DAA2
:108A0000A38DA26A04F11801404600F00BFF102864
:108A10000CD8DFE800F00E0B0B0B0E150B150E1526
:108A20000B0B0B0B0B0E15000127DFE7784603F04D
:108A300099FE94F83830013BDBB284F83830EBB95A
:108A40004046FFF797FF2434002FEDD0FFF77AFF61
:108A5000B5F86030A5F86200ABB1012802D97846BC
:108A600003F080FEB5F86230242202FB03531B6B37
:108A70009A1B48BFF21AEA60BDE8F883D4E90C32C9
:108A800013442363DFE7EB60F6E700BF68340020A0
:108A900010B5064C64220021204614F061FA044B04
:108AA000A3604FF6FF73A4F8623010BD6834002055
:108AB000D18902002DE9F0470128BDF820A0064623
:108AC00088461746994602D9784603F04BFEB8F11E
:108AD000000F02D1784603F045FE17B9784603F03F
:108AE00041FE98F800305B0702D1784603F03AFE69
:108AF000B9F1000F02D1784603F034FEBAF1000F4D
:108B000002D1784603F02EFE274C242303FB0643B4
:108B100093F8393013B13046FFF72CFF0BF0B4FF58
:108B2000844697E80F00242505FB064505F1180E3D
:108B30008EE80F00C5F82890A5F82CA098F8003012
:108B4000C3F3020385F8383098F80000C3084CF2EC
:108B5000503003FB0000012385F83930B4F8603051
:108B60006863604401332863A4F86030FFF7EAFECD
:108B7000B4F86230984201D1864213D14FF6FF73A8
:108B80009842A4F8620002D1784603F0EBFDB4F8F5
:108B900062300548242202FB0344216BBDE8F04704
:108BA0000BF040BFBDE8F087683400204A0901237C
:108BB00001F01F0103FA01F150F82230194214BFED
:108BC0000120002070474FF6FF72B2EB104F82B0C9
:108BD00083B215D113F47F4007D003F44043B3F5BB
:108BE000004F14BF0020012006E023F07F022AB9C5
:108BF0007F3B18BF0123184602B070470346FAE7CF
:108C000023F03F03C02BECE701289FBF054B382220
:108C100002FB003090F8340094BF00F00100002007
:108C2000704700BF20350020C0F30F43A3F5405329
:108C30009BB2012B13B512D80B4A107810F0040028
:108C40000FD10A4A096802EBC304C943616012F8F4
:108C5000331021F0060102F8331002B010BD0520D8
:108C6000FBE70020F9E700BF923500209435002093
:108C7000000CB0F5804F04BF0A78044B82B00ABFE5
:108C8000002005201A7002B0704700BF242E00207B
:108C900013B50190000C01280C4602D0784603F071
:108CA00061FD012363800223A380238002B010BDF5
:108CB00013B50190000C01280C4602D0784603F051
:108CC00051FD6388012B0DD1A388022B0AD1238883
:108CD000022B07D1044A137843F0010313700020DC
:108CE00002B010BD0B20FBE79235002037B5C0F372
:108CF0000F44A4F54054A4B2012C01900D4602D9B2
:108D0000784603F02FFD044B03EBC4046368DB4398
:108D10002B6003B030BD00BF9435002013B5019027
:108D2000000CB0F5804F0C4602D0784603F01AFDD7
:108D3000024B1B78237002B010BD00BF242E002010
:108D400070B51C460B89B3F5BE7F0546164606D3A3
:108D5000092323602068B0FA80F0400970BDFFF756
:108D600053FF28B10C48382303FB050083890BB15E
:108D70000523EEE73EB982884FF6FF739A4206D08C
:108D8000C2889A4203D00868FFF71DFF08B907237D
:108D9000DFE70023DDE700BF2035002037B5040CF6
:108DA000B4F5805F01900D4602D0784603F0DAFCFE
:108DB000064BA4F58054A4B20621022201FB043123
:108DC000284603B0BDE8304014F0BCB80A35002096
:108DD00037B5C0F30F44A4F50054A4B2012C0190A0
:108DE0000D4602D9784603F0BDFC054B382114220C
:108DF00001FB0431284603B0BDE8304014F0A2B8AE
:108E000020350020F7B5C0F30F43A3F500539BB204
:108E1000012B019024D81548007810F004061DD1CC
:108E20003820134D8F894343EC18A08987421AD10B
:108E30000888EB5A984216D148886388984212D124
:108E4000CA89E3899A420ED11422204614F07AF896
:108E500094F8343023F0060384F83430002000E026
:108E6000052003B0F0BD0B20FBE700BF92350020CA
:108E70002035002010B50F4C70220021204614F040
:108E80006FF8062200210C4814F06AF81022002125
:108E90000A4814F065F80123094AA384A4F85C3059
:108EA000084BE260626404224FF0FF311A70616087
:108EB000E16310BD203500200A35002094350020E4
:108EC000FFFF0200242E00202DE9F04FD5B081468F
:108ED00007A80F4615461C46BDF8786102F0AAFAAD
:108EE000724B382202FB0932918904910498BDF833
:108EF0001E10814205D84FF0100A504655B0BDE80B
:108F0000F08FBDF81C1005910DF12008002D00F028
:108F10009A80D5E90301B5F81EB0B5F824A02D7FDD
:108F200088E8030045B1382000FB093999F8115051
:108F3000FF2D04BF5E4B1D7814B9784603F012FC78
:108F400016B9784603F00EFC0DF128092422002101
:108F5000484614F005F8504610AA594603F058F850
:108F600082460028C9D1DDE9043298E803001344A1
:108F7000A9F80830BB7A89F80B30FB7A89F80C30F5
:108F800089E80300FB6889F80A5051464846C9F849
:108F90001040A9F81460C9F820300BF0FFFA82469F
:108FA0000028AAD1434B1A6812F4005F9946A4D056
:108FB000414B1A68042A98469FDD40482F2114F03F
:108FC000C1F800284FD02F213C4814F0BBF8411CB9
:108FD0003B4D3A88D5F8043501923A4A0092052073
:108FE00040F2A9120DF0DAFAD9F800309B0484D5CA
:108FF000D8F80030042B80DD334B802E196828BF51
:10900000802613ABA0191F46844203F1020333D11B
:1090100000232A4807F816302F2114F093F800286F
:1090200038D02F21254814F08DF8411C274AD5F857
:1090300004350192264A009202974FF4D57205201A
:109040000DF0ACFA59E7D088B2F804B0414602F00E
:1090500069FA40BBB8F80220002A3FF44CAF134B2A
:109060004FF6FF7A5FE715485C2114F06BF808B102
:109070005C21A9E71149ABE714F8012B4FEA121C58
:1090800002F00F0211F80CC003F802CC8A5C03F85E
:10909000012CB9E709485C2114F054F808B15C21AF
:1090A000C0E70649C2E74FF0050A26E72035002051
:1090B000242E0020482E0020442E00206CDC0300CB
:1090C0000010014088DC03004C2E00209CDC0300D3
:1090D00060D90300000CB0F5805F82B00FD10B4B5C
:1090E000187810F004000CD1094B09881A889142B5
:1090F00009D15A7922F006025A7102B07047052050
:10910000FBE70020F9E70B20F7E700BF92350020CE
:109110000A3500200C4B1B785B0782B008D40B4A41
:1091200012F8303043F0040302F8303002B07047D8
:10913000022300F54050ADF80430ADF80600019868
:1091400002B00FF085BD00BF92350020943500209D
:1091500007B5124B1B7813F0040F114B08D113F80D
:10916000302042F0020203F8302003B05DF804FB27
:1091700003EBC003022200F540505B68ADF8042009
:10918000ADF80600DB430198009369460FF00EFD31
:109190000028EAD0784603F0E5FAE6E792350020A9
:1091A0009435002007B5134B13491B7813F0040FB7
:1091B0000BD1382303FB001090F8343043F0020346
:1091C00080F8343003B05DF804FB0223ADF80430BE
:1091D00000F50053ADF80630382303FB0011019869
:1091E0000FF0E4FC0028EDD0784603B05DF804EB06
:1091F00003F0B8BA923500202035002007B50C4B9B
:109200001B785B0707D40B4A537943F00203537171
:1092100003B05DF804FB074907480FF0C7FC0028BE
:10922000F6D0784603B05DF804EB03F09BBA00BFBC
:10923000923500200A350020020000104A094FF044
:10924000FF3301F01F0103FA01F150F822301940F9
:1092500009D04B420B4005495943C90E044B585C99
:1092600000EB421070471820704700BF31B57C07F3
:1092700028DD03002DE9F04F85B08146DDF8388008
:1092800092461F460D4611B9784603F06BFA03ABC0
:10929000524629464846FFF753FD18B9039805B0D2
:1092A000BDE8F08F69882B884FF6FF7291422FD16D
:1092B000FF2B8CBF4FF0020B4FF0010B2E895E4449
:1092C000B6B2304610F049FB044680B369882B885B
:1092D0002A784FF6FF7081421DD06170090A227012
:1092E000A1702A89696804EB0B0013F02BFE00962D
:1092F0002346524629464846FFF7E6FD039018B933
:1093000017B1B8F1000F0ED1204610F028FBC5E7C9
:109310004FF0030BD2E713F47F4F1DBF1B0A2370DE
:1093200062702270DDE73C60A8F80060B7E70420B7
:10933000B5E700002DE9F04F4F4F3B7843F00403B1
:1093400013F0020685B03B7003D00B2005B0BDE8DA
:10935000F08F13F0010F494C18D0A0464FF6FF795B
:10936000B346B8F80C304B450CD0B8F80600484569
:109370005AD1B8F80E50022D5BD1382303FB0643B7
:1093800083F812B008F13808002E4BD03C4D2B78F2
:1093900013F0040064D1990701D5FFF7D9FE2B78AB
:1093A00023F006032B702B7A5A075DD50120FFF7B7
:1093B000B1FE2B7A23F006032B72324D6B7998079E
:1093C00001D5FFF71BFF6B7923F002036B7194F853
:1093D0003430990702D50020FFF7E4FE94F83430CA
:1093E00023F0020384F8343094F86C309A0702D5E5
:1093F0000120FFF7D7FE94F86C3023F0020384F8C5
:109400006C303B78DB0735D41F480290022302A959
:10941000ADF80C300FF0CAFB10B1784603F0A2F99A
:10942000052093E701269CE702F018F80028A0D059
:109430008BE7134B03EBC505043500212846FFF7E6
:10944000FDFE1828824698D01FFA8AF002F04EF8E6
:1094500000287FF47AAF0AF101011729EED98CE7D1
:109460000020FFF757FE9AE79E07A2D50120FFF7DD
:109470006FFE9EE7002069E792350020203500202E
:10948000943500200A350020020001002DE9F04F3C
:1094900000F114048FB00546204603F031F8002790
:1094A0008146002874D04FF6FF73ADF832302B7D23
:1094B000012B70D10DA801F0BDFFEF8ABDF834304B
:1094C000FF1ABFB2CA46524C4FF0000BBAF1000F60
:1094D00074D0A689F21B5642564194F83430E98B79
:1094E00003F0010304F108000A93FFF75FFB2988EA
:1094F0000B90A28D68884FF0000890456ED34FF016
:109500000008CDF82480434B1B689B0423D5424BB5
:109510001B68062B1FDD41482F2113F013FE002886
:109520006DD02F213D4813F00DFE411C3C4B099A94
:10953000D3F8043506920B9ACDE904620A9A039295
:109540006288029222880192364A009207204FF4E4
:1095500086620DF023F80A9BB3B1AEB10B9B9BB1B1
:10956000099B8BB12B7D012B1FFA8BF005D1226B50
:109570000990294600F0D6FF0998A36A226B03EBF5
:10958000C80329465B6898473834BBF1000F12D0F6
:109590000FB0BDE8F08FEA8A4FF6FB739A4291D87C
:1095A0000DF13201204602F019F810B1784603F0AF
:1095B000D9F8BA4687E74FF0010B87E7E089012821
:1095C0000AD8194BBDF8321003EBC0000430FFF786
:1095D000EDFA00F0010680E75046FAE7A36A03EBD4
:1095E000C80C33F838308B4203D1BCF802308342C8
:1095F00002D008F1010880E7CDF8249083E70748FE
:109600005C2113F09FFD08B15C218BE703498DE7D6
:1096100020350020482E0020442E00206CDC030062
:1096200000100140A4DC0300943500202DE9F04136
:109630000268137803F0C0018029D0B0044600F01E
:10964000A68000F295801D0640F19B8000252E46E5
:10965000624F3B68980419D5614B1B68042B15DDDC
:1096600060482F2113F06EFD002800F094802F2118
:109670005C4813F067FD411C5B4B5C4AD3F8043532
:1096800000920196FD2205200CF088FFE06902F0AF
:1096900013F88046A06901F0FBFF4FF6FF739D426F
:1096A0002268ADF81460ADF816507DD1B6F5807F14
:1096B00034BF012302234FF6FF7113448D42A28869
:1096C000069373D1FF2E8CBF02210121521A217AF9
:1096D0008DF820106189ADF82210E1680991217C94
:1096E0008DF82810618AADF82A1061690B9194F801
:1096F00020108DF83010616A0D913968ADF8328014
:1097000092B28904ADF81C20ADF838002AD534494E
:109710000968042926DD3649802A0D6828BF802281
:109720000FA99E180C46B34201F1020140D100235B
:109730002C4804F812302F2113F004FD002843D0E8
:109740002F21284813F0FEFC411C274B294AD3F84F
:1097500004350192284A009202944FF48A7205203F
:109760000CF01CFF05A8FFF791FE50B0BDE8F0819A
:10977000C0297FF46BAF55789EB2937845EA0325F4
:1097800066E77F2B9EB2F0D04FF6FF7560E7567804
:1097900046EA0326F8E713485C2113F0D3FC08B12E
:1097A0005C2165E70F4967E7032384E703218DE721
:1097B00013F8010B070900F00F00EF5D01F8027CC0
:1097C000285C01F8010CAEE706485C2113F0BAFCF6
:1097D00008B15C21B5E70349B7E700BF482E002078
:1097E000442E00206CDC030000100140F9DC030073
:1097F0004C2E00200CDD030060D90300037813B168
:10980000142B03D070470430FFF710BFC388022B1E
:1098100001BF034A137843F002031370704700BF7F
:1098200092350020F0B5074685B015461E4681B139
:109830007AB173B103AB0022FFF782FA10B9039833
:1098400005B0F0BD00962B4600223846FFF73CFBE2
:10985000F6E70E20F4E7000008B500F0ABFEFFF7D6
:1098600031F8FFF707FB054A137823F00303137061
:10987000BDE8084002200FF011BA00BF9235002069
:1098800008B5FFF7F7FA0848084B03600AF088FEAE
:1098900000F07CFEFEF7FAFFFFF7FAF8044A1378AF
:1098A00023F00703137008BD14350020FD97020054
:1098B000923500202DE9F0410D460446002800F0C5
:1098C000BE80002900F0BB80C3681BB18368002BF9
:1098D00000F0B5804FF6FF732B80E3681BB9A368D7
:1098E000002B40F0AE80A688002E40F0AC8002F045
:1098F0002BFE10B10F20BDE8F081564BA088062248
:1099000002FB00329178D278D14219466AD1D4E96B
:1099100002870026B74240F08B802A884E4E4FF6D1
:10992000FF739A4243D196F8343013F0010305D007
:1099300096F86C30DB0700F18A80012338222B80F7
:1099400002FB03634FF6FF70D8802B8802FB036392
:1099500098802B88A78802FB03639F812B886788E8
:1099600002FB03635F802B8827885343F7522B88C1
:1099700002FB036250742288A38882424FF00602E1
:1099800002FB03130BBF9A78DA78013201320CBF65
:109990009A70DA702B88382202FB036393F8342024
:1099A00042F0010283F834202888FFF7FBFB2A8865
:1099B0002169382303FB0262002011632A88A16811
:1099C00003FB026291622A88E16803FB02629185CF
:1099D0002A88616903FB026291612A8803FB02669F
:1099E000B28288E71C4B2288B3F80CC06788844594
:1099F00007D1B3F802C0BC4503D1B3F800C0944509
:109A00000CD0B3F84460864281D1588FB8427FF4BD
:109A10007EAF188F90427FF47AAF0126382202FB86
:109A200006332E8093F83430DA077FF570AF61E7A4
:109A300058F83600FFF7C7F838B101366AE70E204C
:109A400059E7092057E7052055E7072053E7042089
:109A500051E700BF0A35002020350020F0B506464A
:109A600085B00F4619B30DF10A030022009303AB32
:109A7000ADF80A20FFF7FEFB054688B90D49039BA8
:109A8000382272438818C07C40070CD002F11304BE
:109A9000BDF80A20009221443A463046FFF70AF802
:109AA000284605B0F0BD18460FF059FFF8E70E251F
:109AB000F6E700BF2035002013B514460A4639B139
:109AC00034B1002300932146FFF7D4FB02B010BD50
:109AD0000E20FBE710B50446FFF796F870B1172982
:109AE0000ED8084A382303FB0423DA888A4203D0BD
:109AF000D9802046FFF756FB002000E0052010BD6E
:109B00000720FCE72035002010B5044651B1FFF7CF
:109B10007BF848B10548382303FB04040020E388A0
:109B20000B8010BD0E20FCE70520FAE72035002051
:109B3000012838B51BD80F4B382202FB003292F8AF
:109B40003440E40713D5D27C01F0070402F0070586
:109B5000A54204D1C1F3C404B4EBD20F05D038221E
:109B600002FB0033D974FFF71DFB002000E0052045
:109B700038BD00BF2035002069B101280DD8084B41
:109B8000382202FB003090F83430DB0705D5C37C67
:109B90000B70002070470E2070470520704700BFF3
:109BA0002035002038B50446154699B192B1FFF72B
:109BB0002BF888B10A48382303FB040083696BB192
:109BC000837CC3F301030B70837CC3F385032B7089
:109BD000002038BD0E20FCE70520FAE70620F8E754
:109BE000203500202DE9F34100230DF107020DF18E
:109BF000060105468DF806308DF80730FFF7D2FFD5
:109C000010B1784602F0AEFD284E9DF8077038235B
:109C100003FB05633C46B3F824809DF80630032B14
:109C200023D8DFE803F005021A1E07EB870464005F
:109C3000B4FBF8F23F2A1CD8002F35D0012A38BFD8
:109C40000122D2B20027382000FB056039461430CB
:109C5000FEF748FE02B0BDE8F081642417FB04F46F
:109C6000E6E741F270747C43E2E7784602F07AFD61
:109C7000DEE740F276239A4205D80A230127B2FB99
:109C8000F3F2D2B2DFE741F69C039A4295BF642318
:109C900041F27073B2FBF3F2B2FBF3F299BFD2B2AE
:109CA0000227D2B20327CEE73A46CCE72035002080
:109CB000012810B50FD80B4A382404FB002393F871
:109CC0003420D20707D59A693AB141B19984FFF798
:109CD00089FF002010BD0520FCE70620FAE70720D9
:109CE000F8E700BF20350020012838B5044625D804
:109CF0001548382303FB040393F83450ED071DD5B2
:109D00009D69EDB13F2A1DD803291BD89B7CB2EB7E
:109D1000930F03D103F003038B420DD0382303FBD1
:109D2000040001F0030343EA820181742046FFF737
:109D300059FF2046FFF736FA002000E0052038BD25
:109D40000620FCE70720FAE72035002038B5044656
:109D500002F0FAFB28BB2046FEF756FF18B3144D5D
:109D6000382202FB0452D289022A18D111490B78F9
:109D700013F0010203D00B7ADA0716D4012223F084
:109D8000040343F0010301F83230382303FB04538A
:109D900090B2D881FFF7DCF92046FFF703FA0020E4
:109DA00038BD0F20FCE70520FAE70420F8E700BFE4
:109DB00020350020943500202DE9F04104460E4660
:109DC000FEF722FFF0B11348382303FB0404E789B0
:109DD000022F1AD017291AD8DFF83C80FD0004356D
:109DE00008EB0500FEF7E2FE50B9012303FA06F680
:109DF00058F805303846334348F80530FFF7A8F9DE
:109E0000002000E00520BDE8F0810620FBE70720E8
:109E1000F9E700BF2035002094350020F8B504464E
:109E20000D46FEF7F1FED8B11048382303FB0404B9
:109E3000E689022E16D0172916D80D4FF4000434E7
:109E40003819FEF7B3FE50B1012303FA05F53B596B
:109E5000304623EA05033B51FFF77AF90020F8BDAD
:109E60000520FCE70620FAE70720F8E72035002068
:109E7000943500202DE9F843064615460F4641B3B8
:109E80003AB3FEF7C1FE30B31648382303FB06068B
:109E9000F389022B21D00024DFF84C90B5F8008024
:109EA0002C80F08901280ED809EBC000214604302F
:109EB000FEF77CFE38B12B88984510D927F813405F
:109EC0002B8801332B800134182CEAD10020BDE807
:109ED000F8830E20FBE70520F9E70620F7E70920C5
:109EE000F5E700BF20350020943500202DE9F04132
:109EF00007460E46FEF788FEC0B1082919D8382556
:109F0000DFF834807D43083508EB0500FEF74EFE90
:109F100050B9012303FA06F658F8053038463343A2
:109F200048F80530FFF73EF9002000E00520BDE8C5
:109F3000F0810720FBE700BF20350020F8B506467A
:109F40000D46FEF761FEA8B1082915D838240B4F3D
:109F5000744308343819FEF729FE50B1012303FA7F
:109F600005F53B59304623EA05033B51FFF71AF943
:109F70000020F8BD0520FCE70720FAE72035002087
:109F80002DE9F041064615460F46F9B1F2B1FEF74C
:109F90003BFEE8B11048B5F800803823002403FBED
:109FA00006062C80083621463046FEF7FFFD38B104
:109FB0002B8898450ED927F813402B8801332B8026
:109FC0000134082CEFD10020BDE8F0810E20FBE722
:109FD0000520F9E70920F7E72035002010B50446F1
:109FE000FEF712FE70B108290ED8084A382303FB89
:109FF00004239A888A4203D099802046FFF7D2F83A
:10A00000002000E0052010BD0720FCE720350020DF
:10A0100010B5044651B1FEF7F7FD48B105483823A5
:10A0200003FB04040020A3880B8010BD0E20FCE776
:10A030000520FAE7203500201FB503068DF807003C
:10A0400009D4012807D005480DF107010EF0AEFD37
:10A0500005B05DF804FB0720FAE700BF02000040EE
:10A06000014B1878704700BF242E002010B504461D
:10A0700051B1FEF7C9FD48B10548382303FB04047C
:10A080000020237C0B7010BD0E20FCE70520FAE7B2
:10A090002035002010B50446FEF7B6FD80B181F0F2
:10A0A00080037E2B0ED9084A382303FB04235A7CF5
:10A0B0008A4203D059742046FFF774F8002000E06C
:10A0C000052010BD0720FCE72035002010B5044610
:10A0D00051B1FEF799FD48B10548382303FB04044C
:10A0E0000020637C0B7010BD0E20FCE70520FAE712
:10A0F0002035002021B128B9034B1B880B80704705
:10A100000E207047052070470A35002021B128B97C
:10A11000034B9B780B7070470E20704705207047EB
:10A120000A35002021B128B9034BDB780B7070474A
:10A130000E207047052070470A35002010B50446F0
:10A1400069B1FEF761FD60B1074A382303FB04F0F3
:10A1500013185B884B80135A0B80002010BD0E2013
:10A16000FCE70520FAE700BF2035002037B5019154
:10A170000AB310B1052003B030BD4FF6FF73138052
:10A180000E4BBDF804009989BDF8064029B95D88D9
:10A19000A54202D11D8885420AD0B3F84410002997
:10A1A000E8D1598FA142E5D11B8F8342E2D1012131
:10A1B00011800020DFE70E20DDE700BF2035002002
:10A1C00070B5C1B1BAB1C0B90E4B158810801488F2
:10A1D000AC4214D293F83460F60706D59E8926B9AE
:10A1E00021F81400148801341480383308B1002099
:10A1F00070BD0120EBE70E20FAE70520F8E7092003
:10A20000F6E700BF2035002010B5044651B1FEF737
:10A21000FBFC48B10548382303FB04040020236BF2
:10A220000B6010BD0E20FCE70520FAE7203500206A
:10A2300070B50646FEF7E8FCE0B1382575430E4CD4
:10A24000002205F11400114620442C44FEF74AFB7D
:10A25000304600F0F5F9E08801F020F900254FF0D4
:10A26000FF333046636065746582A575FEF79AFF1B
:10A27000284670BD0520FCE720350020082837B5AA
:10A2800005461CD80DF106010020FFF7C1FE28B9D4
:10A29000BDF80630AB4201D1FFF7CAFF0DF1060150
:10A2A0000120FFF7B5FE044658B9BDF80630AB42B1
:10A2B00002D10120FFF7BCFF204603B030BD0724C8
:10A2C000FAE70024F8E700002DE9F04F5F4DB5F8FC
:10A2D000703087B0074613B9784602F043FA5C4BFA
:10A2E0005A4CDFF87CA1DFF87CB1039301221A708D
:10A2F0004FF6FF7207F57A79A5F872204FF0000843
:10A3000094F84030CBB1236BA3EB0903002B1BDA8D
:10A31000002384F84030B5F87030013BA5F8703068
:10A32000208B05A9FFF770FF10B1784602F01AFAEA
:10A33000636B0599208B012298472C34B8F1000FEC
:10A3400052D14FF00108DBE7A36BA3EB0902002A0F
:10A3500068DAA5F87280208B04F11C01FFF77EFB00
:10A360000646E8B1DAF800309B0417D5DBF8003078
:10A37000042B13DD37482F2112F0E4FEE8B12F2122
:10A38000344812F0DFFE411C334B344AD3F8043515
:10A3900000920196832205200CF000F9082E15D1B9
:10A3A000D4E90E231A445B00A263E363226BA36B20
:10A3B000D31A002BC1DAA263BFE726485C2112F052
:10A3C000C1FE08B15C21DBE72249DDE7042E01D0A4
:10A3D0000F2E23D12C2303FB0858D8F8383003F56F
:10A3E0001C434033C8F83830B5F870305BB3B5F86B
:10A3F0007230012B02D9784602F0B4F9B5F8723008
:10A400002C2202FB03539B6BDA1B48BFFA1AEA604B
:10A41000039A0023137007B0BDE8F08F784602F06E
:10A42000A1F9C3E7B5F872204FF6FF718A4207D051
:10A430002C2101FB0252926B9B1A002BBFF67DAFC1
:10A44000A5F8728079E7EB60E2E700BFA83500204D
:10A45000A635002048DD0300001001406DDD03003B
:10A46000482E0020442E002038B52C4C2C2303FB12
:10A470000043054693F8403013B9784602F072F96C
:10A48000B4F8703013B9784602F06CF92C2202FB54
:10A490000542002382F84030B4F87030013B9BB293
:10A4A000A4F87030A3B3B4F87230AB4235D1926BDC
:10A4B0001B4B134494F84020EAB1A26BD11A002937
:10A4C000B8BF13464FF6FF72B8BF002294F86C1065
:10A4D000A1B1616ECB1A002B10DA0123A4F87230FF
:10A4E000B4F872300D482C2202FB0344A16BBDE886
:10A4F00038400AF097BA4FF6FF72E7E74FF6FF735E
:10A500009A42A4F87220EBD1784602F02BF9E7E7E3
:10A51000BDE8384001480AF06DBA38BDA8350020C2
:10A52000008793030128F8B504460E46174602D962
:10A53000784602F017F90AF051FF134B93F84020C8
:10A5400012B11A8BA2421DD093F86C20B2B1B3F8AD
:10A550004420A24212D101202C2505FB003533886E
:10A56000AA8D9A420AD1EA8D73889A4206D1FFF7E2
:10A570007BFF6B6B0022394620469847BDE8F840C8
:10A580000AF06CBF0020E7E7A835002010B5064CA4
:10A5900074220021204612F0E3FC044BA360044B1C
:10A5A00000221A7010BD00BFA8350020C9A2020009
:10A5B000A635002073B51F4C0AF010FFB4F87030B8
:10A5C0002BB100232046A4F870300AF013FA94F857
:10A5D00040307BB1258B1848666B00212C2212F08D
:10A5E000BFFC01A92846FFF70FFEF0B9019902222E
:10A5F0002846B04794F86C309BB1B4F844500F48EB
:10A60000246E00212C2212F0ABFC01A92846FFF792
:10A61000FBFD10B1784602F0A5F801990222284608
:10A62000A0470AF01BFF02B070BD784602F09AF80E
:10A63000DCE700BFA8350020C0350020EC35002045
:10A64000012873B504462DD8174D0AF0C7FE95F8BA
:10A65000403013B12B8BA34220D095F86C30FBB166
:10A66000B5F84430A3421BD101263046FFF7FCFE6B
:10A6700001A92046FFF7C8FD10B1784602F072F834
:10A680002C2303FB065520466B6B01990222984749
:10A6900000240AF0E3FE204602B070BD0026E4E785
:10A6A0000524F6E70524F6E7A83500204A0901232A
:10A6B00001F01F0103FA01F150F82230194214BFD2
:10A6C0000120002070474A09012301F01F0103FA0D
:10A6D00001F150F822300B4340F82230704700005F
:10A6E0000F28014602D80248FFF7E0BF002070475C
:10A6F0001C360020103881B2072902D80248FFF723
:10A70000D5BF0020704700BF2436002010B5044696
:10A71000FFF7E6FF28B92046FFF7ECFF00F0010045
:10A7200010BD0120FAE700002DE9F0474FF6FF7356
:10A73000DFF84080DFF840900B8007460D4600248C
:10A740001E464FF0AC0A21464046FFF7AFFF40B12E
:10A750000AFB04F333F80930BB4206D12C80BDE874
:10A76000F0872B88B34208BF2C800134042CEAD137
:10A770000020F4E764380020683800202DE9F04715
:10A780004FF6FF73DFF84080DFF840900B800746FC
:10A790000D4600241E464FF02A0A21464046FFF788
:10A7A00085FF40B10AFB04F333F80930BB4206D100
:10A7B0002C80BDE8F0872B88B34208BF2C80013481
:10A7C000082CEAD10020F4E7683600206C3600201F
:10A7D00013B50190000C01280C4602D0784601F018
:10A7E000C1FF042323800123A380082363802381E6
:10A7F0001023E38002B010BD13B50190000C0128B6
:10A800000C4602D0784601F0ADFF2388042B13D10B
:10A81000A388012B10D16388082B0DD12389082B25
:10A820000AD1E388102B07D1044A137843F00103BF
:10A830001370002002B010BD0B20FBE76038002031
:10A8400037B5C0F30F44A4F58054A4B20F2C019087
:10A850000D4602D9784601F085FF07482146FFF7EB
:10A8600025FF10B9784601F07DFF044B33F8243002
:10A870002B8003B030BD00BF1C36002028360020DE
:10A8800038B5044610B9784601F06CFF0A4B002237
:10A8900093F8645090B203F122011DB18C420AD0AA
:10A8A00003F143018C4206D00132042A03F1AC03C8
:10A8B000EED14FF6FF7038BD6838002013B5019017
:10A8C000000C02280C4602D0784601F04BFF074BE3
:10A8D0001B68DB0702D4784601F044FF04490422D8
:10A8E000204602B0BDE8104012F02CBB20360020FC
:10A8F0005038002037B5C0F30F44A4F50054A4B27B
:10A90000072C01900D4602D9784601F02BFF0A482A
:10A910002146FFF7CBFE10B9784601F023FF074927
:10A92000142303FB041110220431284603B0BDE8B0
:10A93000304012F007BB00BF24360020183B002037
:10A9400073B5040CB4F5A04F01900D4602D07846C3
:10A9500001F008FFA4F5A044A4B20C482146FFF77B
:10A96000A5FE10B9784601F0FDFE1621084E4C43B5
:10A97000A11D10223144281D12F0E4FA325B2A8016
:10A9800033195B886B8002B070BD00BFBC370020FC
:10A99000C0370020F8B5A1F1100414260B4F664310
:10A9A0000546301D29461022384412F0CBFAB91959
:10A9B00028460BF021FD10B1784601F0D3FE214668
:10A9C0000348BDE8F840FFF77EBE00BF183B0020FB
:10A9D0002436002073B5040CA4F500530E4699B23A
:10A9E000072901900CD80848FFF760FE30B9A4F59C
:10A9F000FF51103989B23046FFF7CCFF002000E04C
:10AA0000052002B070BD00BF24360020F7B5C0F3AA
:10AA10000F44A4F54054A4B2032C01900D4602D972
:10AA2000784601F09FFE00212422284612F098FA71
:10AA300012482146FFF73AFE10B9784601F092FE1F
:10AA4000AC230F4E5C433719335B2B8097F864308F
:10AA5000AB70A11C10223144E81C12F073FA97F875
:10AA600064304BB112341022311905F1130003B0D8
:10AA7000BDE8F04012F066BA03B0F0BD64380020C3
:10AA80006838002073B5C0F30F44A4F58044A4B225
:10AA9000072C01900D4602D9784601F063FE002193
:10AAA0002622284612F05CFA12482146FFF7FEFDE6
:10AAB00010B9784601F056FE2A210F4E4C43A11DD5
:10AAC00010223144681D12F03DFA325B2A8033199E
:10AAD0005A886A809B7D2B714BB119341022311931
:10AAE00005F1150002B0BDE8704012F02BBA02B0BB
:10AAF00070BD00BF683600206C3600202DE9F041A3
:10AB00001E4CAC255543164605F1680362192344D3
:10AB10000F469367804610B9194B01221A7005F150
:10AB20002201214438460BF02EFC10B1784601F08A
:10AB300019FE05F17C01214438460BF035FC10B1BB
:10AB4000784601F00FFEA81C394610222044123529
:10AB500012F0F8F910220021601912F001FAAC236A
:10AB60007343E21824F80380002382F864303146EE
:10AB70000448BDE8F041FFF7A6BD00BF68380020DB
:10AB80004E3800206438002037B5C0F30F4404F578
:10AB900040540190A4B20D46224631F8030BFFF752
:10ABA000ADFF074AAB78AC2101FB0424054A84F8C9
:10ABB00064301378002043F00403137003B030BDF9
:10ABC00068380020603800202DE9F8432A255D43CD
:10ABD000144C91468046A81D10220F462044494639
:10ABE0001E4612F0AFF905F1190000211022204491
:10ABF000053512F0B5F9611948460BF0BBFB10B1F1
:10AC0000784601F0AFFD2A237343E2180021117149
:10AC10009175578024F8038031460348BDE8F84316
:10AC2000FFF751BD6C36002068360020F7B5C0F341
:10AC30000F44A4F58044A4B2072C01900D462DD8F2
:10AC400017482146FFF732FD10B1002003B0F0BDD8
:10AC5000144F698828882A2623466A1D6643FFF711
:10AC6000B3FF2B79BA199375002BEED0153506F189
:10AC7000190029461022384412F064F906F118012F
:10AC8000394428460BF076FB10B1784601F06AFD96
:10AC90002A2303FB04742379E375D6E70520D5E75F
:10ACA000683600206C3600202DE9F3410190000C3D
:10ACB00000F50054A4B2072C0D4632D900F580509F
:10ACC00084B2072C2FD80126194A137843F00403C5
:10ACD00013706988288823462A1DFFF775FF2A27E5
:10ACE000144B6743DA1998469675F6B1143507F197
:10ACF000190029461022184412F024F907F118010E
:10AD0000414428460BF036FB10B1784601F02AFD8D
:10AD10002A2303FB048400202379E37502B0BDE8F5
:10AD2000F0810026D0E70520F8E73046F6E700BFBF
:10AD3000603800206C36002073B5064610460C467D
:10AD40001546FFF7B3FC10B9784601F00BFD01235F
:10AD50002644ADF80430ADF8066001980DF078FF98
:10AD600010B1784601F0FEFC6209012304F01F04D3
:10AD700003FA04F455F8223023EA040345F822309C
:10AD800002B070BD2DE9F0474FF6FF73DFF84C803D
:10AD9000DFF84C900B8007460D4600244FF0140A54
:10ADA00021464046FFF782FC064650B92A884FF6F6
:10ADB000FF739A4200D12C800134082CF0D1002678
:10ADC00008E0102239460AFB049012F0ADF8002882
:10ADD000F2D12C803046BDE8F08700BF2436002039
:10ADE0001C3B002008B528B9784601F0BBFC4FF6A3
:10ADF000FF700BE0064B9842F9D303F501729042C5
:10AE0000F5D8C01AAC23B0FBF3F080B208BD00BF88
:10AE1000DC38002010B5044610B9784601F0A2FCD9
:10AE20000B4A0023944203D002F113018C4201D15A
:10AE300098B210BD0133082B02F12A02F2D1054865
:10AE40004FF6FF72844214BF10460820F1E700BF9E
:10AE500070360020C437002073B50190000C022822
:10AE60000D4602D0784601F07DFC0D4E346814F09A
:10AE7000010410D1288809F009FA01280DD10948E8
:10AE80000422294612F05EF8336843F00103336070
:10AE9000204602B070BD0024FAE70B24F8E700BF9B
:10AEA0002036002050380020F7B5C0F30F44A4F539
:10AEB0004054A4B2032C01900E4629D815482146CF
:10AEC000FFF7F4FB10B1002003B0F0BD314622467D
:10AED00031F8030B104FFFF711FEAC225443B37847
:10AEE0003A1982F86430002BEDD0133604F11200C9
:10AEF000314610223844433412F024F839193046D0
:10AF00000BF041FA0028DED0784601F02BFCDAE79E
:10AF10000520D9E7643800206838002037B50023C1
:10AF2000054610460C46ADF80030FFF7BFFB10B9E0
:10AF3000784601F017FC60190123ADF80430ADF834
:10AF40000600019869460DF031FE10B1784601F017
:10AF500009FC03B030BD00002DE9F84F81461546CD
:10AF6000884600294BD009F091F90228074648D0BD
:10AF700000F0FD03012B44D14FF6FF74DFF890B0D1
:10AF8000224B0026A24654450BD118463146FFF706
:10AF90008DFB1E4B28B9B4B20136102EF3D100221E
:10AFA00005E03BF826204A45F6D1B4B201220DB99E
:10AFB000032F26D19AB94FF6FF739C4223D0144B2E
:10AFC000124823F8249003EB840321465A80FFF7AC
:10AFD0007AFB0E4A21464FF48050FFF79FFF0C4B3F
:10AFE000A8F80040A4001C442DB9E3780133E370B5
:10AFF0000020BDE8F88FA3780133A370F8E70E2096
:10B00000F7E71020F5E70420F3E700BF1C36002027
:10B01000283600202DE9F3414FF6FF780D461446FF
:10B02000ADF80680074650B349B30DF10601FFF7AE
:10B03000A9FEBDF8063003F11006B6B260B943456B
:10B040001FD031463846FFF7A5FC0F4ABDF8061061
:10B050004FF40050FFF762FFBDF806300B4A2E8018
:10B06000142101FB032334B9DA780132DA700020AD
:10B0700002B0BDE8F0819A7801329A70F7E70E20AD
:10B08000F6E70420F4E700BF24360020183B002038
:10B0900038B50446FFF724FB80B1154B03EB84025F
:10B0A000907848B9D57845B923F82450114A2146FB
:10B0B0004FF48050FFF740FE002038BD2046FFF7D8
:10B0C00019FB80B1A4F110010B4889B214224A4344
:10B0D0008418A378002BEFD1E47834B98452074A5E
:10B0E0004FF40050E6E70520E7E71846E5E700BF24
:10B0F000283600201C360020183B00202436002073
:10B1000041090B4A00F01F0052F821204FF0FF3395
:10B110008340134009D05A421A40064B5343DB0E7A
:10B12000054AD05C00EB411070470420704700BF17
:10B130006438002031B57C0712DE03004FF6FF7340
:10B140000B80084B1B6813F0010307D0064B1B88CC
:10B15000834205D108230B800120704708220A8012
:10B1600000207047BC370020C03700202DE9F34194
:10B170000190000CB0F5A04F1AD10F4E346814F0B6
:10B18000010417D10D4D0F88B1F80280102204314F
:10B19000A81D11F0D7FE012321463046AB80A5F84B
:10B1A00002802F80FFF78FFA204602B0BDE8F081C1
:10B1B0000524F9E70024F7E7BC370020C03700205A
:10B1C00073B5C0F30F44A4F58054A4B20F2C0190C2
:10B1D0000E4611D80A482146FFF768FA50B9094BC4
:10B1E000328823F8242003EB840321465880044846
:10B1F000FFF769FA002000E0052002B070BD00BF33
:10B200001C360020283600200388012B12D14388E9
:10B21000A3F54052032A04D814290BD1A3F5C04347
:10B2200007E0A3F58042072A04D82429F4D1A3F526
:10B23000A0434380704700007FB52B4A137813F07A
:10B2400002044ED1D90712D4284A106851681289D5
:10B2500001AB03C301A94FF001101A800DF0A6FC49
:10B2600010B1784601F07EFA052004B070BD13F0ED
:10B270000400FAD064F3820313701D4D0123ADF86E
:10B28000043021462846FFF711FA68B1A6B206F548
:10B290004053ADF8063001980DF0DAFC2A463146ED
:10B2A0004FF44050FFF73AFE0134042CE9D1114D20
:10B2B000002421462846FFF7F9F968B1A6B206F541
:10B2C0008043ADF8063001980DF0C2FC2A463146A5
:10B2D0004FF48040FFF722FE0134082CE9D1002012
:10B2E000C3E70B20C1E700BF60380020E0DD0300AA
:10B2F000643800206836002010B500231F4A194624
:10B300000133102BD170917002F10402F8D10023A7
:10B310001B4A1C460133082BD470947002F11402AE
:10B32000F8D104220021174811F01AFE042200214E
:10B33000154811F015FE04220021144811F010FEEA
:10B3400004220021124811F00BFE042200211148B2
:10B3500011F006FE04221048002111F001FE0F4BEF
:10B360000F4A1C805C800F4B1C70137823F0030382
:10B370001370BDE8104001200DF090BC283600206D
:10B38000183B0020203600201C36002024360020E8
:10B390006438002068360020BC3700205038002078
:10B3A000603800204E380020054808B5054B036082
:10B3B00009F0F6F8044A137823F00303137008BD6C
:10B3C00054380020DDBA02006038002070B5044611
:10B3D00010B9784601F0C6F9144E356815F001052C
:10B3E00021D1638813B90B25284670BD208808F049
:10B3F0004DFF0128F7D1208863881844013880B2B6
:10B4000008F044FF0128EED13368094843F00103F6
:10B4100021460422336011F095FD32462946022070
:10B42000FFF77CFDE0E70F25DEE700BF20360020B8
:10B430005038002010B5044610B9784601F092F952
:10B4400020460349BDE81040042211F07BBD00BF37
:10B45000503800200122FFF77FBD000010B50446E0
:10B46000FFF754F978B10F2C89BF08480848103C01
:10B4700014238CBF03FB040400EB84040020A37896
:10B480000133A37010BD0520FCE700BF183B00206E
:10B49000283600200122FFF7BDBD000010B504468C
:10B4A000FFF71EF950B10C4B03EB84039A78013A75
:10B4B0009A702046BDE81040FFF7EABD2046FFF72E
:10B4C00019F930B1054AA4F11003142101FB03233B
:10B4D000ECE7052010BD00BF28360020183B0020F7
:10B4E0000022FFF739BD0022FFF794BD10B50446D6
:10B4F000FFF70CF978B10F2C89BF08480848103CB9
:10B5000014238CBF03FB040400EB84040020E378C5
:10B510000133E37010BD0520FCE700BF183B00209D
:10B520002836002070B506460D4601B3FFF7D8F85F
:10B53000044658B1104B33F826206A8033F82600B1
:10B5400008F0A4FE28700020686070BD3046FFF748
:10B55000D1F870B11420103E084B464320469A5B48
:10B560006A8004361E4402236E602B70EDE70E20C5
:10B57000EBE70520E9E700BF28360020183B002054
:10B5800013B50446FFF7C2F808B369462046FFF733
:10B59000C9FFC0B99DF80030032B0BD10D4B03EB55
:10B5A0008403DA789AB1013ADA702046FFF770FD29
:10B5B00002B010BD022B08D1074AA4F110031421D8
:10B5C00001FB0323EDE70020F2E70F20F0E7052061
:10B5D000EEE700BF28360020183B00202DE9F74396
:10B5E0000C46054600283CD000293AD0408808F097
:10B5F0004DFE022824D000F0FD00012833D14FF683
:10B60000FF73DFF86880DFF868906F88238000257B
:10B610001E4629464046FFF749F840B139F8253023
:10B62000BB4208D12580002003B0BDE8F083238809
:10B63000B34208BF25800135102DEAD10520F3E77C
:10B6400068684FF6FF73ADF8063050B10DF1060192
:10B65000FFF798FB0028F1D0BDF8063010332380A7
:10B66000E1E70E20E0E71020DEE700BF1C360020F7
:10B670002836002007B50DF10601FFF755F820B177
:10B68000BDF8060003B05DF804FB4FF6FF70F9E764
:10B6900008B1FFF7F5B84FF6FF70704707B50DF129
:10B6A0000601FFF76BF820B1BDF8060003B05DF8A6
:10B6B00004FB4FF6FF70F9E708B1FFF7ABBB4FF69D
:10B6C000FF70704738B504460D4669B107280DD89C
:10B6D00001460748FEF7EAFF40B12A204443054BE4
:10B6E0001B5B2B80002038BD0E20FCE70520FAE70D
:10B6F000683600206C360020082870B504460D46D8
:10B700003CD8002938D0082821D001461C48FEF733
:10B71000CDFF002832D01B4E2A2303FB04635B8835
:10B72000032B02D9784601F01DF82A2303FB04639A
:10B7300015485988FEF7BAFF10B9784601F012F89B
:10B740002A2000FB046463882B80002070BD0F4B0F
:10B750001B68DB0712D50E4C6388032B02D9784691
:10B7600001F000F861880848FEF7A0FF0028EAD140
:10B77000784600F0F7FFE6E70E20E7E70520E5E76B
:10B78000683600206C36002064380020BC3700206A
:10B79000C0370020F0B50646C7B015460C46002954
:10B7A00071D0002A6FD0B0F5805F6ED21146FEF7DF
:10B7B000BBFF2A88074670B13748AC2303FB020061
:10B7C00021461022023011F0AFFB00280CBF0320ED
:10B7D0000F2047B0F0BD4FF6FF739A4257D0214675
:10B7E0003046FFF78BF92D4A29884FF44050FFF778
:10B7F00095FB294B2988AC2202FB013130468C3164
:10B8000008F0DEFE264B186810F48020E1D0254BAE
:10B810001B68062B3DDD244B186805AB611E1D46D9
:10B820000F3411F8012F160902F00F02865D1E7009
:10B83000825C5A708C4203F10203F2D100231B4850
:10B8400085F820302F2111F07DFC98B12F21174869
:10B8500011F078FC411C164B164AD3F804350192BE
:10B86000154A00920720029540F627120AF096FE2C
:10B870000020AEE70D485C2111F064FC08B15C21AA
:10B88000E5E70A49E7E70E20A3E70720A1E7042040
:10B890009FE738469DE700BF6838002064380020E5
:10B8A000482E0020442E00204C2E00208FDD030067
:10B8B00000100140B9DD030060D90300032838B54A
:10B8C00004460D460DD801460748FEF7EFFE40B18D
:10B8D0000648AC2303FB0404002094F864302B706A
:10B8E00038BD0520FCE700BF643800206838002020
:10B8F0002DE9F04105460F4600294ED003284ED8C9
:10B9000001462848FEF7D2FE002848D0264BAC243A
:10B910006C431A191E4692F8642072B1012A02D0B3
:10B920000820BDE8F08104F11200102239461844C5
:10B9300011F0FAFA0028F4D0F2E704F11208984462
:10B9400039461022404611F0FDFA04F1430131441A
:10B9500038460AF018FD10B1784600F003FF04F1F4
:10B960009401314440460AF01FFD10B1784600F0C2
:10B97000F9FEAC236B43F118012281F8642004F135
:10B98000A401F05A314408F0B3F94FF44050054A8D
:10B990002946FFF7C3FA0020C3E70E20C1E70520C0
:10B9A000BFE700BF6438002068380020032810B5C6
:10B9B00004461DD801461048FEF778FEC0B10F4876
:10B9C000AC236343C11891F86420012A12D10222EA
:10B9D00081F8642003F1A4010144C05A08F088F9F9
:10B9E0004FF44050044A2146FFF798FA002010BD5A
:10B9F0000520FCE70820FAE76438002068380020BA
:10BA000003282DE9F04107465CD801462F48FEF790
:10BA10004DFE002856D02E4EAC247C4306EB040885
:10BA200098F86430002B4FD004F11201A01C31446F
:10BA30001022304411F086FA04F1430104F122008F
:10BA400031442122304411F07DFA04F1940104F1D3
:10BA50007C0031441822304411F074FA002504F1BE
:10BA60008C01305B88F864502A46314408F040F974
:10BA70002C46184E184DA04621462846FEF716FEC5
:10BA800090B17388BB420FD1B37D6BB1122206F126
:10BA90001701301D11F056FA86F816802A46A1B219
:10BAA0004FF48040FFF73AFA0134082C06F12A06D9
:10BAB000E2D14FF44050054A3946FFF72FFA0020F3
:10BAC000BDE8F0810520FBE70820F9E76438002095
:10BAD000683800206C3600206836002070B5037886
:10BAE000042B02D0142B20D070BDD0E90146457E36
:10BAF0002046FFF777F94FF6FF729042F4D02034DA
:10BB0000A642F1D10D4AAC2101FB002393F8643029
:10BB10002DB1012BE8D1BDE87040FFF747BF002BE6
:10BB2000E2D0BDE87040FFF76BBFC388012B01BFB7
:10BB3000034A137843F002031370D5E768380020F6
:10BB4000603800202DE9F0470D46064600B3F9B1F4
:10BB50000024DFF84480DFF844900F680C604FF059
:10BB6000AC0A21464046FEF7A1FD58B12B689F4222
:10BB700010D00AFB04F232F8092026F813202B68B3
:10BB800001332B600134042CEBD10020BDE8F08799
:10BB90000E20FBE70920F9E7643800206838002010
:10BBA0002DE9F04F8246C7B00F4699461446002A49
:10BBB00000F08280002B7FD008F068FB01288346CC
:10BBC0007CD1032F7CD842483946FEF76FFD002810
:10BBD00076D00DF112015046FFF7B0FA80460028EA
:10BBE00070D1BDF812504FF6FF739D426CD0083DE6
:10BBF0001626384B6E43B01D10222146184411F012
:10BC0000A1F9344B34489A192946A2F804B0578058
:10BC100023F806A0FEF757FDBDF812102E4A08398A
:10BC20004FF4A04089B2FFF779F9BDF81230A9F8B6
:10BC300000302A4B186810F4802031D0284B1B6844
:10BC4000062B43DD274B186805AB611E1D460F34DC
:10BC500011F8012F160902F00F02865D1E70825C3A
:10BC60005A708C4203F10203F2D100231E4885F87A
:10BC700020302F2111F066FAA8B12F211A4811F0B7
:10BC800061FA411C194B1A4AD3F804350192194A3A
:10BC900000920720029540F627220AF07FFC002040
:10BCA00047B0BDE8F08F10485C2111F04BFA08B1A5
:10BCB0005C21E3E70C49E5E70E20F1E71020EFE710
:10BCC0000520EDE70F20EBE70420E9E74046E7E732
:10BCD00064380020C0370020BC370020482E0020E8
:10BCE000442E00204C2E00208FDD03000010014068
:10BCF000C6DD030060D903002DE9F0410646C6B059
:10BD000088461D461446002A72D0002B70D00329A5
:10BD100070D83C48FEF7CAFC00286BD0B6F5805FAF
:10BD20006AD229463046FEF729FD2B88074678B1AE
:10BD300035482A2202FB030021461022063011F06A
:10BD4000F3F800280CBF03200F2046B0BDE8F081B7
:10BD50004FF6FF72934251D0224641463046FEF7DD
:10BD600033FF4FF48040294A2988FFF7D7F8284B42
:10BD7000186810F48020E8D0264B1B68062B3FDDA6
:10BD8000254B186805AB611E1D460F3411F8012FB5
:10BD9000160902F00F02865D1E70825C5A708C429A
:10BDA00003F10203F2D100231C4885F820302F2133
:10BDB00011F0C8F998B12F21184811F0C3F9411CAE
:10BDC000174B184AD3F804350192174A00920720FE
:10BDD000029540F676220AF0E1FB0020B5E70F4815
:10BDE0005C2111F0AFF908B15C21E5E70B49E7E709
:10BDF0000E20AAE70520A8E70720A6E70420A4E76D
:10BE00003846A2E7643800206C36002068360020EF
:10BE1000482E0020442E00204C2E00208FDD0300F1
:10BE200000100140D3DD030060D90300F8B50446DB
:10BE30000E4600293ED007283ED801461F48FEF78F
:10BE400035FC002838D01E481E492A256543431971
:10BE5000AC275A8807FB0212074692F86420012A91
:10BE600001D00820F8BD05F119010844997D31B1D0
:10BE70001022314611F058F80028F3D0F1E79A75F6
:10BE800031461022183511F05DF8791930460AF064
:10BE900071FA10B1784600F065FC2A2303FB0473A5
:10BEA0004FF480401A79DA752146044AFFF736F8D4
:10BEB0000020D7E70E20D5E70520D3E7683600201D
:10BEC0006C36002068380020072807B501460ED8D8
:10BED00001900848FEF7EAFB48B14FF48040054A5C
:10BEE0000199FEF729FF002003B05DF804FB05204F
:10BEF000FAE700BF683600200328F8B504463BD8AF
:10BF000001461F48FEF7D2FB002835D00020FFF77E
:10BF1000F7F80025042827D1012D2FD0194E1A4FEC
:10BF2000002529463846FEF7C1FB48B17388A34275
:10BF300006D1A8B2FFF7C8FF10B1784600F012FC96
:10BF40000135082D06F12A06EBD1AC230F4A6343D5
:10BF5000D35A0BB90E4A13704FF44050084A214689
:10BF6000FEF7EAFE0020F8BD0130032805F10105C7
:10BF7000D2D8FFF7C5F8CDE70520F4E70F20F2E7A8
:10BF8000643800206C3600206836002068380020B5
:10BF90004E3800202DE9F047064614460F4651B3AF
:10BFA0004AB3032829D801461648FEF77FFB20B381
:10BFB0000025DFF85480DFF854A0D4F80090256005
:10BFC00029465046FEF772FB68B1B8F80230B3421A
:10BFD00009D12368994512D0B8F8002027F813201A
:10BFE0002368013323600135082D08F12A08E7D1C1
:10BFF0000020BDE8F0870E20FBE70520F9E70920C7
:10C00000F7E700BF643800206C3600206836002057
:10C0100070B504460E461546002A44D0082944D877
:10C020000BBF2448244800213146FEF73FFB00287F
:10C030003BD04FF6FF739C4207D1082E17BF1F4A13
:10C040001F4B2A2303FB06235C88032C2FD81D4893
:10C050002146FEF72BFB50B3082E1B4A20D02A2383
:10C0600003FB06F1AC2303FB042393F86430022B9B
:10C07000124B13D15818807D80B117311944696073
:10C08000AC2303FB04F0131893F86430022B0CBFAD
:10C090004330223010442860002070BD0431EDE7A9
:10C0A0000A4B6B60ECE70E20F7E70520F5E7082068
:10C0B000F3E700BFBC370020683600206C36002054
:10C0C000C03700206438002068380020C4370020C2
:10C0D00038B50D46FFF7CEFA044675B103280ED8E1
:10C0E00001460848FEF7E2FA48B10749AC2000FBD8
:10C0F000041422342C60002038BD0E20FCE70520FB
:10C10000FAE700BF64380020683800202DE9F843C2
:10C11000804617460E4611B9784600F023FB17B942
:10C12000784600F01FFB306808F07F0820BB002431
:10C13000002333603B601B4BDFF86C90AC2505FBA4
:10C140000435A3B2032B15D821464846FEF7AEFAB4
:10C1500028B395F8641095F8222005F12203D1B197
:10C16000904595F8430005F143010ED1804514D167
:10C1700033603960BDE8F883FEF782FB4FF6FF734A
:10C180009842D4D0441CA4B2D2E7804507D1316094
:10C1900000233B60EEE7904501D13360F8E7AC3512
:10C1A0000134CEE768380020643800202DE9F84FCC
:10C1B000044689461F46154612B9784600F0D2FA61
:10C1C00017B9784600F0CEFA14B9784600F0CAFAEA
:10C1D0002046FFF75DFA4FF6FF739842824603D17F
:10C1E00000232B603B6032E0286890B3FEF712FE1C
:10C1F000441C2649264B274A2A264FF0AC0B06FB47
:10C20000041688460BFB0A3B072CE9D8104621464A
:10C21000FEF74CFA1F4AA8B37388534532D19BF8F6
:10C220006410737919B3B17D09B389EA030111F080
:10C230003F0F317E0FD189EA010080060BD12A2100
:10C240004C43231D1734434444442B603C60BDE8F9
:10C25000F88F0446CDE789EA010111F03F0106D1CC
:10C260002A2000FB048417342C603960EFE789EA48
:10C27000030313F03F0305D12A2000FB0484043498
:10C280002C60AFE701342A36BEE700BF6C360020D1
:10C29000683800206836002038B504460D4611B9CC
:10C2A000784600F05FFA34B1044830F8043BA3420A
:10C2B0000CBF044600242C6038BD00BFC0370020EE
:10C2C0002DE9F047054690460E4611B9784600F034
:10C2D00049FAB8F1000F02D1784600F043FA30680D
:10C2E000002852D0FEF77EFD00F1010A284FDFF84A
:10C2F000A890AC2404FB0A7441E051464846FEF77E
:10C30000D5F9C8B394F8643053B955B1082204F193
:10C310008C01284610F008FEB0FA80F35B0901E0BA
:10C32000E5B9012343B31B4B1B781BB3AC2303FBC1
:10C330000AF3FB5AB3FA83F35B09AC2000FB0AFA59
:10C3400007EB0A020AF1740A574482F87430376026
:10C3500092F8643088F80030BDE8F087082204F1D4
:10C360008C01284610F0E0FD0028DAD0082204F104
:10C37000A401CEE70123E0E70AF1010AAC34BAF1E7
:10C38000030FBAD900233360E6E78246AEE700BF69
:10C39000683800204E380020643800202DE9F7432B
:10C3A00004460D4607F072FF022856D0032816D027
:10C3B000012824D1444B1B6813F001031FD0434BC9
:10C3C0001A8894421BD35B8813449C424FF00003AD
:10C3D00015DA6C8028706B6003B0BDE8F0834FF60F
:10C3E000FE7300219C426C802870696009D04FF672
:10C3F000FF76B4422FD0231D9BB2012B0CD8002016
:10C40000EAE701A901200DF056FA10B1784600F0D4
:10C41000A9F99DF80400DFE72D4FDFF8BC900D4629
:10C42000B046464511D129464846FEF73FF960B966
:10C43000AEB20135102D07F10407F2D10BF008FF61
:10C4400043881B1B58425841C6E73B88A342F0D1A2
:10C45000FB78002BEDD00120BEE76868E8B94FF605
:10C46000FF73ADF80430BDF80460DFF87080194F39
:10C47000072E4FF6FF7394BF01360026ADF8043047
:10C480004FF01409082EBAD031464046FEF70EF997
:10C4900048B9ADF804600136F4E701A9FEF772FC73
:10C4A0000028DCD0DFE709FB06F3DA5BA242F2D119
:10C4B000FA18D278002AA2D0043302221F446C80DA
:10C4C0002A706F6088E700BF2036002050380020B7
:10C4D00028360020183B00201C360020243600207F
:10C4E00038B50C46054600B111B9784600F03AF966
:10C4F000024B1A882A805B88238038BD5038002080
:10C5000007B50378022B0AD003F0FD03012B17D1E6
:10C5100040886946FFF742FF03B05DF804FB4068BE
:10C520006946FEF72FFC0028F6D0BDF80030054A1A
:10C53000142101FB0323D878003818BF0120EBE752
:10C540000020E9E7183B002007B501A8FEF772FFBD
:10C55000BDF80400003818BF012003B05DF804FBEB
:10C560000620704730B5754B14461B6844F2010233
:10C57000904287B00D4603F4804300F0A98022D892
:10C58000012844D041F20102904276D0002B58D0CD
:10C590006B4B1B68002B54DD6A482F2110F0D2FD35
:10C5A000002800F0BF802F21664810F0CBFD411C11
:10C5B000654B664AD3F80435009201957B22012031
:10C5C00009F0ECFF3DE044F202029042DED1002B84
:10C5D00037D05B4B1B68002B33DD5A482F2110F0FE
:10C5E000B1FD00286BD02F21564810F0ABFD411C47
:10C5F000554B2268D3F8043503926268CDE90152A5
:10C60000534A00920120692209F0C8FF19E0C3B122
:10C610004B4B1B68002B14DD4A482F2110F092FD74
:10C6200010B32F21474810F08DFD411C464B494A5D
:10C63000D3F804350092CDE901546022012009F0BD
:10C64000ADFF4FF0A0434FF4F032C3F81825C3F804
:10C650000C25EFF3108372B64DF6AD6C3E4A13789D
:10C66000002B68D107B030BD36485C2110F06AFD60
:10C6700008B15C21D6E73349D8E7002BE1D0304B35
:10C680001B68002BDDDD2F482F2110F05BFD68B10A
:10C690002F212C4810F056FD411C2B4B2F4AD3F86C
:10C6A00004350092CDE901546322C7E725485C2197
:10C6B00010F048FD08B15C21EBE72249EDE7214885
:10C6C0005C2110F03FFD08B15C218DE71D498FE72B
:10C6D000002BB6D01A4B1B68002BB2DD19482F2156
:10C6E00010F030FDA8B12F21164810F02BFD411C91
:10C6F000154B2268D3F8043504926268CDE90252E2
:10C70000A2680192164A00920120732209F046FFA6
:10C7100097E70C485C2110F015FD08B15C21E3E7B8
:10C720000849E5E707485C2110F00CFD08B15C21E1
:10C730003AE704493CE730BF91E700BF482E0020AC
:10C74000442E002032DE030000100140D6DE03003C
:10C7500096DE03005ADE0300252E002074DE03005F
:10C76000B5DE030007B50023014600936A46044B7B
:10C77000019344F20200FFF7F5FE03B05DF804FBFD
:10C7800093E903002DE9F04F0C4689B0064600B14D
:10C7900011B97846FFF7E6FF2388152B02D87846B3
:10C7A000FFF7E0FF4FF6FF724FF42013CDE90523AA
:10C7B0000025012305A90A223046ADF81C30ADF84A
:10C7C000045010F0BFFB0A2323800DF10E01284610
:10C7D000FDF79CFC10B17846FFF7C4FF0DF10F0187
:10C7E0000020FDF79FFC10B17846FFF7BBFF0DF16D
:10C7F00006010020FDF77EFC10B17846FFF7B2FF7E
:10C80000BDF80630ADF80C300DF10809022301AA7D
:10C8100049460020ADF80430FDF7D2FC10B178464F
:10C82000FFF7A0FF2088042203A9304410F08AFB00
:10C8300027889DF80E300437BFB227805BB14FF0D8
:10C840000008BDF804A045464FF6FF7BD04515D340
:10C8500023881D4425809DF80F3063B12088BDF8E2
:10C860000480002706443D464FF6FF7A47451ED315
:10C8700023881D44258009B0BDE8F08F39F81800E1
:10C8800004A9FDF75BFC10B17846FFF76BFFBDF81C
:10C8900010305B4508D1E81902220DF11201304435
:10C8A00010F050FB0235ADB208F10108CEE739F8BF
:10C8B000170004A9FDF742FC10B17846FFF752FFBC
:10C8C000BDF8103053450ED0022204A9701910F0A3
:10C8D00039FBA81C02220DF1120116FA80F010F0AB
:10C8E00031FB0435ADB20137C0E70000024B1B68D5
:10C8F00003B11847704700BFB83B002013B504468A
:10C9000001A8FEF797FDBDF80430181B18BF4FF0C3
:10C91000FF3080B202B010BD37B504460BF09CFC6E
:10C920000546002301A80093FEF784FD288A694686
:10C93000FFF7CEFB30B9009B6360BDF80430238065
:10C9400003B030BD0520FBE707B5002001A90CF0BE
:10C95000B2FF10B17846FFF705FFBDF806000A23C5
:10C96000B0FBF3F09DF80530013B03F007030138FD
:10C9700043EAC00003B05DF804FB1FB50193BDF8A6
:10C980001830ADF80020ADF808304FF6FF724FF4C4
:10C990000073ADF80220ADF80A306A46079B039396
:10C9A000FDF78AF805B05DF804FB00001FB50446EA
:10C9B000039107F007FE084B03991860074B01220B
:10C9C0001A7000230190009348F24A022046FFF7B4
:10C9D000D4FF04B010BD00BFC03B0020BC3B002012
:10C9E000F0B50B89032B87B006460C4626D14D685F
:10C9F000AB78012B22D800278DF80C702B88ADF86E
:10CA00000D3002238DF80F3007F0DCFD0423019078
:10CA1000009348F2480203AB21463046FFF7ADFFD2
:10CA20000822394604A810F09BFA1E238DF8103016
:10CA30002B88ADF8143004A8FFF758FF07B0F0BDFD
:10CA400010B586B0044603918DF81420ADF815306A
:10CA500007F0B8FD032301900093039905AB48F25A
:10CA600044022046FFF789FF06B010BDF0B50C4622
:10CA70000988A1F500411B3987B0054617461E46B7
:10CA8000102936D8DFE801F0090909093509090933
:10CA90003535353535354D3564000922002103A87B
:10CAA00010F05EFA23888DF80C60A3F500431B3B61
:10CAB000072B32D8DFE803F004042B04311F1F1FBB
:10CAC00063681A88ADF80D205A88ADF80F205B68AE
:10CAD000CDF81130002F14BF0726092607F072FD8C
