:020000022000DC
:1070000000FD032089180400B1180400B31804001F
:10701000B5180400B7180400B918040000000000F7
:10702000000000000000000000000000BB18040089
:10703000BD18040000000000BF180400C1180400BF
:10704000C3180400C3180400C3180400C3180400C4
:10705000C3180400C318040089A40200C318040064
:10706000C3180400F19F0200E5450300C3180400A3
:10707000C3180400C3180400C3180400C318040094
:10708000C31804009DED03003DF80200C31804007E
:107090006DEE0300C318040095B10200C31804008C
:1070A000C3180400C3180400C3180400C318040064
:1070B000C3180400C3180400000000000000000012
:1070C000C3180400C3180400C3180400C318040044
:1070D000C3180400C3180400C3180400C318040034
:1070E000C3180400C3180400C31804000000000003
:1070F00000000000C318040000000000C3180400D2
:10710000000000000000000000000000000000007F
:10711000000000000000000000000000000000006F
:10712000000000000000000000000000000000005F
:10713000000000000000000000000000000000004F
:10714000000000000000000000000000000000003F
:10715000000000000000000000000000000000002F
:10716000000000000000000000000000000000001F
:10717000000000000000000000000000000000000F
:1071800000000000000000000000000000000000FF
:1071900000000000000000000000000000000000EF
:1071A00000000000000000000000000000000000DF
:1071B00000000000000000000000000000000000CF
:1071C00000000000000000000000000000000000BF
:1071D00000000000000000000000000000000000AF
:1071E000000000000000000000000000000000009F
:1071F000000000000000000000000000000000008F
:1072000010B5054C237833B9044B13B10448AFF3E0
:1072100000800123237010BD3031002000000000E9
:10722000FC52040008B5034B1BB103490348AFF3FC
:10723000008008BD0000000034310020FC52040032
:10724000154B002B08BF134B9D46A3F5803A002138
:107250008B460F461348144A121A1BF093FF0F4B2C
:10726000002B00D098470E4B002B00D098470020F1
:10727000002104000D000D48002802D00C48AFF397
:1072800000801BF02FFF2000290000F077FB1BF08F
:1072900015FF00BF0000080000FD032000000000F3
:1072A000000000003031002050630020000000008A
:1072B0000000000041DF7047014B1B680B807047E6
:1072C000883100201FB5664C2368580419D5654BDA
:1072D0001B68032B15DD64482F211CF025F80028BE
:1072E00000F09A802F2160481CF01EF8411C5F4B73
:1072F0005F4AD3F80435009204204FF4AD7209F0D0
:10730000ADFA5C48002101F0A5F818B1564AC12138
:107310001AF0E5FA236859041AD5524B1B68032B5F
:1073200016DD51482F211BF0FFFF00287DD02F21B3
:107330004D481BF0F9FF411C4E4A4C4B1288D3F8C4
:10734000043501924C4A00920420C22209F086FAC8
:107350004A48002101F0F4F818B1434AC7211AF055
:10736000BEFA23685A041AD53E4B1B68032B16DD60
:107370003D482F211BF0D8FF00285FD02F213A482D
:107380001BF0D2FF411C3D4A384B1288D3F804351C
:1073900001923B4A00920420C82209F05FFA394862
:1073A000002101F025FC18B12F4ACC211AF097FAE0
:1073B0003549344801F04CFC18B12B4ACD211AF064
:1073C0008EFA30492B4801F093F818B1264ACE21A5
:1073D0001AF085FA23685B041CD5224B1B68032B2B
:1073E00018DD21482F211BF09FFF80B32F211E485D
:1073F0001BF09AFF411C234A1C4B92F83400D3F82F
:107400000435029012880192204A00920420CF2273
:1074100009F024FA04B010BD13485C211BF084FF6E
:1074200008B15C215FE7104961E70F485C211BF060
:107430007BFF08B15C217BE70B497DE70A485C21B3
:107440001BF072FF08B15C2199E707499BE70648EA
:107450005C211BF069FF08B15C21C8E70249CAE75B
:107460007830002074300020E03304000010014028
:107470000E340400102E00202E3404005031002061
:107480004A340400282F0020002F00206434040018
:10749000024B0348196002F0BBB900BF88310020DD
:1074A000082F002007B5154B1B685B0416D5144B3D
:1074B0001B68032B12DD13482F211BF035FFA0B1F1
:1074C0002F2110481BF030FF411C0F4B0F4AD3F8FF
:1074D000043500920420E22209F0C0F902F038F9E4
:1074E00003B05DF804EB01F019BE06485C211BF007
:1074F0001BFF08B15C21E4E70249E6E77830002091
:1075000074300020E0330400001001409334040084
:107510000378232B01D1FFF7C5BF70471FB503A820
:1075200016F03CFB154B1B685B041AD5144B1B680B
:10753000032B16DD13482F211BF0F6FEA0B12F21DF
:1075400010481BF0F1FE411C0F4BBDF80C20D3F886
:10755000043501920D4A0092042040F2471209F0CE
:107560007DF905B05DF804FB06485C211BF0DCFEEC
:1075700008B15C21E4E70349E6E700BF783000206A
:1075800074300020E033040000100140AC340400EB
:1075900007B5174B1B685B0417D5164B1B68032BED
:1075A00013DD15482F211BF0BFFEB8B12F21124863
:1075B0001BF0BAFE411C114B114AD3F8043500925E
:1075C00004204FF4A67209F049F903F04FF903F0D3
:1075D00075F903B05DF804EBFFF7A0BF06485C2126
:1075E0001BF0A2FE08B15C21E1E70349E3E700BF1D
:1075F0007830002074300020E03304000010014097
:10760000C334040030B5154B1B685B0485B00C46D1
:10761000154618D5124B1B68032B14DD11482F217A
:107620001BF082FE88B12F210E481BF07DFE411C0D
:107630000D4B0E4AD3F804350092CDE90145B9222D
:10764000042009F00BF905B030BD06485C211BF0A1
:107650006BFE08B15C21E7E70249E9E778300020DA
:1076600074300020E033040000100140DD340400D9
:107670007FB51E46154B1B685B040C46154619D595
:10768000134B1B68032B15DD12482F211BF04CFEFA
:1076900090B12F210F481BF047FE411C0E4B0F4AA3
:1076A000D3F804350092CDE902560194B0220420AB
:1076B00009F0D4F804B070BD06485C211BF034FE1C
:1076C00008B15C21E6E70349E8E700BF7830002015
:1076D00074300020E0330400001001400435040041
:1076E00008B503781D2B07D1044800F0E9FE18B156
:1076F000BDE808401AF0E6B808BD00BF102E002013
:10770000F7B5914DA0F131062B68032E03F48043A9
:1077100000F2F580A0F13004C3B18C4B1B68032B41
:1077200014DD8B482F211BF0FFFD002868D02F218E
:1077300087481BF0F9FD411C864B874AD3F8043576
:1077400000920194FE22042009F088F8022C60D0F7
:10775000042C68D0012C40F09780804A804913683F
:107760008B42B8BF0B460B4413607C4E7D48B6F984
:10777000001002F04DF87C4800F02EFE2B685B04F0
:10778000044640F19F80714F3A68032A40F3D88045
:107790006F482F211BF0C8FD002800F09E802F218C
:1077A0006B481BF0C1FD411C6A4B3268D3F80435AD
:1077B00001926E4A009204204FF4977209F04EF83D
:1077C000002C7FD02B685A047CD53B68012B79DDD7
:1077D0005F482F211BF0A8FD002800F087802F2193
:1077E0005B481BF0A1FD411C5A4B614AD3F804359C
:1077F0000092019440F23112022009F02FF861E06A
:1078000053485C211BF090FD08B15C2190E7504982
:1078100092E7524A136843F6FF718B42A8BF0B46AA
:1078200003F58043A0E701F077FC40B10FF0EEF9DB
:1078300001F018FC03B0BDE8F040FFF733BE2B6841
:1078400058043FD5414B1B68032B3BDD40482F219B
:107850001BF06AFD78B12F213D481BF065FD411CEE
:107860003C4B444AD3F8043500924FF49072042004
:1078700008F0F4FF26E036485C211BF055FD08B106
:107880005C21E9E73249EBE72B68590417D52F4B08
:107890001B68032B13DD2E482F211BF045FD98B1EB
:1078A0002F212B481BF040FD411C2A4B324AD3F8B4
:1078B0000435009204204FF4937208F0CFFF012E9C
:1078C0007FF653AF03B0F0BD21485C211BF02CFDC7
:1078D00008B15C21E5E71E49E7E71D485C211BF084
:1078E00023FD08B15C215BE719495DE718485C217D
:1078F0001BF01AFD08B15C2172E7154974E7002BF3
:10790000E0D0124B1B68032BDCDD11482F211BF04C
:107910000BFD60B12F210E481BF006FD411C0D4BE5
:10792000154AD3F80435009240F23F129FE7084809
:107930005C211BF0F9FC08B15C21ECE70449EEE79F
:10794000002C7FF442AFBDE7783000207430002077
:10795000E03304000010014040350400883100206D
:1079600000C0FFFF082F0020102E00201339040054
:107970008A35040053350400A036040000B5804E5B
:10798000804A46F201008DB0042108F04BFF3368B5
:10799000580418D57C4B1B68032B14DD7B482F2122
:1079A0001BF0C2FC002844D02F2178481BF0BCFCFF
:1079B000411C774B774AD3F80435009204204FF4EA
:1079C000C37208F04BFF744801F0D2FE17F096FB2B
:1079D00020B16E4A4FF4C57119F081FF02F00AFF21
:1079E00002F044FF02F06AFF01F070FE0021202245
:1079F00003A81BF0C7FB01238DF80C3007238DF87B
:107A00000F3006238DF81430644B07936449654B9F
:107A10000B9303A801F034FB18B901F077FE00289E
:107A200034D00B280ED0594A40F27F1119F057FF7D
:107A30002CE056485C211BF077FC08B15C21B4E7D0
:107A40005249B6E701F084FE336859041ED54E4D05
:107A50002A68032A1ADD4D482F211BF065FC0028F7
:107A60005BD02F2149481BF05FFC411C484C4E4A1B
:107A7000D4F804350092042040F2791208F0EEFEAA
:107A800033685A0402D52B68032B4FDC4748642126
:107A900001F0C8FC424B1B78002B64D1444D0FCD44
:107AA00003AC0FC495E8070084E8070003A801F0C1
:107AB0005DFC20B1354A40F2A71119F010FF03F028
:107AC000E1FD01F0E5FC3B4806F02CFE01F03CFA3C
:107AD00020B12E4A40F2B31119F001FF33685B0464
:107AE00018D5294B1B68032B14DD28482F211BF0C8
:107AF0001BFC00283AD02F2124481BF015FC411C08
:107B0000234B2D4AD3F804350092042040F2B512DD
:107B100008F0A4FEFFF7CEFBFCE71C485C211BF03D
:107B200003FC08B15C219DE718499FE717482F2106
:107B30001BF0FAFB70B12F2114481BF0F5FB411C20
:107B40001E4AD4F80435009204204FF4BD7208F0A8
:107B500085FE9BE70D485C211BF0E6FB08B15C212C
:107B6000EAE70A49ECE7FFF7D9FCA8E707485C21F8
:107B70001BF0DAFB08B15C21BEE70449C0E700BF97
:107B800078300020F907030074300020E03304004F
:107B900000100140B8350400082F002011750200C4
:107BA0004C310020C5720200E2350400017702006A
:107BB0006C360400002E0020A0360400303604008D
:107BC000983801F04BB90000F0B587B0044615466F
:107BD00010F8F00C0DF116021E4612F02FFA20B12B
:107BE0002D4A40F2B71119F07AFEBDF9161034F89B
:107BF000A83C14F8C00C24F89C1C24F89E3C12F0FD
:107C0000E9F920B1244A40F2BD1119F068FEA4F14F
:107C10009807384601F022F934F99E2C34F99C3C3F
:107C200044F8685C9B1A44F8843C2D2344F8803C5B
:107C300000221A4B04F87C2C44F8886C1B685B0407
:107C40001CD5174B1B68042B18DD13482F211BF084
:107C50006BFBC0B12F2110481BF066FB411C114B80
:107C600034F99C2CD3F8043501920F4A0092CDE9E7
:107C700002564FF4E572052008F0F0FD384601F099
:107C8000DFF807B0F0BD04485C211BF04DFB08B1E4
:107C90005C21E0E70049E2E7E437040078300020A7
:107CA00074300020001001400738040008B530F996
:107CB000A82C10F8F00C12F0ABF930B1BDE8084078
:107CC000024A40F2AB1119F00ABE08BDE4370400C5
:107CD00070B590F82C2030F9043C20F80E3C86B0AA
:107CE000022A18BF20F8103C0446A0F1580530F8CD
:107CF000102CADF8123004A9002328460593ADF8E6
:107D0000102012F009F954F8243C1BB134F9101C6E
:107D10002846984754F81C6C36B194F82C3034F847
:107D20000E2C216A2846B047154B1B685B041CD5F6
:107D3000144B1B68042B18DD13482F211BF0F4FA99
:107D4000A8B12F2110481BF0EFFA411C0F4B34F95A
:107D50000E2CD3F80435029234F9102C01920C4AFF
:107D600000920520EF2208F079FD06B070BD0648AC
:107D70005C211BF0D9FA08B15C21E3E70249E5E791
:107D80007830002074300020E437040000100140F7
:107D90003B3804002DE9FF4190F82C2030F9083CD5
:107DA00030F8088C022A04463ED030F90E5CED1AF9
:107DB00001F07BF8EF170346A0FB050103FB071159
:107DC0000023226A1AF0AAFF54F8243C404424F805
:107DD000100C23B134F9101CA4F1580098471C4B27
:107DE0001B685B041DD51B4B1B68062B19DD1A484D
:107DF0002F211BF099FA10B32F2117481BF094FA8A
:107E0000451C164B2046D3F80435039301F04DF87A
:107E1000134A01900092039BCA222946072008F0CA
:107E20001DFD04B0BDE8F08101F03FF8024654F8B2
:107E30000C0CC717A0FB020102FB0711C0E70648A4
:107E40005C211BF071FA08B15C21D6E7024DD8E73E
:107E50007830002074300020E43704000010014026
:107E60006E38040013B50021D0F8F430C0F8881043
:107E70000446186B0191836801AA5B689847019BCF
:107E8000A36602B010BD00002DE9F0431568DFF8CD
:107E9000A88185B099466B429BB2044600F104006C
:107EA0000C9F1646ADB258BF5D4212F09FF90028F4
:107EB0007AD1D8F8003059041AD5594B1B68032BD6
:107EC00016DD58482F211BF02FFA002863D02F21F0
:107ED00054481BF029FA411C534B3279D3F804352E
:107EE0000192524A009204204FF4A67208F0B6FCA8
:107EF000B4F85230E5662B44A4F85430012384F8DA
:107F000074302D232367B9F1000F52D12046FFF7BB
:107F1000A9FFD8F800305A0427D5414D2B68032B10
:107F200023DD40482F211BF0FFF9002849D02F21E5
:107F30003C481BF0F9F9411CDFF8EC90A26ED9F82F
:107F400004350392D4F88820029232680192384AAC
:107F50000092042040F2571208F080FCD8F800305C
:107F60005B0402D52B68032B34DC04F1580000F0CD
:107F700067FF33681BB1D4F8F40000F079FE3FB11D
:107F8000B4F948303B80B4F954307B80A36E7B60F9
:107F900005B0BDE8F08323485C211BF0C5F908B1AA
:107FA0005C2195E71F4997E7B4F84830A4F85230B0
:107FB0009EE7D9F80430C4F88830D9F80030A366B9
:107FC000A7E718485C211BF0AFF908B15C21AFE7C7
:107FD0001449B1E713482F211BF0A6F9B8B12F219E
:107FE00010481BF0A1F9411CB4F95420D9F804350C
:107FF0000392B4F948200292B4F9522001920D4A3A
:10800000009204204FF4AD7208F028FCADE705485B
:108010005C211BF089F908B15C21E1E70149E3E744
:1080200074300020E4370400001001408038040060
:10803000B2380400DB3804007830002013B5436AFE
:1080400050F81C4C30F9042C40F80C3C30F8063C3D
:1080500020F8083C20F80E2C2CB190F82C30016A46
:1080600092B25838A047134B1B685B0416D5124BCD
:108070001B68042B12DD11482F211BF055F978B134
:108080002F210E481BF050F9411C0D4B0D4AD3F81F
:10809000043500920520AF2208F0E0FB02B010BDCD
:1080A00006485C211BF040F908B15C21E9E703496F
:1080B000EBE700BF7830002074300020E437040084
:1080C000001001401E39040007B5134B1B685B0408
:1080D00016D5124B1B68042B12DD11482F211BF003
:1080E00023F980B12F210E481BF01EF9411C0D4BC6
:1080F0000D4AD3F80435009205209C2208F0AEFB0F
:1081000003B05DF804FB06485C211BF00DF908B1D3
:108110005C21E8E70249EAE778300020743000206B
:10812000E4370400001001403339040030B505463F
:108130001446836B85B000F148019847B5F9483083
:108140002380B5F94A30638095F88430022B2BD117
:10815000AB6F003B18BF01235B4263601A4B1B6887
:108160005B041FD5194B1B68032B1BDD18482F21FF
:108170001BF0DAF8F0B12F2115481BF0D5F8411C9F
:10818000144B6268D3F804350392B4F902200292CA
:10819000B4F900200192104A009204204FF4877233
:1081A00008F05CFB05B030BD05F1580000F064FE3E
:1081B0006060D3E706485C211BF0B6F808B15C218B
:1081C000DAE70349DCE700BF783000207430002094
:1081D000E43704000010014043390400F0B536498B
:1081E000B2F90070154647F6FF72002FD8BF0A4655
:1081F000A0F85420B0F84820A0F85220B5F900208B
:10820000C26685B002212D220A9E80F874100446B1
:108210000267002B40D1FFF725FE284B1B685B044B
:1082200020D5274B1B68032B1CDD26482F211BF074
:108230007BF8002836D02F2122481BF075F8411C0E
:10824000214BA26ED3F804350392D4F88820029211
:10825000B5F9002001921D4A0092042040F28B12D1
:1082600008F0FCFA04F1580000F0EAFDB5F900301E
:108270001BB1D4F8F40000F0FBFC5EB1B4F9483057
:108280003380B4F954307380A36E003B18BF0123D0
:108290005B42736005B0F0BD5A68C0F888201B6867
:1082A0008366BAE707485C211BF03EF808B15C2101
:1082B000C2E70449C4E700BF0080FFFF7830002018
:1082C00074300020E43704000010014077390400C6
:1082D000F0B51D46B2F90010B0F84830A0F85410BF
:1082E00087B00446A0F8523090F830000C9E174634
:1082F00011F070FE20B1334A40F21F1119F0EFFA6D
:10830000B4F95220B4F954309B1AE36600222D23AD
:1083100084F874202367002D45D12046FFF7A2FD85
:10832000294B1B685B0425D5284B1B68032B21DDDB
:1083300024482F211AF0F8FF00283AD02F21214895
:108340001AF0F2FF411C224B94F87420D3F8043544
:108350000592E26E0492A26E0392D4F888200292F3
:10836000B4F9542001921B4A0092042040F22712D3
:1083700008F074FA04F1580000F062FDB4F94820E6
:10838000B7F900309A4203D0D4F8F40000F070FC42
:108390003EB1B4F948303380B4F954307380A36EE1
:1083A000736007B0F0BD6B68C4F888302B68A366B3
:1083B000B6E704485C211AF0B7FF08B15C21BEE7BC
:1083C0000049C0E7E4370400783000207430002012
:1083D00000100140A539040037B501460446836BFF
:1083E00031F9485F984704F1580000F037FDB4F8C0
:1083F0004830A4F84A300021C4F88810102204F153
:1084000078001AF0BFFE0021102204F168001AF073
:10841000B9FEB4F9481094F8300011F0DBFD20B13A
:108420000B4A4FF4F57119F05AFAB4F94830AB42DF
:1084300003D0D4F8F40000F01BFCA36C0093694651
:1084400000232046019311F067FD03B030BD00BF4B
:10845000E437040010B5044618B3836B0BB3436BC9
:108460000BB9C36BEBB1104BE362204611F028FD52
:10847000C0B904F1300011F0F3FD98B90B4BC4F80A
:10848000F0300B4BA3650B4BE3650B4B23660B4B9B
:108490006366C4F8E04004F15800BDE8104000F005
:1084A00019BD0E2010BD00BFE8390400F8390400E2
:1084B000C98002003D800200957D0200D17C02004F
:1084C00013B504460DF1060190F8300011F094FD4B
:1084D00020B1064A40F22D2119F001FABDF906102B
:1084E000204611F021FD02B010BD00BFE4370400AA
:1084F00020B119B1C0F8F410002070470E20704769
:1085000008B51146007B12F007F828B1BDE8084015
:10851000024A4B2119F0E3B908BD00BF043A040038
:1085200008B511681960007B11F0E5FF28B1BDE8BE
:108530000840024A562119F0D2B908BD043A040095
:1085400010B5044650B1064B836011F07FFF30B97F
:1085500004F10C00BDE8104011F0EABF0E2010BD80
:10856000283A040010B5214B1B685B0486B0044612
:1085700021D51F4B1B68042B1DDD1E482F211AF02F
:10858000D3FE38B32F211B481AF0CEFE411C1A4BE4
:10859000226AD3F804350492626A039234F8062CF6
:1085A000029214F81C2C0192144A009205204FF4F8
:1085B000C67208F053F9002324F8083C54F8103C24
:1085C0008BB134F8062C216AA4F1500006B0BDE846
:1085D0001040184707485C211AF0A6FE08B15C213C
:1085E000D1E70449D3E706B010BD00BF78300020C2
:1085F00074300020303A040000100140533A040067
:10860000F8B50A4F05460E46002495F83C0006EBE7
:108610004402E1B212F0C0FA18B13A46622119F0F0
:108620005EF90134102CF0D1F8BD00BF303A0400DF
:10863000F0B5174687B01E46044600B112B9784619
:1086400002F0E8FF398894F83C000DF1170212F0AF
:10865000BBFA054628B3002E41D12A4B1B685B04A8
:108660001DD5294B1B68032B19DD28482F211AF033
:108670005BFE00283DD02F2124481AF055FE411CF6
:10868000234BB4F84820D3F804350292B4F84A20BA
:108690000192204A00920420C32208F0DFF807B0BC
:1086A000F0BD3B88B4F848209A4203D0B4F84A2081
:1086B0009A4205D104F1500000F0D0FB0023A364DE
:1086C00004F1E807D4F8EC30AB42C4D957F82500E0
:1086D0009DF8171003689B6898470135F2E700235F
:1086E0003370B4F848307380311D2046FFF788FF9F
:1086F000B3E706485C211AF017FE08B15C21BBE71E
:108700000249BDE77830002074300020303A040080
:1087100000100140973A0400F0B5174687B01E4696
:10872000044600B112B9784602F074FF398894F813
:108730003C000DF1170212F005FA054600283FD162
:108740003B88A4F8483004F1E807D4F8EC30AB4299
:108750002DD800253EB13570B4F848307380311DF6
:108760002046FFF74DFF1C4B1B685B041DD51B4BC0
:108770001B68032B19DD1A482F211AF0D5FD08B309
:108780002F2117481AF0D0FD411C164BB4F8482091
:10879000D3F804350392B4F84A20CDE90152124AC5
:1087A00000920420982208F059F807B0F0BD57F85D
:1087B00025009DF8171003681B6898470135C4E72A
:1087C0000125C7E706485C211AF0AEFD08B15C211F
:1087D000D7E70349D9E700BF783000207430002084
:1087E000303A040000100140BE3A040013B5154BA6
:1087F0001B685B0404461AD5134B1B68042B16DD5B
:1088000012482F211AF090FD98B12F210F481AF02D
:108810008BFD411C0E4B14F81C2CD3F8043501922F
:108820000C4A0092052040F2831208F017F802B0BB
:1088300010BD06485C211AF077FD08B15C21E5E720
:108840000249E7E77830002074300020303A040015
:1088500000100140F03A040037B51446054600B157
:1088600012B9784602F0D6FE00232370B5F84830DE
:108870006380211D2846FFF7C3FE144B1B685B0471
:1088800018D5134B1B68032B14DD12482F211AF047
:108890004BFD88B12F210F481AF046FD411C0E4BAD
:1088A0006288D3F8043501920C4A00920420F82221
:1088B00007F0D4FF03B030BD06485C211AF034FD48
:1088C00008B15C21E7E70349E9E700BF7830002001
:1088D00074300020303A0400001001400C3B0400CA
:1088E00030B5144687B0054600B112B9784602F09B
:1088F00091FE00232370B5F848306380B5F84A3004
:10890000A38095F87C30022B2AD12B6F003B18BF37
:1089100001235B42A3601A4B1B685B041ED5194BF5
:108920001B68032B1ADD18482F211AF0FDFCE8B153
:108930002F2115481AF0F8FC411C144B6A6FD3F82C
:1089400004350492A2680392A2880292628801927E
:108950000F4A00920420E22207F080FF07B030BDEA
:1089600005F1500000F088FAA060D4E706485C21C9
:108970001AF0DAFC08B15C21DBE70349DDE700BF50
:108980007830002074300020303A0400001001409C
:108990002F3B040010B530F8063C20F8083C0023BB
:1089A00020F8063C244B1B685B0488B004461DD5A8
:1089B000224B1B68042B19DD21482F211AF0B4FC2F
:1089C00088B32F211E481AF0AFFC411C1D4B34F810
:1089D000082CD3F80435029214F81C2C01921A4A80
:1089E000009205204FF4D27207F038FF54F8103C83
:1089F0002BB134F8062C216AA4F1500098470022CC
:108A00008DF8142034F8082C236AADF8162005A937
:108A100034F8062CADF81820A4F14C00079311F09F
:108A2000BFFF08B010BD06485C211AF07DFC08B1FC
:108A30005C21C7E70249C9E7783000207430002084
:108A4000303A040000100140753B04002DE9F0436A
:108A50008BB01646DDF848801F46044600B112B9B7
:108A6000784602F0D7FD3188B4F848308B425AD0AE
:108A700094F83C000DF11B0212F088F8054600281E
:108A800069D1CDE908007FB9236B9B685B6813B996
:108A9000784602F0BFFD206B836807AA5B6800215F
:108AA0009847079B089308AF002384F86C30012196
:108AB0002D23C4E919137B68C4F880303B68236612
:108AC0003388A4F84A3004F1E807D4F8EC30AB421C
:108AD0002BD8414B1B685A0421D5404B1B68042BF3
:108AE0001DDD3F482F211AF01FFC58B32F213C48B1
:108AF0001AF01AFC411C3B4B226ED3F80435049249
:108B0000D4F8802003929DF81B20029232880192B3
:108B1000354A0092052040F22B1207F09FFE04F127
:108B2000500000F08DF9002516E057F82500D4F824
:108B3000802003689DF81B10D3F80490236EC8476B
:108B40000135C2E726485C211AF0EEFB08B15C2132
:108B5000CDE72349CFE70225B8F1000F0CD088F804
:108B60000050B4F84830A8F80230B4F84A30A8F8F9
:108B70000430236EC8F80830174B1B685B041ED501
:108B8000164B1B68032B1ADD15482F211AF0CCFB5E
:108B9000C0B12F2112481AF0C7FB411C114BB4F889
:108BA0004A20D3F804350392B4F84820CDE90152A5
:108BB0000E4A009204204FF49F7207F04FFE0BB054
:108BC000BDE8F08306485C211AF0AEFB08B15C21D9
:108BD000E0E70349E2E700BF78300020743000206E
:108BE000303A040000100140AA3B0400E23B0400BC
:108BF00013B50446019100B3036CF3B13C3011F09E
:108C0000FBFFC0B90E4B0199A363204611F0D2FEC1
:108C100088B90C4B23650C4BA4F84800C4E9153007
:108C20000A4BE36504F15000C4F8D80000F052F993
:108C300008B9C4F8EC0002B010BD0E20FBE700BF7D
:108C4000183C0400ED87020065850200958902004A
:108C500050B149B1D0F8EC3043B90122C0F8E81066
:108C6000C0F8EC20184670470E23FBE70423F9E711
:108C70000023A0F848307047024B53F820300846D4
:108C8000184700BF2C3C0400024B53F82030084624
:108C9000184700BF443C0400836803B1184770477D
:108CA000006B003818BF012070470369013B033394
:108CB00004D84069003818BF012070470020704771
:108CC000024601218C300AF069BA0A4600230B6380
:108CD00002F18C0002210AF061BA70B590F82C30D4
:108CE000022B064615D0383011F0DBFA4FF47A74B7
:108CF000A0FB042304FB0133D40B44EA4344DD0B03
:108D0000326A00239D4208BF94422CBF01200020FC
:108D100070BD0020FCE710B5002304460363036226
:108D2000703005F023FF04F13800BDE8104011F069
:108D3000F5BA10B50446383011F0F0FA002323627A
:108D4000E3681BB12046BDE81040184710BD30B4A1
:108D500000F11003044600F120050FCB85E80F0059
:108D6000204630BCFFF7E5BFFFF7E3BF2DE9F04138
:108D700000F138050446284611F0D0FA04F110033A
:108D80000FCB04F1200686E80F00606A1AF092F912
:108D9000064610B9784602F03DFC206A4FF47A7816
:108DA00032460023A0FB08011AF008F8A26AA2FBD1
:108DB00008238B4208BF82423CBF0B460246002B71
:108DC00008BFB2F57A7F1DD3114ED903D00341EA13
:108DD000524180194FF000060E4A4FF0000346EB57
:108DE000010119F0EBFF0123C4E9100184F83830C8
:108DF000284611F06BFA40B9636833B12046BDE8EC
:108E0000F041184721200021EDE7BDE8F08100BFC7
:108E100020A1070040420F0010B5044605F0F0FE07
:108E2000236B4FF47A7101FB030104F1700005F02C
:108E3000B5FE23681BB12046BDE81040184710BDA1
:108E400010B5044610B9784602F0E4FB224604F15E
:108E50008C000021BDE810400AF0A0B910B504460E
:108E600010B9784602F0D6FB224604F18C000321AB
:108E7000BDE810400AF092B92DE93048044610B917
:108E8000784602F0C7FB04F13800256A11F009FAB0
:108E90004FF47A73A0FB03BC03FB01CC4FEADB3039
:108EA00040EA4C40281ABDE8308838B5044610B96D
:108EB000784602F0AFFB04F1380011F0F2F94FF4FC
:108EC0007A73A0FB034503FB0155E00B40EA4540E4
:108ED00038BD000038B5044610B9784602F09AFB58
:108EE000094BA367094BE364C4F88040A46404F110
:108EF000380011F029FA0649054604F18C000AF001
:108F00001CF9284638BD00BFCB8C0200C18C020082
:108F10007C3C04000378142B05D1C3880F2B9EBF23
:108F2000014B01221A7070470432002010B504462C
:108F300008F032FA38B123780E2B04D1BDE8104086
:108F4000002005F04BBC10BD08B515F0D5FE20B1D2
:108F50000DF02EFB08B10DF0A9FABDE8084005F0B0
:108F60006FBB000070B5837DC27D86B043EA0223EB
:108F7000ADF814300546012305A80E46ADF81630AD
:108F800014F0D8FD044610BB288A04AA294614F020
:108F9000B1FF0446D8B9BDF81010E88A0DF11203EC
:108FA000324615F0B7F9044688B9297ED5F8120083
:108FB00001F0010104F0C4FF044640B92B7E9A077A
:108FC00008D4BDF8120010F06DFB044690B12046A5
:108FD00006B070BDBDF81000294615F039F80446FA
:108FE0000028F4D1BDF8100015F09AF804460028C6
:108FF000E7D0ECE7164B1B681B03E8D5154B1B6845
:10900000062BE4DD14482F211AF08EF9B0B12F2180
:1090100011481AF089F9411C2A7E104B02F0010216
:10902000D3F804350292D5F8122001920C4A00922E
:1090300007204FF4837207F011FCC8E706485C2153
:109040001AF072F908B15C21E2E70349E4E700BFD6
:1090500078300020743000208C3C04000010014067
:10906000AB3C040008B505F014FF12F04FFF14F0FC
:1090700003FD04F02BFDBDE8084008F0B9BD000079
:1090800073B50E46054600283ED005F06BFA04463F
:10909000002836D114F03CFD12F04CFF286910F086
:1090A000D1FA044668BB2B7F0193AB69009301465C
:1090B0006B691648592210F075FD044608BB2B6AEF
:1090C00003B19847124805F02DFB09F0B5FF104891
:1090D00005F02AFB14F070FC054612F09BFC0B2DEA
:1090E00004D00B2802D00B4B1B7813B1FFF7BAFF4B
:1090F0000B2415F001FE054608B10DF07BF906B111
:109100003570204602B070BD0E24FAE7AC31002065
:10911000183000200432002015F0EEBD08B508F02C
:109120003BF920B1BDE80840002005F057BBBDE881
:109130000840014805F0F6BA2430002069DF704786
:1091400003781F2B02BF024B01221A70704700BF29
:109150000832002030B5394D2A7887B01AB101287D
:1091600003D0032862D007B030BD002301A90193CA
:1091700001F0BAFE08B118F0A5FB0C2200210DEB9E
:10918000020019F0FFFFBDF80C302D4823F47F7367
:1091900023F0030343F4887343F00103ADF80C306C
:1091A00000230493ADF814301AF0B6F8019AADF824
:1091B000160003A94120FFF7C1FF08B118F082FB98
:1091C00001A801F0F9FE08B118F07CFB1D4C2368E2
:1091D00003B19847012302A90DF10200029315F093
:1091E0006BF808B118F06EFBBDF8020014F0F2FD48
:1091F0000DF1010114F012FF08B118F063FB0DF03E
:10920000F9F89DF8011000200DF03AFD10B17846F4
:1092100002F000FA05F014FA08B118F053FB00232D
:109220002B706368002B9ED098479CE701F030FFBD
:10923000002898D018F046FB95E700BF07320020C1
:10924000CB3C04000C32002008B503781C2B0CD159
:10925000064B1B784BB101F059FF08B118F032FBF7
:10926000BDE80840024805F05FBA08BD073200209B
:109270003030002010B5094B1B786BB908490948FC
:1092800016F0FAFB48B908490246BDE810404969A2
:109290000648032316F009BC082010BD0832002040
:1092A00028320020943500200C3200206034002049
:1092B00010B50378023B082B4AD8DFE803F01E05FF
:1092C0001249493849493F00224B9B68002B3FD047
:1092D000007A00283CD0204A01211170BDE81040DE
:1092E00018471C4BDB68002B32D01B4A117879B32E
:1092F00000211170BDE810401847184B1A784AB980
:10930000144B1B6913B114490A709847BDE810400B
:10931000FFF7B0BF124B134801221A7005F002FA92
:1093200005F0E8F9A0B1BDE8104018F0CBBA094B40
:109330000D489969102216F0FDFBF3E7D0E9021001
:10934000FFF710FE08B118F0BDFA044B01221A70A5
:1093500010BD00BF0C320020053200200632002074
:1093600007320020303000206034002070B51D4AE4
:109370001D4E5168044686B0106803AB03C31189C3
:10938000927A19809A700FCC35460FC594E8070081
:1093900085E80700B3691BB3144B0093144A1549C1
:1093A000154803AB16F03AFBC0B9144817F0BAFFE2
:1093B0000146114816F04CFB80B9114818F022F90B
:1093C00060B90F4818F050F901460B4816F040FB01
:1093D00020B90C4805F0A6F9FFF74CFF06B070BDA8
:1093E0000720FBE7E53C04000C320020B1920200AC
:1093F00028320020943500206034002048320020BC
:10940000103400203C30002010B5054C226832B1E9
:1094100018F09AFB002802DB23689847F8E710BD94
:10942000D4350020154B164A10B50C4618600121A2
:10943000144815F0C3FE18B1134A4A2118F04FFA28
:10944000610C0023E00341F26F728B4208BF82423D
:1094500010D24FF47A72002319F0B0FC01460B4889
:10946000002215F0BDFE38B1BDE81040064A4B2180
:1094700018F035BA0521F2E710BD00BFD435002041
:1094800009940200143D0400F03C0400D83500208B
:109490002DE9F0410446CEB038B1424D2B685A0454
:1094A00003D5414E3368032B02DC4EB0BDE8F0819A
:1094B0003E4B18680DAB611E04F10F0C1F4611F8EE
:1094C000012F4FEA121E02F00F0210F80EE083F88F
:1094D00000E0825C5A70614503F10203EFD1002382
:1094E000334887F820302F2119F01EFF002846D07E
:1094F0002F212F4819F018FF411CDFF8C4802D4A96
:10950000D8F8043501922C4A009202974222042096
:1095100007F0A4F92B685B04C7D53368032BC4DDBF
:1095200023482F2119F000FF002831D02F21204897
:1095300019F0FAFE411CE27B2068D8F804350B9242
:10954000A27B0A92627B0992227B0892E27A0792BE
:10955000A27A0692627A0592227A0492E28852BA3C
:1095600092B20392A28852BA00BA92B2CDE9010235
:10957000124A00920420432207F070F995E70C4844
:109580005C2119F0D1FE08B15C21B2E70849B4E7CB
:1095900007485C2119F0C8FE08B15C21C7E70449FF
:1095A000C9E700BF78300020743000207C300020F4
:1095B000183D0400403D0400523D04005A3D0400A3
:1095C0000010014013B50190000C01280C4602D098
:1095D000784602F01FF8002323806380A380E38095
:1095E000012323816381A38102B010BD13B50190D3
:1095F000000C01280C4602D0784602F00BF82388B4
:10960000ABB963889BB9A3888BB9E08878B9238903
:10961000012B0CD16389012B09D1A389012B06D120
:10962000044A137843F00103137002B010BD0B20FD
:10963000FBE700BF443600200378142B07D1C38812
:10964000042B01BF024A137843F0020313707047E2
:109650004436002070B586B00E4B01930E4B02AA23
:1096600003F10806154618685968144603C4083300
:10967000B3422246F7D118689B882060A3800198E6
:10968000294609F013FC10B1784601F0C3FF06B07B
:1096900070BD00BF040001009A3D04007047704790
:1096A00070477047704770477047704708B510F0B3
:1096B000E7FCFFF7F7FFFFF7F6FFFFF7F5FFFFF710
:1096C000F4FF11F0A9FA10F043FF08BD0C4808B5EB
:1096D0000C4B036005F026F80B4B1A786FF3410230
:1096E0001A7010F0E9FCFFF7D9FFFFF7D8FFFFF77A
:1096F000D7FFFFF7D6FF11F0BDFA10F045FF08BD08
:10970000FC350020399602004436002010B50E4C7E
:10971000237813F002000FD0FFF7A4FCFFF7C6FF79
:1097200023786FF300032370084B186809F010FCCE
:10973000FFF790FF0B2010BD13F00104FBD1FFF7E2
:1097400089FF2046F7E700BF44360020A83D04000B
:1097500008B5FFF7ABFF054A137823F00303137036
:10976000BDE80840042009F019BC00BF44360020C1
:1097700013B54389044613B1784601F04BFFD4E991
:109780000001002200F08AF910B1784601F042FF92
:10979000206800F07FF9194B60811B685B0418D5C5
:1097A000174B1B68032B14DD16482F2119F0BCFD45
:1097B000D0B12F21134819F0B7FD411C124B62891B
:1097C000D3F804350192114A00920420582207F080
:1097D00045F8638913B9784601F01CFF206802B090
:1097E000BDE8104000F0C0BA06485C2119F09CFDAD
:1097F00008B15C21DEE70349E0E700BF78300020D4
:1098000074300020AC3D040000100140CF3D040046
:1098100038B5438905460C4613B9784601F0FAFE7F
:109820006A892868511E04F500424A434FF6FF74C6
:1098300092FBF4F20132297A92B2BDE8384000F08E
:1098400079B82DE9F8430468054694F8200000F043
:109850002DFC04F11807FF264FF0FF394FF00008E8
:10986000207AFF2802D000F021FC2672607AFF28BF
:1098700002D000F01BFC66722068431C03D000F08D
:1098800087FDC4F8009084F80B800C34BC42E7D10B
:109890006868BDE8F84300F02BBB00002DE9F041FB
:1098A000134EDFF850800C460025012706EB4106D9
:1098B000735D5BB1735D013BDBB27355735D93B94F
:1098C00058F824301B682046DB6998474DB167B1D2
:1098D000084B53F824300221BDE8F041586800F0ED
:1098E0007EBB0125E4E70027F0E7BDE8F08100BF7B
:1098F000B86200204836002010B540680B49027954
:109900008C5CFF2CE3B20DD0FE2B0DD0006803F56C
:10991000A87350F82330064850F82200984203D12B
:10992000FF238B54002010BD0120FCE75C36002093
:10993000643600202DE9F74F0368904693F8212004
:10994000022A04460F4640F09B800C254D435A19CD
:109950005268904509D1DB691BB9002003B0BDE80E
:10996000F08F426810799847F7E7FFF7C5FF834605
:10997000002840F087806368DFF814A11B79FE227D
:109980000AF80320266896F8200000F0EBFBD14689
:10999000B8F1000F1FD13544687A00F0E3FB287A54
:1099A00000F0C8FB63681B79FF220AF803200C2330
:1099B00003FB0766C6F804802368DB69002BCCD064
:1099C00063681A79304B03EB42030221D955606872
:1099D00000F0F1FAC1E7B169884507D335441FFAB1
:1099E00081F8287A00F0BEFB687AD9E707EB4703D5
:1099F0004FEA830A06EB830360685A6891423AD0C3
:109A0000002A38D0904536D25B46032100F0A2FAF6
:109A1000636896F820B0196856F80A00354401F5D5
:109A2000A671AB7A01911BB300F008FD02460199C3
:109A3000584600F05FFB96F8200000F07BFB63685F
:109A40001B7909F8037063681A79104B43F8228078
:109A50000C2505FB0765606800234246394600F087
:109A600079FA287A00F066FB687A00F063FB9EE7DB
:109A700000F0D6FCDAE70379FF2209F80320E7E7D4
:109A800008206BE7112069E7B862002064360020E7
:109A90005C3600200368188B704700002DE9F04FFA
:109AA0002DED028B8BB0044604928A46002900F00B
:109AB0004981056895F82130002B40F0458100F080
:109AC0009BFD08B1852846D100F0E8FB002839D07D
:109AD0009E4B9F4E1B6803F0F003303B18BF0123E1
:109AE0003370FF2385F820304FF6FF7300222B815F
:109AF0004FF0FF33EA722B60EA75AB82EB6005F141
:109B0000200000F09FFA0596074608BB0AF10803FB
:109B1000804606935AF828B05FFA88F3BBF1FF3FFE
:109B200008EE103A00F09D80266896F82110B9B131
:109B300008262046FFF785FE30460BB0BDEC028BB1
:109B4000BDE8F08F00F064FB0028C1D00326F3E7E6
:109B50002046FFF776FE0426EEE74FF00108D9E72E
:109B60004FF00C0909FB08F9069B06EB090213F8F4
:109B700008309372516003228DF8202022680393ED
:109B80004A4408A9927AB2FA82F252098DF8212049
:109B9000584601228DF8222000F08AFBD8B9039B99
:109BA00046F809B00122002B00F0B480BBF11F0F72
:109BB00086BF68490BF01F0B4FF0A04102FA0BF271
:109BC000C1F80C250C2303FB08FB0BF10800304403
:109BD00000F038FA08B10426ABE70BF10900304475
:109BE00000F030FA0028F6D106EB0B030793187A41
:109BF00000F0B8FA079B587A00F0B4FA039B56F8C5
:109C00000900002B00F0938000F018FC834656F802
:109C1000090000F005FC8146606801680C2000FB2B
:109C200008664FEA880303F5A07319445A46307A50
:109C300000F060FA6368707A19684A4601F5A47109
:109C400000F058FA0123F3726368434A1B7902EB70
:109C5000430318EE101A0022204603F80820FFF7ED
:109C600069FEB8F1000F3FF478AFDAF81030B3F5C1
:109C7000805F01D3092F62D1059B1B7813B1012F9F
:109C800038BF012700238DF8213060688DF82070DF
:109C90004FF4E063ADF822300379304A099308A904
:109CA00000F09CF8064600287FF443AF6368DAF8BA
:109CB00010201B68D3F81075FFB2100FC7F12001F8
:109CC000120100FA01F1A7F1200322FA07F720FAA6
:109CD00003F30F431F43AF6160684FF0010800F0CA
:109CE00035F904233A466068CDF80080022100F07F
:109CF0004CF90221606800F072F9049BEB61636823
:109D0000174A1B7985F8218042F82340154AFF2124
:109D1000D15411E7BBF11F0F86BF0E490BF01F0B8B
:109D20004FF0A04102FA0BF2C1F808254AE700F013
:109D300077FB834656F8090000F080FB6BE75B0871
:109D4000013794E70B26F7E60826F5E6E80F00F062
:109D50007836002000030050B86200209D98020071
:109D6000483600205C3600202DE9F0470768DFF810
:109D70006890002604463D46B0464FF00C0A6368E2
:109D80001B7909EB430303F80680EB7A73B1236870
:109D900028680AFB0633997AB1FA81F1490900F083
:109DA0005BFB286800F02AFBC5F804800C357EB107
:109DB0006368084A1B79FF21D154606800F0C6F837
:109DC000606800F07BF8022387F82130BDE8F08757
:109DD0000126D4E75C360020B8620020F7B506798A
:109DE000334D0C2474432F193B7A002B5ED12A513A
:109DF0004A687A609C461A4647790368D4B2A742FB
:109E00004AD8CA781C0B43F30733002BAEBF03F1CB
:109E10006043284B04F00F044FEA4212D2B2AABFAB
:109E200003F561431A5583F8002303681A0B43F3C3
:109E30000733002B07DB02F01F040122A2405B095D
:109E40001D4C44F8232004684B78D4F8042503F013
:109E5000030322F003021343C4F8043504688B782B
:109E6000D4F8082503F0030322F003021343C4F8D7
:109E7000083500680B78D0F8102503F00F0322F0A6
:109E80000F021343C0F810350C2303FB06550123C2
:109E90002B72002003B0F0BDA40004F5A0740132C1
:109EA00043F804C01B590193019BA5E70820F1E783
:109EB0007C36002014ED00E000E100E003680122A0
:109EC0001A600379034A0C2101FB032302221A7250
:109ED000704700BF7C3600200368044901221A61E4
:109EE00003790C2000FB03131A7270477C360020A4
:109EF00038B503681A0B43F30733002B04460CDB19
:109F000002F01F015B0901228A4020330D4941F80C
:109F10002320BFF34F8FBFF36F8F23680025D3F843
:109F20000022C3F8005223684FF0FF32C3F8082321
:109F30002046FFF7D1FF2379034A0C2101FB0323BD
:109F40001D7238BD00E100E07C360020036801226C
:109F5000DA60704773B54FF4803405688C408BB17C
:109F60008B0003F5A0730026EE50EB580193019B84
:109F70000368C3F80443036801F5A87143F821207E
:109F800002B070BDC5F80843F5E7F0B4076840F2C9
:109F90000116D7F800528E4025EA0605C7F8005290
:109FA0000468D4F800522B43C4F800329DF81030F6
:109FB000F0BCFFF7CFBF8B0013B503F5A0730268A9
:109FC0009BB20024D450D3580193019B02684FF4F4
:109FD000803303FA01F1C2F8041302B010BD026825
:109FE0004FF4803303FA01F1C2F808137047000000
:109FF0002DE9F341104C114F114E00254FF48038DC
:10A00000236883B1D7F8043308FA05F21A420AD05C
:10A01000002323602368019304F5E040019B80B294
:10A02000D6E9003198470135042D04F10404E7D145
:10A0300002B0BDE8F08100BF4091004000900040B8
:10A040007C3600202DE9F74F4FF00009154D164FD3
:10A0500006464FF0040AC8465FFA89FB01240DF159
:10A06000070004FA0BF48DF8078000F05BFC2C422B
:10A0700008D03B6814EA030201BF23433B6086F823
:10A0800000B092469DF8070000F070FCBAF1000F96
:10A0900003D0A54309F10109DED1504603B0BDE864
:10A0A000F08F00BFFFFF010088360020012337B585
:10A0B00003FA00F5C5F31003ABB10C4B0024C3F851
:10A0C00008550DF107008DF8074000F02BFC084BF8
:10A0D000186820EA050018609DF8070000F046FCAB
:10A0E000204603B030BD0720FBE700BF00F0014071
:10A0F0008836002010B5A1B19AB101238340C3F383
:10A10000100484B10A4C246823420ED0C00000F130
:10A11000804000F5F830C0F81015C0F81425002074
:10A1200010BD0E20FCE70720FAE70820F8E700BF83
:10A1300088360020012202FA00F3580C400440B98E
:10A140001BB1064A1268134205D0054AC2F804350D
:10A150007047072070470820704700BF88360020EE
:10A1600000F00140012202FA00F3580C400440B90B
:10A170001BB1064A1268134205D0054AC2F80835D9
:10A180007047072070470820704700BF88360020BE
:10A1900000F0014000F1804000F5C040002382B093
:10A1A000036003680193019B02B0704703681F2B93
:10A1B00083BF03F01F03036001484FF0A0407047C6
:10A1C0000003005007B5019001A8FFF7EFFF019BC6
:10A1D00000EB8300D0F8003723F44033C0F8003799
:10A1E000D0F8003743EA0141C0F8001703B05DF82A
:10A1F00004FB0000054B4FF0FF32072843F82020F6
:10A2000084BFC01880F84C20704700BF8C360020F7
:10A2100038B51E4C94F85B30ABBB4FF6FF71FF2096
:10A220005A09012A14BF4FF0FF320A4603F01F05F6
:10A23000EA40D20748BFE21803F1010348BF82F8A1
:10A240002400302BECD10021C8B2FFF7D3FF01313D
:10A250000929F9D1062200210D4818F093FF0D4B72
:10A26000C02283F8062340221A604FF4BE70FFF725
:10A2700091FF094B4FF00042C3F80423012384F8F7
:10A280005B30002038BD0820FCE700BF8C36002082
:10A29000E136002000E100E000600040034B93F84D
:10A2A0005B00003818BF0120704700BF8C360020CB
:10A2B00037B5354B1A18044692F92400013061D1A4
:10A2C0008878002852D01846002250F8045B0135E7
:10A2D00046D1181980F82420002043F8220092006B
:10A2E00002F1804202F5C0420B78D2F8105548784E
:10A2F00025F499151B04000525F4F85500F4801089
:10A3000003F44033C2F8105503432002D2F810552D
:10A3100000F47C5003432B43C2F810354A78019473
:10A32000012A01A826D1FFF741FF019B9A40C0F8FE
:10A33000082501A80194FFF739FF019B134903F594
:10A34000E073032240F8232024FA02F2012304F0F0
:10A35000070003FA00F08B5C18438854002003E0E8
:10A360000132082AB1D1042003B030BDFE2382F8A7
:10A370002430D3E7FFF71AFF019A01239340C0F876
:10A380000C35D6E70820EFE78C360020E1360020B8
:10A3900037B5174C2518014695F82400072809D829
:10A3A000FFF728FF95F92430124A03F5A273002025
:10A3B00042F823006318FF220F4D83F82420CC08B5
:10A3C00001F0070301229A402B5D13420DD001A832
:10A3D0000191FFF7EBFE019B03F5E073022140F8CA
:10A3E00023102B5D23EA02022A5503B030BD00BFC3
:10A3F0008C36002000600040E1360020074B1844F6
:10A4000090F924309B0003F1804303F5C043D3F857
:10A41000102542F00302C3F8102570478C36002047
:10A42000054B184490F924000C308000C0B200F1B4
:10A43000804000F5C04070478C360020054B184422
:10A4400090F9240018308000C0B200F1804000F57F
:10A45000C04070478C3600200A4B1844003990F9F0
:10A4600024304FEA830303F1804303F5C04318BF50
:10A470000121D3F8102522F4801242EA0152C3F8D8
:10A48000102570478C3600202DE9F043002485B05C
:10A49000CDE90244544D4FF48072012102F1804312
:10A4A00003F5C04390B21B68012B06D1D5F80433E5
:10A4B0000B4202D0FFF76EFE0C430432B2F5907FE0
:10A4C0004FEA4101EAD1494B1B68012B11D14FF4EE
:10A4D000BE70FFF75FFE4FF0A04344F00044D3F896
:10A4E00020250292C3F82025D3F820280392C3F830
:10A4F000202814F0FF0F1AD03D4F012600253442CA
:10A5000010D0AB0003F1804303F5C043D3F810052E
:10A51000D3F8101557F8253023B1C1F30141C0F32A
:10A52000052098470135082D4FEA4606E7D1002C53
:10A5300051DA2F4D2F4C2E4695F954305A1C3CD0F1
:10A54000C3F3C20104A80144DAB211F8081C03F0F5
:10A550003F074FF0010903F0070309FA03F319421B
:10A560002BD001A80197FFF721FE019B03F5E073B3
:10A5700050F82330C3F30148B8F1020F0CBF032198
:10A5800002213846FFF71EFE01A80197FFF70EFED5
:10A59000019B09FA03F3C0F82035F31993F924302D
:10A5A00056F823304BB19109032904D0B8F1020FBA
:10A5B00014D1494501D1384698474FF0A043D3F80C
:10A5C00020250292C3F82025D4F820350393C4F83F
:10A5D00020351343B0D105B0BDE8F083B8F1030FC7
:10A5E000EBD10229E6E700BF006000407C6100403B
:10A5F0008C36002000030050034B187810B901225C
:10A600001A70704785207047E836002072DF704767
:10A6100073DF704774DF70472DE9F0412F4CA2B013
:10A6200006460F46904600211022204618F0AAFD4B
:10A630002B4A2C491378C3EB4315294421602A493E
:10A64000013303F001030D441F211370A180A18188
:10A650003C22002104A8A56018F094FD062301AA5D
:10A660008DF813300E9201233C22002113A88DF89F
:10A670000230ADF820308DF83C30ADF80060CDF8F8
:10A6800024D0ADF80460ADF80880039718F07AFD87
:10A690002246022352F8041B8DF84C3004A800F027
:10A6A000F5F908B117F00EF9104AA16813A800F0E7
:10A6B000EDF908B117F006F90D4A08490D48FFF702
:10A6C000A5FF082804D105490A480022FFF79EFF8C
:10A6D00008B117F0F7F822B0BDE8F0812837002064
:10A6E000E9360020EA3600203837002034370020D1
:10A6F0004C30002048300020B0F5202F0AD20A2329
:10A70000B0FBF3F310B1012B38BF0123034A93814F
:10A71000916070474FF6FF73F5E700BF4C300020A3
:10A7200008B5064B01211878FFF772FF08B117F042
:10A73000C9F8BDE80840002004F0B0BD4830002052
:10A7400008B5054B1878FFF765FF18B1BDE808405C
:10A7500017F0B8B808BD00BF4830002076DF70475A
:10A760007ADF70477CDF704769DF704717F0AAB85F
:10A7700003F0DCBF07B503784BB940883B21FFF7F6
:10A78000EDFF08B303B05DF804EB17F09BB8012BA5
:10A790001AD1134B1B685B0416D5124B1B68032B95
:10A7A00012DD11482F2118F0BFFD80B12F210E4876
:10A7B00018F0BAFD411C0D4B0D4AD3F80435009238
:10A7C0000420682206F04AF803B05DF804FB06484E
:10A7D0005C2118F0A9FD08B15C21E8E70249EAE72D
:10A7E0007830002074300020E23D04000010014069
:10A7F000123E04001FB500F04BFC08B117F062F8E0
:10A80000002369460120009300F06EFB08B117F0A9
:10A8100059F80C22002101A818F0B4FCBDF804304E
:10A82000114823F47F7323F0030343F4887343F048
:10A830000103ADF8043000230293ADF80C3018F09A
:10A840006BFD009AADF80E0001A94120FFF78CFFC7
:10A8500008B117F037F8684600F0AEFB08B117F002
:10A8600031F805B05DF804FBCB3C04001FB51123A3
:10A8700010488DF8043018F04FFD0E4982B201A83F
:10A88000FFF770FF08B117F01DF808220DEB02006A
:10A89000002118F077FC084A4FF0C87302A8CDE9F0
:10A8A0000223FFF75DFF08B117F00CF805B05DF863
:10A8B00004FB00BFCB3C04007800C80010B58AB090
:10A8C00001AC08220021204618F05CFC124A4FF02F
:10A8D000C873CDE9012300211C2203A818F052FC03
:10A8E0004FF4803340F6CD41CDE9041303238DF8B6
:10A8F00018300023ADF81A308DF81C30074B089340
:10A9000003A8074B0394099300F044FD08B116F027
:10A91000D9FF0AB010BD00BF7800C80075A70200BB
:10A920006DA7020070B5EFF3108672B60C4A9468FA
:10A9300001239CB993600B4B0B4DD3F88010294039
:10A940001160C3F88050D3F8841051604FF0FF328B
:10A95000C3F88420047006B962B670BD0370FAE7CC
:10A96000C462002000E100E0FC06FFBD10B5084B0A
:10A970009A685AB150B9EFF3108172B6054A1C6853
:10A9800014605C685460986001B962B610BD00BF85
:10A99000C462002000E100E06DDF704779DF70479E
:10A9A0007DDF704764DF70472DE9F04F85B00025EB
:10A9B0000E9CBDF83CB0B4F800A00191074690464B
:10A9C0001E46A9463A884A450DDC45B12388013B1D
:10A9D000A3EB0A039BB2FF2B3AD806F80A300020FB
:10A9E00005B0BDE8F08F7A6852F829000390002284
:10A9F0000DF10B0103A8FFF7D5FF0028F0D19DF85A
:10AA00000B20424521D12288002D14BF00200220B6
:10AA100002EB0801014459451ADC3DB9013292B2FA
:10AA2000019B2280B35422880132228022880DF1BA
:10AA30000B01324403A8FFF7B5FF0028D0D12188CD
:10AA40009DF80B200A442280012509F10109B9E78C
:10AA50000C20C5E72DE9F341089FBDF82480154679
:10AA6000CDE90078022204461E46FFF79DFF50B94B
:10AA70003346102229462046CDE9087802B0BDE8C9
:10AA8000F041FFF791BF02B0BDE8F0812DE9F04F32
:10AA900000231788138090F82D3085B006460D46A8
:10AAA000144653B3082F01D80C2027E102A8FFF762
:10AAB00073FF002840F0228123880822EA5423886B
:10AAC00001339BB21B222380EA542088013080B2DC
:10AAD000208006220DF10901284418F045FB238847
:10AAE0009DF8082006339BB212F0FE0218BF012227
:10AAF0002380EA54238801332380B378FBB1238871
:10AB00000433BB42D0D802A8FFF748FF002840F02A
:10AB1000F58023880322EA54238801339BB219224B
:10AB20002380EA542388BDF8082001339BB2E9183A
:10AB30002380EA54120A4A70238802332380F27871
:10AB40009AB12388D91CB942AED80221E95423888E
:10AB500001339BB201212380E95423880B449BB22B
:10AB60002380EA5423880B4423807268AAB1238887
:10AB7000D91CB94298D8022192F90020E9542388BF
:10AB800001339BB20A212380E954238801339BB20D
:10AB90002380EA542388013323803389002B40F03B
:10ABA000A180338A5BB1CDE900472B460722032100
:10ABB00006F11000FFF74EFF002840F09F80338B16
:10ABC0005BB1CDE900472B461522142106F1180090
:10ABD000FFF740FF002840F09180326A002A40F0E1
:10ABE0009080D6F82480B8F1000F30D0B8F8043047
:10ABF0002188981C8A1C0244BA423FF655AFFE28B1
:10AC00003FF652AF03336B54238801339BB2FF22CC
:10AC10002380EA54238801339BB22380B8F80020B4
:10AC2000EA54E918120A4A702088023080B2208063
:10AC3000B8F804205AB1D8F8081000296BD028447D
:10AC400018F092FA2388B8F804201344238096F869
:10AC50002C30002B40F09A80307800284ED033887A
:10AC6000012B58D0228802F1020CBC453FF61CAFE4
:10AC7000012805D17378023313449F42FFF414AFC7
:10AC8000023FBF1ABFB202A905EB0C00ADF8087075
:10AC9000FFF786FE90BB3178BDF80830022900F03E
:10ACA000BA8072789A4202D3BB4240F2B280012944
:10ACB00040F0B380974293B2C0F0AF80ADF8083057
:10ACC0000821BDF80830FE2B3FF6EEAE2288013396
:10ACD000AB542288013292B22280A95422881344B4
:10ACE00023800BE0CDE900472B460622022106F126
:10ACF0000800FFF7AFFE00283FF453AF05B0BDE8F2
:10AD0000F08FB4F800C00CF10603BB423FF6CCAEA6
:10AD10001188052901D80720F0E76FF4486E01EB90
:10AD20000E039BB24FF27D3E7345F4D95388052B39
:10AD3000F1D96FF44860181880B27045EBD94FF61E
:10AD4000FF70814203D0834201D09942E3D80523AA
:10AD500005F80C30238801339BB212212380E9547B
:10AD6000238801339BB223801188E954E818090A2B
:10AD70004170238802339BB223805288EA54E91839
:10AD8000120A4A702388023323802AE7B36A002B11
:10AD9000C1D04FF000094FF00C0A4FF0160B96F897
:10ADA0002C305FFA89F293427FF656AFB16A0AFB04
:10ADB00002F201EB0208B8F80430981CFE283FF6B6
:10ADC00073AE208803332B54238801339BB2238036
:10ADD00005F803B0238801339BB223808A5AEA54D2
:10ADE000E918120A4A702088023080B22080B8F830
:10ADF00004205AB1D8F8081000298CD0284418F043
:10AE0000B3F92388B8F804201344238009F1010919
:10AE1000C5E7092155E7BB42FBD9ADF808704FE7FC
:10AE200001600B6843604A68934204BF002343609B
:10AE30007047436843B1026891680B4443605268AD
:10AE4000934204BF0023436070474BDF704700000C
:10AE50001FB50D4C01A8FFF7F8FF70B9214602A8F5
:10AE6000FFF7DEFF039B002BF4D00198D3E900210C
:10AE7000904702A8FFF7DDFFF4E7052801D016F0A0
:10AE800021FD04B010BD00BF403E040060DF7047EC
:10AE900069DF704761DF704730B5114B1B78A9B08F
:10AEA000E3B1104D94240DF1020103A8ADF8024066
:10AEB000FFF7F0FF70B9294601A8FFF7B1FF029B29
:10AEC000002BF0D003A8D3E90021904701A8FFF799
:10AED000B0FFF4E7052801D016F0F4FC29B030BD2E
:10AEE000763700204C3E0400F0B5064685B00D468E
:10AEF00000295CD02F4B0B600C22002101A818F018
:10AF000041F9012706232A68ADF8083001A920205D
:10AF10008DF804608DF80670FFF7BAFF0C2200214F
:10AF200001A818F02FF900242A688DF8057001A9EE
:10AF30004020ADF80640FFF7ABFF0C22214601A8E8
:10AF400018F020F945232A68ADF8063001A923201E
:10AF50008DF80460FFF79CFF0C22214601A818F031
:10AF600011F92A688DF8044001A93846FFF790FFCF
:10AF70000C22214601A818F005F94FF4B0632A68A5
:10AF8000019301A9A120FFF783FF0C22214601A80C
:10AF900018F0F8F89DF804302A683B4301A9A02076
:10AFA0008DF80430FFF774FF204605B0F0BD0E2089
:10AFB000FBE700BF002E002008B5FFF767FF10B9C0
:10AFC000014B01221A7008BD7637002010DF704750
:10AFD00011DF704713B5044609496846FFF720FFA3
:10AFE000019808B902B010BDD0E900212046904771
:10AFF00018B16846FFF71DFFF2E71120F2E700BF26
:10B000005C3E040013B5044607496846FFF708FF95
:10B01000019B0BB902B010BD2046D3E90021904737
:10B020006846FFF706FFF3E7743E0400084B9A6892
:10B0300022B11A6822F480021A607047054B4FF45F
:10B040008002C3F88020BFF34F8FBFF36F8F70472C
:10B05000C462002000E100E00B4991F816335A0960
:10B06000EC231341DB0706D5084B9A683AB94FF435
:10B0700080030B60704742F2020016F023BC1A688E
:10B0800042F480021A60704700E100E0C4620020D0
:10B09000F7B5194F3C7864BB184E01252046357032
:10B0A000FFF798FF112821D02046FFF7ABFF144B84
:10B0B0008DF80340186801900DF10300FFF732FC92
:10B0C000104901A8FFF782FF0446B0FA80F040095A
:10B0D00038709DF80300FFF749FC3CB90A4B347007
:10B0E0001C70FFF7B9FF2846FFF78CFF204603B01E
:10B0F000F0BD0824FAE700BF78370020773700203A
:10B10000583E040015B4020079370020F7B5154FFA
:10B110003B781BB3144E01203070FFF75BFF112802
:10B120004FF000051CD00220FFF76CFF0DF1070067
:10B130008DF80750FFF7F6FBFFF74AFF04469DF82E
:10B1400007003D70FFF712FC2CB93470FFF76EFF5B
:10B150000320FFF757FF204603B0F0BD0824FAE7AD
:10B160002C46F8E7783700207737002007B50849E4
:10B170006846FFF755FE019B13B903B05DF804FB69
:10B18000D3E9002090476846FFF753FEF3E700BF7E
:10B19000683E0400FFF7EABF75DF704776DF70474F
:10B1A0007ADF70477BDF7047034B1A8882420CBFFF
:10B1B00018460020704700BF98370020024B9B695B
:10B1C00003B11847704700BF7C37002073B585B2C4
:10B1D0002846FFF7E9FF044670B1164E027A337B2A
:10B1E0009A420BD200F10A012846FFF7D5FFE8B1D9
:10B1F000112801D0FFF7E2FF02B070BD00230372F7
:10B20000337C43B13B212846FFF7C8FF30F00803E9
:10B2100001D0FFF7D3FF7369002BEDD000228DF82A
:10B220000420ADF8065001A89847E5E7237A0133DA
:10B230002372E1E77C37002037B50B46497A0F4A85
:10B2400071B9D2E901141D7A0246002D18BF2146BA
:10B25000586813F0C5FF08B1FFF7B0FF03B030BD69
:10B26000002119725369002BF8D00122ADF80600B5
:10B270008DF8042001A89847F0E700BF7C37002034
:10B280004B8802889A4213D842889A4210D3808809
:10B290008A8840F2F313984294BF031AC31A934268
:10B2A00006D800F2F310904234BF0020012070470E
:10B2B0000020704770B50388122B014659D004D87E
:10B2C000102B1ED0112B44D070BD502BFCD12F4B16
:10B2D000C288DB899A42F7D1038A022BF4D186888F
:10B2E0003046FFF761FF05460028EDD001F112005E
:10B2F00000F08AF838BB686813F0BEFF0028E3D07E
:10B3000009E0C37B012BDFD14FF6FF70FFF74CFF45
:10B31000054620B90420BDE87040FFF74FBF8E8876
:10B320001B4A0680002303721368C0F80A30536872
:10B33000C0F80E3010310A30FFF7A2FF134B6872CD
:10B34000DB89002BC0D129463046BDE87040FFF7AD
:10B3500073BF8088FFF728FF04460028B4D04068F8
:10B3600013F08AFF08B1FFF729FF4FF6FF73238020
:10B37000AAE786883046FFF717FF05460028A3D0C6
:10B3800008310A30FFF77CFF6872DCE77C37002069
:10B39000AC370020F8B5064648B305460FCD154F2B
:10B3A0003C460FC495E8070084E807003068124C5B
:10B3B0003C60B0B1FFF7F4FEC0B932681368236097
:10B3C000536863600D480E4A4FF6FF7303800D4BC0
:10B3D00040F8043F002113F0F1FE002818BF0320BD
:10B3E00004E02046FFF7DEFE0028EBD0F8BD0E207B
:10B3F000FCE700BF7C370020AC37002098370020E6
:10B40000CDB10200B4370020007800F00100704791
:10B410000620704730B5754B14461B6844F2010294
:10B42000904287B00D4603F4804300F0A98022D8F3
:10B43000012844D041F20102904276D0002B58D02E
:10B440006B4B1B68002B54DD6A482F2117F06CFFF3
:10B45000002800F0BF802F21664817F065FF411CCF
:10B46000654B664AD3F80435009201957B22012092
:10B4700005F0F4F93DE044F202029042DED1002BE7
:10B4800037D05B4B1B68002B33DD5A482F2117F058
:10B490004BFF00286BD02F21564817F045FF411C69
:10B4A000554B2268D3F8043503926268CDE9015206
:10B4B000534A00920120692205F0D0F919E0C3B186
:10B4C0004B4B1B68002B14DD4A482F2117F02CFF33
:10B4D00010B32F21474817F027FF411C464B494A1C
:10B4E000D3F804350092CDE901546022012005F023
:10B4F000B5F94FF0A0434FF4F032C3F81825C3F864
:10B500000C25EFF3108372B64DF6AD6C3E4A1378FE
:10B51000002B68D107B030BD36485C2117F004FF1E
:10B5200008B15C21D6E73349D8E7002BE1D0304B96
:10B530001B68002BDDDD2F482F2117F0F5FE68B1C9
:10B540002F212C4817F0F0FE411C2B4B2F4AD3F82B
:10B5500004350092CDE901546322C7E725485C21F8
:10B5600017F0E2FE08B15C21EBE72249EDE7214844
:10B570005C2117F0D9FE08B15C218DE71D498FE7EA
:10B58000002BB6D01A4B1B68002BB2DD19482F21B7
:10B5900017F0CAFEA8B12F21164817F0C5FE411CAE
:10B5A000154B2268D3F8043504926268CDE9025243
:10B5B000A2680192164A00920120732205F04EF90A
:10B5C00097E70C485C2117F0AFFE08B15C21E3E778
:10B5D0000849E5E707485C2117F0A6FE08B15C21A1
:10B5E0003AE704493CE730BF91E700BF78300020DC
:10B5F00074300020803E040000100140243F04000D
:10B60000E43E0400A83E040064300020C23E040072
:10B61000033F040007B50023014600936A46044B2C
:10B62000019344F20200FFF7F5FE03B05DF804FB5E
:10B63000D341040001461022014817F095BD00BF18
:10B64000D437002010B50C4C0C490822204617F0C6
:10B650008BFD08220A49A01817F086FDA37903F094
:10B660000F0343F04003A371237A03F03F0363F019
:10B670007F03237210BD00BFD4370020600000108C
:10B68000A400001000487047D4370020002206496B
:10B6900013460132202A4B804B6001F8083BF8D159
:10B6A000024A1360704700BFE4370020E4380020EE
:10B6B000F0B50C4B0C4D1B68044620227BB1013BBE
:10B6C00015F8330050B105EBC3067788A74202D1C5
:10B6D00076688E4202D0013AF0D11046F0BD1F23A9
:10B6E000EEE700BFE4380020E437002030B5094A17
:10B6F000094C136804EBC3051F2B69604FF001016F
:10B7000004F83310194408BF0023688014BF116087
:10B71000136030BDE4380020E4370020C0F30C0390
:10B720008B42084438BFA0F50050C01A7047000093
:10B73000F0B50D4B0D4A1E6800218E4212D01568DF
:10B7400000230AE052F8044C04EBC30714F833401A
:10B75000844201D17868F0BD01339D42F2D10131BC
:10B760000832EAE70020F6E76C390020743900203F
:10B7700000B58DB048B9991C07D0012101A8CDE9C9
:10B7800002328DF8041001F05FFA034B186803F0E1
:10B790007DFF0DB05DF804FB7839002010B503780B
:10B7A000044613B97846FFF735FF607A431C012041
:10B7B0009840013810BD2DE9F0410E468EB0154677
:10B7C0001C46074610B97846FFF724FF16B978469D
:10B7D000FFF720FF636AA27802330593E378A2F1B2
:10B7E0000800002B14BF012102210DF10408424280
:10B7F0004241434604F10C0004F07DF8A3788DF833
:10B800003430237BADF82050022B16FA85F5CDE9B4
:10B8100006870B960C950FD1236913B97846FFF76D
:10B82000F9FE23690993102305A8ADF8283004F028
:10B830005EF80EB0BDE8F0810023F5E7B2F5C07FF9
:10B840002DE9F04781468846174602D97846FFF72A
:10B85000E1FE244B00259A4693F848605EB93846CD
:10B8600008F0A9FA702404FB05A4E06648B9002496
:10B870002046BDE8F0870135042D03F17003EBD1BC
:10B88000F5E730224946204617F06EFCB8F1010F6B
:10B89000E664A4F84A701BD1134BA4F852601B7DD8
:10B8A00084F8513084F85060D9F8283063656FF01F
:10B8B0000103A3620D4BA4F85860A3632464012024
:10B8C00002F08CFA702303FB05A585F84880CFE7CA
:10B8D0006FF00103A362064BA36584F86860054B13
:10B8E0002466EAE7943900207C3900206DC002000C
:10B8F00081C6020065C0020010B50446C06E08F0A3
:10B900005CFA04F1300003F031F994F84830022B6E
:10B9100003D104F1500003F029F9204670220021E0
:10B9200017F030FC002084F84800BDE8104002F019
:10B9300055BA10B590F84830012B8CB0044602D0AF
:10B940007846FFF767FE01238DF80430636D02939C
:10B9500003F056F9039001A801F076F92046FFF7AD
:10B96000CBFF0CB010BD10B50446808A02F022FD5A
:10B9700001281CD1237BD3B194F91620002A18DBAF
:10B98000E27D5AB1022B12D094F90330002B10DB68
:10B99000A378002B0CBF0020072010BDE2780AB965
:10B9A000012B06D1237833B9A378042BF2E71020BA
:10B9B000F3E70720F1E70020EFE700001FB50023C1
:10B9C0000A468DF80F3028B3023008600DF10F01E0
:10B9D000104603F08EFF9DF80F30DBB1144B1B684F
:10B9E0005B0717D5134B1B68032B13DD12482F2160
:10B9F00017F09AFC98B12F210F4817F095FC411CC5
:10BA00000E4B0F4AD3F804350092042040F2154241
:10BA100004F024FF9DF80F0005B05DF804FB064814
:10BA20005C2117F081FC08B15C21E5E70249E7E7FA
:10BA300078300020743000203D3F040000100140A9
:10BA40005A3F040070B50446D4E906122378808A70
:10BA50008CB0D3B1E38805F0EDFF054690B1A68A1E
:10BA6000E4692C22002101A817F08CFB04F00104EA
:10BA70000F2301A88DF80430ADF80860ADF80A4036
:10BA800001F0E2F828460CB070BD05F0CFFFE4E706
:10BA90002DE9F04799461378D2F818A0F4B006467D
:10BAA0000D46144623B1D1885046FFF737FE90610A
:10BAB000E378A278002BA2F1080005AF14BF0121A2
:10BAC000022104F10C0842423B464241404603F049
:10BAD00012FFA3788DF84430ADB2E81A002380B28B
:10BAE000ADF83830E378C4F818A0CDE90A760644FA
:10BAF00014AFADF8300010960F97002B77D04FF0B1
:10BB0000100A03AE237B022B04BF23690D934FF071
:10BB10000003C6E9003308BFADF838A06362206AAD
:10BB2000217904AB324612F017FF3068002838D074
:10BB300009A9FFF743FF78BB706878B309A9FFF73D
:10BB40003DFF58B3012356F8233063622046FFF7C8
:10BB500079FFF0B9A1780D906D1A8DF8240098E85E
:10BB60000300A38AADF8323001220EAB8DF83020ED
:10BB700083E80300A37D8DF84830236A109309A859
:10BB8000636A0A97ADF82C501193CDF84C9001F0F0
:10BB90005BF874B0BDE8F0870023D4E73368002B6E
:10BBA000BDD1237B022B05D1E089414612F0CCFFA9
:10BBB0000028A7D1214B1B685B07EAD5204B1B68E7
:10BBC000052BE6DD1F482F2117F0AEFB68B32F21B0
:10BBD0001C4817F0A9FB411C1B4B1C4AD3F8043529
:10BBE0000092062040F2037204F038FED1E7227B77
:10BBF000012ADFD12646E089B4F814A046F8243F94
:10BC0000314612F01FFF606A09A9FFF7D7FE00282E
:10BC10009CD160623146504612F014FF606A09A957
:10BC2000FFF7CCFE0028C5D090E706485C2117F04E
:10BC30007BFB08B15C21CBE70249CDE778300020DF
:10BC4000743000203D3F0400001001406D3F0400AF
:10BC5000C37D0A7830B5002B3DD0C37822F07F0237
:10BC600003F07F031A430A700B78027803F07F0316
:10BC700043EAC2130B70037863B38378083B5A42DC
:10BC80005A414B7803F07F0343EAC2134B708A7822
:10BC9000C58802F00302C5F3861442EA850223F048
:10BCA0007F032343D2B28A704B70CB78057A03F0BE
:10BCB0001F03C5F3C10422F0030243EA45132243E4
:10BCC000DBB2CB708A70427A23F01F0302F01F02AE
:10BCD0001343CB7030BDC47822F0400343EA841391
:10BCE000DBB20B70027923F03F0302F03F021343F3
:10BCF0000B70B9E72DE9F04F824689B00D4609B1C6
:10BD000000220A600AF10C039AF8504001930127BF
:10BD10004FF0000B9AF80900A04203D2002009B0AE
:10BD2000BDE8F08FDAF84C1007FA04F20A4264D149
:10BD30009AF81720019B8AF80840002A0CBF0C26AD
:10BD4000082684429AF80020029306FB04F908BFF3
:10BD5000BAF84A608DF818B008BFA6EB0906002AA9
:10BD600014BF4FF004084FF0010806EB08020492DC
:10BD7000DAF82820039202A8DAF82C20059203F0C2
:10BD80005CFF0028CBD1079A904454B99AF853200D
:10BD90003AB9DAF818208AF85370C2F30C02AAF8FC
:10BDA00006209AF817209AB99AF8522082B914B14D
:10BDB0007846FFF72FFCBAF84A109AF802208A1A40
:10BDC000DAF86C1053460846FFF7F5FC8AF8527013
:10BDD00007995046FFF73CFFDAF86C1032464944A9
:10BDE000404617F0C1F902A803F048FF15B12A68D0
:10BDF00001322A60621C8AF850200134E4B289E7DB
:10BE000038B590F84830012B044602D07846FFF749
:10BE100001FC02F0F5FE237B074A012B05BFD2E9A6
:10BE20000315A37DD16805FB0311014404F1300023
:10BE3000BDE8384002F0B2BE7C390020F0B5C37DC9
:10BE400016468278002B324414BF4FF480734FF4AF
:10BE5000C0739342C7B00F467DD3424B002493F882
:10BE60004810012907D19D8A818A8D4203D1DD893D
:10BE7000C1898D4271D00134042C03F17003EED1DD
:10BE80000121FFF7DBFC0546002844D03246394645
:10BE9000C06E17F069F9002304A928460493FFF740
:10BEA00029FF30F00404064650D1049B13B1284604
:10BEB000FFF7A6FF2C4B1B6813F004034FD02B4B4E
:10BEC0001B68032B27DDB5F84A00294B802805AAFB
:10BED0001F6828BF802000231646834202F1020219
:10BEE0001CD10022234806F813202F2117F01CFA3A
:10BEF00018B32F211F4817F017FA411C1E4B1F4A79
:10BF0000D3F8043501921E4A009202964FF4AC62B7
:10BF1000042004F0A3FC204647B0F0BDE96EC95CE4
:10BF20004FEA111C01F00F0117F80CC002F802CC07
:10BF3000795C02F8011C0133CFE70E485C2117F051
:10BF4000F3F908B15C21D5E70A49D7E72846FFF79E
:10BF5000D3FC3446DFE70924DDE70824DBE71C4691
:10BF6000D9E700BF943900207830002074300020D9
:10BF70007C3000203D3F040000100140963F04004B
:10BF8000523D0400F0B50D4691B0044610B9784614
:10BF9000FFF740FB94F84830022B18D1E188A069E4
:10BFA000FFF7BCFB284AE16913680F0A0E06591C0B
:10BFB0001160264A361803F007034FEA031147F1D0
:10BFC000000702EB0313A08A5052C3E902672C2238
:10BFD000002105A8666D17F0D5F8102305A88DF887
:10BFE000143006968DF81C5000F02EFE2046FFF708
:10BFF00083FC174B1B685B071BD5164B1B68032B79
:10C0000017DD15482F2117F08FF9A0B12F21124805
:10C0100017F08AF9411C114BD3F80435029594F8B6
:10C02000482001920E4A0092042040F2F31204F0DC
:10C0300015FC11B0F0BD08485C2117F075F908B186
:10C040005C21E4E70449E6E768390020E83800208D
:10C0500078300020743000203D3F04000010014083
:10C06000A43F040008460021FFF78CBF10B591F8EB
:10C070004830012B0C4602D07846FFF7CBFA94F8F3
:10C0800051305BB1013B84F85130002384F85030CB
:10C09000084BBDE81040186803F0F8BA217B01296D
:10C0A000204603D1BDE81040FFF76CBFBDE810404B
:10C0B000FFF73FBC783900202DE9F04306468FB0EA
:10C0C00010460F4615469846FFF7BCFC044600286C
:10C0D0005ED195F80390B9F1000F40F0AA80062FC9
:10C0E00056D130787378820102F4FE5242EA93020C
:10C0F000604B1F4693F84810012928D1B3F814C0AB
:10C10000E9898C4523D1D988914220D1B3F858C010
:10C11000A98ABCF1000F01D08C4518D110F0800F16
:10C12000D6F802204FF070033ED003FB0473A3F84F
:10C130005810702000FB047412BAE56C1543E564D6
:10C14000002A63D103212046FFF71CFF20E00134C1
:10C15000042C03F17003CDD1474B1B685B0717D547
:10C16000464B1B68012B13DD45482F2117F0DCF8E7
:10C1700088B12F21424817F0D7F8411C414B424A61
:10C18000D3F804350092022040F2796204F066FB95
:10C190000FB0BDE8F0833A485C2117F0C5F808B14C
:10C1A0005C21E7E73649E9E703FB0473DB898B424F
:10C1B000BFD0314B1B685A07EAD5304B1B68012BA7
:10C1C000E6DD2F482F2117F0AFF8B0B12F212C4812
:10C1D00017F0AAF8411C70202A4BAA8AD3F804351C
:10C1E000029200FB04740220E2890192274A009225
:10C1F00040F27D6204F032FBCAE721485C2117F06F
:10C2000093F808B15C21E2E71D49E4E72046FFF717
:10C21000C5FA854203D12046FFF78BFBB8E7002122
:10C2200084F850102046FFF765FD2046FFF7E8FD33
:10C23000AEE74846FFF77CFA02460028A8D0D5E9C9
:10C2400003012B6A0B93AB8AADF8223009AB83E86C
:10C250000300AB7D8DF830302B788DF82030EB6A01
:10C260008DF81490CDE906670D93414605A89047D7
:10C270008EE700BF94390020783000207430002011
:10C280003D3F040000100140C73F0400F53F04009B
:10C29000F0B589B005460E460192FFF764FB0446EF
:10C2A00038B92B78019A3BB131462846FFF7C6FDD5
:10C2B0000446204609B0F0BDE97DAB780192002923
:10C2C000134414BF0B210F218B4226D80133049352
:10C2D00005F10C030293AB6A03938DF81800EB6A27
:10C2E000059302A803F0A9FC04460028E1D10799B0
:10C2F00028464F1CFFF7ACFCEB7D019A3BB1314661
:10C30000384616F031FF02A803F0B8FCD1E72B46FF
:10C3100039463046FFF74FFAF5E70924C9E7000030
:10C3200010B54FF4E0720021134816F02BFF0024E3
:10C3300005F04EFB114B12481C602146802216F07E
:10C3400021FF104B1049114A11489C75C3E9001296
:10C3500010494CF25032C3E902211A6140F604023E
:10C360009A8203F075F90C4B18600C4B0C481C605A
:10C37000BDE8104005F05CBD94390020683900200C
:10C38000E83800207C39002080969800F0490200AF
:10C390007DCB020020A10700783900206C390020F5
:10C3A00071B7020005F034BB30B504468DB00028EB
:10C3B0005FD00369002B5CD0C369002B59D085691D
:10C3C000002D56D05A788DF804201A780993838A64
:10C3D00082F001020B2B8DF80320027B09D9012189
:10C3E000022A8DF8001001D1234A927D5AB9042205
:10C3F0000AE0C17A0029F2D1012A0CBF01220022F1
:10C400008DF8002031D1082213448DF802200B331F
:10C410000C22B3FBF2F3013B8DF8093000238DF8B9
:10C42000083094E8030000238DF8173003AB83E84D
:10C4300003002389ADF81430A37A8DF81630236AEF
:10C440000A932046DF2308950B9312F031FC28B1A4
:10C450002378012B14BFFF2320230B93A28A216989
:10C460006846FFF715FF0DB030BD04238DF802308C
:10C47000D7E70E20F7E700BF7C39002030B50A4629
:10C4800091B00446002860D04368002B5DD08569D8
:10C49000002D5AD003788DF8133000230D93836854
:10C4A0000B2B94BF017B012101F001008DF81000DE
:10C4B00000208DF8120031B10733DB08013B8DF805
:10C4C00019308DF81800D4E9040101238DF82730C4
:10C4D00007AB83E80300E389ADF82430237F8DF8B0
:10C4E0002630236A0C95CDE90E23194B1B685B0798
:10C4F0001BD5184B1B68062B17DD17482F2116F08C
:10C5000013FFC8B12F21144816F00EFF411C134B26
:10C51000A269D3F80435029222780192104A00925F
:10C52000072040F6050204F099F9D4E9011204A8A5
:10C53000FFF7AEFE11B030BD07485C2116F0F4FEE7
:10C5400008B15C21DFE70449E1E70E20F2E700BF14
:10C5500078300020743000203D3F0400001001407E
:10C560003640040070B5037B012B90B004460D46A5
:10C5700077D13D4B1B685B0718D53C4B1B68032BE1
:10C5800014DD3B482F2116F0CFFE00285ED02F216E
:10C59000374816F0C9FE411C364B374AD3F80435EC
:10C5A0000092042040F2632204F058F904AE0B22FA
:10C5B0000021304616F0E6FD9DF81130E28808961D
:10C5C00003F0030343EA82038DF811302B0E8DF83C
:10C5D00012302B0C8DF813306378022B0CBF8023A4
:10C5E0000023C2F3861242EA03024FF006030993C6
:10C5F0004FF001038DF82C30A38AADF82E304FF0A8
:10C6000000036DBA8DF810200C93226A8DF81C304F
:10C610008DF82830E36AADF814500D920F931ED1B7
:10C620000DF10E0103A812F033FBBDF80C30ADF88C
:10C630002A30A37D0BB1114B5B7D8DF838306FF044
:10C64000010107A8FFF71AFF10B070BD08485C2170
:10C6500016F06AFE08B15C219AE705499CE7E38978
:10C66000E5E70020F0E700BF7830002074300020BC
:10C670003D3F040000100140614004007C3900206F
:10C6800010B591F84830022B0C4602D07846FEF7E0
:10C69000C1FF022384F8683094F84830022B06D199
:10C6A000E16C2046FFF75EFF08B984F8680010BD12
:10C6B0002DE9F04F0D469DB01746984604460028D8
:10C6C00000F05882002A00F0558221B90926304630
:10C6D0001DB0BDE8F08F1822394613A816F044FDAE
:10C6E000237894F900100020DA0981428DF8402067
:10C6F000B4BF0422012295428DF84100E6D39DF893
:10C700005760EEB103F07F0381428DF843308DF81E
:10C7100042002EDA6278A378920102F4FE5242EAD5
:10C720009302ADF84620DB00E27803F0180343EAF9
:10C73000521302F01F028DF848308DF8492018E09E
:10C74000C3F38010002903F03F038DF843008DF8F8
:10C75000443008DA94F90130002BB4BF08230423D5
:10C760008DF84230D6E704231A4495428DF84230C2
:10C77000ACD30023199398F80030032B02D97846E4
:10C78000FEF748FF98F80020CB4B10A853F8223052
:10C790001B93FFF7E8F80646002898D101460822C7
:10C7A00003A816F0EFFC788803A912F0CDF928B1A0
:10C7B0009DF8413043F001038DF84130D7E9031271
:10C7C000388905F071F9002855D19DF84130002BCA
:10C7D0003FF47DAF13F001031CBF049A14929DF83F
:10C7E0004020002A00F0B481BDF846101698FEF7EC
:10C7F00095FF179BBDF854C0B0494FEA036A4FEA52
:10C80000132B1AEB000A4FF000074BF1000B0B88BB
:10C81000634506D1D1E902239B4508BF92453FF409
:10C8200056AF0137082F01F11001F0D1A44B4FF0A2
:10C830000009184693F84820022A25D19A8A6245B1
:10C8400022D1702303FB0909B9F80610D9F81800A2
:10C85000FEF764FFD9F81C100A0612184FEA1123DC
:10C8600043F100035B4508BF524535D205214846D8
:10C87000FFF788FB0FE09DF8413003F0FE038DF8D1
:10C880004130002BA1D122E709F10109B9F1040FD0
:10C8900003F17003CED1DDE91612BDF84630BDF8C4
:10C8A000540005F02BF9002800F0C980DDE91612CC
:10C8B000BDF84630BDF8540005F050F900283FF4AB
:10C8C00006AF10A8FEF76AFF014610A8FFF74AFE60
:10C8D00010A8FFF7B7F8FAE69B4508BF9245FFF4AA
:10C8E000F6AE784B1B685B071CD5774B1B68032B98
:10C8F00018DD76482F2116F017FD002800F00E8174
:10C900002F21724816F010FD411C714B9DF84820F4
:10C91000D3F8043501926F4A0092042040F2A3320A
:10C9200003F09CFF99F84830022B02D07846FEF7BE
:10C9300071FEDFF8A8A1DAF800B002F061F90BEBA4
:10C94000000109F1300002F029F999F80C30012BAF
:10C950001AD199F86830BBB999F84830022B02D047
:10C960007846FEF757FEDAE901329AF8151002FB15
:10C97000013A02F045F900EB0A0109F1500002F01A
:10C980000DF9012389F868309DF84810D9F84C302A
:10C9900001228A4013EA020A7FF499AE1343C9F8D0
:10C9A0004C309DF8573099F80920002B14BF4FF0F8
:10C9B000080E4FF00C0E8A42A5F104050EFB01FE95
:10C9C00040F0B5800EEB0503A9F84A30D9F81820DD
:10C9D000169B9A420AD20DF14C0CBCE80F0009F1EB
:10C9E0000C070FC79CE8030087E80300D9F86C0028
:10C9F000211D2A46704416F0B7FB4846D9F84C4032
:10CA0000FEF7CCFE84427FF462AED9F84C10484663
:10CA1000FFF7A8FD99F80130DA070CD599F817301F
:10CA2000D9F86C00B9F84A10002B00F08C8043460E
:10CA30004A46FFF741FB4846FEF75EFF81E09DF85E
:10CA400057209DF84930002A14BF4FF008094FF0D5
:10CA50000C0903FB099914BF4FF480734FF4C073A2
:10CA600099453DD9174B1B6859077FF530AE164BDA
:10CA70001B68002B7FF72BAE14482F2116F054FCB7
:10CA800088B12F21114816F04FFC411C104B124A5F
:10CA9000D3F804350092CDF8049040F27F320120A3
:10CAA00003F0DCFE13E609485C2116F03DFC08B1FA
:10CAB0005C21E7E70549E9E798400400E8380020F1
:10CAC0009439002078300020743000203D3F04006D
:10CAD0000010014085400400714004007C390020B2
